{
  "_format": "hh-sol-artifact-1",
  "contractName": "NFT",
  "sourceName": "contracts/NFT.sol",
  "abi": [
    {
      "inputs": [],
      "stateMutability": "nonpayable",
      "type": "constructor"
    },
    {
      "anonymous": false,
      "inputs": [
        {
          "indexed": true,
          "internalType": "address",
          "name": "account",
          "type": "address"
        },
        {
          "indexed": true,
          "internalType": "address",
          "name": "operator",
          "type": "address"
        },
        {
          "indexed": false,
          "internalType": "bool",
          "name": "approved",
          "type": "bool"
        }
      ],
      "name": "ApprovalForAll",
      "type": "event"
    },
    {
      "anonymous": false,
      "inputs": [
        {
          "indexed": true,
          "internalType": "address",
          "name": "previousOwner",
          "type": "address"
        },
        {
          "indexed": true,
          "internalType": "address",
          "name": "newOwner",
          "type": "address"
        }
      ],
      "name": "OwnershipTransferred",
      "type": "event"
    },
    {
      "anonymous": false,
      "inputs": [
        {
          "indexed": true,
          "internalType": "address",
          "name": "operator",
          "type": "address"
        },
        {
          "indexed": true,
          "internalType": "address",
          "name": "from",
          "type": "address"
        },
        {
          "indexed": true,
          "internalType": "address",
          "name": "to",
          "type": "address"
        },
        {
          "indexed": false,
          "internalType": "uint256[]",
          "name": "ids",
          "type": "uint256[]"
        },
        {
          "indexed": false,
          "internalType": "uint256[]",
          "name": "values",
          "type": "uint256[]"
        }
      ],
      "name": "TransferBatch",
      "type": "event"
    },
    {
      "anonymous": false,
      "inputs": [
        {
          "indexed": true,
          "internalType": "address",
          "name": "operator",
          "type": "address"
        },
        {
          "indexed": true,
          "internalType": "address",
          "name": "from",
          "type": "address"
        },
        {
          "indexed": true,
          "internalType": "address",
          "name": "to",
          "type": "address"
        },
        {
          "indexed": false,
          "internalType": "uint256",
          "name": "id",
          "type": "uint256"
        },
        {
          "indexed": false,
          "internalType": "uint256",
          "name": "value",
          "type": "uint256"
        }
      ],
      "name": "TransferSingle",
      "type": "event"
    },
    {
      "anonymous": false,
      "inputs": [
        {
          "indexed": false,
          "internalType": "string",
          "name": "value",
          "type": "string"
        },
        {
          "indexed": true,
          "internalType": "uint256",
          "name": "id",
          "type": "uint256"
        }
      ],
      "name": "URI",
      "type": "event"
    },
    {
      "inputs": [
        {
          "internalType": "address",
          "name": "account",
          "type": "address"
        },
        {
          "internalType": "uint256",
          "name": "id",
          "type": "uint256"
        }
      ],
      "name": "balanceOf",
      "outputs": [
        {
          "internalType": "uint256",
          "name": "",
          "type": "uint256"
        }
      ],
      "stateMutability": "view",
      "type": "function"
    },
    {
      "inputs": [
        {
          "internalType": "address[]",
          "name": "accounts",
          "type": "address[]"
        },
        {
          "internalType": "uint256[]",
          "name": "ids",
          "type": "uint256[]"
        }
      ],
      "name": "balanceOfBatch",
      "outputs": [
        {
          "internalType": "uint256[]",
          "name": "",
          "type": "uint256[]"
        }
      ],
      "stateMutability": "view",
      "type": "function"
    },
    {
      "inputs": [
        {
          "internalType": "uint256",
          "name": "_id",
          "type": "uint256"
        },
        {
          "internalType": "uint256",
          "name": "_amount",
          "type": "uint256"
        }
      ],
      "name": "burn",
      "outputs": [],
      "stateMutability": "nonpayable",
      "type": "function"
    },
    {
      "inputs": [
        {
          "internalType": "uint256[]",
          "name": "_ids",
          "type": "uint256[]"
        },
        {
          "internalType": "uint256[]",
          "name": "_amounts",
          "type": "uint256[]"
        }
      ],
      "name": "burnBatch",
      "outputs": [],
      "stateMutability": "nonpayable",
      "type": "function"
    },
    {
      "inputs": [
        {
          "internalType": "address",
          "name": "_from",
          "type": "address"
        },
        {
          "internalType": "uint256[]",
          "name": "_burnIds",
          "type": "uint256[]"
        },
        {
          "internalType": "uint256[]",
          "name": "_burnAmounts",
          "type": "uint256[]"
        },
        {
          "internalType": "uint256[]",
          "name": "_mintIds",
          "type": "uint256[]"
        },
        {
          "internalType": "uint256[]",
          "name": "_mintAmounts",
          "type": "uint256[]"
        }
      ],
      "name": "burnForMint",
      "outputs": [],
      "stateMutability": "nonpayable",
      "type": "function"
    },
    {
      "inputs": [
        {
          "internalType": "address",
          "name": "account",
          "type": "address"
        },
        {
          "internalType": "address",
          "name": "operator",
          "type": "address"
        }
      ],
      "name": "isApprovedForAll",
      "outputs": [
        {
          "internalType": "bool",
          "name": "",
          "type": "bool"
        }
      ],
      "stateMutability": "view",
      "type": "function"
    },
    {
      "inputs": [],
      "name": "name",
      "outputs": [
        {
          "internalType": "string",
          "name": "",
          "type": "string"
        }
      ],
      "stateMutability": "view",
      "type": "function"
    },
    {
      "inputs": [
        {
          "internalType": "uint256",
          "name": "count",
          "type": "uint256"
        },
        {
          "internalType": "uint256[]",
          "name": "amounts",
          "type": "uint256[]"
        },
        {
          "internalType": "string[]",
          "name": "ipfsHashes",
          "type": "string[]"
        }
      ],
      "name": "newBatch",
      "outputs": [],
      "stateMutability": "nonpayable",
      "type": "function"
    },
    {
      "inputs": [],
      "name": "owner",
      "outputs": [
        {
          "internalType": "address",
          "name": "",
          "type": "address"
        }
      ],
      "stateMutability": "view",
      "type": "function"
    },
    {
      "inputs": [],
      "name": "renounceOwnership",
      "outputs": [],
      "stateMutability": "nonpayable",
      "type": "function"
    },
    {
      "inputs": [
        {
          "internalType": "address",
          "name": "from",
          "type": "address"
        },
        {
          "internalType": "address",
          "name": "to",
          "type": "address"
        },
        {
          "internalType": "uint256[]",
          "name": "ids",
          "type": "uint256[]"
        },
        {
          "internalType": "uint256[]",
          "name": "amounts",
          "type": "uint256[]"
        },
        {
          "internalType": "bytes",
          "name": "data",
          "type": "bytes"
        }
      ],
      "name": "safeBatchTransferFrom",
      "outputs": [],
      "stateMutability": "nonpayable",
      "type": "function"
    },
    {
      "inputs": [
        {
          "internalType": "address",
          "name": "from",
          "type": "address"
        },
        {
          "internalType": "address",
          "name": "to",
          "type": "address"
        },
        {
          "internalType": "uint256",
          "name": "id",
          "type": "uint256"
        },
        {
          "internalType": "uint256",
          "name": "amount",
          "type": "uint256"
        },
        {
          "internalType": "bytes",
          "name": "data",
          "type": "bytes"
        }
      ],
      "name": "safeTransferFrom",
      "outputs": [],
      "stateMutability": "nonpayable",
      "type": "function"
    },
    {
      "inputs": [
        {
          "internalType": "address",
          "name": "operator",
          "type": "address"
        },
        {
          "internalType": "bool",
          "name": "approved",
          "type": "bool"
        }
      ],
      "name": "setApprovalForAll",
      "outputs": [],
      "stateMutability": "nonpayable",
      "type": "function"
    },
    {
      "inputs": [
        {
          "internalType": "bytes4",
          "name": "interfaceId",
          "type": "bytes4"
        }
      ],
      "name": "supportsInterface",
      "outputs": [
        {
          "internalType": "bool",
          "name": "",
          "type": "bool"
        }
      ],
      "stateMutability": "view",
      "type": "function"
    },
    {
      "inputs": [],
      "name": "symbol",
      "outputs": [
        {
          "internalType": "string",
          "name": "",
          "type": "string"
        }
      ],
      "stateMutability": "view",
      "type": "function"
    },
    {
      "inputs": [
        {
          "internalType": "uint256",
          "name": "",
          "type": "uint256"
        }
      ],
      "name": "tokenURI",
      "outputs": [
        {
          "internalType": "string",
          "name": "",
          "type": "string"
        }
      ],
      "stateMutability": "view",
      "type": "function"
    },
    {
      "inputs": [
        {
          "internalType": "address",
          "name": "newOwner",
          "type": "address"
        }
      ],
      "name": "transferOwnership",
      "outputs": [],
      "stateMutability": "nonpayable",
      "type": "function"
    },
    {
      "inputs": [
        {
          "internalType": "uint256",
          "name": "_id",
          "type": "uint256"
        }
      ],
      "name": "uri",
      "outputs": [
        {
          "internalType": "string",
          "name": "",
          "type": "string"
        }
      ],
      "stateMutability": "view",
      "type": "function"
    }
  ],
  "bytecode": "0x60806040523480156200001157600080fd5b50604051806020016040528060008152506200003381620000e860201b60201c565b506200005462000048620000fd60201b60201c565b6200010560201b60201c565b6040518060400160405280600e81526020017f526f626f742044726f70204e4654000000000000000000000000000000000000815250600490816200009a919062000445565b506040518060400160405280600781526020017f5244284e4654290000000000000000000000000000000000000000000000000081525060059081620000e1919062000445565b506200052c565b8060029081620000f9919062000445565b5050565b600033905090565b6000600360009054906101000a900473ffffffffffffffffffffffffffffffffffffffff16905081600360006101000a81548173ffffffffffffffffffffffffffffffffffffffff021916908373ffffffffffffffffffffffffffffffffffffffff1602179055508173ffffffffffffffffffffffffffffffffffffffff168173ffffffffffffffffffffffffffffffffffffffff167f8be0079c531659141344cd1fd0a4f28419497f9722a3daafe3b4186f6b6457e060405160405180910390a35050565b600081519050919050565b7f4e487b7100000000000000000000000000000000000000000000000000000000600052604160045260246000fd5b7f4e487b7100000000000000000000000000000000000000000000000000000000600052602260045260246000fd5b600060028204905060018216806200024d57607f821691505b60208210810362000263576200026262000205565b5b50919050565b60008190508160005260206000209050919050565b60006020601f8301049050919050565b600082821b905092915050565b600060088302620002cd7fffffffffffffffffffffffffffffffffffffffffffffffffffffffffffffffff826200028e565b620002d986836200028e565b95508019841693508086168417925050509392505050565b6000819050919050565b6000819050919050565b600062000326620003206200031a84620002f1565b620002fb565b620002f1565b9050919050565b6000819050919050565b620003428362000305565b6200035a62000351826200032d565b8484546200029b565b825550505050565b600090565b6200037162000362565b6200037e81848462000337565b505050565b5b81811015620003a6576200039a60008262000367565b60018101905062000384565b5050565b601f821115620003f557620003bf8162000269565b620003ca846200027e565b81016020851015620003da578190505b620003f2620003e9856200027e565b83018262000383565b50505b505050565b600082821c905092915050565b60006200041a60001984600802620003fa565b1980831691505092915050565b600062000435838362000407565b9150826002028217905092915050565b6200045082620001cb565b67ffffffffffffffff8111156200046c576200046b620001d6565b5b62000478825462000234565b62000485828285620003aa565b600060209050601f831160018114620004bd5760008415620004a8578287015190505b620004b4858262000427565b86555062000524565b601f198416620004cd8662000269565b60005b82811015620004f757848901518255600182019150602085019450602081019050620004d0565b8683101562000517578489015162000513601f89168262000407565b8355505b6001600288020188555050505b505050505050565b613d69806200053c6000396000f3fe608060405234801561001057600080fd5b50600436106101155760003560e01c80638da5cb5b116100a2578063c87b56dd11610071578063c87b56dd146102ca578063e985e9c5146102fa578063ec9f36f91461032a578063f242432a14610346578063f2fde38b1461036257610115565b80638da5cb5b1461025657806395d89b4114610274578063a22cb46514610292578063b390c0ab146102ae57610115565b80632eb2c2d6116100e95780632eb2c2d6146101c85780634e1273f4146101e4578063510f410414610214578063715018a61461023057806383ca4b6f1461023a57610115565b8062fdd58e1461011a57806301ffc9a71461014a57806306fdde031461017a5780630e89341c14610198575b600080fd5b610134600480360381019061012f91906122b6565b61037e565b6040516101419190612305565b60405180910390f35b610164600480360381019061015f9190612378565b610446565b60405161017191906123c0565b60405180910390f35b610182610528565b60405161018f919061246b565b60405180910390f35b6101b260048036038101906101ad919061248d565b6105b6565b6040516101bf919061246b565b60405180910390f35b6101e260048036038101906101dd91906126b7565b61065b565b005b6101fe60048036038101906101f99190612849565b6106fc565b60405161020b919061297f565b60405180910390f35b61022e600480360381019061022991906129a1565b610815565b005b61023861084a565b005b610254600480360381019061024f9190612a8c565b61085e565b005b61025e61086d565b60405161026b9190612b13565b60405180910390f35b61027c610897565b604051610289919061246b565b60405180910390f35b6102ac60048036038101906102a79190612b5a565b610925565b005b6102c860048036038101906102c39190612b9a565b61093b565b005b6102e460048036038101906102df919061248d565b61094a565b6040516102f1919061246b565b60405180910390f35b610314600480360381019061030f9190612bda565b6109ea565b60405161032191906123c0565b60405180910390f35b610344600480360381019061033f9190612d9c565b610a7e565b005b610360600480360381019061035b9190612e27565b610bdf565b005b61037c60048036038101906103779190612ebe565b610c80565b005b60008073ffffffffffffffffffffffffffffffffffffffff168373ffffffffffffffffffffffffffffffffffffffff16036103ee576040517f08c379a00000000000000000000000000000000000000000000000000000000081526004016103e590612f5d565b60405180910390fd5b60008083815260200190815260200160002060008473ffffffffffffffffffffffffffffffffffffffff1673ffffffffffffffffffffffffffffffffffffffff16815260200190815260200160002054905092915050565b60007fd9b67a26000000000000000000000000000000000000000000000000000000007bffffffffffffffffffffffffffffffffffffffffffffffffffffffff1916827bffffffffffffffffffffffffffffffffffffffffffffffffffffffff1916148061051157507f0e89341c000000000000000000000000000000000000000000000000000000007bffffffffffffffffffffffffffffffffffffffffffffffffffffffff1916827bffffffffffffffffffffffffffffffffffffffffffffffffffffffff1916145b80610521575061052082610d03565b5b9050919050565b6004805461053590612fac565b80601f016020809104026020016040519081016040528092919081815260200182805461056190612fac565b80156105ae5780601f10610583576101008083540402835291602001916105ae565b820191906000526020600020905b81548152906001019060200180831161059157829003601f168201915b505050505081565b60606006600083815260200190815260200160002080546105d690612fac565b80601f016020809104026020016040519081016040528092919081815260200182805461060290612fac565b801561064f5780601f106106245761010080835404028352916020019161064f565b820191906000526020600020905b81548152906001019060200180831161063257829003601f168201915b50505050509050919050565b610663610d6d565b73ffffffffffffffffffffffffffffffffffffffff168573ffffffffffffffffffffffffffffffffffffffff1614806106a957506106a8856106a3610d6d565b6109ea565b5b6106e8576040517f08c379a00000000000000000000000000000000000000000000000000000000081526004016106df9061304f565b60405180910390fd5b6106f58585858585610d75565b5050505050565b60608151835114610742576040517f08c379a0000000000000000000000000000000000000000000000000000000008152600401610739906130e1565b60405180910390fd5b6000835167ffffffffffffffff81111561075f5761075e6124bf565b5b60405190808252806020026020018201604052801561078d5781602001602082028036833780820191505090505b50905060005b845181101561080a576107da8582815181106107b2576107b1613101565b5b60200260200101518583815181106107cd576107cc613101565b5b602002602001015161037e565b8282815181106107ed576107ec613101565b5b602002602001018181525050806108039061315f565b9050610793565b508091505092915050565b61081d611096565b610828858585611114565b610843858383604051806020016040528060008152506113e2565b5050505050565b610852611096565b61085c600061160e565b565b610869338383611114565b5050565b6000600360009054906101000a900473ffffffffffffffffffffffffffffffffffffffff16905090565b600580546108a490612fac565b80601f01602080910402602001604051908101604052809291908181526020018280546108d090612fac565b801561091d5780601f106108f25761010080835404028352916020019161091d565b820191906000526020600020905b81548152906001019060200180831161090057829003601f168201915b505050505081565b610937610930610d6d565b83836116d4565b5050565b610946338383611840565b5050565b6006602052806000526040600020600091509050805461096990612fac565b80601f016020809104026020016040519081016040528092919081815260200182805461099590612fac565b80156109e25780601f106109b7576101008083540402835291602001916109e2565b820191906000526020600020905b8154815290600101906020018083116109c557829003601f168201915b505050505081565b6000600160008473ffffffffffffffffffffffffffffffffffffffff1673ffffffffffffffffffffffffffffffffffffffff16815260200190815260200160002060008373ffffffffffffffffffffffffffffffffffffffff1673ffffffffffffffffffffffffffffffffffffffff16815260200190815260200160002060009054906101000a900460ff16905092915050565b60008367ffffffffffffffff811115610a9a57610a996124bf565b5b604051908082528060200260200182016040528015610ac85781602001602082028036833780820191505090505b50905060005b8151811015610b54576000610ae36007611a86565b9050610aef6007611a94565b806000848481518110610b0557610b04613101565b5b6020026020010151610b1791906131a7565b610b2191906131e9565b838381518110610b3457610b33613101565b5b602002602001018181525050508080610b4c9061315f565b915050610ace565b50610b6f818460405180602001604052806000815250611aaa565b60005b8151811015610bd8576000828281518110610b9057610b8f613101565b5b602002602001015190506000848381518110610baf57610bae613101565b5b60200260200101519050610bc38282611abb565b50508080610bd09061315f565b915050610b72565b5050505050565b610be7610d6d565b73ffffffffffffffffffffffffffffffffffffffff168573ffffffffffffffffffffffffffffffffffffffff161480610c2d5750610c2c85610c27610d6d565b6109ea565b5b610c6c576040517f08c379a0000000000000000000000000000000000000000000000000000000008152600401610c639061304f565b60405180910390fd5b610c798585858585611b18565b5050505050565b610c88611096565b600073ffffffffffffffffffffffffffffffffffffffff168173ffffffffffffffffffffffffffffffffffffffff1603610cf7576040517f08c379a0000000000000000000000000000000000000000000000000000000008152600401610cee9061328f565b60405180910390fd5b610d008161160e565b50565b60007f01ffc9a7000000000000000000000000000000000000000000000000000000007bffffffffffffffffffffffffffffffffffffffffffffffffffffffff1916827bffffffffffffffffffffffffffffffffffffffffffffffffffffffff1916149050919050565b600033905090565b8151835114610db9576040517f08c379a0000000000000000000000000000000000000000000000000000000008152600401610db090613321565b60405180910390fd5b600073ffffffffffffffffffffffffffffffffffffffff168473ffffffffffffffffffffffffffffffffffffffff1603610e28576040517f08c379a0000000000000000000000000000000000000000000000000000000008152600401610e1f906133b3565b60405180910390fd5b6000610e32610d6d565b9050610e42818787878787611db3565b60005b8451811015610ff3576000858281518110610e6357610e62613101565b5b602002602001015190506000858381518110610e8257610e81613101565b5b60200260200101519050600080600084815260200190815260200160002060008b73ffffffffffffffffffffffffffffffffffffffff1673ffffffffffffffffffffffffffffffffffffffff16815260200190815260200160002054905081811015610f23576040517f08c379a0000000000000000000000000000000000000000000000000000000008152600401610f1a90613445565b60405180910390fd5b81810360008085815260200190815260200160002060008c73ffffffffffffffffffffffffffffffffffffffff1673ffffffffffffffffffffffffffffffffffffffff168152602001908152602001600020819055508160008085815260200190815260200160002060008b73ffffffffffffffffffffffffffffffffffffffff1673ffffffffffffffffffffffffffffffffffffffff1681526020019081526020016000206000828254610fd891906131e9565b9250508190555050505080610fec9061315f565b9050610e45565b508473ffffffffffffffffffffffffffffffffffffffff168673ffffffffffffffffffffffffffffffffffffffff168273ffffffffffffffffffffffffffffffffffffffff167f4a39dc06d4c0dbc64b70af90fd698a233a518aa5d07e595d983b8c0526c8f7fb878760405161106a929190613465565b60405180910390a4611080818787878787611dbb565b61108e818787878787611dc3565b505050505050565b61109e610d6d565b73ffffffffffffffffffffffffffffffffffffffff166110bc61086d565b73ffffffffffffffffffffffffffffffffffffffff1614611112576040517f08c379a0000000000000000000000000000000000000000000000000000000008152600401611109906134e8565b60405180910390fd5b565b600073ffffffffffffffffffffffffffffffffffffffff168373ffffffffffffffffffffffffffffffffffffffff1603611183576040517f08c379a000000000000000000000000000000000000000000000000000000000815260040161117a9061357a565b60405180910390fd5b80518251146111c7576040517f08c379a00000000000000000000000000000000000000000000000000000000081526004016111be90613321565b60405180910390fd5b60006111d1610d6d565b90506111f181856000868660405180602001604052806000815250611db3565b60005b835181101561133e57600084828151811061121257611211613101565b5b60200260200101519050600084838151811061123157611230613101565b5b60200260200101519050600080600084815260200190815260200160002060008973ffffffffffffffffffffffffffffffffffffffff1673ffffffffffffffffffffffffffffffffffffffff168152602001908152602001600020549050818110156112d2576040517f08c379a00000000000000000000000000000000000000000000000000000000081526004016112c99061360c565b60405180910390fd5b81810360008085815260200190815260200160002060008a73ffffffffffffffffffffffffffffffffffffffff1673ffffffffffffffffffffffffffffffffffffffff1681526020019081526020016000208190555050505080806113369061315f565b9150506111f4565b50600073ffffffffffffffffffffffffffffffffffffffff168473ffffffffffffffffffffffffffffffffffffffff168273ffffffffffffffffffffffffffffffffffffffff167f4a39dc06d4c0dbc64b70af90fd698a233a518aa5d07e595d983b8c0526c8f7fb86866040516113b6929190613465565b60405180910390a46113dc81856000868660405180602001604052806000815250611dbb565b50505050565b600073ffffffffffffffffffffffffffffffffffffffff168473ffffffffffffffffffffffffffffffffffffffff1603611451576040517f08c379a00000000000000000000000000000000000000000000000000000000081526004016114489061369e565b60405180910390fd5b8151835114611495576040517f08c379a000000000000000000000000000000000000000000000000000000000815260040161148c90613321565b60405180910390fd5b600061149f610d6d565b90506114b081600087878787611db3565b60005b8451811015611569578381815181106114cf576114ce613101565b5b60200260200101516000808784815181106114ed576114ec613101565b5b6020026020010151815260200190815260200160002060008873ffffffffffffffffffffffffffffffffffffffff1673ffffffffffffffffffffffffffffffffffffffff168152602001908152602001600020600082825461154f91906131e9565b9250508190555080806115619061315f565b9150506114b3565b508473ffffffffffffffffffffffffffffffffffffffff16600073ffffffffffffffffffffffffffffffffffffffff168273ffffffffffffffffffffffffffffffffffffffff167f4a39dc06d4c0dbc64b70af90fd698a233a518aa5d07e595d983b8c0526c8f7fb87876040516115e1929190613465565b60405180910390a46115f881600087878787611dbb565b61160781600087878787611dc3565b5050505050565b6000600360009054906101000a900473ffffffffffffffffffffffffffffffffffffffff16905081600360006101000a81548173ffffffffffffffffffffffffffffffffffffffff021916908373ffffffffffffffffffffffffffffffffffffffff1602179055508173ffffffffffffffffffffffffffffffffffffffff168173ffffffffffffffffffffffffffffffffffffffff167f8be0079c531659141344cd1fd0a4f28419497f9722a3daafe3b4186f6b6457e060405160405180910390a35050565b8173ffffffffffffffffffffffffffffffffffffffff168373ffffffffffffffffffffffffffffffffffffffff1603611742576040517f08c379a000000000000000000000000000000000000000000000000000000000815260040161173990613730565b60405180910390fd5b80600160008573ffffffffffffffffffffffffffffffffffffffff1673ffffffffffffffffffffffffffffffffffffffff16815260200190815260200160002060008473ffffffffffffffffffffffffffffffffffffffff1673ffffffffffffffffffffffffffffffffffffffff16815260200190815260200160002060006101000a81548160ff0219169083151502179055508173ffffffffffffffffffffffffffffffffffffffff168373ffffffffffffffffffffffffffffffffffffffff167f17307eab39ab6107e8899845ad3d59bd9653f200f220920489ca2b5937696c318360405161183391906123c0565b60405180910390a3505050565b600073ffffffffffffffffffffffffffffffffffffffff168373ffffffffffffffffffffffffffffffffffffffff16036118af576040517f08c379a00000000000000000000000000000000000000000000000000000000081526004016118a69061357a565b60405180910390fd5b60006118b9610d6d565b905060006118c684611f9a565b905060006118d384611f9a565b90506118f383876000858560405180602001604052806000815250611db3565b600080600087815260200190815260200160002060008873ffffffffffffffffffffffffffffffffffffffff1673ffffffffffffffffffffffffffffffffffffffff1681526020019081526020016000205490508481101561198a576040517f08c379a00000000000000000000000000000000000000000000000000000000081526004016119819061360c565b60405180910390fd5b84810360008088815260200190815260200160002060008973ffffffffffffffffffffffffffffffffffffffff1673ffffffffffffffffffffffffffffffffffffffff16815260200190815260200160002081905550600073ffffffffffffffffffffffffffffffffffffffff168773ffffffffffffffffffffffffffffffffffffffff168573ffffffffffffffffffffffffffffffffffffffff167fc3d58168c5ae7397731d063d5bbf3d657854427343f4c083240f7aacaa2d0f628989604051611a57929190613750565b60405180910390a4611a7d84886000868660405180602001604052806000815250611dbb565b50505050505050565b600081600001549050919050565b6001816000016000828254019250508190555050565b611ab6338484846113e2565b505050565b80600660008481526020019081526020016000209081611adb9190613925565b50817f6bb7ff708619ba0610cba295a58592e0451dee2622938c8755667688daf3529b82604051611b0c919061246b565b60405180910390a25050565b600073ffffffffffffffffffffffffffffffffffffffff168473ffffffffffffffffffffffffffffffffffffffff1603611b87576040517f08c379a0000000000000000000000000000000000000000000000000000000008152600401611b7e906133b3565b60405180910390fd5b6000611b91610d6d565b90506000611b9e85611f9a565b90506000611bab85611f9a565b9050611bbb838989858589611db3565b600080600088815260200190815260200160002060008a73ffffffffffffffffffffffffffffffffffffffff1673ffffffffffffffffffffffffffffffffffffffff16815260200190815260200160002054905085811015611c52576040517f08c379a0000000000000000000000000000000000000000000000000000000008152600401611c4990613445565b60405180910390fd5b85810360008089815260200190815260200160002060008b73ffffffffffffffffffffffffffffffffffffffff1673ffffffffffffffffffffffffffffffffffffffff168152602001908152602001600020819055508560008089815260200190815260200160002060008a73ffffffffffffffffffffffffffffffffffffffff1673ffffffffffffffffffffffffffffffffffffffff1681526020019081526020016000206000828254611d0791906131e9565b925050819055508773ffffffffffffffffffffffffffffffffffffffff168973ffffffffffffffffffffffffffffffffffffffff168573ffffffffffffffffffffffffffffffffffffffff167fc3d58168c5ae7397731d063d5bbf3d657854427343f4c083240f7aacaa2d0f628a8a604051611d84929190613750565b60405180910390a4611d9a848a8a86868a611dbb565b611da8848a8a8a8a8a612014565b505050505050505050565b505050505050565b505050505050565b611de28473ffffffffffffffffffffffffffffffffffffffff166121eb565b15611f92578373ffffffffffffffffffffffffffffffffffffffff1663bc197c8187878686866040518663ffffffff1660e01b8152600401611e28959493929190613a4c565b6020604051808303816000875af1925050508015611e6457506040513d601f19601f82011682018060405250810190611e619190613ac9565b60015b611f0957611e70613b03565b806308c379a003611ecc5750611e84613b25565b80611e8f5750611ece565b806040517f08c379a0000000000000000000000000000000000000000000000000000000008152600401611ec3919061246b565b60405180910390fd5b505b6040517f08c379a0000000000000000000000000000000000000000000000000000000008152600401611f0090613c27565b60405180910390fd5b63bc197c8160e01b7bffffffffffffffffffffffffffffffffffffffffffffffffffffffff1916817bffffffffffffffffffffffffffffffffffffffffffffffffffffffff191614611f90576040517f08c379a0000000000000000000000000000000000000000000000000000000008152600401611f8790613cb9565b60405180910390fd5b505b505050505050565b60606000600167ffffffffffffffff811115611fb957611fb86124bf565b5b604051908082528060200260200182016040528015611fe75781602001602082028036833780820191505090505b5090508281600081518110611fff57611ffe613101565b5b60200260200101818152505080915050919050565b6120338473ffffffffffffffffffffffffffffffffffffffff166121eb565b156121e3578373ffffffffffffffffffffffffffffffffffffffff1663f23a6e6187878686866040518663ffffffff1660e01b8152600401612079959493929190613cd9565b6020604051808303816000875af19250505080156120b557506040513d601f19601f820116820180604052508101906120b29190613ac9565b60015b61215a576120c1613b03565b806308c379a00361211d57506120d5613b25565b806120e0575061211f565b806040517f08c379a0000000000000000000000000000000000000000000000000000000008152600401612114919061246b565b60405180910390fd5b505b6040517f08c379a000000000000000000000000000000000000000000000000000000000815260040161215190613c27565b60405180910390fd5b63f23a6e6160e01b7bffffffffffffffffffffffffffffffffffffffffffffffffffffffff1916817bffffffffffffffffffffffffffffffffffffffffffffffffffffffff1916146121e1576040517f08c379a00000000000000000000000000000000000000000000000000000000081526004016121d890613cb9565b60405180910390fd5b505b505050505050565b6000808273ffffffffffffffffffffffffffffffffffffffff163b119050919050565b6000604051905090565b600080fd5b600080fd5b600073ffffffffffffffffffffffffffffffffffffffff82169050919050565b600061224d82612222565b9050919050565b61225d81612242565b811461226857600080fd5b50565b60008135905061227a81612254565b92915050565b6000819050919050565b61229381612280565b811461229e57600080fd5b50565b6000813590506122b08161228a565b92915050565b600080604083850312156122cd576122cc612218565b5b60006122db8582860161226b565b92505060206122ec858286016122a1565b9150509250929050565b6122ff81612280565b82525050565b600060208201905061231a60008301846122f6565b92915050565b60007fffffffff0000000000000000000000000000000000000000000000000000000082169050919050565b61235581612320565b811461236057600080fd5b50565b6000813590506123728161234c565b92915050565b60006020828403121561238e5761238d612218565b5b600061239c84828501612363565b91505092915050565b60008115159050919050565b6123ba816123a5565b82525050565b60006020820190506123d560008301846123b1565b92915050565b600081519050919050565b600082825260208201905092915050565b60005b838110156124155780820151818401526020810190506123fa565b60008484015250505050565b6000601f19601f8301169050919050565b600061243d826123db565b61244781856123e6565b93506124578185602086016123f7565b61246081612421565b840191505092915050565b600060208201905081810360008301526124858184612432565b905092915050565b6000602082840312156124a3576124a2612218565b5b60006124b1848285016122a1565b91505092915050565b600080fd5b7f4e487b7100000000000000000000000000000000000000000000000000000000600052604160045260246000fd5b6124f782612421565b810181811067ffffffffffffffff82111715612516576125156124bf565b5b80604052505050565b600061252961220e565b905061253582826124ee565b919050565b600067ffffffffffffffff821115612555576125546124bf565b5b602082029050602081019050919050565b600080fd5b600061257e6125798461253a565b61251f565b905080838252602082019050602084028301858111156125a1576125a0612566565b5b835b818110156125ca57806125b688826122a1565b8452602084019350506020810190506125a3565b5050509392505050565b600082601f8301126125e9576125e86124ba565b5b81356125f984826020860161256b565b91505092915050565b600080fd5b600067ffffffffffffffff821115612622576126216124bf565b5b61262b82612421565b9050602081019050919050565b82818337600083830152505050565b600061265a61265584612607565b61251f565b90508281526020810184848401111561267657612675612602565b5b612681848285612638565b509392505050565b600082601f83011261269e5761269d6124ba565b5b81356126ae848260208601612647565b91505092915050565b600080600080600060a086880312156126d3576126d2612218565b5b60006126e18882890161226b565b95505060206126f28882890161226b565b945050604086013567ffffffffffffffff8111156127135761271261221d565b5b61271f888289016125d4565b935050606086013567ffffffffffffffff8111156127405761273f61221d565b5b61274c888289016125d4565b925050608086013567ffffffffffffffff81111561276d5761276c61221d565b5b61277988828901612689565b9150509295509295909350565b600067ffffffffffffffff8211156127a1576127a06124bf565b5b602082029050602081019050919050565b60006127c56127c084612786565b61251f565b905080838252602082019050602084028301858111156127e8576127e7612566565b5b835b8181101561281157806127fd888261226b565b8452602084019350506020810190506127ea565b5050509392505050565b600082601f8301126128305761282f6124ba565b5b81356128408482602086016127b2565b91505092915050565b600080604083850312156128605761285f612218565b5b600083013567ffffffffffffffff81111561287e5761287d61221d565b5b61288a8582860161281b565b925050602083013567ffffffffffffffff8111156128ab576128aa61221d565b5b6128b7858286016125d4565b9150509250929050565b600081519050919050565b600082825260208201905092915050565b6000819050602082019050919050565b6128f681612280565b82525050565b600061290883836128ed565b60208301905092915050565b6000602082019050919050565b600061292c826128c1565b61293681856128cc565b9350612941836128dd565b8060005b8381101561297257815161295988826128fc565b975061296483612914565b925050600181019050612945565b5085935050505092915050565b600060208201905081810360008301526129998184612921565b905092915050565b600080600080600060a086880312156129bd576129bc612218565b5b60006129cb8882890161226b565b955050602086013567ffffffffffffffff8111156129ec576129eb61221d565b5b6129f8888289016125d4565b945050604086013567ffffffffffffffff811115612a1957612a1861221d565b5b612a25888289016125d4565b935050606086013567ffffffffffffffff811115612a4657612a4561221d565b5b612a52888289016125d4565b925050608086013567ffffffffffffffff811115612a7357612a7261221d565b5b612a7f888289016125d4565b9150509295509295909350565b60008060408385031215612aa357612aa2612218565b5b600083013567ffffffffffffffff811115612ac157612ac061221d565b5b612acd858286016125d4565b925050602083013567ffffffffffffffff811115612aee57612aed61221d565b5b612afa858286016125d4565b9150509250929050565b612b0d81612242565b82525050565b6000602082019050612b286000830184612b04565b92915050565b612b37816123a5565b8114612b4257600080fd5b50565b600081359050612b5481612b2e565b92915050565b60008060408385031215612b7157612b70612218565b5b6000612b7f8582860161226b565b9250506020612b9085828601612b45565b9150509250929050565b60008060408385031215612bb157612bb0612218565b5b6000612bbf858286016122a1565b9250506020612bd0858286016122a1565b9150509250929050565b60008060408385031215612bf157612bf0612218565b5b6000612bff8582860161226b565b9250506020612c108582860161226b565b9150509250929050565b600067ffffffffffffffff821115612c3557612c346124bf565b5b602082029050602081019050919050565b600067ffffffffffffffff821115612c6157612c606124bf565b5b612c6a82612421565b9050602081019050919050565b6000612c8a612c8584612c46565b61251f565b905082815260208101848484011115612ca657612ca5612602565b5b612cb1848285612638565b509392505050565b600082601f830112612cce57612ccd6124ba565b5b8135612cde848260208601612c77565b91505092915050565b6000612cfa612cf584612c1a565b61251f565b90508083825260208201905060208402830185811115612d1d57612d1c612566565b5b835b81811015612d6457803567ffffffffffffffff811115612d4257612d416124ba565b5b808601612d4f8982612cb9565b85526020850194505050602081019050612d1f565b5050509392505050565b600082601f830112612d8357612d826124ba565b5b8135612d93848260208601612ce7565b91505092915050565b600080600060608486031215612db557612db4612218565b5b6000612dc3868287016122a1565b935050602084013567ffffffffffffffff811115612de457612de361221d565b5b612df0868287016125d4565b925050604084013567ffffffffffffffff811115612e1157612e1061221d565b5b612e1d86828701612d6e565b9150509250925092565b600080600080600060a08688031215612e4357612e42612218565b5b6000612e518882890161226b565b9550506020612e628882890161226b565b9450506040612e73888289016122a1565b9350506060612e84888289016122a1565b925050608086013567ffffffffffffffff811115612ea557612ea461221d565b5b612eb188828901612689565b9150509295509295909350565b600060208284031215612ed457612ed3612218565b5b6000612ee28482850161226b565b91505092915050565b7f455243313135353a2061646472657373207a65726f206973206e6f742061207660008201527f616c6964206f776e657200000000000000000000000000000000000000000000602082015250565b6000612f47602a836123e6565b9150612f5282612eeb565b604082019050919050565b60006020820190508181036000830152612f7681612f3a565b9050919050565b7f4e487b7100000000000000000000000000000000000000000000000000000000600052602260045260246000fd5b60006002820490506001821680612fc457607f821691505b602082108103612fd757612fd6612f7d565b5b50919050565b7f455243313135353a2063616c6c6572206973206e6f7420746f6b656e206f776e60008201527f6572206f7220617070726f766564000000000000000000000000000000000000602082015250565b6000613039602e836123e6565b915061304482612fdd565b604082019050919050565b600060208201905081810360008301526130688161302c565b9050919050565b7f455243313135353a206163636f756e747320616e6420696473206c656e67746860008201527f206d69736d617463680000000000000000000000000000000000000000000000602082015250565b60006130cb6029836123e6565b91506130d68261306f565b604082019050919050565b600060208201905081810360008301526130fa816130be565b9050919050565b7f4e487b7100000000000000000000000000000000000000000000000000000000600052603260045260246000fd5b7f4e487b7100000000000000000000000000000000000000000000000000000000600052601160045260246000fd5b600061316a82612280565b91507fffffffffffffffffffffffffffffffffffffffffffffffffffffffffffffffff820361319c5761319b613130565b5b600182019050919050565b60006131b282612280565b91506131bd83612280565b92508282026131cb81612280565b915082820484148315176131e2576131e1613130565b5b5092915050565b60006131f482612280565b91506131ff83612280565b925082820190508082111561321757613216613130565b5b92915050565b7f4f776e61626c653a206e6577206f776e657220697320746865207a65726f206160008201527f6464726573730000000000000000000000000000000000000000000000000000602082015250565b60006132796026836123e6565b91506132848261321d565b604082019050919050565b600060208201905081810360008301526132a88161326c565b9050919050565b7f455243313135353a2069647320616e6420616d6f756e7473206c656e6774682060008201527f6d69736d61746368000000000000000000000000000000000000000000000000602082015250565b600061330b6028836123e6565b9150613316826132af565b604082019050919050565b6000602082019050818103600083015261333a816132fe565b9050919050565b7f455243313135353a207472616e7366657220746f20746865207a65726f20616460008201527f6472657373000000000000000000000000000000000000000000000000000000602082015250565b600061339d6025836123e6565b91506133a882613341565b604082019050919050565b600060208201905081810360008301526133cc81613390565b9050919050565b7f455243313135353a20696e73756666696369656e742062616c616e636520666f60008201527f72207472616e7366657200000000000000000000000000000000000000000000602082015250565b600061342f602a836123e6565b915061343a826133d3565b604082019050919050565b6000602082019050818103600083015261345e81613422565b9050919050565b6000604082019050818103600083015261347f8185612921565b905081810360208301526134938184612921565b90509392505050565b7f4f776e61626c653a2063616c6c6572206973206e6f7420746865206f776e6572600082015250565b60006134d26020836123e6565b91506134dd8261349c565b602082019050919050565b60006020820190508181036000830152613501816134c5565b9050919050565b7f455243313135353a206275726e2066726f6d20746865207a65726f206164647260008201527f6573730000000000000000000000000000000000000000000000000000000000602082015250565b60006135646023836123e6565b915061356f82613508565b604082019050919050565b6000602082019050818103600083015261359381613557565b9050919050565b7f455243313135353a206275726e20616d6f756e7420657863656564732062616c60008201527f616e636500000000000000000000000000000000000000000000000000000000602082015250565b60006135f66024836123e6565b91506136018261359a565b604082019050919050565b60006020820190508181036000830152613625816135e9565b9050919050565b7f455243313135353a206d696e7420746f20746865207a65726f2061646472657360008201527f7300000000000000000000000000000000000000000000000000000000000000602082015250565b60006136886021836123e6565b91506136938261362c565b604082019050919050565b600060208201905081810360008301526136b78161367b565b9050919050565b7f455243313135353a2073657474696e6720617070726f76616c2073746174757360008201527f20666f722073656c660000000000000000000000000000000000000000000000602082015250565b600061371a6029836123e6565b9150613725826136be565b604082019050919050565b600060208201905081810360008301526137498161370d565b9050919050565b600060408201905061376560008301856122f6565b61377260208301846122f6565b9392505050565b60008190508160005260206000209050919050565b60006020601f8301049050919050565b600082821b905092915050565b6000600883026137db7fffffffffffffffffffffffffffffffffffffffffffffffffffffffffffffffff8261379e565b6137e5868361379e565b95508019841693508086168417925050509392505050565b6000819050919050565b600061382261381d61381884612280565b6137fd565b612280565b9050919050565b6000819050919050565b61383c83613807565b61385061384882613829565b8484546137ab565b825550505050565b600090565b613865613858565b613870818484613833565b505050565b5b818110156138945761388960008261385d565b600181019050613876565b5050565b601f8211156138d9576138aa81613779565b6138b38461378e565b810160208510156138c2578190505b6138d66138ce8561378e565b830182613875565b50505b505050565b600082821c905092915050565b60006138fc600019846008026138de565b1980831691505092915050565b600061391583836138eb565b9150826002028217905092915050565b61392e826123db565b67ffffffffffffffff811115613947576139466124bf565b5b6139518254612fac565b61395c828285613898565b600060209050601f83116001811461398f576000841561397d578287015190505b6139878582613909565b8655506139ef565b601f19841661399d86613779565b60005b828110156139c5578489015182556001820191506020850194506020810190506139a0565b868310156139e257848901516139de601f8916826138eb565b8355505b6001600288020188555050505b505050505050565b600081519050919050565b600082825260208201905092915050565b6000613a1e826139f7565b613a288185613a02565b9350613a388185602086016123f7565b613a4181612421565b840191505092915050565b600060a082019050613a616000830188612b04565b613a6e6020830187612b04565b8181036040830152613a808186612921565b90508181036060830152613a948185612921565b90508181036080830152613aa88184613a13565b90509695505050505050565b600081519050613ac38161234c565b92915050565b600060208284031215613adf57613ade612218565b5b6000613aed84828501613ab4565b91505092915050565b60008160e01c9050919050565b600060033d1115613b225760046000803e613b1f600051613af6565b90505b90565b600060443d10613bb257613b3761220e565b60043d036004823e80513d602482011167ffffffffffffffff82111715613b5f575050613bb2565b808201805167ffffffffffffffff811115613b7d5750505050613bb2565b80602083010160043d038501811115613b9a575050505050613bb2565b613ba9826020018501866124ee565b82955050505050505b90565b7f455243313135353a207472616e7366657220746f206e6f6e2d4552433131353560008201527f526563656976657220696d706c656d656e746572000000000000000000000000602082015250565b6000613c116034836123e6565b9150613c1c82613bb5565b604082019050919050565b60006020820190508181036000830152613c4081613c04565b9050919050565b7f455243313135353a204552433131353552656365697665722072656a6563746560008201527f6420746f6b656e73000000000000000000000000000000000000000000000000602082015250565b6000613ca36028836123e6565b9150613cae82613c47565b604082019050919050565b60006020820190508181036000830152613cd281613c96565b9050919050565b600060a082019050613cee6000830188612b04565b613cfb6020830187612b04565b613d0860408301866122f6565b613d1560608301856122f6565b8181036080830152613d278184613a13565b9050969550505050505056fea26469706673582212204427dbd504c22bad35a1fce44fa70a7091ea33ef42576f68922642f30746643864736f6c63430008110033",
  "linkReferences": {},
  "deployedLinkReferences": {}
}