{
  "_format": "hh-sol-artifact-1",
  "contractName": "NFT",
  "sourceName": "contracts/NFT.sol",
  "abi": [
    {
      "inputs": [],
      "stateMutability": "nonpayable",
      "type": "constructor"
    },
    {
      "anonymous": false,
      "inputs": [
        {
          "indexed": true,
          "internalType": "address",
          "name": "account",
          "type": "address"
        },
        {
          "indexed": true,
          "internalType": "address",
          "name": "operator",
          "type": "address"
        },
        {
          "indexed": false,
          "internalType": "bool",
          "name": "approved",
          "type": "bool"
        }
      ],
      "name": "ApprovalForAll",
      "type": "event"
    },
    {
      "anonymous": false,
      "inputs": [
        {
          "indexed": true,
          "internalType": "address",
          "name": "previousOwner",
          "type": "address"
        },
        {
          "indexed": true,
          "internalType": "address",
          "name": "newOwner",
          "type": "address"
        }
      ],
      "name": "OwnershipTransferred",
      "type": "event"
    },
    {
      "anonymous": false,
      "inputs": [
        {
          "indexed": true,
          "internalType": "address",
          "name": "operator",
          "type": "address"
        },
        {
          "indexed": true,
          "internalType": "address",
          "name": "from",
          "type": "address"
        },
        {
          "indexed": true,
          "internalType": "address",
          "name": "to",
          "type": "address"
        },
        {
          "indexed": false,
          "internalType": "uint256[]",
          "name": "ids",
          "type": "uint256[]"
        },
        {
          "indexed": false,
          "internalType": "uint256[]",
          "name": "values",
          "type": "uint256[]"
        }
      ],
      "name": "TransferBatch",
      "type": "event"
    },
    {
      "anonymous": false,
      "inputs": [
        {
          "indexed": true,
          "internalType": "address",
          "name": "operator",
          "type": "address"
        },
        {
          "indexed": true,
          "internalType": "address",
          "name": "from",
          "type": "address"
        },
        {
          "indexed": true,
          "internalType": "address",
          "name": "to",
          "type": "address"
        },
        {
          "indexed": false,
          "internalType": "uint256",
          "name": "id",
          "type": "uint256"
        },
        {
          "indexed": false,
          "internalType": "uint256",
          "name": "value",
          "type": "uint256"
        }
      ],
      "name": "TransferSingle",
      "type": "event"
    },
    {
      "anonymous": false,
      "inputs": [
        {
          "indexed": false,
          "internalType": "string",
          "name": "value",
          "type": "string"
        },
        {
          "indexed": true,
          "internalType": "uint256",
          "name": "id",
          "type": "uint256"
        }
      ],
      "name": "URI",
      "type": "event"
    },
    {
      "inputs": [
        {
          "internalType": "address",
          "name": "account",
          "type": "address"
        },
        {
          "internalType": "uint256",
          "name": "id",
          "type": "uint256"
        }
      ],
      "name": "balanceOf",
      "outputs": [
        {
          "internalType": "uint256",
          "name": "",
          "type": "uint256"
        }
      ],
      "stateMutability": "view",
      "type": "function"
    },
    {
      "inputs": [
        {
          "internalType": "address[]",
          "name": "accounts",
          "type": "address[]"
        },
        {
          "internalType": "uint256[]",
          "name": "ids",
          "type": "uint256[]"
        }
      ],
      "name": "balanceOfBatch",
      "outputs": [
        {
          "internalType": "uint256[]",
          "name": "",
          "type": "uint256[]"
        }
      ],
      "stateMutability": "view",
      "type": "function"
    },
    {
      "inputs": [
        {
          "internalType": "uint256",
          "name": "_id",
          "type": "uint256"
        },
        {
          "internalType": "uint256",
          "name": "_amount",
          "type": "uint256"
        }
      ],
      "name": "burn",
      "outputs": [],
      "stateMutability": "nonpayable",
      "type": "function"
    },
    {
      "inputs": [
        {
          "internalType": "uint256[]",
          "name": "_ids",
          "type": "uint256[]"
        },
        {
          "internalType": "uint256[]",
          "name": "_amounts",
          "type": "uint256[]"
        }
      ],
      "name": "burnBatch",
      "outputs": [],
      "stateMutability": "nonpayable",
      "type": "function"
    },
    {
      "inputs": [
        {
          "internalType": "address",
          "name": "_from",
          "type": "address"
        },
        {
          "internalType": "uint256[]",
          "name": "_burnIds",
          "type": "uint256[]"
        },
        {
          "internalType": "uint256[]",
          "name": "_burnAmounts",
          "type": "uint256[]"
        },
        {
          "internalType": "uint256[]",
          "name": "_mintIds",
          "type": "uint256[]"
        },
        {
          "internalType": "uint256[]",
          "name": "_mintAmounts",
          "type": "uint256[]"
        }
      ],
      "name": "burnForMint",
      "outputs": [],
      "stateMutability": "nonpayable",
      "type": "function"
    },
    {
      "inputs": [
        {
          "internalType": "address",
          "name": "account",
          "type": "address"
        },
        {
          "internalType": "address",
          "name": "operator",
          "type": "address"
        }
      ],
      "name": "isApprovedForAll",
      "outputs": [
        {
          "internalType": "bool",
          "name": "",
          "type": "bool"
        }
      ],
      "stateMutability": "view",
      "type": "function"
    },
    {
      "inputs": [],
      "name": "name",
      "outputs": [
        {
          "internalType": "string",
          "name": "",
          "type": "string"
        }
      ],
      "stateMutability": "view",
      "type": "function"
    },
    {
      "inputs": [
        {
          "internalType": "uint256[]",
          "name": "ids",
          "type": "uint256[]"
        },
        {
          "internalType": "uint256[]",
          "name": "amounts",
          "type": "uint256[]"
        },
        {
          "internalType": "string[]",
          "name": "ipfsHashes",
          "type": "string[]"
        }
      ],
      "name": "newBatch",
      "outputs": [],
      "stateMutability": "nonpayable",
      "type": "function"
    },
    {
      "inputs": [],
      "name": "owner",
      "outputs": [
        {
          "internalType": "address",
          "name": "",
          "type": "address"
        }
      ],
      "stateMutability": "view",
      "type": "function"
    },
    {
      "inputs": [],
      "name": "renounceOwnership",
      "outputs": [],
      "stateMutability": "nonpayable",
      "type": "function"
    },
    {
      "inputs": [
        {
          "internalType": "address",
          "name": "from",
          "type": "address"
        },
        {
          "internalType": "address",
          "name": "to",
          "type": "address"
        },
        {
          "internalType": "uint256[]",
          "name": "ids",
          "type": "uint256[]"
        },
        {
          "internalType": "uint256[]",
          "name": "amounts",
          "type": "uint256[]"
        },
        {
          "internalType": "bytes",
          "name": "data",
          "type": "bytes"
        }
      ],
      "name": "safeBatchTransferFrom",
      "outputs": [],
      "stateMutability": "nonpayable",
      "type": "function"
    },
    {
      "inputs": [
        {
          "internalType": "address",
          "name": "from",
          "type": "address"
        },
        {
          "internalType": "address",
          "name": "to",
          "type": "address"
        },
        {
          "internalType": "uint256",
          "name": "id",
          "type": "uint256"
        },
        {
          "internalType": "uint256",
          "name": "amount",
          "type": "uint256"
        },
        {
          "internalType": "bytes",
          "name": "data",
          "type": "bytes"
        }
      ],
      "name": "safeTransferFrom",
      "outputs": [],
      "stateMutability": "nonpayable",
      "type": "function"
    },
    {
      "inputs": [
        {
          "internalType": "address",
          "name": "operator",
          "type": "address"
        },
        {
          "internalType": "bool",
          "name": "approved",
          "type": "bool"
        }
      ],
      "name": "setApprovalForAll",
      "outputs": [],
      "stateMutability": "nonpayable",
      "type": "function"
    },
    {
      "inputs": [
        {
          "internalType": "bytes4",
          "name": "interfaceId",
          "type": "bytes4"
        }
      ],
      "name": "supportsInterface",
      "outputs": [
        {
          "internalType": "bool",
          "name": "",
          "type": "bool"
        }
      ],
      "stateMutability": "view",
      "type": "function"
    },
    {
      "inputs": [],
      "name": "symbol",
      "outputs": [
        {
          "internalType": "string",
          "name": "",
          "type": "string"
        }
      ],
      "stateMutability": "view",
      "type": "function"
    },
    {
      "inputs": [
        {
          "internalType": "uint256",
          "name": "",
          "type": "uint256"
        }
      ],
      "name": "tokenURI",
      "outputs": [
        {
          "internalType": "string",
          "name": "",
          "type": "string"
        }
      ],
      "stateMutability": "view",
      "type": "function"
    },
    {
      "inputs": [
        {
          "internalType": "address",
          "name": "newOwner",
          "type": "address"
        }
      ],
      "name": "transferOwnership",
      "outputs": [],
      "stateMutability": "nonpayable",
      "type": "function"
    },
    {
      "inputs": [
        {
          "internalType": "uint256",
          "name": "_id",
          "type": "uint256"
        }
      ],
      "name": "uri",
      "outputs": [
        {
          "internalType": "string",
          "name": "",
          "type": "string"
        }
      ],
      "stateMutability": "view",
      "type": "function"
    }
  ],
  "bytecode": "0x60806040523480156200001157600080fd5b50604051806020016040528060008152506200003381620000e860201b60201c565b506200005462000048620000fd60201b60201c565b6200010560201b60201c565b6040518060400160405280600e81526020017f526f626f742044726f70204e4654000000000000000000000000000000000000815250600490816200009a919062000445565b506040518060400160405280600781526020017f5244284e4654290000000000000000000000000000000000000000000000000081525060059081620000e1919062000445565b506200052c565b8060029081620000f9919062000445565b5050565b600033905090565b6000600360009054906101000a900473ffffffffffffffffffffffffffffffffffffffff16905081600360006101000a81548173ffffffffffffffffffffffffffffffffffffffff021916908373ffffffffffffffffffffffffffffffffffffffff1602179055508173ffffffffffffffffffffffffffffffffffffffff168173ffffffffffffffffffffffffffffffffffffffff167f8be0079c531659141344cd1fd0a4f28419497f9722a3daafe3b4186f6b6457e060405160405180910390a35050565b600081519050919050565b7f4e487b7100000000000000000000000000000000000000000000000000000000600052604160045260246000fd5b7f4e487b7100000000000000000000000000000000000000000000000000000000600052602260045260246000fd5b600060028204905060018216806200024d57607f821691505b60208210810362000263576200026262000205565b5b50919050565b60008190508160005260206000209050919050565b60006020601f8301049050919050565b600082821b905092915050565b600060088302620002cd7fffffffffffffffffffffffffffffffffffffffffffffffffffffffffffffffff826200028e565b620002d986836200028e565b95508019841693508086168417925050509392505050565b6000819050919050565b6000819050919050565b600062000326620003206200031a84620002f1565b620002fb565b620002f1565b9050919050565b6000819050919050565b620003428362000305565b6200035a62000351826200032d565b8484546200029b565b825550505050565b600090565b6200037162000362565b6200037e81848462000337565b505050565b5b81811015620003a6576200039a60008262000367565b60018101905062000384565b5050565b601f821115620003f557620003bf8162000269565b620003ca846200027e565b81016020851015620003da578190505b620003f2620003e9856200027e565b83018262000383565b50505b505050565b600082821c905092915050565b60006200041a60001984600802620003fa565b1980831691505092915050565b600062000435838362000407565b9150826002028217905092915050565b6200045082620001cb565b67ffffffffffffffff8111156200046c576200046b620001d6565b5b62000478825462000234565b62000485828285620003aa565b600060209050601f831160018114620004bd5760008415620004a8578287015190505b620004b4858262000427565b86555062000524565b601f198416620004cd8662000269565b60005b82811015620004f757848901518255600182019150602085019450602081019050620004d0565b8683101562000517578489015162000513601f89168262000407565b8355505b6001600288020188555050505b505050505050565b613ce9806200053c6000396000f3fe608060405234801561001057600080fd5b50600436106101155760003560e01c80638da5cb5b116100a2578063c87b56dd11610071578063c87b56dd146102ca578063e985e9c5146102fa578063ebb7e1121461032a578063f242432a14610346578063f2fde38b1461036257610115565b80638da5cb5b1461025657806395d89b4114610274578063a22cb46514610292578063b390c0ab146102ae57610115565b80632eb2c2d6116100e95780632eb2c2d6146101c85780634e1273f4146101e4578063510f410414610214578063715018a61461023057806383ca4b6f1461023a57610115565b8062fdd58e1461011a57806301ffc9a71461014a57806306fdde031461017a5780630e89341c14610198575b600080fd5b610134600480360381019061012f919061225c565b61037e565b60405161014191906122ab565b60405180910390f35b610164600480360381019061015f919061231e565b610446565b6040516101719190612366565b60405180910390f35b610182610528565b60405161018f9190612411565b60405180910390f35b6101b260048036038101906101ad9190612433565b6105b6565b6040516101bf9190612411565b60405180910390f35b6101e260048036038101906101dd919061265d565b61065b565b005b6101fe60048036038101906101f991906127ef565b6106fc565b60405161020b9190612925565b60405180910390f35b61022e60048036038101906102299190612947565b610815565b005b61023861084a565b005b610254600480360381019061024f9190612a32565b61085e565b005b61025e61086d565b60405161026b9190612ab9565b60405180910390f35b61027c610897565b6040516102899190612411565b60405180910390f35b6102ac60048036038101906102a79190612b00565b610925565b005b6102c860048036038101906102c39190612b40565b61093b565b005b6102e460048036038101906102df9190612433565b61094a565b6040516102f19190612411565b60405180910390f35b610314600480360381019061030f9190612b80565b6109ea565b6040516103219190612366565b60405180910390f35b610344600480360381019061033f9190612d42565b610a7e565b005b610360600480360381019061035b9190612de9565b610b85565b005b61037c60048036038101906103779190612e80565b610c26565b005b60008073ffffffffffffffffffffffffffffffffffffffff168373ffffffffffffffffffffffffffffffffffffffff16036103ee576040517f08c379a00000000000000000000000000000000000000000000000000000000081526004016103e590612f1f565b60405180910390fd5b60008083815260200190815260200160002060008473ffffffffffffffffffffffffffffffffffffffff1673ffffffffffffffffffffffffffffffffffffffff16815260200190815260200160002054905092915050565b60007fd9b67a26000000000000000000000000000000000000000000000000000000007bffffffffffffffffffffffffffffffffffffffffffffffffffffffff1916827bffffffffffffffffffffffffffffffffffffffffffffffffffffffff1916148061051157507f0e89341c000000000000000000000000000000000000000000000000000000007bffffffffffffffffffffffffffffffffffffffffffffffffffffffff1916827bffffffffffffffffffffffffffffffffffffffffffffffffffffffff1916145b80610521575061052082610ca9565b5b9050919050565b6004805461053590612f6e565b80601f016020809104026020016040519081016040528092919081815260200182805461056190612f6e565b80156105ae5780601f10610583576101008083540402835291602001916105ae565b820191906000526020600020905b81548152906001019060200180831161059157829003601f168201915b505050505081565b60606006600083815260200190815260200160002080546105d690612f6e565b80601f016020809104026020016040519081016040528092919081815260200182805461060290612f6e565b801561064f5780601f106106245761010080835404028352916020019161064f565b820191906000526020600020905b81548152906001019060200180831161063257829003601f168201915b50505050509050919050565b610663610d13565b73ffffffffffffffffffffffffffffffffffffffff168573ffffffffffffffffffffffffffffffffffffffff1614806106a957506106a8856106a3610d13565b6109ea565b5b6106e8576040517f08c379a00000000000000000000000000000000000000000000000000000000081526004016106df90613011565b60405180910390fd5b6106f58585858585610d1b565b5050505050565b60608151835114610742576040517f08c379a0000000000000000000000000000000000000000000000000000000008152600401610739906130a3565b60405180910390fd5b6000835167ffffffffffffffff81111561075f5761075e612465565b5b60405190808252806020026020018201604052801561078d5781602001602082028036833780820191505090505b50905060005b845181101561080a576107da8582815181106107b2576107b16130c3565b5b60200260200101518583815181106107cd576107cc6130c3565b5b602002602001015161037e565b8282815181106107ed576107ec6130c3565b5b6020026020010181815250508061080390613121565b9050610793565b508091505092915050565b61081d61103c565b6108288585856110ba565b61084385838360405180602001604052806000815250611388565b5050505050565b61085261103c565b61085c60006115b4565b565b6108693383836110ba565b5050565b6000600360009054906101000a900473ffffffffffffffffffffffffffffffffffffffff16905090565b600580546108a490612f6e565b80601f01602080910402602001604051908101604052809291908181526020018280546108d090612f6e565b801561091d5780601f106108f25761010080835404028352916020019161091d565b820191906000526020600020905b81548152906001019060200180831161090057829003601f168201915b505050505081565b610937610930610d13565b838361167a565b5050565b6109463383836117e6565b5050565b6006602052806000526040600020600091509050805461096990612f6e565b80601f016020809104026020016040519081016040528092919081815260200182805461099590612f6e565b80156109e25780601f106109b7576101008083540402835291602001916109e2565b820191906000526020600020905b8154815290600101906020018083116109c557829003601f168201915b505050505081565b6000600160008473ffffffffffffffffffffffffffffffffffffffff1673ffffffffffffffffffffffffffffffffffffffff16815260200190815260200160002060008373ffffffffffffffffffffffffffffffffffffffff1673ffffffffffffffffffffffffffffffffffffffff16815260200190815260200160002060009054906101000a900460ff16905092915050565b60005b8351811015610afb576000610a966007611a2c565b9050610aa26007611a3a565b80858381518110610ab657610ab56130c3565b5b6020026020010151610ac89190613169565b858381518110610adb57610ada6130c3565b5b602002602001018181525050508080610af390613121565b915050610a81565b50610b16838360405180602001604052806000815250611a50565b60005b8351811015610b7f576000848281518110610b3757610b366130c3565b5b602002602001015190506000838381518110610b5657610b556130c3565b5b60200260200101519050610b6a8282611a61565b50508080610b7790613121565b915050610b19565b50505050565b610b8d610d13565b73ffffffffffffffffffffffffffffffffffffffff168573ffffffffffffffffffffffffffffffffffffffff161480610bd35750610bd285610bcd610d13565b6109ea565b5b610c12576040517f08c379a0000000000000000000000000000000000000000000000000000000008152600401610c0990613011565b60405180910390fd5b610c1f8585858585611abe565b5050505050565b610c2e61103c565b600073ffffffffffffffffffffffffffffffffffffffff168173ffffffffffffffffffffffffffffffffffffffff1603610c9d576040517f08c379a0000000000000000000000000000000000000000000000000000000008152600401610c949061320f565b60405180910390fd5b610ca6816115b4565b50565b60007f01ffc9a7000000000000000000000000000000000000000000000000000000007bffffffffffffffffffffffffffffffffffffffffffffffffffffffff1916827bffffffffffffffffffffffffffffffffffffffffffffffffffffffff1916149050919050565b600033905090565b8151835114610d5f576040517f08c379a0000000000000000000000000000000000000000000000000000000008152600401610d56906132a1565b60405180910390fd5b600073ffffffffffffffffffffffffffffffffffffffff168473ffffffffffffffffffffffffffffffffffffffff1603610dce576040517f08c379a0000000000000000000000000000000000000000000000000000000008152600401610dc590613333565b60405180910390fd5b6000610dd8610d13565b9050610de8818787878787611d59565b60005b8451811015610f99576000858281518110610e0957610e086130c3565b5b602002602001015190506000858381518110610e2857610e276130c3565b5b60200260200101519050600080600084815260200190815260200160002060008b73ffffffffffffffffffffffffffffffffffffffff1673ffffffffffffffffffffffffffffffffffffffff16815260200190815260200160002054905081811015610ec9576040517f08c379a0000000000000000000000000000000000000000000000000000000008152600401610ec0906133c5565b60405180910390fd5b81810360008085815260200190815260200160002060008c73ffffffffffffffffffffffffffffffffffffffff1673ffffffffffffffffffffffffffffffffffffffff168152602001908152602001600020819055508160008085815260200190815260200160002060008b73ffffffffffffffffffffffffffffffffffffffff1673ffffffffffffffffffffffffffffffffffffffff1681526020019081526020016000206000828254610f7e9190613169565b9250508190555050505080610f9290613121565b9050610deb565b508473ffffffffffffffffffffffffffffffffffffffff168673ffffffffffffffffffffffffffffffffffffffff168273ffffffffffffffffffffffffffffffffffffffff167f4a39dc06d4c0dbc64b70af90fd698a233a518aa5d07e595d983b8c0526c8f7fb87876040516110109291906133e5565b60405180910390a4611026818787878787611d61565b611034818787878787611d69565b505050505050565b611044610d13565b73ffffffffffffffffffffffffffffffffffffffff1661106261086d565b73ffffffffffffffffffffffffffffffffffffffff16146110b8576040517f08c379a00000000000000000000000000000000000000000000000000000000081526004016110af90613468565b60405180910390fd5b565b600073ffffffffffffffffffffffffffffffffffffffff168373ffffffffffffffffffffffffffffffffffffffff1603611129576040517f08c379a0000000000000000000000000000000000000000000000000000000008152600401611120906134fa565b60405180910390fd5b805182511461116d576040517f08c379a0000000000000000000000000000000000000000000000000000000008152600401611164906132a1565b60405180910390fd5b6000611177610d13565b905061119781856000868660405180602001604052806000815250611d59565b60005b83518110156112e45760008482815181106111b8576111b76130c3565b5b6020026020010151905060008483815181106111d7576111d66130c3565b5b60200260200101519050600080600084815260200190815260200160002060008973ffffffffffffffffffffffffffffffffffffffff1673ffffffffffffffffffffffffffffffffffffffff16815260200190815260200160002054905081811015611278576040517f08c379a000000000000000000000000000000000000000000000000000000000815260040161126f9061358c565b60405180910390fd5b81810360008085815260200190815260200160002060008a73ffffffffffffffffffffffffffffffffffffffff1673ffffffffffffffffffffffffffffffffffffffff1681526020019081526020016000208190555050505080806112dc90613121565b91505061119a565b50600073ffffffffffffffffffffffffffffffffffffffff168473ffffffffffffffffffffffffffffffffffffffff168273ffffffffffffffffffffffffffffffffffffffff167f4a39dc06d4c0dbc64b70af90fd698a233a518aa5d07e595d983b8c0526c8f7fb868660405161135c9291906133e5565b60405180910390a461138281856000868660405180602001604052806000815250611d61565b50505050565b600073ffffffffffffffffffffffffffffffffffffffff168473ffffffffffffffffffffffffffffffffffffffff16036113f7576040517f08c379a00000000000000000000000000000000000000000000000000000000081526004016113ee9061361e565b60405180910390fd5b815183511461143b576040517f08c379a0000000000000000000000000000000000000000000000000000000008152600401611432906132a1565b60405180910390fd5b6000611445610d13565b905061145681600087878787611d59565b60005b845181101561150f57838181518110611475576114746130c3565b5b6020026020010151600080878481518110611493576114926130c3565b5b6020026020010151815260200190815260200160002060008873ffffffffffffffffffffffffffffffffffffffff1673ffffffffffffffffffffffffffffffffffffffff16815260200190815260200160002060008282546114f59190613169565b92505081905550808061150790613121565b915050611459565b508473ffffffffffffffffffffffffffffffffffffffff16600073ffffffffffffffffffffffffffffffffffffffff168273ffffffffffffffffffffffffffffffffffffffff167f4a39dc06d4c0dbc64b70af90fd698a233a518aa5d07e595d983b8c0526c8f7fb87876040516115879291906133e5565b60405180910390a461159e81600087878787611d61565b6115ad81600087878787611d69565b5050505050565b6000600360009054906101000a900473ffffffffffffffffffffffffffffffffffffffff16905081600360006101000a81548173ffffffffffffffffffffffffffffffffffffffff021916908373ffffffffffffffffffffffffffffffffffffffff1602179055508173ffffffffffffffffffffffffffffffffffffffff168173ffffffffffffffffffffffffffffffffffffffff167f8be0079c531659141344cd1fd0a4f28419497f9722a3daafe3b4186f6b6457e060405160405180910390a35050565b8173ffffffffffffffffffffffffffffffffffffffff168373ffffffffffffffffffffffffffffffffffffffff16036116e8576040517f08c379a00000000000000000000000000000000000000000000000000000000081526004016116df906136b0565b60405180910390fd5b80600160008573ffffffffffffffffffffffffffffffffffffffff1673ffffffffffffffffffffffffffffffffffffffff16815260200190815260200160002060008473ffffffffffffffffffffffffffffffffffffffff1673ffffffffffffffffffffffffffffffffffffffff16815260200190815260200160002060006101000a81548160ff0219169083151502179055508173ffffffffffffffffffffffffffffffffffffffff168373ffffffffffffffffffffffffffffffffffffffff167f17307eab39ab6107e8899845ad3d59bd9653f200f220920489ca2b5937696c31836040516117d99190612366565b60405180910390a3505050565b600073ffffffffffffffffffffffffffffffffffffffff168373ffffffffffffffffffffffffffffffffffffffff1603611855576040517f08c379a000000000000000000000000000000000000000000000000000000000815260040161184c906134fa565b60405180910390fd5b600061185f610d13565b9050600061186c84611f40565b9050600061187984611f40565b905061189983876000858560405180602001604052806000815250611d59565b600080600087815260200190815260200160002060008873ffffffffffffffffffffffffffffffffffffffff1673ffffffffffffffffffffffffffffffffffffffff16815260200190815260200160002054905084811015611930576040517f08c379a00000000000000000000000000000000000000000000000000000000081526004016119279061358c565b60405180910390fd5b84810360008088815260200190815260200160002060008973ffffffffffffffffffffffffffffffffffffffff1673ffffffffffffffffffffffffffffffffffffffff16815260200190815260200160002081905550600073ffffffffffffffffffffffffffffffffffffffff168773ffffffffffffffffffffffffffffffffffffffff168573ffffffffffffffffffffffffffffffffffffffff167fc3d58168c5ae7397731d063d5bbf3d657854427343f4c083240f7aacaa2d0f6289896040516119fd9291906136d0565b60405180910390a4611a2384886000868660405180602001604052806000815250611d61565b50505050505050565b600081600001549050919050565b6001816000016000828254019250508190555050565b611a5c33848484611388565b505050565b80600660008481526020019081526020016000209081611a8191906138a5565b50817f6bb7ff708619ba0610cba295a58592e0451dee2622938c8755667688daf3529b82604051611ab29190612411565b60405180910390a25050565b600073ffffffffffffffffffffffffffffffffffffffff168473ffffffffffffffffffffffffffffffffffffffff1603611b2d576040517f08c379a0000000000000000000000000000000000000000000000000000000008152600401611b2490613333565b60405180910390fd5b6000611b37610d13565b90506000611b4485611f40565b90506000611b5185611f40565b9050611b61838989858589611d59565b600080600088815260200190815260200160002060008a73ffffffffffffffffffffffffffffffffffffffff1673ffffffffffffffffffffffffffffffffffffffff16815260200190815260200160002054905085811015611bf8576040517f08c379a0000000000000000000000000000000000000000000000000000000008152600401611bef906133c5565b60405180910390fd5b85810360008089815260200190815260200160002060008b73ffffffffffffffffffffffffffffffffffffffff1673ffffffffffffffffffffffffffffffffffffffff168152602001908152602001600020819055508560008089815260200190815260200160002060008a73ffffffffffffffffffffffffffffffffffffffff1673ffffffffffffffffffffffffffffffffffffffff1681526020019081526020016000206000828254611cad9190613169565b925050819055508773ffffffffffffffffffffffffffffffffffffffff168973ffffffffffffffffffffffffffffffffffffffff168573ffffffffffffffffffffffffffffffffffffffff167fc3d58168c5ae7397731d063d5bbf3d657854427343f4c083240f7aacaa2d0f628a8a604051611d2a9291906136d0565b60405180910390a4611d40848a8a86868a611d61565b611d4e848a8a8a8a8a611fba565b505050505050505050565b505050505050565b505050505050565b611d888473ffffffffffffffffffffffffffffffffffffffff16612191565b15611f38578373ffffffffffffffffffffffffffffffffffffffff1663bc197c8187878686866040518663ffffffff1660e01b8152600401611dce9594939291906139cc565b6020604051808303816000875af1925050508015611e0a57506040513d601f19601f82011682018060405250810190611e079190613a49565b60015b611eaf57611e16613a83565b806308c379a003611e725750611e2a613aa5565b80611e355750611e74565b806040517f08c379a0000000000000000000000000000000000000000000000000000000008152600401611e699190612411565b60405180910390fd5b505b6040517f08c379a0000000000000000000000000000000000000000000000000000000008152600401611ea690613ba7565b60405180910390fd5b63bc197c8160e01b7bffffffffffffffffffffffffffffffffffffffffffffffffffffffff1916817bffffffffffffffffffffffffffffffffffffffffffffffffffffffff191614611f36576040517f08c379a0000000000000000000000000000000000000000000000000000000008152600401611f2d90613c39565b60405180910390fd5b505b505050505050565b60606000600167ffffffffffffffff811115611f5f57611f5e612465565b5b604051908082528060200260200182016040528015611f8d5781602001602082028036833780820191505090505b5090508281600081518110611fa557611fa46130c3565b5b60200260200101818152505080915050919050565b611fd98473ffffffffffffffffffffffffffffffffffffffff16612191565b15612189578373ffffffffffffffffffffffffffffffffffffffff1663f23a6e6187878686866040518663ffffffff1660e01b815260040161201f959493929190613c59565b6020604051808303816000875af192505050801561205b57506040513d601f19601f820116820180604052508101906120589190613a49565b60015b61210057612067613a83565b806308c379a0036120c3575061207b613aa5565b8061208657506120c5565b806040517f08c379a00000000000000000000000000000000000000000000000000000000081526004016120ba9190612411565b60405180910390fd5b505b6040517f08c379a00000000000000000000000000000000000000000000000000000000081526004016120f790613ba7565b60405180910390fd5b63f23a6e6160e01b7bffffffffffffffffffffffffffffffffffffffffffffffffffffffff1916817bffffffffffffffffffffffffffffffffffffffffffffffffffffffff191614612187576040517f08c379a000000000000000000000000000000000000000000000000000000000815260040161217e90613c39565b60405180910390fd5b505b505050505050565b6000808273ffffffffffffffffffffffffffffffffffffffff163b119050919050565b6000604051905090565b600080fd5b600080fd5b600073ffffffffffffffffffffffffffffffffffffffff82169050919050565b60006121f3826121c8565b9050919050565b612203816121e8565b811461220e57600080fd5b50565b600081359050612220816121fa565b92915050565b6000819050919050565b61223981612226565b811461224457600080fd5b50565b60008135905061225681612230565b92915050565b60008060408385031215612273576122726121be565b5b600061228185828601612211565b925050602061229285828601612247565b9150509250929050565b6122a581612226565b82525050565b60006020820190506122c0600083018461229c565b92915050565b60007fffffffff0000000000000000000000000000000000000000000000000000000082169050919050565b6122fb816122c6565b811461230657600080fd5b50565b600081359050612318816122f2565b92915050565b600060208284031215612334576123336121be565b5b600061234284828501612309565b91505092915050565b60008115159050919050565b6123608161234b565b82525050565b600060208201905061237b6000830184612357565b92915050565b600081519050919050565b600082825260208201905092915050565b60005b838110156123bb5780820151818401526020810190506123a0565b60008484015250505050565b6000601f19601f8301169050919050565b60006123e382612381565b6123ed818561238c565b93506123fd81856020860161239d565b612406816123c7565b840191505092915050565b6000602082019050818103600083015261242b81846123d8565b905092915050565b600060208284031215612449576124486121be565b5b600061245784828501612247565b91505092915050565b600080fd5b7f4e487b7100000000000000000000000000000000000000000000000000000000600052604160045260246000fd5b61249d826123c7565b810181811067ffffffffffffffff821117156124bc576124bb612465565b5b80604052505050565b60006124cf6121b4565b90506124db8282612494565b919050565b600067ffffffffffffffff8211156124fb576124fa612465565b5b602082029050602081019050919050565b600080fd5b600061252461251f846124e0565b6124c5565b905080838252602082019050602084028301858111156125475761254661250c565b5b835b81811015612570578061255c8882612247565b845260208401935050602081019050612549565b5050509392505050565b600082601f83011261258f5761258e612460565b5b813561259f848260208601612511565b91505092915050565b600080fd5b600067ffffffffffffffff8211156125c8576125c7612465565b5b6125d1826123c7565b9050602081019050919050565b82818337600083830152505050565b60006126006125fb846125ad565b6124c5565b90508281526020810184848401111561261c5761261b6125a8565b5b6126278482856125de565b509392505050565b600082601f83011261264457612643612460565b5b81356126548482602086016125ed565b91505092915050565b600080600080600060a08688031215612679576126786121be565b5b600061268788828901612211565b955050602061269888828901612211565b945050604086013567ffffffffffffffff8111156126b9576126b86121c3565b5b6126c58882890161257a565b935050606086013567ffffffffffffffff8111156126e6576126e56121c3565b5b6126f28882890161257a565b925050608086013567ffffffffffffffff811115612713576127126121c3565b5b61271f8882890161262f565b9150509295509295909350565b600067ffffffffffffffff82111561274757612746612465565b5b602082029050602081019050919050565b600061276b6127668461272c565b6124c5565b9050808382526020820190506020840283018581111561278e5761278d61250c565b5b835b818110156127b757806127a38882612211565b845260208401935050602081019050612790565b5050509392505050565b600082601f8301126127d6576127d5612460565b5b81356127e6848260208601612758565b91505092915050565b60008060408385031215612806576128056121be565b5b600083013567ffffffffffffffff811115612824576128236121c3565b5b612830858286016127c1565b925050602083013567ffffffffffffffff811115612851576128506121c3565b5b61285d8582860161257a565b9150509250929050565b600081519050919050565b600082825260208201905092915050565b6000819050602082019050919050565b61289c81612226565b82525050565b60006128ae8383612893565b60208301905092915050565b6000602082019050919050565b60006128d282612867565b6128dc8185612872565b93506128e783612883565b8060005b838110156129185781516128ff88826128a2565b975061290a836128ba565b9250506001810190506128eb565b5085935050505092915050565b6000602082019050818103600083015261293f81846128c7565b905092915050565b600080600080600060a08688031215612963576129626121be565b5b600061297188828901612211565b955050602086013567ffffffffffffffff811115612992576129916121c3565b5b61299e8882890161257a565b945050604086013567ffffffffffffffff8111156129bf576129be6121c3565b5b6129cb8882890161257a565b935050606086013567ffffffffffffffff8111156129ec576129eb6121c3565b5b6129f88882890161257a565b925050608086013567ffffffffffffffff811115612a1957612a186121c3565b5b612a258882890161257a565b9150509295509295909350565b60008060408385031215612a4957612a486121be565b5b600083013567ffffffffffffffff811115612a6757612a666121c3565b5b612a738582860161257a565b925050602083013567ffffffffffffffff811115612a9457612a936121c3565b5b612aa08582860161257a565b9150509250929050565b612ab3816121e8565b82525050565b6000602082019050612ace6000830184612aaa565b92915050565b612add8161234b565b8114612ae857600080fd5b50565b600081359050612afa81612ad4565b92915050565b60008060408385031215612b1757612b166121be565b5b6000612b2585828601612211565b9250506020612b3685828601612aeb565b9150509250929050565b60008060408385031215612b5757612b566121be565b5b6000612b6585828601612247565b9250506020612b7685828601612247565b9150509250929050565b60008060408385031215612b9757612b966121be565b5b6000612ba585828601612211565b9250506020612bb685828601612211565b9150509250929050565b600067ffffffffffffffff821115612bdb57612bda612465565b5b602082029050602081019050919050565b600067ffffffffffffffff821115612c0757612c06612465565b5b612c10826123c7565b9050602081019050919050565b6000612c30612c2b84612bec565b6124c5565b905082815260208101848484011115612c4c57612c4b6125a8565b5b612c578482856125de565b509392505050565b600082601f830112612c7457612c73612460565b5b8135612c84848260208601612c1d565b91505092915050565b6000612ca0612c9b84612bc0565b6124c5565b90508083825260208201905060208402830185811115612cc357612cc261250c565b5b835b81811015612d0a57803567ffffffffffffffff811115612ce857612ce7612460565b5b808601612cf58982612c5f565b85526020850194505050602081019050612cc5565b5050509392505050565b600082601f830112612d2957612d28612460565b5b8135612d39848260208601612c8d565b91505092915050565b600080600060608486031215612d5b57612d5a6121be565b5b600084013567ffffffffffffffff811115612d7957612d786121c3565b5b612d858682870161257a565b935050602084013567ffffffffffffffff811115612da657612da56121c3565b5b612db28682870161257a565b925050604084013567ffffffffffffffff811115612dd357612dd26121c3565b5b612ddf86828701612d14565b9150509250925092565b600080600080600060a08688031215612e0557612e046121be565b5b6000612e1388828901612211565b9550506020612e2488828901612211565b9450506040612e3588828901612247565b9350506060612e4688828901612247565b925050608086013567ffffffffffffffff811115612e6757612e666121c3565b5b612e738882890161262f565b9150509295509295909350565b600060208284031215612e9657612e956121be565b5b6000612ea484828501612211565b91505092915050565b7f455243313135353a2061646472657373207a65726f206973206e6f742061207660008201527f616c6964206f776e657200000000000000000000000000000000000000000000602082015250565b6000612f09602a8361238c565b9150612f1482612ead565b604082019050919050565b60006020820190508181036000830152612f3881612efc565b9050919050565b7f4e487b7100000000000000000000000000000000000000000000000000000000600052602260045260246000fd5b60006002820490506001821680612f8657607f821691505b602082108103612f9957612f98612f3f565b5b50919050565b7f455243313135353a2063616c6c6572206973206e6f7420746f6b656e206f776e60008201527f6572206f7220617070726f766564000000000000000000000000000000000000602082015250565b6000612ffb602e8361238c565b915061300682612f9f565b604082019050919050565b6000602082019050818103600083015261302a81612fee565b9050919050565b7f455243313135353a206163636f756e747320616e6420696473206c656e67746860008201527f206d69736d617463680000000000000000000000000000000000000000000000602082015250565b600061308d60298361238c565b915061309882613031565b604082019050919050565b600060208201905081810360008301526130bc81613080565b9050919050565b7f4e487b7100000000000000000000000000000000000000000000000000000000600052603260045260246000fd5b7f4e487b7100000000000000000000000000000000000000000000000000000000600052601160045260246000fd5b600061312c82612226565b91507fffffffffffffffffffffffffffffffffffffffffffffffffffffffffffffffff820361315e5761315d6130f2565b5b600182019050919050565b600061317482612226565b915061317f83612226565b9250828201905080821115613197576131966130f2565b5b92915050565b7f4f776e61626c653a206e6577206f776e657220697320746865207a65726f206160008201527f6464726573730000000000000000000000000000000000000000000000000000602082015250565b60006131f960268361238c565b91506132048261319d565b604082019050919050565b60006020820190508181036000830152613228816131ec565b9050919050565b7f455243313135353a2069647320616e6420616d6f756e7473206c656e6774682060008201527f6d69736d61746368000000000000000000000000000000000000000000000000602082015250565b600061328b60288361238c565b91506132968261322f565b604082019050919050565b600060208201905081810360008301526132ba8161327e565b9050919050565b7f455243313135353a207472616e7366657220746f20746865207a65726f20616460008201527f6472657373000000000000000000000000000000000000000000000000000000602082015250565b600061331d60258361238c565b9150613328826132c1565b604082019050919050565b6000602082019050818103600083015261334c81613310565b9050919050565b7f455243313135353a20696e73756666696369656e742062616c616e636520666f60008201527f72207472616e7366657200000000000000000000000000000000000000000000602082015250565b60006133af602a8361238c565b91506133ba82613353565b604082019050919050565b600060208201905081810360008301526133de816133a2565b9050919050565b600060408201905081810360008301526133ff81856128c7565b9050818103602083015261341381846128c7565b90509392505050565b7f4f776e61626c653a2063616c6c6572206973206e6f7420746865206f776e6572600082015250565b600061345260208361238c565b915061345d8261341c565b602082019050919050565b6000602082019050818103600083015261348181613445565b9050919050565b7f455243313135353a206275726e2066726f6d20746865207a65726f206164647260008201527f6573730000000000000000000000000000000000000000000000000000000000602082015250565b60006134e460238361238c565b91506134ef82613488565b604082019050919050565b60006020820190508181036000830152613513816134d7565b9050919050565b7f455243313135353a206275726e20616d6f756e7420657863656564732062616c60008201527f616e636500000000000000000000000000000000000000000000000000000000602082015250565b600061357660248361238c565b91506135818261351a565b604082019050919050565b600060208201905081810360008301526135a581613569565b9050919050565b7f455243313135353a206d696e7420746f20746865207a65726f2061646472657360008201527f7300000000000000000000000000000000000000000000000000000000000000602082015250565b600061360860218361238c565b9150613613826135ac565b604082019050919050565b60006020820190508181036000830152613637816135fb565b9050919050565b7f455243313135353a2073657474696e6720617070726f76616c2073746174757360008201527f20666f722073656c660000000000000000000000000000000000000000000000602082015250565b600061369a60298361238c565b91506136a58261363e565b604082019050919050565b600060208201905081810360008301526136c98161368d565b9050919050565b60006040820190506136e5600083018561229c565b6136f2602083018461229c565b9392505050565b60008190508160005260206000209050919050565b60006020601f8301049050919050565b600082821b905092915050565b60006008830261375b7fffffffffffffffffffffffffffffffffffffffffffffffffffffffffffffffff8261371e565b613765868361371e565b95508019841693508086168417925050509392505050565b6000819050919050565b60006137a261379d61379884612226565b61377d565b612226565b9050919050565b6000819050919050565b6137bc83613787565b6137d06137c8826137a9565b84845461372b565b825550505050565b600090565b6137e56137d8565b6137f08184846137b3565b505050565b5b81811015613814576138096000826137dd565b6001810190506137f6565b5050565b601f8211156138595761382a816136f9565b6138338461370e565b81016020851015613842578190505b61385661384e8561370e565b8301826137f5565b50505b505050565b600082821c905092915050565b600061387c6000198460080261385e565b1980831691505092915050565b6000613895838361386b565b9150826002028217905092915050565b6138ae82612381565b67ffffffffffffffff8111156138c7576138c6612465565b5b6138d18254612f6e565b6138dc828285613818565b600060209050601f83116001811461390f57600084156138fd578287015190505b6139078582613889565b86555061396f565b601f19841661391d866136f9565b60005b8281101561394557848901518255600182019150602085019450602081019050613920565b86831015613962578489015161395e601f89168261386b565b8355505b6001600288020188555050505b505050505050565b600081519050919050565b600082825260208201905092915050565b600061399e82613977565b6139a88185613982565b93506139b881856020860161239d565b6139c1816123c7565b840191505092915050565b600060a0820190506139e16000830188612aaa565b6139ee6020830187612aaa565b8181036040830152613a0081866128c7565b90508181036060830152613a1481856128c7565b90508181036080830152613a288184613993565b90509695505050505050565b600081519050613a43816122f2565b92915050565b600060208284031215613a5f57613a5e6121be565b5b6000613a6d84828501613a34565b91505092915050565b60008160e01c9050919050565b600060033d1115613aa25760046000803e613a9f600051613a76565b90505b90565b600060443d10613b3257613ab76121b4565b60043d036004823e80513d602482011167ffffffffffffffff82111715613adf575050613b32565b808201805167ffffffffffffffff811115613afd5750505050613b32565b80602083010160043d038501811115613b1a575050505050613b32565b613b2982602001850186612494565b82955050505050505b90565b7f455243313135353a207472616e7366657220746f206e6f6e2d4552433131353560008201527f526563656976657220696d706c656d656e746572000000000000000000000000602082015250565b6000613b9160348361238c565b9150613b9c82613b35565b604082019050919050565b60006020820190508181036000830152613bc081613b84565b9050919050565b7f455243313135353a204552433131353552656365697665722072656a6563746560008201527f6420746f6b656e73000000000000000000000000000000000000000000000000602082015250565b6000613c2360288361238c565b9150613c2e82613bc7565b604082019050919050565b60006020820190508181036000830152613c5281613c16565b9050919050565b600060a082019050613c6e6000830188612aaa565b613c7b6020830187612aaa565b613c88604083018661229c565b613c95606083018561229c565b8181036080830152613ca78184613993565b9050969550505050505056fea264697066735822122079d0255d8b9ee6b34473542b618ae5944782f01ff5cbfbfaa572f7bd8e0782d764736f6c63430008110033",
  "linkReferences": {},
  "deployedLinkReferences": {}
}