{
  "_format": "hh-sol-artifact-1",
  "contractName": "NFT",
  "sourceName": "contracts/NFT.sol",
  "abi": [
    {
      "inputs": [],
      "stateMutability": "nonpayable",
      "type": "constructor"
    },
    {
      "anonymous": false,
      "inputs": [
        {
          "indexed": true,
          "internalType": "address",
          "name": "account",
          "type": "address"
        },
        {
          "indexed": true,
          "internalType": "address",
          "name": "operator",
          "type": "address"
        },
        {
          "indexed": false,
          "internalType": "bool",
          "name": "approved",
          "type": "bool"
        }
      ],
      "name": "ApprovalForAll",
      "type": "event"
    },
    {
      "anonymous": false,
      "inputs": [
        {
          "indexed": true,
          "internalType": "address",
          "name": "previousOwner",
          "type": "address"
        },
        {
          "indexed": true,
          "internalType": "address",
          "name": "newOwner",
          "type": "address"
        }
      ],
      "name": "OwnershipTransferred",
      "type": "event"
    },
    {
      "anonymous": false,
      "inputs": [
        {
          "indexed": true,
          "internalType": "address",
          "name": "operator",
          "type": "address"
        },
        {
          "indexed": true,
          "internalType": "address",
          "name": "from",
          "type": "address"
        },
        {
          "indexed": true,
          "internalType": "address",
          "name": "to",
          "type": "address"
        },
        {
          "indexed": false,
          "internalType": "uint256[]",
          "name": "ids",
          "type": "uint256[]"
        },
        {
          "indexed": false,
          "internalType": "uint256[]",
          "name": "values",
          "type": "uint256[]"
        }
      ],
      "name": "TransferBatch",
      "type": "event"
    },
    {
      "anonymous": false,
      "inputs": [
        {
          "indexed": true,
          "internalType": "address",
          "name": "operator",
          "type": "address"
        },
        {
          "indexed": true,
          "internalType": "address",
          "name": "from",
          "type": "address"
        },
        {
          "indexed": true,
          "internalType": "address",
          "name": "to",
          "type": "address"
        },
        {
          "indexed": false,
          "internalType": "uint256",
          "name": "id",
          "type": "uint256"
        },
        {
          "indexed": false,
          "internalType": "uint256",
          "name": "value",
          "type": "uint256"
        }
      ],
      "name": "TransferSingle",
      "type": "event"
    },
    {
      "anonymous": false,
      "inputs": [
        {
          "indexed": false,
          "internalType": "string",
          "name": "value",
          "type": "string"
        },
        {
          "indexed": true,
          "internalType": "uint256",
          "name": "id",
          "type": "uint256"
        }
      ],
      "name": "URI",
      "type": "event"
    },
    {
      "inputs": [
        {
          "internalType": "address",
          "name": "account",
          "type": "address"
        },
        {
          "internalType": "uint256",
          "name": "id",
          "type": "uint256"
        }
      ],
      "name": "balanceOf",
      "outputs": [
        {
          "internalType": "uint256",
          "name": "",
          "type": "uint256"
        }
      ],
      "stateMutability": "view",
      "type": "function"
    },
    {
      "inputs": [
        {
          "internalType": "address[]",
          "name": "accounts",
          "type": "address[]"
        },
        {
          "internalType": "uint256[]",
          "name": "ids",
          "type": "uint256[]"
        }
      ],
      "name": "balanceOfBatch",
      "outputs": [
        {
          "internalType": "uint256[]",
          "name": "",
          "type": "uint256[]"
        }
      ],
      "stateMutability": "view",
      "type": "function"
    },
    {
      "inputs": [
        {
          "internalType": "uint256",
          "name": "_id",
          "type": "uint256"
        },
        {
          "internalType": "uint256",
          "name": "_amount",
          "type": "uint256"
        }
      ],
      "name": "burn",
      "outputs": [],
      "stateMutability": "nonpayable",
      "type": "function"
    },
    {
      "inputs": [
        {
          "internalType": "uint256[]",
          "name": "_ids",
          "type": "uint256[]"
        },
        {
          "internalType": "uint256[]",
          "name": "_amounts",
          "type": "uint256[]"
        }
      ],
      "name": "burnBatch",
      "outputs": [],
      "stateMutability": "nonpayable",
      "type": "function"
    },
    {
      "inputs": [
        {
          "internalType": "address",
          "name": "_from",
          "type": "address"
        },
        {
          "internalType": "uint256[]",
          "name": "_burnIds",
          "type": "uint256[]"
        },
        {
          "internalType": "uint256[]",
          "name": "_burnAmounts",
          "type": "uint256[]"
        },
        {
          "internalType": "uint256[]",
          "name": "_mintIds",
          "type": "uint256[]"
        },
        {
          "internalType": "uint256[]",
          "name": "_mintAmounts",
          "type": "uint256[]"
        }
      ],
      "name": "burnForMint",
      "outputs": [],
      "stateMutability": "nonpayable",
      "type": "function"
    },
    {
      "inputs": [
        {
          "internalType": "address",
          "name": "account",
          "type": "address"
        },
        {
          "internalType": "address",
          "name": "operator",
          "type": "address"
        }
      ],
      "name": "isApprovedForAll",
      "outputs": [
        {
          "internalType": "bool",
          "name": "",
          "type": "bool"
        }
      ],
      "stateMutability": "view",
      "type": "function"
    },
    {
      "inputs": [
        {
          "internalType": "uint256[]",
          "name": "_ids",
          "type": "uint256[]"
        },
        {
          "internalType": "uint256[]",
          "name": "_amounts",
          "type": "uint256[]"
        },
        {
          "internalType": "bytes",
          "name": "data",
          "type": "bytes"
        }
      ],
      "name": "mintBatch",
      "outputs": [],
      "stateMutability": "nonpayable",
      "type": "function"
    },
    {
      "inputs": [],
      "name": "name",
      "outputs": [
        {
          "internalType": "string",
          "name": "",
          "type": "string"
        }
      ],
      "stateMutability": "view",
      "type": "function"
    },
    {
      "inputs": [
        {
          "internalType": "uint256[]",
          "name": "ids",
          "type": "uint256[]"
        },
        {
          "internalType": "uint256[]",
          "name": "amounts",
          "type": "uint256[]"
        },
        {
          "internalType": "bytes[]",
          "name": "data",
          "type": "bytes[]"
        }
      ],
      "name": "newBatch",
      "outputs": [],
      "stateMutability": "nonpayable",
      "type": "function"
    },
    {
      "inputs": [],
      "name": "owner",
      "outputs": [
        {
          "internalType": "address",
          "name": "",
          "type": "address"
        }
      ],
      "stateMutability": "view",
      "type": "function"
    },
    {
      "inputs": [],
      "name": "renounceOwnership",
      "outputs": [],
      "stateMutability": "nonpayable",
      "type": "function"
    },
    {
      "inputs": [
        {
          "internalType": "address",
          "name": "from",
          "type": "address"
        },
        {
          "internalType": "address",
          "name": "to",
          "type": "address"
        },
        {
          "internalType": "uint256[]",
          "name": "ids",
          "type": "uint256[]"
        },
        {
          "internalType": "uint256[]",
          "name": "amounts",
          "type": "uint256[]"
        },
        {
          "internalType": "bytes",
          "name": "data",
          "type": "bytes"
        }
      ],
      "name": "safeBatchTransferFrom",
      "outputs": [],
      "stateMutability": "nonpayable",
      "type": "function"
    },
    {
      "inputs": [
        {
          "internalType": "address",
          "name": "from",
          "type": "address"
        },
        {
          "internalType": "address",
          "name": "to",
          "type": "address"
        },
        {
          "internalType": "uint256",
          "name": "id",
          "type": "uint256"
        },
        {
          "internalType": "uint256",
          "name": "amount",
          "type": "uint256"
        },
        {
          "internalType": "bytes",
          "name": "data",
          "type": "bytes"
        }
      ],
      "name": "safeTransferFrom",
      "outputs": [],
      "stateMutability": "nonpayable",
      "type": "function"
    },
    {
      "inputs": [
        {
          "internalType": "address",
          "name": "operator",
          "type": "address"
        },
        {
          "internalType": "bool",
          "name": "approved",
          "type": "bool"
        }
      ],
      "name": "setApprovalForAll",
      "outputs": [],
      "stateMutability": "nonpayable",
      "type": "function"
    },
    {
      "inputs": [
        {
          "internalType": "uint256",
          "name": "_id",
          "type": "uint256"
        },
        {
          "internalType": "string",
          "name": "_uri",
          "type": "string"
        }
      ],
      "name": "setURI",
      "outputs": [],
      "stateMutability": "nonpayable",
      "type": "function"
    },
    {
      "inputs": [
        {
          "internalType": "bytes4",
          "name": "interfaceId",
          "type": "bytes4"
        }
      ],
      "name": "supportsInterface",
      "outputs": [
        {
          "internalType": "bool",
          "name": "",
          "type": "bool"
        }
      ],
      "stateMutability": "view",
      "type": "function"
    },
    {
      "inputs": [],
      "name": "symbol",
      "outputs": [
        {
          "internalType": "string",
          "name": "",
          "type": "string"
        }
      ],
      "stateMutability": "view",
      "type": "function"
    },
    {
      "inputs": [
        {
          "internalType": "uint256",
          "name": "",
          "type": "uint256"
        }
      ],
      "name": "tokenURI",
      "outputs": [
        {
          "internalType": "string",
          "name": "",
          "type": "string"
        }
      ],
      "stateMutability": "view",
      "type": "function"
    },
    {
      "inputs": [
        {
          "internalType": "address",
          "name": "newOwner",
          "type": "address"
        }
      ],
      "name": "transferOwnership",
      "outputs": [],
      "stateMutability": "nonpayable",
      "type": "function"
    },
    {
      "inputs": [
        {
          "internalType": "uint256",
          "name": "_id",
          "type": "uint256"
        }
      ],
      "name": "uri",
      "outputs": [
        {
          "internalType": "string",
          "name": "",
          "type": "string"
        }
      ],
      "stateMutability": "view",
      "type": "function"
    }
  ],
  "bytecode": "0x60806040523480156200001157600080fd5b50604051806020016040528060008152506200003381620000e860201b60201c565b506200005462000048620000fd60201b60201c565b6200010560201b60201c565b6040518060400160405280600e81526020017f526f626f742044726f70204e4654000000000000000000000000000000000000815250600490816200009a919062000445565b506040518060400160405280600781526020017f5244284e4654290000000000000000000000000000000000000000000000000081525060059081620000e1919062000445565b506200052c565b8060029081620000f9919062000445565b5050565b600033905090565b6000600360009054906101000a900473ffffffffffffffffffffffffffffffffffffffff16905081600360006101000a81548173ffffffffffffffffffffffffffffffffffffffff021916908373ffffffffffffffffffffffffffffffffffffffff1602179055508173ffffffffffffffffffffffffffffffffffffffff168173ffffffffffffffffffffffffffffffffffffffff167f8be0079c531659141344cd1fd0a4f28419497f9722a3daafe3b4186f6b6457e060405160405180910390a35050565b600081519050919050565b7f4e487b7100000000000000000000000000000000000000000000000000000000600052604160045260246000fd5b7f4e487b7100000000000000000000000000000000000000000000000000000000600052602260045260246000fd5b600060028204905060018216806200024d57607f821691505b60208210810362000263576200026262000205565b5b50919050565b60008190508160005260206000209050919050565b60006020601f8301049050919050565b600082821b905092915050565b600060088302620002cd7fffffffffffffffffffffffffffffffffffffffffffffffffffffffffffffffff826200028e565b620002d986836200028e565b95508019841693508086168417925050509392505050565b6000819050919050565b6000819050919050565b600062000326620003206200031a84620002f1565b620002fb565b620002f1565b9050919050565b6000819050919050565b620003428362000305565b6200035a62000351826200032d565b8484546200029b565b825550505050565b600090565b6200037162000362565b6200037e81848462000337565b505050565b5b81811015620003a6576200039a60008262000367565b60018101905062000384565b5050565b601f821115620003f557620003bf8162000269565b620003ca846200027e565b81016020851015620003da578190505b620003f2620003e9856200027e565b83018262000383565b50505b505050565b600082821c905092915050565b60006200041a60001984600802620003fa565b1980831691505092915050565b600062000435838362000407565b9150826002028217905092915050565b6200045082620001cb565b67ffffffffffffffff8111156200046c576200046b620001d6565b5b62000478825462000234565b62000485828285620003aa565b600060209050601f831160018114620004bd5760008415620004a8578287015190505b620004b4858262000427565b86555062000524565b601f198416620004cd8662000269565b60005b82811015620004f757848901518255600182019150602085019450602081019050620004d0565b8683101562000517578489015162000513601f89168262000407565b8355505b6001600288020188555050505b505050505050565b613f58806200053c6000396000f3fe608060405234801561001057600080fd5b506004361061012b5760003560e01c80638da5cb5b116100ad578063c87b56dd11610071578063c87b56dd14610318578063e64e206714610348578063e985e9c514610364578063f242432a14610394578063f2fde38b146103b05761012b565b80638da5cb5b1461028857806395d89b41146102a6578063a22cb465146102c4578063b390c0ab146102e0578063bb4351e8146102fc5761012b565b80634e1273f4116100f45780634e1273f4146101fa578063510f41041461022a578063715018a61461024657806383ca4b6f14610250578063862440e21461026c5761012b565b8062fdd58e1461013057806301ffc9a71461016057806306fdde03146101905780630e89341c146101ae5780632eb2c2d6146101de575b600080fd5b61014a600480360381019061014591906123c8565b6103cc565b6040516101579190612417565b60405180910390f35b61017a6004803603810190610175919061248a565b610494565b60405161018791906124d2565b60405180910390f35b610198610576565b6040516101a5919061257d565b60405180910390f35b6101c860048036038101906101c3919061259f565b610604565b6040516101d5919061257d565b60405180910390f35b6101f860048036038101906101f391906127c9565b6106a9565b005b610214600480360381019061020f919061295b565b61074a565b6040516102219190612a91565b60405180910390f35b610244600480360381019061023f9190612ab3565b610863565b005b61024e610898565b005b61026a60048036038101906102659190612b9e565b6108ac565b005b61028660048036038101906102819190612cb7565b6108bb565b005b610290610920565b60405161029d9190612d22565b60405180910390f35b6102ae61094a565b6040516102bb919061257d565b60405180910390f35b6102de60048036038101906102d99190612d69565b6109d8565b005b6102fa60048036038101906102f59190612da9565b6109ee565b005b61031660048036038101906103119190612de9565b6109fd565b005b610332600480360381019061032d919061259f565b610a0e565b60405161033f919061257d565b60405180910390f35b610362600480360381019061035d9190612f71565b610aae565b005b61037e60048036038101906103799190613018565b610b3f565b60405161038b91906124d2565b60405180910390f35b6103ae60048036038101906103a99190613058565b610bd3565b005b6103ca60048036038101906103c591906130ef565b610c74565b005b60008073ffffffffffffffffffffffffffffffffffffffff168373ffffffffffffffffffffffffffffffffffffffff160361043c576040517f08c379a00000000000000000000000000000000000000000000000000000000081526004016104339061318e565b60405180910390fd5b60008083815260200190815260200160002060008473ffffffffffffffffffffffffffffffffffffffff1673ffffffffffffffffffffffffffffffffffffffff16815260200190815260200160002054905092915050565b60007fd9b67a26000000000000000000000000000000000000000000000000000000007bffffffffffffffffffffffffffffffffffffffffffffffffffffffff1916827bffffffffffffffffffffffffffffffffffffffffffffffffffffffff1916148061055f57507f0e89341c000000000000000000000000000000000000000000000000000000007bffffffffffffffffffffffffffffffffffffffffffffffffffffffff1916827bffffffffffffffffffffffffffffffffffffffffffffffffffffffff1916145b8061056f575061056e82610cf7565b5b9050919050565b60048054610583906131dd565b80601f01602080910402602001604051908101604052809291908181526020018280546105af906131dd565b80156105fc5780601f106105d1576101008083540402835291602001916105fc565b820191906000526020600020905b8154815290600101906020018083116105df57829003601f168201915b505050505081565b6060600660008381526020019081526020016000208054610624906131dd565b80601f0160208091040260200160405190810160405280929190818152602001828054610650906131dd565b801561069d5780601f106106725761010080835404028352916020019161069d565b820191906000526020600020905b81548152906001019060200180831161068057829003601f168201915b50505050509050919050565b6106b1610d61565b73ffffffffffffffffffffffffffffffffffffffff168573ffffffffffffffffffffffffffffffffffffffff1614806106f757506106f6856106f1610d61565b610b3f565b5b610736576040517f08c379a000000000000000000000000000000000000000000000000000000000815260040161072d90613280565b60405180910390fd5b6107438585858585610d69565b5050505050565b60608151835114610790576040517f08c379a000000000000000000000000000000000000000000000000000000000815260040161078790613312565b60405180910390fd5b6000835167ffffffffffffffff8111156107ad576107ac6125d1565b5b6040519080825280602002602001820160405280156107db5781602001602082028036833780820191505090505b50905060005b845181101561085857610828858281518110610800576107ff613332565b5b602002602001015185838151811061081b5761081a613332565b5b60200260200101516103cc565b82828151811061083b5761083a613332565b5b6020026020010181815250508061085190613390565b90506107e1565b508091505092915050565b61086b61108a565b610876858585611108565b610891858383604051806020016040528060008152506113d6565b5050505050565b6108a061108a565b6108aa6000611602565b565b6108b7338383611108565b5050565b6108c361108a565b806006600084815260200190815260200160002090816108e39190613584565b50817f6bb7ff708619ba0610cba295a58592e0451dee2622938c8755667688daf3529b82604051610914919061257d565b60405180910390a25050565b6000600360009054906101000a900473ffffffffffffffffffffffffffffffffffffffff16905090565b60058054610957906131dd565b80601f0160208091040260200160405190810160405280929190818152602001828054610983906131dd565b80156109d05780601f106109a5576101008083540402835291602001916109d0565b820191906000526020600020905b8154815290600101906020018083116109b357829003601f168201915b505050505081565b6109ea6109e3610d61565b83836116c8565b5050565b6109f9338383611834565b5050565b610a09338484846113d6565b505050565b60066020528060005260406000206000915090508054610a2d906131dd565b80601f0160208091040260200160405190810160405280929190818152602001828054610a59906131dd565b8015610aa65780601f10610a7b57610100808354040283529160200191610aa6565b820191906000526020600020905b815481529060010190602001808311610a8957829003601f168201915b505050505081565b60005b8351811015610b39576000848281518110610acf57610ace613332565b5b602002602001015190506000848381518110610aee57610aed613332565b5b602002602001015190506000848481518110610b0d57610b0c613332565b5b60200260200101519050610b2333848484611a7a565b5050508080610b3190613390565b915050610ab1565b50505050565b6000600160008473ffffffffffffffffffffffffffffffffffffffff1673ffffffffffffffffffffffffffffffffffffffff16815260200190815260200160002060008373ffffffffffffffffffffffffffffffffffffffff1673ffffffffffffffffffffffffffffffffffffffff16815260200190815260200160002060009054906101000a900460ff16905092915050565b610bdb610d61565b73ffffffffffffffffffffffffffffffffffffffff168573ffffffffffffffffffffffffffffffffffffffff161480610c215750610c2085610c1b610d61565b610b3f565b5b610c60576040517f08c379a0000000000000000000000000000000000000000000000000000000008152600401610c5790613280565b60405180910390fd5b610c6d8585858585611c2a565b5050505050565b610c7c61108a565b600073ffffffffffffffffffffffffffffffffffffffff168173ffffffffffffffffffffffffffffffffffffffff1603610ceb576040517f08c379a0000000000000000000000000000000000000000000000000000000008152600401610ce2906136c8565b60405180910390fd5b610cf481611602565b50565b60007f01ffc9a7000000000000000000000000000000000000000000000000000000007bffffffffffffffffffffffffffffffffffffffffffffffffffffffff1916827bffffffffffffffffffffffffffffffffffffffffffffffffffffffff1916149050919050565b600033905090565b8151835114610dad576040517f08c379a0000000000000000000000000000000000000000000000000000000008152600401610da49061375a565b60405180910390fd5b600073ffffffffffffffffffffffffffffffffffffffff168473ffffffffffffffffffffffffffffffffffffffff1603610e1c576040517f08c379a0000000000000000000000000000000000000000000000000000000008152600401610e13906137ec565b60405180910390fd5b6000610e26610d61565b9050610e36818787878787611ec5565b60005b8451811015610fe7576000858281518110610e5757610e56613332565b5b602002602001015190506000858381518110610e7657610e75613332565b5b60200260200101519050600080600084815260200190815260200160002060008b73ffffffffffffffffffffffffffffffffffffffff1673ffffffffffffffffffffffffffffffffffffffff16815260200190815260200160002054905081811015610f17576040517f08c379a0000000000000000000000000000000000000000000000000000000008152600401610f0e9061387e565b60405180910390fd5b81810360008085815260200190815260200160002060008c73ffffffffffffffffffffffffffffffffffffffff1673ffffffffffffffffffffffffffffffffffffffff168152602001908152602001600020819055508160008085815260200190815260200160002060008b73ffffffffffffffffffffffffffffffffffffffff1673ffffffffffffffffffffffffffffffffffffffff1681526020019081526020016000206000828254610fcc919061389e565b9250508190555050505080610fe090613390565b9050610e39565b508473ffffffffffffffffffffffffffffffffffffffff168673ffffffffffffffffffffffffffffffffffffffff168273ffffffffffffffffffffffffffffffffffffffff167f4a39dc06d4c0dbc64b70af90fd698a233a518aa5d07e595d983b8c0526c8f7fb878760405161105e9291906138d2565b60405180910390a4611074818787878787611ecd565b611082818787878787611ed5565b505050505050565b611092610d61565b73ffffffffffffffffffffffffffffffffffffffff166110b0610920565b73ffffffffffffffffffffffffffffffffffffffff1614611106576040517f08c379a00000000000000000000000000000000000000000000000000000000081526004016110fd90613955565b60405180910390fd5b565b600073ffffffffffffffffffffffffffffffffffffffff168373ffffffffffffffffffffffffffffffffffffffff1603611177576040517f08c379a000000000000000000000000000000000000000000000000000000000815260040161116e906139e7565b60405180910390fd5b80518251146111bb576040517f08c379a00000000000000000000000000000000000000000000000000000000081526004016111b29061375a565b60405180910390fd5b60006111c5610d61565b90506111e581856000868660405180602001604052806000815250611ec5565b60005b835181101561133257600084828151811061120657611205613332565b5b60200260200101519050600084838151811061122557611224613332565b5b60200260200101519050600080600084815260200190815260200160002060008973ffffffffffffffffffffffffffffffffffffffff1673ffffffffffffffffffffffffffffffffffffffff168152602001908152602001600020549050818110156112c6576040517f08c379a00000000000000000000000000000000000000000000000000000000081526004016112bd90613a79565b60405180910390fd5b81810360008085815260200190815260200160002060008a73ffffffffffffffffffffffffffffffffffffffff1673ffffffffffffffffffffffffffffffffffffffff16815260200190815260200160002081905550505050808061132a90613390565b9150506111e8565b50600073ffffffffffffffffffffffffffffffffffffffff168473ffffffffffffffffffffffffffffffffffffffff168273ffffffffffffffffffffffffffffffffffffffff167f4a39dc06d4c0dbc64b70af90fd698a233a518aa5d07e595d983b8c0526c8f7fb86866040516113aa9291906138d2565b60405180910390a46113d081856000868660405180602001604052806000815250611ecd565b50505050565b600073ffffffffffffffffffffffffffffffffffffffff168473ffffffffffffffffffffffffffffffffffffffff1603611445576040517f08c379a000000000000000000000000000000000000000000000000000000000815260040161143c90613b0b565b60405180910390fd5b8151835114611489576040517f08c379a00000000000000000000000000000000000000000000000000000000081526004016114809061375a565b60405180910390fd5b6000611493610d61565b90506114a481600087878787611ec5565b60005b845181101561155d578381815181106114c3576114c2613332565b5b60200260200101516000808784815181106114e1576114e0613332565b5b6020026020010151815260200190815260200160002060008873ffffffffffffffffffffffffffffffffffffffff1673ffffffffffffffffffffffffffffffffffffffff1681526020019081526020016000206000828254611543919061389e565b92505081905550808061155590613390565b9150506114a7565b508473ffffffffffffffffffffffffffffffffffffffff16600073ffffffffffffffffffffffffffffffffffffffff168273ffffffffffffffffffffffffffffffffffffffff167f4a39dc06d4c0dbc64b70af90fd698a233a518aa5d07e595d983b8c0526c8f7fb87876040516115d59291906138d2565b60405180910390a46115ec81600087878787611ecd565b6115fb81600087878787611ed5565b5050505050565b6000600360009054906101000a900473ffffffffffffffffffffffffffffffffffffffff16905081600360006101000a81548173ffffffffffffffffffffffffffffffffffffffff021916908373ffffffffffffffffffffffffffffffffffffffff1602179055508173ffffffffffffffffffffffffffffffffffffffff168173ffffffffffffffffffffffffffffffffffffffff167f8be0079c531659141344cd1fd0a4f28419497f9722a3daafe3b4186f6b6457e060405160405180910390a35050565b8173ffffffffffffffffffffffffffffffffffffffff168373ffffffffffffffffffffffffffffffffffffffff1603611736576040517f08c379a000000000000000000000000000000000000000000000000000000000815260040161172d90613b9d565b60405180910390fd5b80600160008573ffffffffffffffffffffffffffffffffffffffff1673ffffffffffffffffffffffffffffffffffffffff16815260200190815260200160002060008473ffffffffffffffffffffffffffffffffffffffff1673ffffffffffffffffffffffffffffffffffffffff16815260200190815260200160002060006101000a81548160ff0219169083151502179055508173ffffffffffffffffffffffffffffffffffffffff168373ffffffffffffffffffffffffffffffffffffffff167f17307eab39ab6107e8899845ad3d59bd9653f200f220920489ca2b5937696c318360405161182791906124d2565b60405180910390a3505050565b600073ffffffffffffffffffffffffffffffffffffffff168373ffffffffffffffffffffffffffffffffffffffff16036118a3576040517f08c379a000000000000000000000000000000000000000000000000000000000815260040161189a906139e7565b60405180910390fd5b60006118ad610d61565b905060006118ba846120ac565b905060006118c7846120ac565b90506118e783876000858560405180602001604052806000815250611ec5565b600080600087815260200190815260200160002060008873ffffffffffffffffffffffffffffffffffffffff1673ffffffffffffffffffffffffffffffffffffffff1681526020019081526020016000205490508481101561197e576040517f08c379a000000000000000000000000000000000000000000000000000000000815260040161197590613a79565b60405180910390fd5b84810360008088815260200190815260200160002060008973ffffffffffffffffffffffffffffffffffffffff1673ffffffffffffffffffffffffffffffffffffffff16815260200190815260200160002081905550600073ffffffffffffffffffffffffffffffffffffffff168773ffffffffffffffffffffffffffffffffffffffff168573ffffffffffffffffffffffffffffffffffffffff167fc3d58168c5ae7397731d063d5bbf3d657854427343f4c083240f7aacaa2d0f628989604051611a4b929190613bbd565b60405180910390a4611a7184886000868660405180602001604052806000815250611ecd565b50505050505050565b600073ffffffffffffffffffffffffffffffffffffffff168473ffffffffffffffffffffffffffffffffffffffff1603611ae9576040517f08c379a0000000000000000000000000000000000000000000000000000000008152600401611ae090613b0b565b60405180910390fd5b6000611af3610d61565b90506000611b00856120ac565b90506000611b0d856120ac565b9050611b1e83600089858589611ec5565b8460008088815260200190815260200160002060008973ffffffffffffffffffffffffffffffffffffffff1673ffffffffffffffffffffffffffffffffffffffff1681526020019081526020016000206000828254611b7d919061389e565b925050819055508673ffffffffffffffffffffffffffffffffffffffff16600073ffffffffffffffffffffffffffffffffffffffff168473ffffffffffffffffffffffffffffffffffffffff167fc3d58168c5ae7397731d063d5bbf3d657854427343f4c083240f7aacaa2d0f628989604051611bfb929190613bbd565b60405180910390a4611c1283600089858589611ecd565b611c2183600089898989612126565b50505050505050565b600073ffffffffffffffffffffffffffffffffffffffff168473ffffffffffffffffffffffffffffffffffffffff1603611c99576040517f08c379a0000000000000000000000000000000000000000000000000000000008152600401611c90906137ec565b60405180910390fd5b6000611ca3610d61565b90506000611cb0856120ac565b90506000611cbd856120ac565b9050611ccd838989858589611ec5565b600080600088815260200190815260200160002060008a73ffffffffffffffffffffffffffffffffffffffff1673ffffffffffffffffffffffffffffffffffffffff16815260200190815260200160002054905085811015611d64576040517f08c379a0000000000000000000000000000000000000000000000000000000008152600401611d5b9061387e565b60405180910390fd5b85810360008089815260200190815260200160002060008b73ffffffffffffffffffffffffffffffffffffffff1673ffffffffffffffffffffffffffffffffffffffff168152602001908152602001600020819055508560008089815260200190815260200160002060008a73ffffffffffffffffffffffffffffffffffffffff1673ffffffffffffffffffffffffffffffffffffffff1681526020019081526020016000206000828254611e19919061389e565b925050819055508773ffffffffffffffffffffffffffffffffffffffff168973ffffffffffffffffffffffffffffffffffffffff168573ffffffffffffffffffffffffffffffffffffffff167fc3d58168c5ae7397731d063d5bbf3d657854427343f4c083240f7aacaa2d0f628a8a604051611e96929190613bbd565b60405180910390a4611eac848a8a86868a611ecd565b611eba848a8a8a8a8a612126565b505050505050505050565b505050505050565b505050505050565b611ef48473ffffffffffffffffffffffffffffffffffffffff166122fd565b156120a4578373ffffffffffffffffffffffffffffffffffffffff1663bc197c8187878686866040518663ffffffff1660e01b8152600401611f3a959493929190613c3b565b6020604051808303816000875af1925050508015611f7657506040513d601f19601f82011682018060405250810190611f739190613cb8565b60015b61201b57611f82613cf2565b806308c379a003611fde5750611f96613d14565b80611fa15750611fe0565b806040517f08c379a0000000000000000000000000000000000000000000000000000000008152600401611fd5919061257d565b60405180910390fd5b505b6040517f08c379a000000000000000000000000000000000000000000000000000000000815260040161201290613e16565b60405180910390fd5b63bc197c8160e01b7bffffffffffffffffffffffffffffffffffffffffffffffffffffffff1916817bffffffffffffffffffffffffffffffffffffffffffffffffffffffff1916146120a2576040517f08c379a000000000000000000000000000000000000000000000000000000000815260040161209990613ea8565b60405180910390fd5b505b505050505050565b60606000600167ffffffffffffffff8111156120cb576120ca6125d1565b5b6040519080825280602002602001820160405280156120f95781602001602082028036833780820191505090505b509050828160008151811061211157612110613332565b5b60200260200101818152505080915050919050565b6121458473ffffffffffffffffffffffffffffffffffffffff166122fd565b156122f5578373ffffffffffffffffffffffffffffffffffffffff1663f23a6e6187878686866040518663ffffffff1660e01b815260040161218b959493929190613ec8565b6020604051808303816000875af19250505080156121c757506040513d601f19601f820116820180604052508101906121c49190613cb8565b60015b61226c576121d3613cf2565b806308c379a00361222f57506121e7613d14565b806121f25750612231565b806040517f08c379a0000000000000000000000000000000000000000000000000000000008152600401612226919061257d565b60405180910390fd5b505b6040517f08c379a000000000000000000000000000000000000000000000000000000000815260040161226390613e16565b60405180910390fd5b63f23a6e6160e01b7bffffffffffffffffffffffffffffffffffffffffffffffffffffffff1916817bffffffffffffffffffffffffffffffffffffffffffffffffffffffff1916146122f3576040517f08c379a00000000000000000000000000000000000000000000000000000000081526004016122ea90613ea8565b60405180910390fd5b505b505050505050565b6000808273ffffffffffffffffffffffffffffffffffffffff163b119050919050565b6000604051905090565b600080fd5b600080fd5b600073ffffffffffffffffffffffffffffffffffffffff82169050919050565b600061235f82612334565b9050919050565b61236f81612354565b811461237a57600080fd5b50565b60008135905061238c81612366565b92915050565b6000819050919050565b6123a581612392565b81146123b057600080fd5b50565b6000813590506123c28161239c565b92915050565b600080604083850312156123df576123de61232a565b5b60006123ed8582860161237d565b92505060206123fe858286016123b3565b9150509250929050565b61241181612392565b82525050565b600060208201905061242c6000830184612408565b92915050565b60007fffffffff0000000000000000000000000000000000000000000000000000000082169050919050565b61246781612432565b811461247257600080fd5b50565b6000813590506124848161245e565b92915050565b6000602082840312156124a05761249f61232a565b5b60006124ae84828501612475565b91505092915050565b60008115159050919050565b6124cc816124b7565b82525050565b60006020820190506124e760008301846124c3565b92915050565b600081519050919050565b600082825260208201905092915050565b60005b8381101561252757808201518184015260208101905061250c565b60008484015250505050565b6000601f19601f8301169050919050565b600061254f826124ed565b61255981856124f8565b9350612569818560208601612509565b61257281612533565b840191505092915050565b600060208201905081810360008301526125978184612544565b905092915050565b6000602082840312156125b5576125b461232a565b5b60006125c3848285016123b3565b91505092915050565b600080fd5b7f4e487b7100000000000000000000000000000000000000000000000000000000600052604160045260246000fd5b61260982612533565b810181811067ffffffffffffffff82111715612628576126276125d1565b5b80604052505050565b600061263b612320565b90506126478282612600565b919050565b600067ffffffffffffffff821115612667576126666125d1565b5b602082029050602081019050919050565b600080fd5b600061269061268b8461264c565b612631565b905080838252602082019050602084028301858111156126b3576126b2612678565b5b835b818110156126dc57806126c888826123b3565b8452602084019350506020810190506126b5565b5050509392505050565b600082601f8301126126fb576126fa6125cc565b5b813561270b84826020860161267d565b91505092915050565b600080fd5b600067ffffffffffffffff821115612734576127336125d1565b5b61273d82612533565b9050602081019050919050565b82818337600083830152505050565b600061276c61276784612719565b612631565b90508281526020810184848401111561278857612787612714565b5b61279384828561274a565b509392505050565b600082601f8301126127b0576127af6125cc565b5b81356127c0848260208601612759565b91505092915050565b600080600080600060a086880312156127e5576127e461232a565b5b60006127f38882890161237d565b95505060206128048882890161237d565b945050604086013567ffffffffffffffff8111156128255761282461232f565b5b612831888289016126e6565b935050606086013567ffffffffffffffff8111156128525761285161232f565b5b61285e888289016126e6565b925050608086013567ffffffffffffffff81111561287f5761287e61232f565b5b61288b8882890161279b565b9150509295509295909350565b600067ffffffffffffffff8211156128b3576128b26125d1565b5b602082029050602081019050919050565b60006128d76128d284612898565b612631565b905080838252602082019050602084028301858111156128fa576128f9612678565b5b835b81811015612923578061290f888261237d565b8452602084019350506020810190506128fc565b5050509392505050565b600082601f830112612942576129416125cc565b5b81356129528482602086016128c4565b91505092915050565b600080604083850312156129725761297161232a565b5b600083013567ffffffffffffffff8111156129905761298f61232f565b5b61299c8582860161292d565b925050602083013567ffffffffffffffff8111156129bd576129bc61232f565b5b6129c9858286016126e6565b9150509250929050565b600081519050919050565b600082825260208201905092915050565b6000819050602082019050919050565b612a0881612392565b82525050565b6000612a1a83836129ff565b60208301905092915050565b6000602082019050919050565b6000612a3e826129d3565b612a4881856129de565b9350612a53836129ef565b8060005b83811015612a84578151612a6b8882612a0e565b9750612a7683612a26565b925050600181019050612a57565b5085935050505092915050565b60006020820190508181036000830152612aab8184612a33565b905092915050565b600080600080600060a08688031215612acf57612ace61232a565b5b6000612add8882890161237d565b955050602086013567ffffffffffffffff811115612afe57612afd61232f565b5b612b0a888289016126e6565b945050604086013567ffffffffffffffff811115612b2b57612b2a61232f565b5b612b37888289016126e6565b935050606086013567ffffffffffffffff811115612b5857612b5761232f565b5b612b64888289016126e6565b925050608086013567ffffffffffffffff811115612b8557612b8461232f565b5b612b91888289016126e6565b9150509295509295909350565b60008060408385031215612bb557612bb461232a565b5b600083013567ffffffffffffffff811115612bd357612bd261232f565b5b612bdf858286016126e6565b925050602083013567ffffffffffffffff811115612c0057612bff61232f565b5b612c0c858286016126e6565b9150509250929050565b600067ffffffffffffffff821115612c3157612c306125d1565b5b612c3a82612533565b9050602081019050919050565b6000612c5a612c5584612c16565b612631565b905082815260208101848484011115612c7657612c75612714565b5b612c8184828561274a565b509392505050565b600082601f830112612c9e57612c9d6125cc565b5b8135612cae848260208601612c47565b91505092915050565b60008060408385031215612cce57612ccd61232a565b5b6000612cdc858286016123b3565b925050602083013567ffffffffffffffff811115612cfd57612cfc61232f565b5b612d0985828601612c89565b9150509250929050565b612d1c81612354565b82525050565b6000602082019050612d376000830184612d13565b92915050565b612d46816124b7565b8114612d5157600080fd5b50565b600081359050612d6381612d3d565b92915050565b60008060408385031215612d8057612d7f61232a565b5b6000612d8e8582860161237d565b9250506020612d9f85828601612d54565b9150509250929050565b60008060408385031215612dc057612dbf61232a565b5b6000612dce858286016123b3565b9250506020612ddf858286016123b3565b9150509250929050565b600080600060608486031215612e0257612e0161232a565b5b600084013567ffffffffffffffff811115612e2057612e1f61232f565b5b612e2c868287016126e6565b935050602084013567ffffffffffffffff811115612e4d57612e4c61232f565b5b612e59868287016126e6565b925050604084013567ffffffffffffffff811115612e7a57612e7961232f565b5b612e868682870161279b565b9150509250925092565b600067ffffffffffffffff821115612eab57612eaa6125d1565b5b602082029050602081019050919050565b6000612ecf612eca84612e90565b612631565b90508083825260208201905060208402830185811115612ef257612ef1612678565b5b835b81811015612f3957803567ffffffffffffffff811115612f1757612f166125cc565b5b808601612f24898261279b565b85526020850194505050602081019050612ef4565b5050509392505050565b600082601f830112612f5857612f576125cc565b5b8135612f68848260208601612ebc565b91505092915050565b600080600060608486031215612f8a57612f8961232a565b5b600084013567ffffffffffffffff811115612fa857612fa761232f565b5b612fb4868287016126e6565b935050602084013567ffffffffffffffff811115612fd557612fd461232f565b5b612fe1868287016126e6565b925050604084013567ffffffffffffffff8111156130025761300161232f565b5b61300e86828701612f43565b9150509250925092565b6000806040838503121561302f5761302e61232a565b5b600061303d8582860161237d565b925050602061304e8582860161237d565b9150509250929050565b600080600080600060a086880312156130745761307361232a565b5b60006130828882890161237d565b95505060206130938882890161237d565b94505060406130a4888289016123b3565b93505060606130b5888289016123b3565b925050608086013567ffffffffffffffff8111156130d6576130d561232f565b5b6130e28882890161279b565b9150509295509295909350565b6000602082840312156131055761310461232a565b5b60006131138482850161237d565b91505092915050565b7f455243313135353a2061646472657373207a65726f206973206e6f742061207660008201527f616c6964206f776e657200000000000000000000000000000000000000000000602082015250565b6000613178602a836124f8565b91506131838261311c565b604082019050919050565b600060208201905081810360008301526131a78161316b565b9050919050565b7f4e487b7100000000000000000000000000000000000000000000000000000000600052602260045260246000fd5b600060028204905060018216806131f557607f821691505b602082108103613208576132076131ae565b5b50919050565b7f455243313135353a2063616c6c6572206973206e6f7420746f6b656e206f776e60008201527f6572206f7220617070726f766564000000000000000000000000000000000000602082015250565b600061326a602e836124f8565b91506132758261320e565b604082019050919050565b600060208201905081810360008301526132998161325d565b9050919050565b7f455243313135353a206163636f756e747320616e6420696473206c656e67746860008201527f206d69736d617463680000000000000000000000000000000000000000000000602082015250565b60006132fc6029836124f8565b9150613307826132a0565b604082019050919050565b6000602082019050818103600083015261332b816132ef565b9050919050565b7f4e487b7100000000000000000000000000000000000000000000000000000000600052603260045260246000fd5b7f4e487b7100000000000000000000000000000000000000000000000000000000600052601160045260246000fd5b600061339b82612392565b91507fffffffffffffffffffffffffffffffffffffffffffffffffffffffffffffffff82036133cd576133cc613361565b5b600182019050919050565b60008190508160005260206000209050919050565b60006020601f8301049050919050565b600082821b905092915050565b60006008830261343a7fffffffffffffffffffffffffffffffffffffffffffffffffffffffffffffffff826133fd565b61344486836133fd565b95508019841693508086168417925050509392505050565b6000819050919050565b600061348161347c61347784612392565b61345c565b612392565b9050919050565b6000819050919050565b61349b83613466565b6134af6134a782613488565b84845461340a565b825550505050565b600090565b6134c46134b7565b6134cf818484613492565b505050565b5b818110156134f3576134e86000826134bc565b6001810190506134d5565b5050565b601f82111561353857613509816133d8565b613512846133ed565b81016020851015613521578190505b61353561352d856133ed565b8301826134d4565b50505b505050565b600082821c905092915050565b600061355b6000198460080261353d565b1980831691505092915050565b6000613574838361354a565b9150826002028217905092915050565b61358d826124ed565b67ffffffffffffffff8111156135a6576135a56125d1565b5b6135b082546131dd565b6135bb8282856134f7565b600060209050601f8311600181146135ee57600084156135dc578287015190505b6135e68582613568565b86555061364e565b601f1984166135fc866133d8565b60005b82811015613624578489015182556001820191506020850194506020810190506135ff565b86831015613641578489015161363d601f89168261354a565b8355505b6001600288020188555050505b505050505050565b7f4f776e61626c653a206e6577206f776e657220697320746865207a65726f206160008201527f6464726573730000000000000000000000000000000000000000000000000000602082015250565b60006136b26026836124f8565b91506136bd82613656565b604082019050919050565b600060208201905081810360008301526136e1816136a5565b9050919050565b7f455243313135353a2069647320616e6420616d6f756e7473206c656e6774682060008201527f6d69736d61746368000000000000000000000000000000000000000000000000602082015250565b60006137446028836124f8565b915061374f826136e8565b604082019050919050565b6000602082019050818103600083015261377381613737565b9050919050565b7f455243313135353a207472616e7366657220746f20746865207a65726f20616460008201527f6472657373000000000000000000000000000000000000000000000000000000602082015250565b60006137d66025836124f8565b91506137e18261377a565b604082019050919050565b60006020820190508181036000830152613805816137c9565b9050919050565b7f455243313135353a20696e73756666696369656e742062616c616e636520666f60008201527f72207472616e7366657200000000000000000000000000000000000000000000602082015250565b6000613868602a836124f8565b91506138738261380c565b604082019050919050565b600060208201905081810360008301526138978161385b565b9050919050565b60006138a982612392565b91506138b483612392565b92508282019050808211156138cc576138cb613361565b5b92915050565b600060408201905081810360008301526138ec8185612a33565b905081810360208301526139008184612a33565b90509392505050565b7f4f776e61626c653a2063616c6c6572206973206e6f7420746865206f776e6572600082015250565b600061393f6020836124f8565b915061394a82613909565b602082019050919050565b6000602082019050818103600083015261396e81613932565b9050919050565b7f455243313135353a206275726e2066726f6d20746865207a65726f206164647260008201527f6573730000000000000000000000000000000000000000000000000000000000602082015250565b60006139d16023836124f8565b91506139dc82613975565b604082019050919050565b60006020820190508181036000830152613a00816139c4565b9050919050565b7f455243313135353a206275726e20616d6f756e7420657863656564732062616c60008201527f616e636500000000000000000000000000000000000000000000000000000000602082015250565b6000613a636024836124f8565b9150613a6e82613a07565b604082019050919050565b60006020820190508181036000830152613a9281613a56565b9050919050565b7f455243313135353a206d696e7420746f20746865207a65726f2061646472657360008201527f7300000000000000000000000000000000000000000000000000000000000000602082015250565b6000613af56021836124f8565b9150613b0082613a99565b604082019050919050565b60006020820190508181036000830152613b2481613ae8565b9050919050565b7f455243313135353a2073657474696e6720617070726f76616c2073746174757360008201527f20666f722073656c660000000000000000000000000000000000000000000000602082015250565b6000613b876029836124f8565b9150613b9282613b2b565b604082019050919050565b60006020820190508181036000830152613bb681613b7a565b9050919050565b6000604082019050613bd26000830185612408565b613bdf6020830184612408565b9392505050565b600081519050919050565b600082825260208201905092915050565b6000613c0d82613be6565b613c178185613bf1565b9350613c27818560208601612509565b613c3081612533565b840191505092915050565b600060a082019050613c506000830188612d13565b613c5d6020830187612d13565b8181036040830152613c6f8186612a33565b90508181036060830152613c838185612a33565b90508181036080830152613c978184613c02565b90509695505050505050565b600081519050613cb28161245e565b92915050565b600060208284031215613cce57613ccd61232a565b5b6000613cdc84828501613ca3565b91505092915050565b60008160e01c9050919050565b600060033d1115613d115760046000803e613d0e600051613ce5565b90505b90565b600060443d10613da157613d26612320565b60043d036004823e80513d602482011167ffffffffffffffff82111715613d4e575050613da1565b808201805167ffffffffffffffff811115613d6c5750505050613da1565b80602083010160043d038501811115613d89575050505050613da1565b613d9882602001850186612600565b82955050505050505b90565b7f455243313135353a207472616e7366657220746f206e6f6e2d4552433131353560008201527f526563656976657220696d706c656d656e746572000000000000000000000000602082015250565b6000613e006034836124f8565b9150613e0b82613da4565b604082019050919050565b60006020820190508181036000830152613e2f81613df3565b9050919050565b7f455243313135353a204552433131353552656365697665722072656a6563746560008201527f6420746f6b656e73000000000000000000000000000000000000000000000000602082015250565b6000613e926028836124f8565b9150613e9d82613e36565b604082019050919050565b60006020820190508181036000830152613ec181613e85565b9050919050565b600060a082019050613edd6000830188612d13565b613eea6020830187612d13565b613ef76040830186612408565b613f046060830185612408565b8181036080830152613f168184613c02565b9050969550505050505056fea264697066735822122079b267b8a9909872a2e76292f4f3d42ac563d45665c3d0a7557949cfcc757bd264736f6c63430008110033",
  "linkReferences": {},
  "deployedLinkReferences": {}
}