{
  "_format": "hh-sol-artifact-1",
  "contractName": "Auctions",
  "sourceName": "contracts/CreateAuctionContract.sol",
  "abi": [
    {
      "inputs": [
        {
          "internalType": "string",
          "name": "_name",
          "type": "string"
        }
      ],
      "stateMutability": "nonpayable",
      "type": "constructor"
    },
    {
      "anonymous": false,
      "inputs": [
        {
          "indexed": false,
          "internalType": "uint256",
          "name": "auctionIndex",
          "type": "uint256"
        },
        {
          "indexed": false,
          "internalType": "uint256",
          "name": "nftId",
          "type": "uint256"
        },
        {
          "indexed": false,
          "internalType": "address",
          "name": "claimedBy",
          "type": "address"
        }
      ],
      "name": "NFTClaimed",
      "type": "event"
    },
    {
      "anonymous": false,
      "inputs": [
        {
          "indexed": false,
          "internalType": "uint256",
          "name": "auctionIndex",
          "type": "uint256"
        },
        {
          "indexed": false,
          "internalType": "uint256",
          "name": "nftId",
          "type": "uint256"
        },
        {
          "indexed": false,
          "internalType": "address",
          "name": "claimedBy",
          "type": "address"
        }
      ],
      "name": "NFTRefunded",
      "type": "event"
    },
    {
      "anonymous": false,
      "inputs": [
        {
          "indexed": false,
          "internalType": "uint256",
          "name": "index",
          "type": "uint256"
        },
        {
          "indexed": false,
          "internalType": "address",
          "name": "CubeContractAddress",
          "type": "address"
        },
        {
          "indexed": false,
          "internalType": "address",
          "name": "addressPaymentToken",
          "type": "address"
        },
        {
          "indexed": false,
          "internalType": "uint256",
          "name": "nftId",
          "type": "uint256"
        },
        {
          "indexed": false,
          "internalType": "address",
          "name": "Auctioneer",
          "type": "address"
        },
        {
          "indexed": false,
          "internalType": "address",
          "name": "currentBidOwner",
          "type": "address"
        },
        {
          "indexed": false,
          "internalType": "uint256",
          "name": "currentBidPrice",
          "type": "uint256"
        },
        {
          "indexed": false,
          "internalType": "uint256",
          "name": "startAuction",
          "type": "uint256"
        },
        {
          "indexed": false,
          "internalType": "uint256",
          "name": "endAuction",
          "type": "uint256"
        },
        {
          "indexed": false,
          "internalType": "uint256",
          "name": "bidCount",
          "type": "uint256"
        }
      ],
      "name": "NewAuction",
      "type": "event"
    },
    {
      "anonymous": false,
      "inputs": [
        {
          "indexed": false,
          "internalType": "uint256",
          "name": "auctionIndex",
          "type": "uint256"
        },
        {
          "indexed": false,
          "internalType": "address",
          "name": "bidder",
          "type": "address"
        },
        {
          "indexed": false,
          "internalType": "uint256",
          "name": "newBid",
          "type": "uint256"
        }
      ],
      "name": "NewBidOnAuction",
      "type": "event"
    },
    {
      "anonymous": false,
      "inputs": [
        {
          "indexed": false,
          "internalType": "uint256",
          "name": "auctionIndex",
          "type": "uint256"
        },
        {
          "indexed": false,
          "internalType": "uint256",
          "name": "nftId",
          "type": "uint256"
        },
        {
          "indexed": false,
          "internalType": "address",
          "name": "claimedBy",
          "type": "address"
        }
      ],
      "name": "TokensClaimed",
      "type": "event"
    },
    {
      "inputs": [
        {
          "internalType": "uint256",
          "name": "_auctionIndex",
          "type": "uint256"
        },
        {
          "internalType": "uint256",
          "name": "_newBid",
          "type": "uint256"
        }
      ],
      "name": "bid",
      "outputs": [
        {
          "internalType": "bool",
          "name": "",
          "type": "bool"
        }
      ],
      "stateMutability": "nonpayable",
      "type": "function"
    },
    {
      "inputs": [
        {
          "internalType": "uint256",
          "name": "_auctionIndex",
          "type": "uint256"
        }
      ],
      "name": "claimFunds",
      "outputs": [],
      "stateMutability": "nonpayable",
      "type": "function"
    },
    {
      "inputs": [
        {
          "internalType": "uint256",
          "name": "_auctionIndex",
          "type": "uint256"
        }
      ],
      "name": "claimNFT",
      "outputs": [],
      "stateMutability": "nonpayable",
      "type": "function"
    },
    {
      "inputs": [
        {
          "internalType": "address",
          "name": "_cubeContractAddress",
          "type": "address"
        },
        {
          "internalType": "address",
          "name": "_addressPaymentToken",
          "type": "address"
        },
        {
          "internalType": "uint256",
          "name": "_nftId",
          "type": "uint256"
        },
        {
          "internalType": "uint256",
          "name": "_minBid",
          "type": "uint256"
        },
        {
          "internalType": "uint256",
          "name": "_startAuction",
          "type": "uint256"
        },
        {
          "internalType": "uint256",
          "name": "_endAuction",
          "type": "uint256"
        }
      ],
      "name": "createAuction",
      "outputs": [
        {
          "internalType": "uint256",
          "name": "",
          "type": "uint256"
        }
      ],
      "stateMutability": "nonpayable",
      "type": "function"
    },
    {
      "inputs": [
        {
          "internalType": "uint256",
          "name": "_auctionIndex",
          "type": "uint256"
        }
      ],
      "name": "getCurrentBid",
      "outputs": [
        {
          "internalType": "uint256",
          "name": "",
          "type": "uint256"
        }
      ],
      "stateMutability": "view",
      "type": "function"
    },
    {
      "inputs": [
        {
          "internalType": "uint256",
          "name": "_auctionIndex",
          "type": "uint256"
        }
      ],
      "name": "getCurrentBidOwner",
      "outputs": [
        {
          "internalType": "address",
          "name": "",
          "type": "address"
        }
      ],
      "stateMutability": "view",
      "type": "function"
    },
    {
      "inputs": [],
      "name": "index",
      "outputs": [
        {
          "internalType": "uint256",
          "name": "",
          "type": "uint256"
        }
      ],
      "stateMutability": "view",
      "type": "function"
    },
    {
      "inputs": [
        {
          "internalType": "uint256",
          "name": "_auctionIndex",
          "type": "uint256"
        }
      ],
      "name": "isOpen",
      "outputs": [
        {
          "internalType": "bool",
          "name": "",
          "type": "bool"
        }
      ],
      "stateMutability": "view",
      "type": "function"
    },
    {
      "inputs": [],
      "name": "name",
      "outputs": [
        {
          "internalType": "string",
          "name": "",
          "type": "string"
        }
      ],
      "stateMutability": "view",
      "type": "function"
    },
    {
      "inputs": [
        {
          "internalType": "address",
          "name": "",
          "type": "address"
        },
        {
          "internalType": "address",
          "name": "",
          "type": "address"
        },
        {
          "internalType": "uint256",
          "name": "",
          "type": "uint256"
        },
        {
          "internalType": "bytes",
          "name": "",
          "type": "bytes"
        }
      ],
      "name": "onERC721Received",
      "outputs": [
        {
          "internalType": "bytes4",
          "name": "",
          "type": "bytes4"
        }
      ],
      "stateMutability": "nonpayable",
      "type": "function"
    },
    {
      "inputs": [
        {
          "internalType": "uint256",
          "name": "_auctionIndex",
          "type": "uint256"
        }
      ],
      "name": "refundNFT",
      "outputs": [],
      "stateMutability": "nonpayable",
      "type": "function"
    }
  ],
  "bytecode": "0x608060405260006001553480156200001657600080fd5b5060405162002d2038038062002d2083398181016040528101906200003c9190620001e8565b80600090816200004d919062000484565b50506200056b565b6000604051905090565b600080fd5b600080fd5b600080fd5b600080fd5b6000601f19601f8301169050919050565b7f4e487b7100000000000000000000000000000000000000000000000000000000600052604160045260246000fd5b620000be8262000073565b810181811067ffffffffffffffff82111715620000e057620000df62000084565b5b80604052505050565b6000620000f562000055565b9050620001038282620000b3565b919050565b600067ffffffffffffffff82111562000126576200012562000084565b5b620001318262000073565b9050602081019050919050565b60005b838110156200015e57808201518184015260208101905062000141565b60008484015250505050565b6000620001816200017b8462000108565b620000e9565b905082815260208101848484011115620001a0576200019f6200006e565b5b620001ad8482856200013e565b509392505050565b600082601f830112620001cd57620001cc62000069565b5b8151620001df8482602086016200016a565b91505092915050565b6000602082840312156200020157620002006200005f565b5b600082015167ffffffffffffffff81111562000222576200022162000064565b5b6200023084828501620001b5565b91505092915050565b600081519050919050565b7f4e487b7100000000000000000000000000000000000000000000000000000000600052602260045260246000fd5b600060028204905060018216806200028c57607f821691505b602082108103620002a257620002a162000244565b5b50919050565b60008190508160005260206000209050919050565b60006020601f8301049050919050565b600082821b905092915050565b6000600883026200030c7fffffffffffffffffffffffffffffffffffffffffffffffffffffffffffffffff82620002cd565b620003188683620002cd565b95508019841693508086168417925050509392505050565b6000819050919050565b6000819050919050565b6000620003656200035f620003598462000330565b6200033a565b62000330565b9050919050565b6000819050919050565b620003818362000344565b6200039962000390826200036c565b848454620002da565b825550505050565b600090565b620003b0620003a1565b620003bd81848462000376565b505050565b5b81811015620003e557620003d9600082620003a6565b600181019050620003c3565b5050565b601f8211156200043457620003fe81620002a8565b6200040984620002bd565b8101602085101562000419578190505b620004316200042885620002bd565b830182620003c2565b50505b505050565b600082821c905092915050565b6000620004596000198460080262000439565b1980831691505092915050565b600062000474838362000446565b9150826002028217905092915050565b6200048f8262000239565b67ffffffffffffffff811115620004ab57620004aa62000084565b5b620004b7825462000273565b620004c4828285620003e9565b600060209050601f831160018114620004fc5760008415620004e7578287015190505b620004f3858262000466565b86555062000563565b601f1984166200050c86620002a8565b60005b8281101562000536578489015182556001820191506020850194506020810190506200050f565b8683101562000556578489015162000552601f89168262000446565b8355505b6001600288020188555050505b505050505050565b6127a5806200057b6000396000f3fe608060405234801561001057600080fd5b50600436106100a95760003560e01c80634d6861a6116100715780634d6861a614610166578063598647f8146101965780635db6984e146101c657806386b46073146101e2578063da4e364f14610212578063fe5c873a14610242576100a9565b806306fdde03146100ae57806312b3d2c1146100cc578063150b7a02146100fc5780631b55e3381461012c5780632986c0e514610148575b600080fd5b6100b661025e565b6040516100c3919061171e565b60405180910390f35b6100e660048036038101906100e191906117e8565b6102ec565b6040516100f39190611884565b60405180910390f35b610116600480360381019061011191906119d4565b610845565b6040516101239190611a92565b60405180910390f35b61014660048036038101906101419190611aad565b610859565b005b610150610c13565b60405161015d9190611884565b60405180910390f35b610180600480360381019061017b9190611aad565b610c19565b60405161018d9190611af5565b60405180910390f35b6101b060048036038101906101ab9190611b10565b610c60565b6040516101bd9190611af5565b60405180910390f35b6101e060048036038101906101db9190611aad565b611044565b005b6101fc60048036038101906101f79190611aad565b611323565b6040516102099190611b5f565b60405180910390f35b61022c60048036038101906102279190611aad565b6113b9565b6040516102399190611884565b60405180910390f35b61025c60048036038101906102579190611aad565b61142f565b005b6000805461026b90611ba9565b80601f016020809104026020016040519081016040528092919081815260200182805461029790611ba9565b80156102e45780601f106102b9576101008083540402835291602001916102e4565b820191906000526020600020905b8154815290600101906020018083116102c757829003601f168201915b505050505081565b60006102f78761167b565b610336576040517f08c379a000000000000000000000000000000000000000000000000000000000815260040161032d90611c4c565b60405180910390fd5b61033f8661167b565b61037e576040517f08c379a000000000000000000000000000000000000000000000000000000000815260040161037590611cde565b60405180910390fd5b428311156103c1576040517f08c379a00000000000000000000000000000000000000000000000000000000081526004016103b890611d4a565b60405180910390fd5b428211610403576040517f08c379a00000000000000000000000000000000000000000000000000000000081526004016103fa90611db6565b60405180910390fd5b60008411610446576040517f08c379a000000000000000000000000000000000000000000000000000000000815260040161043d90611e22565b60405180910390fd5b60008790503373ffffffffffffffffffffffffffffffffffffffff168173ffffffffffffffffffffffffffffffffffffffff16636352211e886040518263ffffffff1660e01b815260040161049b9190611884565b602060405180830381865afa1580156104b8573d6000803e3d6000fd5b505050506040513d601f19601f820116820180604052508101906104dc9190611e57565b73ffffffffffffffffffffffffffffffffffffffff1614610532576040517f08c379a000000000000000000000000000000000000000000000000000000000815260040161052990611ef6565b60405180910390fd5b8073ffffffffffffffffffffffffffffffffffffffff166323b872dd3330896040518463ffffffff1660e01b815260040161056f93929190611f16565b600060405180830381600087803b15801561058957600080fd5b505af115801561059d573d6000803e3d6000fd5b5050505060008060405180610140016040528060015481526020018b73ffffffffffffffffffffffffffffffffffffffff1681526020018a73ffffffffffffffffffffffffffffffffffffffff1681526020018981526020013373ffffffffffffffffffffffffffffffffffffffff1681526020018373ffffffffffffffffffffffffffffffffffffffff1681526020018881526020018781526020018681526020016000815250905060028190806001815401808255809150506001900390600052602060002090600a02016000909190919091506000820151816000015560208201518160010160006101000a81548173ffffffffffffffffffffffffffffffffffffffff021916908373ffffffffffffffffffffffffffffffffffffffff16021790555060408201518160020160006101000a81548173ffffffffffffffffffffffffffffffffffffffff021916908373ffffffffffffffffffffffffffffffffffffffff1602179055506060820151816003015560808201518160040160006101000a81548173ffffffffffffffffffffffffffffffffffffffff021916908373ffffffffffffffffffffffffffffffffffffffff16021790555060a08201518160050160006101000a81548173ffffffffffffffffffffffffffffffffffffffff021916908373ffffffffffffffffffffffffffffffffffffffff16021790555060c0820151816006015560e08201518160070155610100820151816008015561012082015181600901555050600160008154809291906107e290611f7c565b91905055507ffceb3ded1370804a0788e80c716c0218ab886e4ab6973dde53da9b21f6fe356f6001548b8b8b33878d8d8d600060405161082b9a9998979695949392919061205e565b60405180910390a160015493505050509695505050505050565b600063150b7a0260e01b9050949350505050565b60028054905081106108a0576040517f08c379a000000000000000000000000000000000000000000000000000000000815260040161089790612146565b60405180910390fd5b6108a981610c19565b156108e9576040517f08c379a00000000000000000000000000000000000000000000000000000000081526004016108e0906121b2565b60405180910390fd5b6000600282815481106108ff576108fe6121d2565b5b90600052602060002090600a020190503373ffffffffffffffffffffffffffffffffffffffff168160040160009054906101000a900473ffffffffffffffffffffffffffffffffffffffff1673ffffffffffffffffffffffffffffffffffffffff16146109a1576040517f08c379a000000000000000000000000000000000000000000000000000000000815260040161099890612273565b60405180910390fd5b600073ffffffffffffffffffffffffffffffffffffffff168160050160009054906101000a900473ffffffffffffffffffffffffffffffffffffffff1673ffffffffffffffffffffffffffffffffffffffff1603610afe5760008160010160009054906101000a900473ffffffffffffffffffffffffffffffffffffffff1690508073ffffffffffffffffffffffffffffffffffffffff166323b872dd308460040160009054906101000a900473ffffffffffffffffffffffffffffffffffffffff1685600301546040518463ffffffff1660e01b8152600401610a8793929190611f16565b600060405180830381600087803b158015610aa157600080fd5b505af1158015610ab5573d6000803e3d6000fd5b505050507f7dfbb77cc823ba323508cf4299ef206c31bf00a33e43ac269c79f793f6bd12c783836003015433604051610af093929190612293565b60405180910390a150610c0f565b60008160020160009054906101000a900473ffffffffffffffffffffffffffffffffffffffff1690508073ffffffffffffffffffffffffffffffffffffffff1663a9059cbb8360040160009054906101000a900473ffffffffffffffffffffffffffffffffffffffff1684600601546040518363ffffffff1660e01b8152600401610b8a9291906122ca565b6020604051808303816000875af1158015610ba9573d6000803e3d6000fd5b505050506040513d601f19601f82011682018060405250810190610bcd919061231f565b507f74d693d132dbe07a071ac2e6d043de8ca215aeaa3df9b1150643fd73f202725483836003015433604051610c0593929190612293565b60405180910390a1505b5050565b60015481565b60008060028381548110610c3057610c2f6121d2565b5b90600052602060002090600a0201905080600801544210610c55576000915050610c5b565b60019150505b919050565b60006002805490508310610ca9576040517f08c379a0000000000000000000000000000000000000000000000000000000008152600401610ca090612146565b60405180910390fd5b600060028481548110610cbf57610cbe6121d2565b5b90600052602060002090600a02019050610cd884610c19565b610d17576040517f08c379a0000000000000000000000000000000000000000000000000000000008152600401610d0e90612398565b60405180910390fd5b80600601548311610d5d576040517f08c379a0000000000000000000000000000000000000000000000000000000008152600401610d549061242a565b60405180910390fd5b8060040160009054906101000a900473ffffffffffffffffffffffffffffffffffffffff1673ffffffffffffffffffffffffffffffffffffffff163373ffffffffffffffffffffffffffffffffffffffff1603610def576040517f08c379a0000000000000000000000000000000000000000000000000000000008152600401610de6906124bc565b60405180910390fd5b60008160020160009054906101000a900473ffffffffffffffffffffffffffffffffffffffff1690508073ffffffffffffffffffffffffffffffffffffffff166323b872dd3330876040518463ffffffff1660e01b8152600401610e5593929190611f16565b6020604051808303816000875af1158015610e74573d6000803e3d6000fd5b505050506040513d601f19601f82011682018060405250810190610e98919061231f565b610ed7576040517f08c379a0000000000000000000000000000000000000000000000000000000008152600401610ece90612528565b60405180910390fd5b600082600901541115610f90578073ffffffffffffffffffffffffffffffffffffffff1663a9059cbb8360050160009054906101000a900473ffffffffffffffffffffffffffffffffffffffff1684600601546040518363ffffffff1660e01b8152600401610f47929190612548565b6020604051808303816000875af1158015610f66573d6000803e3d6000fd5b505050506040513d601f19601f82011682018060405250810190610f8a919061231f565b50611038565b6000339050808360050160006101000a81548173ffffffffffffffffffffffffffffffffffffffff021916908373ffffffffffffffffffffffffffffffffffffffff160217905550848360060181905550826009016000815480929190610ff690611f7c565b91905055507f4d806fdf2bf6df420c914cbe993ce1fd8c1c91d4282d40abdff2f5bc0df3a24186338760405161102e93929190612571565b60405180910390a1505b60019250505092915050565b600280549050811061108b576040517f08c379a000000000000000000000000000000000000000000000000000000000815260040161108290612146565b60405180910390fd5b61109481610c19565b156110d4576040517f08c379a00000000000000000000000000000000000000000000000000000000081526004016110cb906121b2565b60405180910390fd5b6000600282815481106110ea576110e96121d2565b5b90600052602060002090600a020190503373ffffffffffffffffffffffffffffffffffffffff168160040160009054906101000a900473ffffffffffffffffffffffffffffffffffffffff1673ffffffffffffffffffffffffffffffffffffffff161461118c576040517f08c379a00000000000000000000000000000000000000000000000000000000081526004016111839061261a565b60405180910390fd5b600073ffffffffffffffffffffffffffffffffffffffff168160050160009054906101000a900473ffffffffffffffffffffffffffffffffffffffff1673ffffffffffffffffffffffffffffffffffffffff161461121f576040517f08c379a000000000000000000000000000000000000000000000000000000000815260040161121690612686565b60405180910390fd5b60008160010160009054906101000a900473ffffffffffffffffffffffffffffffffffffffff1690508073ffffffffffffffffffffffffffffffffffffffff166323b872dd308460040160009054906101000a900473ffffffffffffffffffffffffffffffffffffffff1685600301546040518463ffffffff1660e01b81526004016112ad93929190611f16565b600060405180830381600087803b1580156112c757600080fd5b505af11580156112db573d6000803e3d6000fd5b505050507f7dfbb77cc823ba323508cf4299ef206c31bf00a33e43ac269c79f793f6bd12c78383600301543360405161131693929190612293565b60405180910390a1505050565b6000600280549050821061136c576040517f08c379a000000000000000000000000000000000000000000000000000000000815260040161136390612146565b60405180910390fd5b600282815481106113805761137f6121d2565b5b90600052602060002090600a020160050160009054906101000a900473ffffffffffffffffffffffffffffffffffffffff169050919050565b60006002805490508210611402576040517f08c379a00000000000000000000000000000000000000000000000000000000081526004016113f990612146565b60405180910390fd5b60028281548110611416576114156121d2565b5b90600052602060002090600a0201600601549050919050565b6002805490508110611476576040517f08c379a000000000000000000000000000000000000000000000000000000000815260040161146d90612146565b60405180910390fd5b61147f81610c19565b156114bf576040517f08c379a00000000000000000000000000000000000000000000000000000000081526004016114b6906121b2565b60405180910390fd5b6000600282815481106114d5576114d46121d2565b5b90600052602060002090600a020190503373ffffffffffffffffffffffffffffffffffffffff168160050160009054906101000a900473ffffffffffffffffffffffffffffffffffffffff1673ffffffffffffffffffffffffffffffffffffffff1614611577576040517f08c379a000000000000000000000000000000000000000000000000000000000815260040161156e90612718565b60405180910390fd5b60008160010160009054906101000a900473ffffffffffffffffffffffffffffffffffffffff1690508073ffffffffffffffffffffffffffffffffffffffff166323b872dd308460050160009054906101000a900473ffffffffffffffffffffffffffffffffffffffff1685600301546040518463ffffffff1660e01b815260040161160593929190612738565b600060405180830381600087803b15801561161f57600080fd5b505af1158015611633573d6000803e3d6000fd5b505050507f7d4f7628c7b4939e94b123a69aabebcd8fbc8bac313fa8c20b7b71cb1601d3968383600301543360405161166e93929190612293565b60405180910390a1505050565b600080823b905060008111915050919050565b600081519050919050565b600082825260208201905092915050565b60005b838110156116c85780820151818401526020810190506116ad565b60008484015250505050565b6000601f19601f8301169050919050565b60006116f08261168e565b6116fa8185611699565b935061170a8185602086016116aa565b611713816116d4565b840191505092915050565b6000602082019050818103600083015261173881846116e5565b905092915050565b6000604051905090565b600080fd5b600080fd5b600073ffffffffffffffffffffffffffffffffffffffff82169050919050565b600061177f82611754565b9050919050565b61178f81611774565b811461179a57600080fd5b50565b6000813590506117ac81611786565b92915050565b6000819050919050565b6117c5816117b2565b81146117d057600080fd5b50565b6000813590506117e2816117bc565b92915050565b60008060008060008060c087890312156118055761180461174a565b5b600061181389828a0161179d565b965050602061182489828a0161179d565b955050604061183589828a016117d3565b945050606061184689828a016117d3565b935050608061185789828a016117d3565b92505060a061186889828a016117d3565b9150509295509295509295565b61187e816117b2565b82525050565b60006020820190506118996000830184611875565b92915050565b600080fd5b600080fd5b7f4e487b7100000000000000000000000000000000000000000000000000000000600052604160045260246000fd5b6118e1826116d4565b810181811067ffffffffffffffff82111715611900576118ff6118a9565b5b80604052505050565b6000611913611740565b905061191f82826118d8565b919050565b600067ffffffffffffffff82111561193f5761193e6118a9565b5b611948826116d4565b9050602081019050919050565b82818337600083830152505050565b600061197761197284611924565b611909565b905082815260208101848484011115611993576119926118a4565b5b61199e848285611955565b509392505050565b600082601f8301126119bb576119ba61189f565b5b81356119cb848260208601611964565b91505092915050565b600080600080608085870312156119ee576119ed61174a565b5b60006119fc8782880161179d565b9450506020611a0d8782880161179d565b9350506040611a1e878288016117d3565b925050606085013567ffffffffffffffff811115611a3f57611a3e61174f565b5b611a4b878288016119a6565b91505092959194509250565b60007fffffffff0000000000000000000000000000000000000000000000000000000082169050919050565b611a8c81611a57565b82525050565b6000602082019050611aa76000830184611a83565b92915050565b600060208284031215611ac357611ac261174a565b5b6000611ad1848285016117d3565b91505092915050565b60008115159050919050565b611aef81611ada565b82525050565b6000602082019050611b0a6000830184611ae6565b92915050565b60008060408385031215611b2757611b2661174a565b5b6000611b35858286016117d3565b9250506020611b46858286016117d3565b9150509250929050565b611b5981611774565b82525050565b6000602082019050611b746000830184611b50565b92915050565b7f4e487b7100000000000000000000000000000000000000000000000000000000600052602260045260246000fd5b60006002820490506001821680611bc157607f821691505b602082108103611bd457611bd3611b7a565b5b50919050565b7f496e76616c6964204e465420436f6c6c656374696f6e20636f6e74726163742060008201527f6164647265737300000000000000000000000000000000000000000000000000602082015250565b6000611c36602783611699565b9150611c4182611bda565b604082019050919050565b60006020820190508181036000830152611c6581611c29565b9050919050565b7f496e76616c6964205061796d656e7420546f6b656e20636f6e7472616374206160008201527f6464726573730000000000000000000000000000000000000000000000000000602082015250565b6000611cc8602683611699565b9150611cd382611c6c565b604082019050919050565b60006020820190508181036000830152611cf781611cbb565b9050919050565b7f496e76616c6964207374617274206461746520666f722061756374696f6e0000600082015250565b6000611d34601e83611699565b9150611d3f82611cfe565b602082019050919050565b60006020820190508181036000830152611d6381611d27565b9050919050565b7f496e76616c696420656e64206461746520666f722061756374696f6e00000000600082015250565b6000611da0601c83611699565b9150611dab82611d6a565b602082019050919050565b60006020820190508181036000830152611dcf81611d93565b9050919050565b7f496e76616c696420696e697469616c2062696420707269636500000000000000600082015250565b6000611e0c601983611699565b9150611e1782611dd6565b602082019050919050565b60006020820190508181036000830152611e3b81611dff565b9050919050565b600081519050611e5181611786565b92915050565b600060208284031215611e6d57611e6c61174a565b5b6000611e7b84828501611e42565b91505092915050565b7f43616c6c6572206973206e6f7420746865206f776e6572206f6620746865204e60008201527f4654000000000000000000000000000000000000000000000000000000000000602082015250565b6000611ee0602283611699565b9150611eeb82611e84565b604082019050919050565b60006020820190508181036000830152611f0f81611ed3565b9050919050565b6000606082019050611f2b6000830186611b50565b611f386020830185611b50565b611f456040830184611875565b949350505050565b7f4e487b7100000000000000000000000000000000000000000000000000000000600052601160045260246000fd5b6000611f87826117b2565b91507fffffffffffffffffffffffffffffffffffffffffffffffffffffffffffffffff8203611fb957611fb8611f4d565b5b600182019050919050565b6000819050919050565b6000611fe9611fe4611fdf84611754565b611fc4565b611754565b9050919050565b6000611ffb82611fce565b9050919050565b600061200d82611ff0565b9050919050565b61201d81612002565b82525050565b6000819050919050565b600061204861204361203e84612023565b611fc4565b6117b2565b9050919050565b6120588161202d565b82525050565b600061014082019050612074600083018d611875565b612081602083018c611b50565b61208e604083018b611b50565b61209b606083018a611875565b6120a86080830189611b50565b6120b560a0830188612014565b6120c260c0830187611875565b6120cf60e0830186611875565b6120dd610100830185611875565b6120eb61012083018461204f565b9b9a5050505050505050505050565b7f496e76616c69642061756374696f6e20696e6465780000000000000000000000600082015250565b6000612130601583611699565b915061213b826120fa565b602082019050919050565b6000602082019050818103600083015261215f81612123565b9050919050565b7f41756374696f6e206973207374696c6c206f70656e0000000000000000000000600082015250565b600061219c601583611699565b91506121a782612166565b602082019050919050565b600060208201905081810360008301526121cb8161218f565b9050919050565b7f4e487b7100000000000000000000000000000000000000000000000000000000600052603260045260246000fd5b7f4f6e6c792041756374696f6e2063726561746f722063616e20636c61696d206660008201527f756e647300000000000000000000000000000000000000000000000000000000602082015250565b600061225d602483611699565b915061226882612201565b604082019050919050565b6000602082019050818103600083015261228c81612250565b9050919050565b60006060820190506122a86000830186611875565b6122b56020830185611875565b6122c26040830184611b50565b949350505050565b60006040820190506122df6000830185611b50565b6122ec6020830184611875565b9392505050565b6122fc81611ada565b811461230757600080fd5b50565b600081519050612319816122f3565b92915050565b6000602082840312156123355761233461174a565b5b60006123438482850161230a565b91505092915050565b7f41756374696f6e206973206e6f74206f70656e00000000000000000000000000600082015250565b6000612382601383611699565b915061238d8261234c565b602082019050919050565b600060208201905081810360008301526123b181612375565b9050919050565b7f4e657720626964207072696365206d757374206265206869676865722074686160008201527f6e207468652063757272656e7420626964000000000000000000000000000000602082015250565b6000612414603183611699565b915061241f826123b8565b604082019050919050565b6000602082019050818103600083015261244381612407565b9050919050565b7f43726561746f72206f66207468652061756374696f6e2063616e6e6f7420706c60008201527f616365206e657720626964000000000000000000000000000000000000000000602082015250565b60006124a6602b83611699565b91506124b18261244a565b604082019050919050565b600060208201905081810360008301526124d581612499565b9050919050565b7f5472616e666572206f662057657468206661696c656400000000000000000000600082015250565b6000612512601683611699565b915061251d826124dc565b602082019050919050565b6000602082019050818103600083015261254181612505565b9050919050565b600060408201905061255d6000830185612014565b61256a6020830184611875565b9392505050565b60006060820190506125866000830186611875565b6125936020830185611b50565b6125a06040830184611875565b949350505050565b7f546f6b656e732063616e20626520636c61696d6564206f6e6c7920627920746860008201527f652063726561746f72206f66207468652061756374696f6e0000000000000000602082015250565b6000612604603883611699565b915061260f826125a8565b604082019050919050565b60006020820190508181036000830152612633816125f7565b9050919050565b7f4578697374696e6720626964657220666f7220746869732061756374696f6e00600082015250565b6000612670601f83611699565b915061267b8261263a565b602082019050919050565b6000602082019050818103600083015261269f81612663565b9050919050565b7f4f6e6c7920686967686573742063757272656e74206269646465722063616e2060008201527f636c61696d204e46540000000000000000000000000000000000000000000000602082015250565b6000612702602983611699565b915061270d826126a6565b604082019050919050565b60006020820190508181036000830152612731816126f5565b9050919050565b600060608201905061274d6000830186611b50565b61275a6020830185612014565b6127676040830184611875565b94935050505056fea264697066735822122082c1db47b312e449b71e8306993e054ebbd406ec35adeac24d0e199a38b44c7f64736f6c63430008110033",
  "linkReferences": {},
  "deployedLinkReferences": {}
}