{
  "_format": "hh-sol-artifact-1",
  "contractName": "createAuctionContract",
  "sourceName": "contracts/CreateAuctionContract.sol",
  "abi": [
    {
      "inputs": [
        {
          "internalType": "string",
          "name": "_name",
          "type": "string"
        },
        {
          "internalType": "address",
          "name": "_CubeContractAddress",
          "type": "address"
        },
        {
          "internalType": "address",
          "name": "_PaymentTokenContractAddress",
          "type": "address"
        }
      ],
      "stateMutability": "nonpayable",
      "type": "constructor"
    },
    {
      "anonymous": false,
      "inputs": [
        {
          "indexed": true,
          "internalType": "address",
          "name": "previousOwner",
          "type": "address"
        },
        {
          "indexed": true,
          "internalType": "address",
          "name": "newOwner",
          "type": "address"
        }
      ],
      "name": "OwnershipTransferred",
      "type": "event"
    },
    {
      "anonymous": false,
      "inputs": [
        {
          "indexed": false,
          "internalType": "uint256",
          "name": "auctionIndex",
          "type": "uint256"
        },
        {
          "indexed": false,
          "internalType": "uint256",
          "name": "nftId",
          "type": "uint256"
        },
        {
          "indexed": false,
          "internalType": "address",
          "name": "auctioneer",
          "type": "address"
        }
      ],
      "name": "claimedFunds",
      "type": "event"
    },
    {
      "anonymous": false,
      "inputs": [
        {
          "indexed": false,
          "internalType": "uint256",
          "name": "auctionIndex",
          "type": "uint256"
        },
        {
          "indexed": false,
          "internalType": "uint256",
          "name": "nftId",
          "type": "uint256"
        },
        {
          "indexed": false,
          "internalType": "address",
          "name": "winner",
          "type": "address"
        }
      ],
      "name": "claimedNFT",
      "type": "event"
    },
    {
      "anonymous": false,
      "inputs": [
        {
          "indexed": false,
          "internalType": "uint256",
          "name": "index",
          "type": "uint256"
        },
        {
          "indexed": false,
          "internalType": "uint256",
          "name": "nftId",
          "type": "uint256"
        },
        {
          "indexed": false,
          "internalType": "address",
          "name": "auctioneer",
          "type": "address"
        },
        {
          "indexed": false,
          "internalType": "address",
          "name": "currentBidOwner",
          "type": "address"
        },
        {
          "indexed": false,
          "internalType": "uint256",
          "name": "currentBidPrice",
          "type": "uint256"
        },
        {
          "indexed": false,
          "internalType": "uint256",
          "name": "startAuctionTimestamp",
          "type": "uint256"
        },
        {
          "indexed": false,
          "internalType": "uint256",
          "name": "endAuctionTimestamp",
          "type": "uint256"
        },
        {
          "indexed": false,
          "internalType": "uint256",
          "name": "bidCount",
          "type": "uint256"
        }
      ],
      "name": "newAuctions",
      "type": "event"
    },
    {
      "anonymous": false,
      "inputs": [
        {
          "indexed": false,
          "internalType": "uint256",
          "name": "auctionIndex",
          "type": "uint256"
        },
        {
          "indexed": false,
          "internalType": "address",
          "name": "bidder",
          "type": "address"
        },
        {
          "indexed": false,
          "internalType": "uint256",
          "name": "newBid",
          "type": "uint256"
        }
      ],
      "name": "newBidonAuction",
      "type": "event"
    },
    {
      "anonymous": false,
      "inputs": [
        {
          "indexed": false,
          "internalType": "uint256",
          "name": "auctionIndex",
          "type": "uint256"
        },
        {
          "indexed": false,
          "internalType": "uint256",
          "name": "nftId",
          "type": "uint256"
        },
        {
          "indexed": false,
          "internalType": "address",
          "name": "auctioneer",
          "type": "address"
        }
      ],
      "name": "refundedNFT",
      "type": "event"
    },
    {
      "inputs": [],
      "name": "CubeContractAddress",
      "outputs": [
        {
          "internalType": "address",
          "name": "",
          "type": "address"
        }
      ],
      "stateMutability": "view",
      "type": "function"
    },
    {
      "inputs": [],
      "name": "PaymentTokenContractAddress",
      "outputs": [
        {
          "internalType": "address",
          "name": "",
          "type": "address"
        }
      ],
      "stateMutability": "view",
      "type": "function"
    },
    {
      "inputs": [
        {
          "internalType": "uint256",
          "name": "_auctionIndex",
          "type": "uint256"
        },
        {
          "internalType": "uint256",
          "name": "_newBid",
          "type": "uint256"
        }
      ],
      "name": "bid",
      "outputs": [
        {
          "internalType": "bool",
          "name": "",
          "type": "bool"
        }
      ],
      "stateMutability": "nonpayable",
      "type": "function"
    },
    {
      "inputs": [
        {
          "internalType": "uint256",
          "name": "",
          "type": "uint256"
        },
        {
          "internalType": "address",
          "name": "",
          "type": "address"
        }
      ],
      "name": "bidByUser",
      "outputs": [
        {
          "internalType": "uint256",
          "name": "newbid",
          "type": "uint256"
        }
      ],
      "stateMutability": "view",
      "type": "function"
    },
    {
      "inputs": [
        {
          "internalType": "uint256",
          "name": "_auctionIndex",
          "type": "uint256"
        }
      ],
      "name": "bidByUsers",
      "outputs": [
        {
          "internalType": "uint256",
          "name": "",
          "type": "uint256"
        }
      ],
      "stateMutability": "view",
      "type": "function"
    },
    {
      "inputs": [
        {
          "internalType": "uint256",
          "name": "_auctionIndex",
          "type": "uint256"
        }
      ],
      "name": "claimFunds",
      "outputs": [],
      "stateMutability": "nonpayable",
      "type": "function"
    },
    {
      "inputs": [
        {
          "internalType": "uint256",
          "name": "_auctionIndex",
          "type": "uint256"
        }
      ],
      "name": "claimNFT",
      "outputs": [],
      "stateMutability": "nonpayable",
      "type": "function"
    },
    {
      "inputs": [
        {
          "internalType": "uint256",
          "name": "_auctionIndex",
          "type": "uint256"
        }
      ],
      "name": "getCurrentBid",
      "outputs": [
        {
          "internalType": "uint256",
          "name": "",
          "type": "uint256"
        }
      ],
      "stateMutability": "view",
      "type": "function"
    },
    {
      "inputs": [
        {
          "internalType": "uint256",
          "name": "_auctionIndex",
          "type": "uint256"
        }
      ],
      "name": "getCurrentBidOwner",
      "outputs": [
        {
          "internalType": "address",
          "name": "",
          "type": "address"
        }
      ],
      "stateMutability": "view",
      "type": "function"
    },
    {
      "inputs": [],
      "name": "index",
      "outputs": [
        {
          "internalType": "uint256",
          "name": "",
          "type": "uint256"
        }
      ],
      "stateMutability": "view",
      "type": "function"
    },
    {
      "inputs": [
        {
          "internalType": "uint256",
          "name": "_auctionIndex",
          "type": "uint256"
        }
      ],
      "name": "isOpen",
      "outputs": [
        {
          "internalType": "bool",
          "name": "",
          "type": "bool"
        }
      ],
      "stateMutability": "view",
      "type": "function"
    },
    {
      "inputs": [],
      "name": "name",
      "outputs": [
        {
          "internalType": "string",
          "name": "",
          "type": "string"
        }
      ],
      "stateMutability": "view",
      "type": "function"
    },
    {
      "inputs": [
        {
          "internalType": "uint256",
          "name": "_nftId",
          "type": "uint256"
        },
        {
          "internalType": "uint256",
          "name": "_minBid",
          "type": "uint256"
        },
        {
          "internalType": "uint256",
          "name": "_startAuction",
          "type": "uint256"
        },
        {
          "internalType": "uint256",
          "name": "_endAuction",
          "type": "uint256"
        }
      ],
      "name": "newAuction",
      "outputs": [
        {
          "internalType": "uint256",
          "name": "",
          "type": "uint256"
        }
      ],
      "stateMutability": "nonpayable",
      "type": "function"
    },
    {
      "inputs": [
        {
          "internalType": "address",
          "name": "",
          "type": "address"
        },
        {
          "internalType": "address",
          "name": "",
          "type": "address"
        },
        {
          "internalType": "uint256",
          "name": "",
          "type": "uint256"
        },
        {
          "internalType": "bytes",
          "name": "",
          "type": "bytes"
        }
      ],
      "name": "onERC721Received",
      "outputs": [
        {
          "internalType": "bytes4",
          "name": "",
          "type": "bytes4"
        }
      ],
      "stateMutability": "nonpayable",
      "type": "function"
    },
    {
      "inputs": [],
      "name": "owner",
      "outputs": [
        {
          "internalType": "address",
          "name": "",
          "type": "address"
        }
      ],
      "stateMutability": "view",
      "type": "function"
    },
    {
      "inputs": [
        {
          "internalType": "uint256",
          "name": "_auctionIndex",
          "type": "uint256"
        }
      ],
      "name": "refundNFT",
      "outputs": [],
      "stateMutability": "nonpayable",
      "type": "function"
    },
    {
      "inputs": [],
      "name": "renounceOwnership",
      "outputs": [],
      "stateMutability": "nonpayable",
      "type": "function"
    },
    {
      "inputs": [
        {
          "internalType": "address",
          "name": "_newAddress",
          "type": "address"
        }
      ],
      "name": "setCubeContractAddress",
      "outputs": [],
      "stateMutability": "nonpayable",
      "type": "function"
    },
    {
      "inputs": [
        {
          "internalType": "address",
          "name": "_newAddress",
          "type": "address"
        }
      ],
      "name": "setPaymentTokenContractAddress",
      "outputs": [],
      "stateMutability": "nonpayable",
      "type": "function"
    },
    {
      "inputs": [
        {
          "internalType": "address",
          "name": "newOwner",
          "type": "address"
        }
      ],
      "name": "transferOwnership",
      "outputs": [],
      "stateMutability": "nonpayable",
      "type": "function"
    }
  ],
  "bytecode": "0x608060405260006004553480156200001657600080fd5b50604051620031b6380380620031b683398181016040528101906200003c9190620003bd565b6200005c62000050620000f960201b60201c565b6200010160201b60201c565b82600190816200006d919062000683565b5081600260006101000a81548173ffffffffffffffffffffffffffffffffffffffff021916908373ffffffffffffffffffffffffffffffffffffffff16021790555080600360006101000a81548173ffffffffffffffffffffffffffffffffffffffff021916908373ffffffffffffffffffffffffffffffffffffffff1602179055505050506200076a565b600033905090565b60008060009054906101000a900473ffffffffffffffffffffffffffffffffffffffff169050816000806101000a81548173ffffffffffffffffffffffffffffffffffffffff021916908373ffffffffffffffffffffffffffffffffffffffff1602179055508173ffffffffffffffffffffffffffffffffffffffff168173ffffffffffffffffffffffffffffffffffffffff167f8be0079c531659141344cd1fd0a4f28419497f9722a3daafe3b4186f6b6457e060405160405180910390a35050565b6000604051905090565b600080fd5b600080fd5b600080fd5b600080fd5b6000601f19601f8301169050919050565b7f4e487b7100000000000000000000000000000000000000000000000000000000600052604160045260246000fd5b6200022e82620001e3565b810181811067ffffffffffffffff8211171562000250576200024f620001f4565b5b80604052505050565b600062000265620001c5565b905062000273828262000223565b919050565b600067ffffffffffffffff821115620002965762000295620001f4565b5b620002a182620001e3565b9050602081019050919050565b60005b83811015620002ce578082015181840152602081019050620002b1565b60008484015250505050565b6000620002f1620002eb8462000278565b62000259565b90508281526020810184848401111562000310576200030f620001de565b5b6200031d848285620002ae565b509392505050565b600082601f8301126200033d576200033c620001d9565b5b81516200034f848260208601620002da565b91505092915050565b600073ffffffffffffffffffffffffffffffffffffffff82169050919050565b6000620003858262000358565b9050919050565b620003978162000378565b8114620003a357600080fd5b50565b600081519050620003b7816200038c565b92915050565b600080600060608486031215620003d957620003d8620001cf565b5b600084015167ffffffffffffffff811115620003fa57620003f9620001d4565b5b620004088682870162000325565b93505060206200041b86828701620003a6565b92505060406200042e86828701620003a6565b9150509250925092565b600081519050919050565b7f4e487b7100000000000000000000000000000000000000000000000000000000600052602260045260246000fd5b600060028204905060018216806200048b57607f821691505b602082108103620004a157620004a062000443565b5b50919050565b60008190508160005260206000209050919050565b60006020601f8301049050919050565b600082821b905092915050565b6000600883026200050b7fffffffffffffffffffffffffffffffffffffffffffffffffffffffffffffffff82620004cc565b620005178683620004cc565b95508019841693508086168417925050509392505050565b6000819050919050565b6000819050919050565b6000620005646200055e62000558846200052f565b62000539565b6200052f565b9050919050565b6000819050919050565b620005808362000543565b620005986200058f826200056b565b848454620004d9565b825550505050565b600090565b620005af620005a0565b620005bc81848462000575565b505050565b5b81811015620005e457620005d8600082620005a5565b600181019050620005c2565b5050565b601f8211156200063357620005fd81620004a7565b6200060884620004bc565b8101602085101562000618578190505b620006306200062785620004bc565b830182620005c1565b50505b505050565b600082821c905092915050565b6000620006586000198460080262000638565b1980831691505092915050565b600062000673838362000645565b9150826002028217905092915050565b6200068e8262000438565b67ffffffffffffffff811115620006aa57620006a9620001f4565b5b620006b6825462000472565b620006c3828285620005e8565b600060209050601f831160018114620006fb5760008415620006e6578287015190505b620006f2858262000665565b86555062000762565b601f1984166200070b86620004a7565b60005b8281101562000735578489015182556001820191506020850194506020810190506200070e565b8683101562000755578489015162000751601f89168262000645565b8355505b6001600288020188555050505b505050505050565b612a3c806200077a6000396000f3fe608060405234801561001057600080fd5b506004361061012c5760003560e01c806386b46073116100ad578063d0d7328111610071578063d0d7328114610345578063d45eb1b214610361578063da4e364f14610391578063f2fde38b146103c1578063fe5c873a146103dd5761012c565b806386b460731461029f5780638da5cb5b146102cf578063a5acffac146102ed578063a7138dc81461030b578063c0186d53146103275761012c565b80634d6861a6116100f45780634d6861a6146101e9578063598647f8146102195780635db6984e14610249578063715018a61461026557806382c3d7df1461026f5761012c565b806306fdde0314610131578063150b7a021461014f5780631b55e3381461017f5780632986c0e51461019b5780634093550b146101b9575b600080fd5b6101396103f9565b6040516101469190611a44565b60405180910390f35b61016960048036038101906101649190611c43565b610487565b6040516101769190611d01565b60405180910390f35b61019960048036038101906101949190611d1c565b61049b565b005b6101a36106f5565b6040516101b09190611d58565b60405180910390f35b6101d360048036038101906101ce9190611d1c565b6106fb565b6040516101e09190611d58565b60405180910390f35b61020360048036038101906101fe9190611d1c565b61075d565b6040516102109190611d8e565b60405180910390f35b610233600480360381019061022e9190611da9565b6107a4565b6040516102409190611d8e565b60405180910390f35b610263600480360381019061025e9190611d1c565b610c4c565b005b61026d610f29565b005b61028960048036038101906102849190611de9565b610f3d565b6040516102969190611d58565b60405180910390f35b6102b960048036038101906102b49190611d1c565b610f68565b6040516102c69190611e38565b60405180910390f35b6102d7610ffe565b6040516102e49190611e38565b60405180910390f35b6102f5611027565b6040516103029190611e38565b60405180910390f35b61032560048036038101906103209190611e53565b61104d565b005b61032f611099565b60405161033c9190611e38565b60405180910390f35b61035f600480360381019061035a9190611e53565b6110bf565b005b61037b60048036038101906103769190611e80565b61110b565b6040516103889190611d58565b60405180910390f35b6103ab60048036038101906103a69190611d1c565b611527565b6040516103b89190611d58565b60405180910390f35b6103db60048036038101906103d69190611e53565b61159d565b005b6103f760048036038101906103f29190611d1c565b611620565b005b6001805461040690611f16565b80601f016020809104026020016040519081016040528092919081815260200182805461043290611f16565b801561047f5780601f106104545761010080835404028352916020019161047f565b820191906000526020600020905b81548152906001019060200180831161046257829003601f168201915b505050505081565b600063150b7a0260e01b9050949350505050565b60068054905081106104e2576040517f08c379a00000000000000000000000000000000000000000000000000000000081526004016104d990611f93565b60405180910390fd5b6104eb8161075d565b1561052b576040517f08c379a000000000000000000000000000000000000000000000000000000000815260040161052290611fff565b60405180910390fd5b6000600682815481106105415761054061201f565b5b906000526020600020906008020190503373ffffffffffffffffffffffffffffffffffffffff168160020160009054906101000a900473ffffffffffffffffffffffffffffffffffffffff1673ffffffffffffffffffffffffffffffffffffffff16146105e3576040517f08c379a00000000000000000000000000000000000000000000000000000000081526004016105da906120c0565b60405180910390fd5b6000600360009054906101000a900473ffffffffffffffffffffffffffffffffffffffff1690508073ffffffffffffffffffffffffffffffffffffffff1663a9059cbb8360020160009054906101000a900473ffffffffffffffffffffffffffffffffffffffff1684600401546040518363ffffffff1660e01b815260040161066d9291906120e0565b6020604051808303816000875af115801561068c573d6000803e3d6000fd5b505050506040513d601f19601f820116820180604052508101906106b09190612135565b507ffbce8b6fd9a761d9abc22627182400126fe4e5e73abb7cdeb9a76bb0d991ca2d838360010154336040516106e893929190612162565b60405180910390a1505050565b60045481565b6000806005600084815260200190815260200160002060003373ffffffffffffffffffffffffffffffffffffffff1673ffffffffffffffffffffffffffffffffffffffff16815260200190815260200160002090508060000154915050919050565b600080600683815481106107745761077361201f565b5b906000526020600020906008020190508060060154421061079957600091505061079f565b60019150505b919050565b600060068054905083106107ed576040517f08c379a00000000000000000000000000000000000000000000000000000000081526004016107e490611f93565b60405180910390fd5b6000600684815481106108035761080261201f565b5b9060005260206000209060080201905061081c8461075d565b61085b576040517f08c379a0000000000000000000000000000000000000000000000000000000008152600401610852906121e5565b60405180910390fd5b806004015483116108a1576040517f08c379a000000000000000000000000000000000000000000000000000000000815260040161089890612277565b60405180910390fd5b8060020160009054906101000a900473ffffffffffffffffffffffffffffffffffffffff1673ffffffffffffffffffffffffffffffffffffffff163373ffffffffffffffffffffffffffffffffffffffff1603610933576040517f08c379a000000000000000000000000000000000000000000000000000000000815260040161092a90612309565b60405180910390fd5b6000600360009054906101000a900473ffffffffffffffffffffffffffffffffffffffff1690508073ffffffffffffffffffffffffffffffffffffffff166323b872dd3330876040518463ffffffff1660e01b815260040161099793929190612329565b6020604051808303816000875af11580156109b6573d6000803e3d6000fd5b505050506040513d601f19601f820116820180604052508101906109da9190612135565b506000826007015414610b3a578073ffffffffffffffffffffffffffffffffffffffff1663a9059cbb8360030160009054906101000a900473ffffffffffffffffffffffffffffffffffffffff1684600401546040518363ffffffff1660e01b8152600401610a4a9291906123bf565b6020604051808303816000875af1158015610a69573d6000803e3d6000fd5b505050506040513d601f19601f82011682018060405250810190610a8d9190612135565b506000339050808360030160006101000a81548173ffffffffffffffffffffffffffffffffffffffff021916908373ffffffffffffffffffffffffffffffffffffffff160217905550848360040181905550826007016000815480929190610af490612417565b91905055507f8de9f297a296fe6e55bb36ac261b0633e997261ec73adcb2718d4f4c8e969ed0863387604051610b2c9392919061245f565b60405180910390a150610be2565b6000339050808360030160006101000a81548173ffffffffffffffffffffffffffffffffffffffff021916908373ffffffffffffffffffffffffffffffffffffffff160217905550848360040181905550826007016000815480929190610ba090612417565b91905055507f8de9f297a296fe6e55bb36ac261b0633e997261ec73adcb2718d4f4c8e969ed0863387604051610bd89392919061245f565b60405180910390a1505b60006005600087815260200190815260200160002060003373ffffffffffffffffffffffffffffffffffffffff1673ffffffffffffffffffffffffffffffffffffffff16815260200190815260200160002090508481600001819055506001935050505092915050565b6006805490508110610c93576040517f08c379a0000000000000000000000000000000000000000000000000000000008152600401610c8a90611f93565b60405180910390fd5b610c9c8161075d565b15610cdc576040517f08c379a0000000000000000000000000000000000000000000000000000000008152600401610cd390611fff565b60405180910390fd5b600060068281548110610cf257610cf161201f565b5b906000526020600020906008020190503373ffffffffffffffffffffffffffffffffffffffff168160020160009054906101000a900473ffffffffffffffffffffffffffffffffffffffff1673ffffffffffffffffffffffffffffffffffffffff1614610d94576040517f08c379a0000000000000000000000000000000000000000000000000000000008152600401610d8b90612508565b60405180910390fd5b600073ffffffffffffffffffffffffffffffffffffffff168160030160009054906101000a900473ffffffffffffffffffffffffffffffffffffffff1673ffffffffffffffffffffffffffffffffffffffff1614610e27576040517f08c379a0000000000000000000000000000000000000000000000000000000008152600401610e1e90612574565b60405180910390fd5b6000600260009054906101000a900473ffffffffffffffffffffffffffffffffffffffff1690508073ffffffffffffffffffffffffffffffffffffffff166323b872dd308460020160009054906101000a900473ffffffffffffffffffffffffffffffffffffffff1685600101546040518463ffffffff1660e01b8152600401610eb393929190612329565b600060405180830381600087803b158015610ecd57600080fd5b505af1158015610ee1573d6000803e3d6000fd5b505050507fbc217c4476eb5450fcff153b12a3dc90c68f443236970ed96f85918c65694bbb83836001015433604051610f1c93929190612162565b60405180910390a1505050565b610f3161186a565b610f3b60006118e8565b565b6005602052816000526040600020602052806000526040600020600091509150508060000154905081565b60006006805490508210610fb1576040517f08c379a0000000000000000000000000000000000000000000000000000000008152600401610fa890611f93565b60405180910390fd5b60068281548110610fc557610fc461201f565b5b906000526020600020906008020160030160009054906101000a900473ffffffffffffffffffffffffffffffffffffffff169050919050565b60008060009054906101000a900473ffffffffffffffffffffffffffffffffffffffff16905090565b600360009054906101000a900473ffffffffffffffffffffffffffffffffffffffff1681565b61105561186a565b80600360006101000a81548173ffffffffffffffffffffffffffffffffffffffff021916908373ffffffffffffffffffffffffffffffffffffffff16021790555050565b600260009054906101000a900473ffffffffffffffffffffffffffffffffffffffff1681565b6110c761186a565b80600260006101000a81548173ffffffffffffffffffffffffffffffffffffffff021916908373ffffffffffffffffffffffffffffffffffffffff16021790555050565b600080841161114f576040517f08c379a0000000000000000000000000000000000000000000000000000000008152600401611146906125e0565b60405180910390fd5b42831115611192576040517f08c379a00000000000000000000000000000000000000000000000000000000081526004016111899061264c565b60405180910390fd5b4282116111d4576040517f08c379a00000000000000000000000000000000000000000000000000000000081526004016111cb906126b8565b60405180910390fd5b6000600260009054906101000a900473ffffffffffffffffffffffffffffffffffffffff1690503373ffffffffffffffffffffffffffffffffffffffff168173ffffffffffffffffffffffffffffffffffffffff16636352211e886040518263ffffffff1660e01b815260040161124b9190611d58565b602060405180830381865afa158015611268573d6000803e3d6000fd5b505050506040513d601f19601f8201168201806040525081019061128c91906126ed565b73ffffffffffffffffffffffffffffffffffffffff16146112e2576040517f08c379a00000000000000000000000000000000000000000000000000000000081526004016112d990612766565b60405180910390fd5b8073ffffffffffffffffffffffffffffffffffffffff166323b872dd3330896040518463ffffffff1660e01b815260040161131f93929190612329565b600060405180830381600087803b15801561133957600080fd5b505af115801561134d573d6000803e3d6000fd5b5050505060008060405180610100016040528060045481526020018981526020013373ffffffffffffffffffffffffffffffffffffffff1681526020018373ffffffffffffffffffffffffffffffffffffffff168152602001888152602001878152602001868152602001600081525090506006819080600181540180825580915050600190039060005260206000209060080201600090919091909150600082015181600001556020820151816001015560408201518160020160006101000a81548173ffffffffffffffffffffffffffffffffffffffff021916908373ffffffffffffffffffffffffffffffffffffffff16021790555060608201518160030160006101000a81548173ffffffffffffffffffffffffffffffffffffffff021916908373ffffffffffffffffffffffffffffffffffffffff1602179055506080820151816004015560a0820151816005015560c0820151816006015560e0820151816007015550507fc0573e0a0544efd4ed32f573c0a0fb13d17cf45f2535a2e1769768d9885836786004548933858b8b8b60006040516114f79897969594939291906127c1565b60405180910390a16004600081548092919061151290612417565b91905055506004549350505050949350505050565b60006006805490508210611570576040517f08c379a000000000000000000000000000000000000000000000000000000000815260040161156790611f93565b60405180910390fd5b600682815481106115845761158361201f565b5b9060005260206000209060080201600401549050919050565b6115a561186a565b600073ffffffffffffffffffffffffffffffffffffffff168173ffffffffffffffffffffffffffffffffffffffff1603611614576040517f08c379a000000000000000000000000000000000000000000000000000000000815260040161160b906128b1565b60405180910390fd5b61161d816118e8565b50565b6006805490508110611667576040517f08c379a000000000000000000000000000000000000000000000000000000000815260040161165e90611f93565b60405180910390fd5b6116708161075d565b156116b0576040517f08c379a00000000000000000000000000000000000000000000000000000000081526004016116a790611fff565b60405180910390fd5b6000600682815481106116c6576116c561201f565b5b906000526020600020906008020190503373ffffffffffffffffffffffffffffffffffffffff168160030160009054906101000a900473ffffffffffffffffffffffffffffffffffffffff1673ffffffffffffffffffffffffffffffffffffffff1614611768576040517f08c379a000000000000000000000000000000000000000000000000000000000815260040161175f90612943565b60405180910390fd5b6000600260009054906101000a900473ffffffffffffffffffffffffffffffffffffffff1690508073ffffffffffffffffffffffffffffffffffffffff166323b872dd308460030160009054906101000a900473ffffffffffffffffffffffffffffffffffffffff1685600101546040518463ffffffff1660e01b81526004016117f493929190612963565b600060405180830381600087803b15801561180e57600080fd5b505af1158015611822573d6000803e3d6000fd5b505050507fc50a06ca126163792c7b343bdc65ad6c84b1f48337abd276d6d8dd0f9bbeb1f78383600101543360405161185d93929190612162565b60405180910390a1505050565b6118726119ac565b73ffffffffffffffffffffffffffffffffffffffff16611890610ffe565b73ffffffffffffffffffffffffffffffffffffffff16146118e6576040517f08c379a00000000000000000000000000000000000000000000000000000000081526004016118dd906129e6565b60405180910390fd5b565b60008060009054906101000a900473ffffffffffffffffffffffffffffffffffffffff169050816000806101000a81548173ffffffffffffffffffffffffffffffffffffffff021916908373ffffffffffffffffffffffffffffffffffffffff1602179055508173ffffffffffffffffffffffffffffffffffffffff168173ffffffffffffffffffffffffffffffffffffffff167f8be0079c531659141344cd1fd0a4f28419497f9722a3daafe3b4186f6b6457e060405160405180910390a35050565b600033905090565b600081519050919050565b600082825260208201905092915050565b60005b838110156119ee5780820151818401526020810190506119d3565b60008484015250505050565b6000601f19601f8301169050919050565b6000611a16826119b4565b611a2081856119bf565b9350611a308185602086016119d0565b611a39816119fa565b840191505092915050565b60006020820190508181036000830152611a5e8184611a0b565b905092915050565b6000604051905090565b600080fd5b600080fd5b600073ffffffffffffffffffffffffffffffffffffffff82169050919050565b6000611aa582611a7a565b9050919050565b611ab581611a9a565b8114611ac057600080fd5b50565b600081359050611ad281611aac565b92915050565b6000819050919050565b611aeb81611ad8565b8114611af657600080fd5b50565b600081359050611b0881611ae2565b92915050565b600080fd5b600080fd5b7f4e487b7100000000000000000000000000000000000000000000000000000000600052604160045260246000fd5b611b50826119fa565b810181811067ffffffffffffffff82111715611b6f57611b6e611b18565b5b80604052505050565b6000611b82611a66565b9050611b8e8282611b47565b919050565b600067ffffffffffffffff821115611bae57611bad611b18565b5b611bb7826119fa565b9050602081019050919050565b82818337600083830152505050565b6000611be6611be184611b93565b611b78565b905082815260208101848484011115611c0257611c01611b13565b5b611c0d848285611bc4565b509392505050565b600082601f830112611c2a57611c29611b0e565b5b8135611c3a848260208601611bd3565b91505092915050565b60008060008060808587031215611c5d57611c5c611a70565b5b6000611c6b87828801611ac3565b9450506020611c7c87828801611ac3565b9350506040611c8d87828801611af9565b925050606085013567ffffffffffffffff811115611cae57611cad611a75565b5b611cba87828801611c15565b91505092959194509250565b60007fffffffff0000000000000000000000000000000000000000000000000000000082169050919050565b611cfb81611cc6565b82525050565b6000602082019050611d166000830184611cf2565b92915050565b600060208284031215611d3257611d31611a70565b5b6000611d4084828501611af9565b91505092915050565b611d5281611ad8565b82525050565b6000602082019050611d6d6000830184611d49565b92915050565b60008115159050919050565b611d8881611d73565b82525050565b6000602082019050611da36000830184611d7f565b92915050565b60008060408385031215611dc057611dbf611a70565b5b6000611dce85828601611af9565b9250506020611ddf85828601611af9565b9150509250929050565b60008060408385031215611e0057611dff611a70565b5b6000611e0e85828601611af9565b9250506020611e1f85828601611ac3565b9150509250929050565b611e3281611a9a565b82525050565b6000602082019050611e4d6000830184611e29565b92915050565b600060208284031215611e6957611e68611a70565b5b6000611e7784828501611ac3565b91505092915050565b60008060008060808587031215611e9a57611e99611a70565b5b6000611ea887828801611af9565b9450506020611eb987828801611af9565b9350506040611eca87828801611af9565b9250506060611edb87828801611af9565b91505092959194509250565b7f4e487b7100000000000000000000000000000000000000000000000000000000600052602260045260246000fd5b60006002820490506001821680611f2e57607f821691505b602082108103611f4157611f40611ee7565b5b50919050565b7f496e76616c69642061756374696f6e20696e6465780000000000000000000000600082015250565b6000611f7d6015836119bf565b9150611f8882611f47565b602082019050919050565b60006020820190508181036000830152611fac81611f70565b9050919050565b7f41756374696f6e206973207374696c6c206f70656e0000000000000000000000600082015250565b6000611fe96015836119bf565b9150611ff482611fb3565b602082019050919050565b6000602082019050818103600083015261201881611fdc565b9050919050565b7f4e487b7100000000000000000000000000000000000000000000000000000000600052603260045260246000fd5b7f4f6e6c792041756374696f6e2063726561746f722063616e20636c61696d206660008201527f756e647300000000000000000000000000000000000000000000000000000000602082015250565b60006120aa6024836119bf565b91506120b58261204e565b604082019050919050565b600060208201905081810360008301526120d98161209d565b9050919050565b60006040820190506120f56000830185611e29565b6121026020830184611d49565b9392505050565b61211281611d73565b811461211d57600080fd5b50565b60008151905061212f81612109565b92915050565b60006020828403121561214b5761214a611a70565b5b600061215984828501612120565b91505092915050565b60006060820190506121776000830186611d49565b6121846020830185611d49565b6121916040830184611e29565b949350505050565b7f41756374696f6e206973206e6f74206f70656e00000000000000000000000000600082015250565b60006121cf6013836119bf565b91506121da82612199565b602082019050919050565b600060208201905081810360008301526121fe816121c2565b9050919050565b7f4e657720626964207072696365206d757374206265206869676865722074686160008201527f6e207468652063757272656e7420626964000000000000000000000000000000602082015250565b60006122616031836119bf565b915061226c82612205565b604082019050919050565b6000602082019050818103600083015261229081612254565b9050919050565b7f43726561746f72206f66207468652061756374696f6e2063616e6e6f7420706c60008201527f616365206e657720626964000000000000000000000000000000000000000000602082015250565b60006122f3602b836119bf565b91506122fe82612297565b604082019050919050565b60006020820190508181036000830152612322816122e6565b9050919050565b600060608201905061233e6000830186611e29565b61234b6020830185611e29565b6123586040830184611d49565b949350505050565b6000819050919050565b600061238561238061237b84611a7a565b612360565b611a7a565b9050919050565b60006123978261236a565b9050919050565b60006123a98261238c565b9050919050565b6123b98161239e565b82525050565b60006040820190506123d460008301856123b0565b6123e16020830184611d49565b9392505050565b7f4e487b7100000000000000000000000000000000000000000000000000000000600052601160045260246000fd5b600061242282611ad8565b91507fffffffffffffffffffffffffffffffffffffffffffffffffffffffffffffffff8203612454576124536123e8565b5b600182019050919050565b60006060820190506124746000830186611d49565b6124816020830185611e29565b61248e6040830184611d49565b949350505050565b7f546f6b656e732063616e20626520636c61696d6564206f6e6c7920627920746860008201527f652063726561746f72206f66207468652061756374696f6e0000000000000000602082015250565b60006124f26038836119bf565b91506124fd82612496565b604082019050919050565b60006020820190508181036000830152612521816124e5565b9050919050565b7f4578697374696e6720626964657220666f7220746869732061756374696f6e00600082015250565b600061255e601f836119bf565b915061256982612528565b602082019050919050565b6000602082019050818103600083015261258d81612551565b9050919050565b7f496e76616c6964206d696e696d756d2062696400000000000000000000000000600082015250565b60006125ca6013836119bf565b91506125d582612594565b602082019050919050565b600060208201905081810360008301526125f9816125bd565b9050919050565b7f496e76616c69642073746172742061756374696f6e2074696d657374616d7000600082015250565b6000612636601f836119bf565b915061264182612600565b602082019050919050565b6000602082019050818103600083015261266581612629565b9050919050565b7f496e7661696420656e642061756374696f6e2074696d657374616d7000000000600082015250565b60006126a2601c836119bf565b91506126ad8261266c565b602082019050919050565b600060208201905081810360008301526126d181612695565b9050919050565b6000815190506126e781611aac565b92915050565b60006020828403121561270357612702611a70565b5b6000612711848285016126d8565b91505092915050565b7f596f7520617265206e6f7420746865206f776e6572206f6620746865204e4654600082015250565b60006127506020836119bf565b915061275b8261271a565b602082019050919050565b6000602082019050818103600083015261277f81612743565b9050919050565b6000819050919050565b60006127ab6127a66127a184612786565b612360565b611ad8565b9050919050565b6127bb81612790565b82525050565b6000610100820190506127d7600083018b611d49565b6127e4602083018a611d49565b6127f16040830189611e29565b6127fe60608301886123b0565b61280b6080830187611d49565b61281860a0830186611d49565b61282560c0830185611d49565b61283260e08301846127b2565b9998505050505050505050565b7f4f776e61626c653a206e6577206f776e657220697320746865207a65726f206160008201527f6464726573730000000000000000000000000000000000000000000000000000602082015250565b600061289b6026836119bf565b91506128a68261283f565b604082019050919050565b600060208201905081810360008301526128ca8161288e565b9050919050565b7f4f6e6c7920686967686573742063757272656e74206269646465722063616e2060008201527f636c61696d204e46540000000000000000000000000000000000000000000000602082015250565b600061292d6029836119bf565b9150612938826128d1565b604082019050919050565b6000602082019050818103600083015261295c81612920565b9050919050565b60006060820190506129786000830186611e29565b61298560208301856123b0565b6129926040830184611d49565b949350505050565b7f4f776e61626c653a2063616c6c6572206973206e6f7420746865206f776e6572600082015250565b60006129d06020836119bf565b91506129db8261299a565b602082019050919050565b600060208201905081810360008301526129ff816129c3565b905091905056fea2646970667358221220550b8a4b794eb9e286d2a0179383d62cd07c53ec8bb4f32311594332bb7ca3cd64736f6c63430008110033",
  "linkReferences": {},
  "deployedLinkReferences": {}
}