{
  "_format": "hh-sol-artifact-1",
  "contractName": "createAuctionContract",
  "sourceName": "contracts/CreateAuctionContract.sol",
  "abi": [
    {
      "inputs": [
        {
          "internalType": "string",
          "name": "_name",
          "type": "string"
        },
        {
          "internalType": "address",
          "name": "_CubeContractAddress",
          "type": "address"
        },
        {
          "internalType": "address",
          "name": "_PaymentTokenContractAddress",
          "type": "address"
        }
      ],
      "stateMutability": "nonpayable",
      "type": "constructor"
    },
    {
      "anonymous": false,
      "inputs": [
        {
          "indexed": true,
          "internalType": "address",
          "name": "previousOwner",
          "type": "address"
        },
        {
          "indexed": true,
          "internalType": "address",
          "name": "newOwner",
          "type": "address"
        }
      ],
      "name": "OwnershipTransferred",
      "type": "event"
    },
    {
      "anonymous": false,
      "inputs": [
        {
          "indexed": false,
          "internalType": "address",
          "name": "account",
          "type": "address"
        }
      ],
      "name": "Paused",
      "type": "event"
    },
    {
      "anonymous": false,
      "inputs": [
        {
          "indexed": false,
          "internalType": "address",
          "name": "account",
          "type": "address"
        }
      ],
      "name": "Unpaused",
      "type": "event"
    },
    {
      "anonymous": false,
      "inputs": [
        {
          "indexed": false,
          "internalType": "uint256",
          "name": "auctionIndex",
          "type": "uint256"
        },
        {
          "indexed": false,
          "internalType": "uint256",
          "name": "nftId",
          "type": "uint256"
        },
        {
          "indexed": false,
          "internalType": "address",
          "name": "auctioneer",
          "type": "address"
        }
      ],
      "name": "claimedFunds",
      "type": "event"
    },
    {
      "anonymous": false,
      "inputs": [
        {
          "indexed": false,
          "internalType": "uint256",
          "name": "auctionIndex",
          "type": "uint256"
        },
        {
          "indexed": false,
          "internalType": "uint256",
          "name": "nftId",
          "type": "uint256"
        },
        {
          "indexed": false,
          "internalType": "address",
          "name": "winner",
          "type": "address"
        }
      ],
      "name": "claimedNFT",
      "type": "event"
    },
    {
      "anonymous": false,
      "inputs": [
        {
          "indexed": false,
          "internalType": "uint256",
          "name": "index",
          "type": "uint256"
        },
        {
          "indexed": false,
          "internalType": "uint256",
          "name": "nftId",
          "type": "uint256"
        },
        {
          "indexed": false,
          "internalType": "address",
          "name": "auctioneer",
          "type": "address"
        },
        {
          "indexed": false,
          "internalType": "address",
          "name": "currentBidOwner",
          "type": "address"
        },
        {
          "indexed": false,
          "internalType": "uint256",
          "name": "currentBidPrice",
          "type": "uint256"
        },
        {
          "indexed": false,
          "internalType": "uint256",
          "name": "startAuctionTimestamp",
          "type": "uint256"
        },
        {
          "indexed": false,
          "internalType": "uint256",
          "name": "endAuctionTimestamp",
          "type": "uint256"
        },
        {
          "indexed": false,
          "internalType": "uint256",
          "name": "bidCount",
          "type": "uint256"
        }
      ],
      "name": "newAuctions",
      "type": "event"
    },
    {
      "anonymous": false,
      "inputs": [
        {
          "indexed": false,
          "internalType": "uint256",
          "name": "auctionIndex",
          "type": "uint256"
        },
        {
          "indexed": false,
          "internalType": "address",
          "name": "bidder",
          "type": "address"
        },
        {
          "indexed": false,
          "internalType": "uint256",
          "name": "newBid",
          "type": "uint256"
        }
      ],
      "name": "newBidonAuction",
      "type": "event"
    },
    {
      "anonymous": false,
      "inputs": [
        {
          "indexed": false,
          "internalType": "uint256",
          "name": "auctionIndex",
          "type": "uint256"
        },
        {
          "indexed": false,
          "internalType": "uint256",
          "name": "nftId",
          "type": "uint256"
        },
        {
          "indexed": false,
          "internalType": "address",
          "name": "auctioneer",
          "type": "address"
        }
      ],
      "name": "refundedNFT",
      "type": "event"
    },
    {
      "inputs": [],
      "name": "CubeContractAddress",
      "outputs": [
        {
          "internalType": "address",
          "name": "",
          "type": "address"
        }
      ],
      "stateMutability": "view",
      "type": "function"
    },
    {
      "inputs": [],
      "name": "PaymentTokenContractAddress",
      "outputs": [
        {
          "internalType": "address",
          "name": "",
          "type": "address"
        }
      ],
      "stateMutability": "view",
      "type": "function"
    },
    {
      "inputs": [
        {
          "internalType": "uint256",
          "name": "_auctionIndex",
          "type": "uint256"
        },
        {
          "internalType": "uint256",
          "name": "_newBid",
          "type": "uint256"
        }
      ],
      "name": "bid",
      "outputs": [
        {
          "internalType": "bool",
          "name": "",
          "type": "bool"
        }
      ],
      "stateMutability": "nonpayable",
      "type": "function"
    },
    {
      "inputs": [
        {
          "internalType": "uint256",
          "name": "",
          "type": "uint256"
        },
        {
          "internalType": "address",
          "name": "",
          "type": "address"
        }
      ],
      "name": "bidByUser",
      "outputs": [
        {
          "internalType": "uint256",
          "name": "newbid",
          "type": "uint256"
        }
      ],
      "stateMutability": "view",
      "type": "function"
    },
    {
      "inputs": [
        {
          "internalType": "uint256",
          "name": "_auctionIndex",
          "type": "uint256"
        }
      ],
      "name": "bidByUsers",
      "outputs": [
        {
          "internalType": "uint256",
          "name": "",
          "type": "uint256"
        }
      ],
      "stateMutability": "view",
      "type": "function"
    },
    {
      "inputs": [
        {
          "internalType": "uint256",
          "name": "_auctionIndex",
          "type": "uint256"
        }
      ],
      "name": "claimFunds",
      "outputs": [],
      "stateMutability": "nonpayable",
      "type": "function"
    },
    {
      "inputs": [
        {
          "internalType": "uint256",
          "name": "_auctionIndex",
          "type": "uint256"
        }
      ],
      "name": "claimNFT",
      "outputs": [],
      "stateMutability": "nonpayable",
      "type": "function"
    },
    {
      "inputs": [
        {
          "internalType": "uint256",
          "name": "_auctionIndex",
          "type": "uint256"
        }
      ],
      "name": "getCurrentBid",
      "outputs": [
        {
          "internalType": "uint256",
          "name": "",
          "type": "uint256"
        }
      ],
      "stateMutability": "view",
      "type": "function"
    },
    {
      "inputs": [
        {
          "internalType": "uint256",
          "name": "_auctionIndex",
          "type": "uint256"
        }
      ],
      "name": "getCurrentBidOwner",
      "outputs": [
        {
          "internalType": "address",
          "name": "",
          "type": "address"
        }
      ],
      "stateMutability": "view",
      "type": "function"
    },
    {
      "inputs": [],
      "name": "index",
      "outputs": [
        {
          "internalType": "uint256",
          "name": "",
          "type": "uint256"
        }
      ],
      "stateMutability": "view",
      "type": "function"
    },
    {
      "inputs": [
        {
          "internalType": "uint256",
          "name": "_auctionIndex",
          "type": "uint256"
        }
      ],
      "name": "isOpen",
      "outputs": [
        {
          "internalType": "bool",
          "name": "",
          "type": "bool"
        }
      ],
      "stateMutability": "view",
      "type": "function"
    },
    {
      "inputs": [],
      "name": "name",
      "outputs": [
        {
          "internalType": "string",
          "name": "",
          "type": "string"
        }
      ],
      "stateMutability": "view",
      "type": "function"
    },
    {
      "inputs": [
        {
          "internalType": "uint256",
          "name": "_nftId",
          "type": "uint256"
        },
        {
          "internalType": "uint256",
          "name": "_minBid",
          "type": "uint256"
        },
        {
          "internalType": "uint256",
          "name": "_startAuction",
          "type": "uint256"
        },
        {
          "internalType": "uint256",
          "name": "_endAuction",
          "type": "uint256"
        }
      ],
      "name": "newAuction",
      "outputs": [
        {
          "internalType": "uint256",
          "name": "",
          "type": "uint256"
        }
      ],
      "stateMutability": "nonpayable",
      "type": "function"
    },
    {
      "inputs": [
        {
          "internalType": "address",
          "name": "",
          "type": "address"
        },
        {
          "internalType": "address",
          "name": "",
          "type": "address"
        },
        {
          "internalType": "uint256",
          "name": "",
          "type": "uint256"
        },
        {
          "internalType": "bytes",
          "name": "",
          "type": "bytes"
        }
      ],
      "name": "onERC721Received",
      "outputs": [
        {
          "internalType": "bytes4",
          "name": "",
          "type": "bytes4"
        }
      ],
      "stateMutability": "nonpayable",
      "type": "function"
    },
    {
      "inputs": [],
      "name": "owner",
      "outputs": [
        {
          "internalType": "address",
          "name": "",
          "type": "address"
        }
      ],
      "stateMutability": "view",
      "type": "function"
    },
    {
      "inputs": [],
      "name": "paused",
      "outputs": [
        {
          "internalType": "bool",
          "name": "",
          "type": "bool"
        }
      ],
      "stateMutability": "view",
      "type": "function"
    },
    {
      "inputs": [
        {
          "internalType": "uint256",
          "name": "_auctionIndex",
          "type": "uint256"
        }
      ],
      "name": "refundNFT",
      "outputs": [],
      "stateMutability": "nonpayable",
      "type": "function"
    },
    {
      "inputs": [],
      "name": "renounceOwnership",
      "outputs": [],
      "stateMutability": "nonpayable",
      "type": "function"
    },
    {
      "inputs": [
        {
          "internalType": "address",
          "name": "_newAddress",
          "type": "address"
        }
      ],
      "name": "setCubeContractAddress",
      "outputs": [],
      "stateMutability": "nonpayable",
      "type": "function"
    },
    {
      "inputs": [
        {
          "internalType": "address",
          "name": "_newAddress",
          "type": "address"
        }
      ],
      "name": "setPaymentTokenContractAddress",
      "outputs": [],
      "stateMutability": "nonpayable",
      "type": "function"
    },
    {
      "inputs": [
        {
          "internalType": "address",
          "name": "newOwner",
          "type": "address"
        }
      ],
      "name": "transferOwnership",
      "outputs": [],
      "stateMutability": "nonpayable",
      "type": "function"
    }
  ],
  "bytecode": "0x608060405260006004553480156200001657600080fd5b506040516200320f3803806200320f83398181016040528101906200003c9190620003d7565b6200005c620000506200011360201b60201c565b6200011b60201b60201c565b60008060146101000a81548160ff02191690831515021790555082600190816200008791906200069d565b5081600260006101000a81548173ffffffffffffffffffffffffffffffffffffffff021916908373ffffffffffffffffffffffffffffffffffffffff16021790555080600360006101000a81548173ffffffffffffffffffffffffffffffffffffffff021916908373ffffffffffffffffffffffffffffffffffffffff16021790555050505062000784565b600033905090565b60008060009054906101000a900473ffffffffffffffffffffffffffffffffffffffff169050816000806101000a81548173ffffffffffffffffffffffffffffffffffffffff021916908373ffffffffffffffffffffffffffffffffffffffff1602179055508173ffffffffffffffffffffffffffffffffffffffff168173ffffffffffffffffffffffffffffffffffffffff167f8be0079c531659141344cd1fd0a4f28419497f9722a3daafe3b4186f6b6457e060405160405180910390a35050565b6000604051905090565b600080fd5b600080fd5b600080fd5b600080fd5b6000601f19601f8301169050919050565b7f4e487b7100000000000000000000000000000000000000000000000000000000600052604160045260246000fd5b6200024882620001fd565b810181811067ffffffffffffffff821117156200026a57620002696200020e565b5b80604052505050565b60006200027f620001df565b90506200028d82826200023d565b919050565b600067ffffffffffffffff821115620002b057620002af6200020e565b5b620002bb82620001fd565b9050602081019050919050565b60005b83811015620002e8578082015181840152602081019050620002cb565b60008484015250505050565b60006200030b620003058462000292565b62000273565b9050828152602081018484840111156200032a5762000329620001f8565b5b62000337848285620002c8565b509392505050565b600082601f830112620003575762000356620001f3565b5b815162000369848260208601620002f4565b91505092915050565b600073ffffffffffffffffffffffffffffffffffffffff82169050919050565b60006200039f8262000372565b9050919050565b620003b18162000392565b8114620003bd57600080fd5b50565b600081519050620003d181620003a6565b92915050565b600080600060608486031215620003f357620003f2620001e9565b5b600084015167ffffffffffffffff811115620004145762000413620001ee565b5b62000422868287016200033f565b93505060206200043586828701620003c0565b92505060406200044886828701620003c0565b9150509250925092565b600081519050919050565b7f4e487b7100000000000000000000000000000000000000000000000000000000600052602260045260246000fd5b60006002820490506001821680620004a557607f821691505b602082108103620004bb57620004ba6200045d565b5b50919050565b60008190508160005260206000209050919050565b60006020601f8301049050919050565b600082821b905092915050565b600060088302620005257fffffffffffffffffffffffffffffffffffffffffffffffffffffffffffffffff82620004e6565b620005318683620004e6565b95508019841693508086168417925050509392505050565b6000819050919050565b6000819050919050565b60006200057e62000578620005728462000549565b62000553565b62000549565b9050919050565b6000819050919050565b6200059a836200055d565b620005b2620005a98262000585565b848454620004f3565b825550505050565b600090565b620005c9620005ba565b620005d68184846200058f565b505050565b5b81811015620005fe57620005f2600082620005bf565b600181019050620005dc565b5050565b601f8211156200064d576200061781620004c1565b6200062284620004d6565b8101602085101562000632578190505b6200064a6200064185620004d6565b830182620005db565b50505b505050565b600082821c905092915050565b6000620006726000198460080262000652565b1980831691505092915050565b60006200068d83836200065f565b9150826002028217905092915050565b620006a88262000452565b67ffffffffffffffff811115620006c457620006c36200020e565b5b620006d082546200048c565b620006dd82828562000602565b600060209050601f83116001811462000715576000841562000700578287015190505b6200070c85826200067f565b8655506200077c565b601f1984166200072586620004c1565b60005b828110156200074f5784890151825560018201915060208501945060208101905062000728565b868310156200076f57848901516200076b601f8916826200065f565b8355505b6001600288020188555050505b505050505050565b612a7b80620007946000396000f3fe608060405234801561001057600080fd5b50600436106101375760003560e01c806382c3d7df116100b8578063c0186d531161007c578063c0186d5314610350578063d0d732811461036e578063d45eb1b21461038a578063da4e364f146103ba578063f2fde38b146103ea578063fe5c873a1461040657610137565b806382c3d7df1461029857806386b46073146102c85780638da5cb5b146102f8578063a5acffac14610316578063a7138dc81461033457610137565b80634d6861a6116100ff5780634d6861a6146101f4578063598647f8146102245780635c975abb146102545780635db6984e14610272578063715018a61461028e57610137565b806306fdde031461013c578063150b7a021461015a5780631b55e3381461018a5780632986c0e5146101a65780634093550b146101c4575b600080fd5b610144610422565b6040516101519190611a83565b60405180910390f35b610174600480360381019061016f9190611c82565b6104b0565b6040516101819190611d40565b60405180910390f35b6101a4600480360381019061019f9190611d5b565b6104c4565b005b6101ae61071e565b6040516101bb9190611d97565b60405180910390f35b6101de60048036038101906101d99190611d5b565b610724565b6040516101eb9190611d97565b60405180910390f35b61020e60048036038101906102099190611d5b565b610786565b60405161021b9190611dcd565b60405180910390f35b61023e60048036038101906102399190611de8565b6107cd565b60405161024b9190611dcd565b60405180910390f35b61025c610c75565b6040516102699190611dcd565b60405180910390f35b61028c60048036038101906102879190611d5b565b610c8b565b005b610296610f68565b005b6102b260048036038101906102ad9190611e28565b610f7c565b6040516102bf9190611d97565b60405180910390f35b6102e260048036038101906102dd9190611d5b565b610fa7565b6040516102ef9190611e77565b60405180910390f35b61030061103d565b60405161030d9190611e77565b60405180910390f35b61031e611066565b60405161032b9190611e77565b60405180910390f35b61034e60048036038101906103499190611e92565b61108c565b005b6103586110d8565b6040516103659190611e77565b60405180910390f35b61038860048036038101906103839190611e92565b6110fe565b005b6103a4600480360381019061039f9190611ebf565b61114a565b6040516103b19190611d97565b60405180910390f35b6103d460048036038101906103cf9190611d5b565b611566565b6040516103e19190611d97565b60405180910390f35b61040460048036038101906103ff9190611e92565b6115dc565b005b610420600480360381019061041b9190611d5b565b61165f565b005b6001805461042f90611f55565b80601f016020809104026020016040519081016040528092919081815260200182805461045b90611f55565b80156104a85780601f1061047d576101008083540402835291602001916104a8565b820191906000526020600020905b81548152906001019060200180831161048b57829003601f168201915b505050505081565b600063150b7a0260e01b9050949350505050565b600680549050811061050b576040517f08c379a000000000000000000000000000000000000000000000000000000000815260040161050290611fd2565b60405180910390fd5b61051481610786565b15610554576040517f08c379a000000000000000000000000000000000000000000000000000000000815260040161054b9061203e565b60405180910390fd5b60006006828154811061056a5761056961205e565b5b906000526020600020906008020190503373ffffffffffffffffffffffffffffffffffffffff168160020160009054906101000a900473ffffffffffffffffffffffffffffffffffffffff1673ffffffffffffffffffffffffffffffffffffffff161461060c576040517f08c379a0000000000000000000000000000000000000000000000000000000008152600401610603906120ff565b60405180910390fd5b6000600360009054906101000a900473ffffffffffffffffffffffffffffffffffffffff1690508073ffffffffffffffffffffffffffffffffffffffff1663a9059cbb8360020160009054906101000a900473ffffffffffffffffffffffffffffffffffffffff1684600401546040518363ffffffff1660e01b815260040161069692919061211f565b6020604051808303816000875af11580156106b5573d6000803e3d6000fd5b505050506040513d601f19601f820116820180604052508101906106d99190612174565b507ffbce8b6fd9a761d9abc22627182400126fe4e5e73abb7cdeb9a76bb0d991ca2d83836001015433604051610711939291906121a1565b60405180910390a1505050565b60045481565b6000806005600084815260200190815260200160002060003373ffffffffffffffffffffffffffffffffffffffff1673ffffffffffffffffffffffffffffffffffffffff16815260200190815260200160002090508060000154915050919050565b6000806006838154811061079d5761079c61205e565b5b90600052602060002090600802019050806006015442106107c25760009150506107c8565b60019150505b919050565b60006006805490508310610816576040517f08c379a000000000000000000000000000000000000000000000000000000000815260040161080d90611fd2565b60405180910390fd5b60006006848154811061082c5761082b61205e565b5b9060005260206000209060080201905061084584610786565b610884576040517f08c379a000000000000000000000000000000000000000000000000000000000815260040161087b90612224565b60405180910390fd5b806004015483116108ca576040517f08c379a00000000000000000000000000000000000000000000000000000000081526004016108c1906122b6565b60405180910390fd5b8060020160009054906101000a900473ffffffffffffffffffffffffffffffffffffffff1673ffffffffffffffffffffffffffffffffffffffff163373ffffffffffffffffffffffffffffffffffffffff160361095c576040517f08c379a000000000000000000000000000000000000000000000000000000000815260040161095390612348565b60405180910390fd5b6000600360009054906101000a900473ffffffffffffffffffffffffffffffffffffffff1690508073ffffffffffffffffffffffffffffffffffffffff166323b872dd3330876040518463ffffffff1660e01b81526004016109c093929190612368565b6020604051808303816000875af11580156109df573d6000803e3d6000fd5b505050506040513d601f19601f82011682018060405250810190610a039190612174565b506000826007015414610b63578073ffffffffffffffffffffffffffffffffffffffff1663a9059cbb8360030160009054906101000a900473ffffffffffffffffffffffffffffffffffffffff1684600401546040518363ffffffff1660e01b8152600401610a739291906123fe565b6020604051808303816000875af1158015610a92573d6000803e3d6000fd5b505050506040513d601f19601f82011682018060405250810190610ab69190612174565b506000339050808360030160006101000a81548173ffffffffffffffffffffffffffffffffffffffff021916908373ffffffffffffffffffffffffffffffffffffffff160217905550848360040181905550826007016000815480929190610b1d90612456565b91905055507f8de9f297a296fe6e55bb36ac261b0633e997261ec73adcb2718d4f4c8e969ed0863387604051610b559392919061249e565b60405180910390a150610c0b565b6000339050808360030160006101000a81548173ffffffffffffffffffffffffffffffffffffffff021916908373ffffffffffffffffffffffffffffffffffffffff160217905550848360040181905550826007016000815480929190610bc990612456565b91905055507f8de9f297a296fe6e55bb36ac261b0633e997261ec73adcb2718d4f4c8e969ed0863387604051610c019392919061249e565b60405180910390a1505b60006005600087815260200190815260200160002060003373ffffffffffffffffffffffffffffffffffffffff1673ffffffffffffffffffffffffffffffffffffffff16815260200190815260200160002090508481600001819055506001935050505092915050565b60008060149054906101000a900460ff16905090565b6006805490508110610cd2576040517f08c379a0000000000000000000000000000000000000000000000000000000008152600401610cc990611fd2565b60405180910390fd5b610cdb81610786565b15610d1b576040517f08c379a0000000000000000000000000000000000000000000000000000000008152600401610d129061203e565b60405180910390fd5b600060068281548110610d3157610d3061205e565b5b906000526020600020906008020190503373ffffffffffffffffffffffffffffffffffffffff168160020160009054906101000a900473ffffffffffffffffffffffffffffffffffffffff1673ffffffffffffffffffffffffffffffffffffffff1614610dd3576040517f08c379a0000000000000000000000000000000000000000000000000000000008152600401610dca90612547565b60405180910390fd5b600073ffffffffffffffffffffffffffffffffffffffff168160030160009054906101000a900473ffffffffffffffffffffffffffffffffffffffff1673ffffffffffffffffffffffffffffffffffffffff1614610e66576040517f08c379a0000000000000000000000000000000000000000000000000000000008152600401610e5d906125b3565b60405180910390fd5b6000600260009054906101000a900473ffffffffffffffffffffffffffffffffffffffff1690508073ffffffffffffffffffffffffffffffffffffffff166323b872dd308460020160009054906101000a900473ffffffffffffffffffffffffffffffffffffffff1685600101546040518463ffffffff1660e01b8152600401610ef293929190612368565b600060405180830381600087803b158015610f0c57600080fd5b505af1158015610f20573d6000803e3d6000fd5b505050507fbc217c4476eb5450fcff153b12a3dc90c68f443236970ed96f85918c65694bbb83836001015433604051610f5b939291906121a1565b60405180910390a1505050565b610f706118a9565b610f7a6000611927565b565b6005602052816000526040600020602052806000526040600020600091509150508060000154905081565b60006006805490508210610ff0576040517f08c379a0000000000000000000000000000000000000000000000000000000008152600401610fe790611fd2565b60405180910390fd5b600682815481106110045761100361205e565b5b906000526020600020906008020160030160009054906101000a900473ffffffffffffffffffffffffffffffffffffffff169050919050565b60008060009054906101000a900473ffffffffffffffffffffffffffffffffffffffff16905090565b600360009054906101000a900473ffffffffffffffffffffffffffffffffffffffff1681565b6110946118a9565b80600360006101000a81548173ffffffffffffffffffffffffffffffffffffffff021916908373ffffffffffffffffffffffffffffffffffffffff16021790555050565b600260009054906101000a900473ffffffffffffffffffffffffffffffffffffffff1681565b6111066118a9565b80600260006101000a81548173ffffffffffffffffffffffffffffffffffffffff021916908373ffffffffffffffffffffffffffffffffffffffff16021790555050565b600080841161118e576040517f08c379a00000000000000000000000000000000000000000000000000000000081526004016111859061261f565b60405180910390fd5b428311156111d1576040517f08c379a00000000000000000000000000000000000000000000000000000000081526004016111c89061268b565b60405180910390fd5b428211611213576040517f08c379a000000000000000000000000000000000000000000000000000000000815260040161120a906126f7565b60405180910390fd5b6000600260009054906101000a900473ffffffffffffffffffffffffffffffffffffffff1690503373ffffffffffffffffffffffffffffffffffffffff168173ffffffffffffffffffffffffffffffffffffffff16636352211e886040518263ffffffff1660e01b815260040161128a9190611d97565b602060405180830381865afa1580156112a7573d6000803e3d6000fd5b505050506040513d601f19601f820116820180604052508101906112cb919061272c565b73ffffffffffffffffffffffffffffffffffffffff1614611321576040517f08c379a0000000000000000000000000000000000000000000000000000000008152600401611318906127a5565b60405180910390fd5b8073ffffffffffffffffffffffffffffffffffffffff166323b872dd3330896040518463ffffffff1660e01b815260040161135e93929190612368565b600060405180830381600087803b15801561137857600080fd5b505af115801561138c573d6000803e3d6000fd5b5050505060008060405180610100016040528060045481526020018981526020013373ffffffffffffffffffffffffffffffffffffffff1681526020018373ffffffffffffffffffffffffffffffffffffffff168152602001888152602001878152602001868152602001600081525090506006819080600181540180825580915050600190039060005260206000209060080201600090919091909150600082015181600001556020820151816001015560408201518160020160006101000a81548173ffffffffffffffffffffffffffffffffffffffff021916908373ffffffffffffffffffffffffffffffffffffffff16021790555060608201518160030160006101000a81548173ffffffffffffffffffffffffffffffffffffffff021916908373ffffffffffffffffffffffffffffffffffffffff1602179055506080820151816004015560a0820151816005015560c0820151816006015560e0820151816007015550507fc0573e0a0544efd4ed32f573c0a0fb13d17cf45f2535a2e1769768d9885836786004548933858b8b8b6000604051611536989796959493929190612800565b60405180910390a16004600081548092919061155190612456565b91905055506004549350505050949350505050565b600060068054905082106115af576040517f08c379a00000000000000000000000000000000000000000000000000000000081526004016115a690611fd2565b60405180910390fd5b600682815481106115c3576115c261205e565b5b9060005260206000209060080201600401549050919050565b6115e46118a9565b600073ffffffffffffffffffffffffffffffffffffffff168173ffffffffffffffffffffffffffffffffffffffff1603611653576040517f08c379a000000000000000000000000000000000000000000000000000000000815260040161164a906128f0565b60405180910390fd5b61165c81611927565b50565b60068054905081106116a6576040517f08c379a000000000000000000000000000000000000000000000000000000000815260040161169d90611fd2565b60405180910390fd5b6116af81610786565b156116ef576040517f08c379a00000000000000000000000000000000000000000000000000000000081526004016116e69061203e565b60405180910390fd5b6000600682815481106117055761170461205e565b5b906000526020600020906008020190503373ffffffffffffffffffffffffffffffffffffffff168160030160009054906101000a900473ffffffffffffffffffffffffffffffffffffffff1673ffffffffffffffffffffffffffffffffffffffff16146117a7576040517f08c379a000000000000000000000000000000000000000000000000000000000815260040161179e90612982565b60405180910390fd5b6000600260009054906101000a900473ffffffffffffffffffffffffffffffffffffffff1690508073ffffffffffffffffffffffffffffffffffffffff166323b872dd308460030160009054906101000a900473ffffffffffffffffffffffffffffffffffffffff1685600101546040518463ffffffff1660e01b8152600401611833939291906129a2565b600060405180830381600087803b15801561184d57600080fd5b505af1158015611861573d6000803e3d6000fd5b505050507fc50a06ca126163792c7b343bdc65ad6c84b1f48337abd276d6d8dd0f9bbeb1f78383600101543360405161189c939291906121a1565b60405180910390a1505050565b6118b16119eb565b73ffffffffffffffffffffffffffffffffffffffff166118cf61103d565b73ffffffffffffffffffffffffffffffffffffffff1614611925576040517f08c379a000000000000000000000000000000000000000000000000000000000815260040161191c90612a25565b60405180910390fd5b565b60008060009054906101000a900473ffffffffffffffffffffffffffffffffffffffff169050816000806101000a81548173ffffffffffffffffffffffffffffffffffffffff021916908373ffffffffffffffffffffffffffffffffffffffff1602179055508173ffffffffffffffffffffffffffffffffffffffff168173ffffffffffffffffffffffffffffffffffffffff167f8be0079c531659141344cd1fd0a4f28419497f9722a3daafe3b4186f6b6457e060405160405180910390a35050565b600033905090565b600081519050919050565b600082825260208201905092915050565b60005b83811015611a2d578082015181840152602081019050611a12565b60008484015250505050565b6000601f19601f8301169050919050565b6000611a55826119f3565b611a5f81856119fe565b9350611a6f818560208601611a0f565b611a7881611a39565b840191505092915050565b60006020820190508181036000830152611a9d8184611a4a565b905092915050565b6000604051905090565b600080fd5b600080fd5b600073ffffffffffffffffffffffffffffffffffffffff82169050919050565b6000611ae482611ab9565b9050919050565b611af481611ad9565b8114611aff57600080fd5b50565b600081359050611b1181611aeb565b92915050565b6000819050919050565b611b2a81611b17565b8114611b3557600080fd5b50565b600081359050611b4781611b21565b92915050565b600080fd5b600080fd5b7f4e487b7100000000000000000000000000000000000000000000000000000000600052604160045260246000fd5b611b8f82611a39565b810181811067ffffffffffffffff82111715611bae57611bad611b57565b5b80604052505050565b6000611bc1611aa5565b9050611bcd8282611b86565b919050565b600067ffffffffffffffff821115611bed57611bec611b57565b5b611bf682611a39565b9050602081019050919050565b82818337600083830152505050565b6000611c25611c2084611bd2565b611bb7565b905082815260208101848484011115611c4157611c40611b52565b5b611c4c848285611c03565b509392505050565b600082601f830112611c6957611c68611b4d565b5b8135611c79848260208601611c12565b91505092915050565b60008060008060808587031215611c9c57611c9b611aaf565b5b6000611caa87828801611b02565b9450506020611cbb87828801611b02565b9350506040611ccc87828801611b38565b925050606085013567ffffffffffffffff811115611ced57611cec611ab4565b5b611cf987828801611c54565b91505092959194509250565b60007fffffffff0000000000000000000000000000000000000000000000000000000082169050919050565b611d3a81611d05565b82525050565b6000602082019050611d556000830184611d31565b92915050565b600060208284031215611d7157611d70611aaf565b5b6000611d7f84828501611b38565b91505092915050565b611d9181611b17565b82525050565b6000602082019050611dac6000830184611d88565b92915050565b60008115159050919050565b611dc781611db2565b82525050565b6000602082019050611de26000830184611dbe565b92915050565b60008060408385031215611dff57611dfe611aaf565b5b6000611e0d85828601611b38565b9250506020611e1e85828601611b38565b9150509250929050565b60008060408385031215611e3f57611e3e611aaf565b5b6000611e4d85828601611b38565b9250506020611e5e85828601611b02565b9150509250929050565b611e7181611ad9565b82525050565b6000602082019050611e8c6000830184611e68565b92915050565b600060208284031215611ea857611ea7611aaf565b5b6000611eb684828501611b02565b91505092915050565b60008060008060808587031215611ed957611ed8611aaf565b5b6000611ee787828801611b38565b9450506020611ef887828801611b38565b9350506040611f0987828801611b38565b9250506060611f1a87828801611b38565b91505092959194509250565b7f4e487b7100000000000000000000000000000000000000000000000000000000600052602260045260246000fd5b60006002820490506001821680611f6d57607f821691505b602082108103611f8057611f7f611f26565b5b50919050565b7f496e76616c69642061756374696f6e20696e6465780000000000000000000000600082015250565b6000611fbc6015836119fe565b9150611fc782611f86565b602082019050919050565b60006020820190508181036000830152611feb81611faf565b9050919050565b7f41756374696f6e206973207374696c6c206f70656e0000000000000000000000600082015250565b60006120286015836119fe565b915061203382611ff2565b602082019050919050565b600060208201905081810360008301526120578161201b565b9050919050565b7f4e487b7100000000000000000000000000000000000000000000000000000000600052603260045260246000fd5b7f4f6e6c792041756374696f6e2063726561746f722063616e20636c61696d206660008201527f756e647300000000000000000000000000000000000000000000000000000000602082015250565b60006120e96024836119fe565b91506120f48261208d565b604082019050919050565b60006020820190508181036000830152612118816120dc565b9050919050565b60006040820190506121346000830185611e68565b6121416020830184611d88565b9392505050565b61215181611db2565b811461215c57600080fd5b50565b60008151905061216e81612148565b92915050565b60006020828403121561218a57612189611aaf565b5b60006121988482850161215f565b91505092915050565b60006060820190506121b66000830186611d88565b6121c36020830185611d88565b6121d06040830184611e68565b949350505050565b7f41756374696f6e206973206e6f74206f70656e00000000000000000000000000600082015250565b600061220e6013836119fe565b9150612219826121d8565b602082019050919050565b6000602082019050818103600083015261223d81612201565b9050919050565b7f4e657720626964207072696365206d757374206265206869676865722074686160008201527f6e207468652063757272656e7420626964000000000000000000000000000000602082015250565b60006122a06031836119fe565b91506122ab82612244565b604082019050919050565b600060208201905081810360008301526122cf81612293565b9050919050565b7f43726561746f72206f66207468652061756374696f6e2063616e6e6f7420706c60008201527f616365206e657720626964000000000000000000000000000000000000000000602082015250565b6000612332602b836119fe565b915061233d826122d6565b604082019050919050565b6000602082019050818103600083015261236181612325565b9050919050565b600060608201905061237d6000830186611e68565b61238a6020830185611e68565b6123976040830184611d88565b949350505050565b6000819050919050565b60006123c46123bf6123ba84611ab9565b61239f565b611ab9565b9050919050565b60006123d6826123a9565b9050919050565b60006123e8826123cb565b9050919050565b6123f8816123dd565b82525050565b600060408201905061241360008301856123ef565b6124206020830184611d88565b9392505050565b7f4e487b7100000000000000000000000000000000000000000000000000000000600052601160045260246000fd5b600061246182611b17565b91507fffffffffffffffffffffffffffffffffffffffffffffffffffffffffffffffff820361249357612492612427565b5b600182019050919050565b60006060820190506124b36000830186611d88565b6124c06020830185611e68565b6124cd6040830184611d88565b949350505050565b7f546f6b656e732063616e20626520636c61696d6564206f6e6c7920627920746860008201527f652063726561746f72206f66207468652061756374696f6e0000000000000000602082015250565b60006125316038836119fe565b915061253c826124d5565b604082019050919050565b6000602082019050818103600083015261256081612524565b9050919050565b7f4578697374696e6720626964657220666f7220746869732061756374696f6e00600082015250565b600061259d601f836119fe565b91506125a882612567565b602082019050919050565b600060208201905081810360008301526125cc81612590565b9050919050565b7f496e76616c6964206d696e696d756d2062696400000000000000000000000000600082015250565b60006126096013836119fe565b9150612614826125d3565b602082019050919050565b60006020820190508181036000830152612638816125fc565b9050919050565b7f496e76616c69642073746172742061756374696f6e2074696d657374616d7000600082015250565b6000612675601f836119fe565b91506126808261263f565b602082019050919050565b600060208201905081810360008301526126a481612668565b9050919050565b7f496e7661696420656e642061756374696f6e2074696d657374616d7000000000600082015250565b60006126e1601c836119fe565b91506126ec826126ab565b602082019050919050565b60006020820190508181036000830152612710816126d4565b9050919050565b60008151905061272681611aeb565b92915050565b60006020828403121561274257612741611aaf565b5b600061275084828501612717565b91505092915050565b7f596f7520617265206e6f7420746865206f776e6572206f6620746865204e4654600082015250565b600061278f6020836119fe565b915061279a82612759565b602082019050919050565b600060208201905081810360008301526127be81612782565b9050919050565b6000819050919050565b60006127ea6127e56127e0846127c5565b61239f565b611b17565b9050919050565b6127fa816127cf565b82525050565b600061010082019050612816600083018b611d88565b612823602083018a611d88565b6128306040830189611e68565b61283d60608301886123ef565b61284a6080830187611d88565b61285760a0830186611d88565b61286460c0830185611d88565b61287160e08301846127f1565b9998505050505050505050565b7f4f776e61626c653a206e6577206f776e657220697320746865207a65726f206160008201527f6464726573730000000000000000000000000000000000000000000000000000602082015250565b60006128da6026836119fe565b91506128e58261287e565b604082019050919050565b60006020820190508181036000830152612909816128cd565b9050919050565b7f4f6e6c7920686967686573742063757272656e74206269646465722063616e2060008201527f636c61696d204e46540000000000000000000000000000000000000000000000602082015250565b600061296c6029836119fe565b915061297782612910565b604082019050919050565b6000602082019050818103600083015261299b8161295f565b9050919050565b60006060820190506129b76000830186611e68565b6129c460208301856123ef565b6129d16040830184611d88565b949350505050565b7f4f776e61626c653a2063616c6c6572206973206e6f7420746865206f776e6572600082015250565b6000612a0f6020836119fe565b9150612a1a826129d9565b602082019050919050565b60006020820190508181036000830152612a3e81612a02565b905091905056fea264697066735822122076f639f5cf97439b4346271f69af42bea90084cd0a4e1d7b3dece0870fad30c464736f6c63430008110033",
  "linkReferences": {},
  "deployedLinkReferences": {}
}