{
  "_format": "hh-sol-artifact-1",
  "contractName": "createAuctionContract",
  "sourceName": "contracts/CreateAuctionContract.sol",
  "abi": [
    {
      "inputs": [
        {
          "internalType": "string",
          "name": "_name",
          "type": "string"
        },
        {
          "internalType": "address",
          "name": "_CubeContractAddress",
          "type": "address"
        },
        {
          "internalType": "address",
          "name": "_PaymentTokenContractAddress",
          "type": "address"
        }
      ],
      "stateMutability": "nonpayable",
      "type": "constructor"
    },
    {
      "anonymous": false,
      "inputs": [
        {
          "indexed": true,
          "internalType": "address",
          "name": "previousOwner",
          "type": "address"
        },
        {
          "indexed": true,
          "internalType": "address",
          "name": "newOwner",
          "type": "address"
        }
      ],
      "name": "OwnershipTransferred",
      "type": "event"
    },
    {
      "anonymous": false,
      "inputs": [
        {
          "indexed": false,
          "internalType": "uint256",
          "name": "auctionIndex",
          "type": "uint256"
        },
        {
          "indexed": false,
          "internalType": "uint256",
          "name": "nftId",
          "type": "uint256"
        },
        {
          "indexed": false,
          "internalType": "address",
          "name": "auctioneer",
          "type": "address"
        }
      ],
      "name": "claimedFunds",
      "type": "event"
    },
    {
      "anonymous": false,
      "inputs": [
        {
          "indexed": false,
          "internalType": "uint256",
          "name": "auctionIndex",
          "type": "uint256"
        },
        {
          "indexed": false,
          "internalType": "uint256",
          "name": "nftId",
          "type": "uint256"
        },
        {
          "indexed": false,
          "internalType": "address",
          "name": "winner",
          "type": "address"
        }
      ],
      "name": "claimedNFT",
      "type": "event"
    },
    {
      "anonymous": false,
      "inputs": [
        {
          "indexed": false,
          "internalType": "uint256",
          "name": "index",
          "type": "uint256"
        },
        {
          "indexed": false,
          "internalType": "uint256",
          "name": "nftId",
          "type": "uint256"
        },
        {
          "indexed": false,
          "internalType": "address",
          "name": "auctioneer",
          "type": "address"
        },
        {
          "indexed": false,
          "internalType": "address",
          "name": "currentBidOwner",
          "type": "address"
        },
        {
          "indexed": false,
          "internalType": "uint256",
          "name": "currentBidPrice",
          "type": "uint256"
        },
        {
          "indexed": false,
          "internalType": "uint256",
          "name": "startAuctionTimestamp",
          "type": "uint256"
        },
        {
          "indexed": false,
          "internalType": "uint256",
          "name": "endAuctionTimestamp",
          "type": "uint256"
        },
        {
          "indexed": false,
          "internalType": "uint256",
          "name": "bidCount",
          "type": "uint256"
        }
      ],
      "name": "newAuctions",
      "type": "event"
    },
    {
      "anonymous": false,
      "inputs": [
        {
          "indexed": false,
          "internalType": "uint256",
          "name": "auctionIndex",
          "type": "uint256"
        },
        {
          "indexed": false,
          "internalType": "address",
          "name": "bidder",
          "type": "address"
        },
        {
          "indexed": false,
          "internalType": "uint256",
          "name": "newBid",
          "type": "uint256"
        }
      ],
      "name": "newBidonAuction",
      "type": "event"
    },
    {
      "anonymous": false,
      "inputs": [
        {
          "indexed": false,
          "internalType": "uint256",
          "name": "auctionIndex",
          "type": "uint256"
        },
        {
          "indexed": false,
          "internalType": "uint256",
          "name": "nftId",
          "type": "uint256"
        },
        {
          "indexed": false,
          "internalType": "address",
          "name": "auctioneer",
          "type": "address"
        }
      ],
      "name": "refundedNFT",
      "type": "event"
    },
    {
      "inputs": [],
      "name": "CubeContractAddress",
      "outputs": [
        {
          "internalType": "address",
          "name": "",
          "type": "address"
        }
      ],
      "stateMutability": "view",
      "type": "function"
    },
    {
      "inputs": [],
      "name": "PaymentTokenContractAddress",
      "outputs": [
        {
          "internalType": "address",
          "name": "",
          "type": "address"
        }
      ],
      "stateMutability": "view",
      "type": "function"
    },
    {
      "inputs": [
        {
          "internalType": "uint256",
          "name": "_auctionIndex",
          "type": "uint256"
        },
        {
          "internalType": "uint256",
          "name": "_newBid",
          "type": "uint256"
        }
      ],
      "name": "bid",
      "outputs": [
        {
          "internalType": "bool",
          "name": "",
          "type": "bool"
        }
      ],
      "stateMutability": "nonpayable",
      "type": "function"
    },
    {
      "inputs": [
        {
          "internalType": "uint256",
          "name": "_auctionIndex",
          "type": "uint256"
        }
      ],
      "name": "claimFunds",
      "outputs": [],
      "stateMutability": "nonpayable",
      "type": "function"
    },
    {
      "inputs": [
        {
          "internalType": "uint256",
          "name": "_auctionIndex",
          "type": "uint256"
        }
      ],
      "name": "claimNFT",
      "outputs": [],
      "stateMutability": "nonpayable",
      "type": "function"
    },
    {
      "inputs": [
        {
          "internalType": "uint256",
          "name": "_auctionIndex",
          "type": "uint256"
        }
      ],
      "name": "getCurrentBid",
      "outputs": [
        {
          "internalType": "uint256",
          "name": "",
          "type": "uint256"
        }
      ],
      "stateMutability": "view",
      "type": "function"
    },
    {
      "inputs": [
        {
          "internalType": "uint256",
          "name": "_auctionIndex",
          "type": "uint256"
        }
      ],
      "name": "getCurrentBidOwner",
      "outputs": [
        {
          "internalType": "address",
          "name": "",
          "type": "address"
        }
      ],
      "stateMutability": "view",
      "type": "function"
    },
    {
      "inputs": [],
      "name": "index",
      "outputs": [
        {
          "internalType": "uint256",
          "name": "",
          "type": "uint256"
        }
      ],
      "stateMutability": "view",
      "type": "function"
    },
    {
      "inputs": [
        {
          "internalType": "uint256",
          "name": "_auctionIndex",
          "type": "uint256"
        }
      ],
      "name": "isOpen",
      "outputs": [
        {
          "internalType": "bool",
          "name": "",
          "type": "bool"
        }
      ],
      "stateMutability": "view",
      "type": "function"
    },
    {
      "inputs": [],
      "name": "name",
      "outputs": [
        {
          "internalType": "string",
          "name": "",
          "type": "string"
        }
      ],
      "stateMutability": "view",
      "type": "function"
    },
    {
      "inputs": [
        {
          "internalType": "uint256",
          "name": "_nftId",
          "type": "uint256"
        },
        {
          "internalType": "uint256",
          "name": "_minBid",
          "type": "uint256"
        },
        {
          "internalType": "uint256",
          "name": "_startAuction",
          "type": "uint256"
        },
        {
          "internalType": "uint256",
          "name": "_endAuction",
          "type": "uint256"
        }
      ],
      "name": "newAuction",
      "outputs": [
        {
          "internalType": "uint256",
          "name": "",
          "type": "uint256"
        }
      ],
      "stateMutability": "nonpayable",
      "type": "function"
    },
    {
      "inputs": [
        {
          "internalType": "address",
          "name": "",
          "type": "address"
        },
        {
          "internalType": "address",
          "name": "",
          "type": "address"
        },
        {
          "internalType": "uint256",
          "name": "",
          "type": "uint256"
        },
        {
          "internalType": "bytes",
          "name": "",
          "type": "bytes"
        }
      ],
      "name": "onERC721Received",
      "outputs": [
        {
          "internalType": "bytes4",
          "name": "",
          "type": "bytes4"
        }
      ],
      "stateMutability": "nonpayable",
      "type": "function"
    },
    {
      "inputs": [],
      "name": "owner",
      "outputs": [
        {
          "internalType": "address",
          "name": "",
          "type": "address"
        }
      ],
      "stateMutability": "view",
      "type": "function"
    },
    {
      "inputs": [
        {
          "internalType": "uint256",
          "name": "_auctionIndex",
          "type": "uint256"
        }
      ],
      "name": "refundNFT",
      "outputs": [],
      "stateMutability": "nonpayable",
      "type": "function"
    },
    {
      "inputs": [],
      "name": "renounceOwnership",
      "outputs": [],
      "stateMutability": "nonpayable",
      "type": "function"
    },
    {
      "inputs": [
        {
          "internalType": "address",
          "name": "_newAddress",
          "type": "address"
        }
      ],
      "name": "setCubeContractAddress",
      "outputs": [],
      "stateMutability": "nonpayable",
      "type": "function"
    },
    {
      "inputs": [
        {
          "internalType": "address",
          "name": "_newAddress",
          "type": "address"
        }
      ],
      "name": "setPaymentTokenContractAddress",
      "outputs": [],
      "stateMutability": "nonpayable",
      "type": "function"
    },
    {
      "inputs": [
        {
          "internalType": "address",
          "name": "newOwner",
          "type": "address"
        }
      ],
      "name": "transferOwnership",
      "outputs": [],
      "stateMutability": "nonpayable",
      "type": "function"
    }
  ],
  "bytecode": "0x608060405260006004553480156200001657600080fd5b50604051620030163803806200301683398181016040528101906200003c9190620003bd565b6200005c62000050620000f960201b60201c565b6200010160201b60201c565b82600190816200006d919062000683565b5081600260006101000a81548173ffffffffffffffffffffffffffffffffffffffff021916908373ffffffffffffffffffffffffffffffffffffffff16021790555080600360006101000a81548173ffffffffffffffffffffffffffffffffffffffff021916908373ffffffffffffffffffffffffffffffffffffffff1602179055505050506200076a565b600033905090565b60008060009054906101000a900473ffffffffffffffffffffffffffffffffffffffff169050816000806101000a81548173ffffffffffffffffffffffffffffffffffffffff021916908373ffffffffffffffffffffffffffffffffffffffff1602179055508173ffffffffffffffffffffffffffffffffffffffff168173ffffffffffffffffffffffffffffffffffffffff167f8be0079c531659141344cd1fd0a4f28419497f9722a3daafe3b4186f6b6457e060405160405180910390a35050565b6000604051905090565b600080fd5b600080fd5b600080fd5b600080fd5b6000601f19601f8301169050919050565b7f4e487b7100000000000000000000000000000000000000000000000000000000600052604160045260246000fd5b6200022e82620001e3565b810181811067ffffffffffffffff8211171562000250576200024f620001f4565b5b80604052505050565b600062000265620001c5565b905062000273828262000223565b919050565b600067ffffffffffffffff821115620002965762000295620001f4565b5b620002a182620001e3565b9050602081019050919050565b60005b83811015620002ce578082015181840152602081019050620002b1565b60008484015250505050565b6000620002f1620002eb8462000278565b62000259565b90508281526020810184848401111562000310576200030f620001de565b5b6200031d848285620002ae565b509392505050565b600082601f8301126200033d576200033c620001d9565b5b81516200034f848260208601620002da565b91505092915050565b600073ffffffffffffffffffffffffffffffffffffffff82169050919050565b6000620003858262000358565b9050919050565b620003978162000378565b8114620003a357600080fd5b50565b600081519050620003b7816200038c565b92915050565b600080600060608486031215620003d957620003d8620001cf565b5b600084015167ffffffffffffffff811115620003fa57620003f9620001d4565b5b620004088682870162000325565b93505060206200041b86828701620003a6565b92505060406200042e86828701620003a6565b9150509250925092565b600081519050919050565b7f4e487b7100000000000000000000000000000000000000000000000000000000600052602260045260246000fd5b600060028204905060018216806200048b57607f821691505b602082108103620004a157620004a062000443565b5b50919050565b60008190508160005260206000209050919050565b60006020601f8301049050919050565b600082821b905092915050565b6000600883026200050b7fffffffffffffffffffffffffffffffffffffffffffffffffffffffffffffffff82620004cc565b620005178683620004cc565b95508019841693508086168417925050509392505050565b6000819050919050565b6000819050919050565b6000620005646200055e62000558846200052f565b62000539565b6200052f565b9050919050565b6000819050919050565b620005808362000543565b620005986200058f826200056b565b848454620004d9565b825550505050565b600090565b620005af620005a0565b620005bc81848462000575565b505050565b5b81811015620005e457620005d8600082620005a5565b600181019050620005c2565b5050565b601f8211156200063357620005fd81620004a7565b6200060884620004bc565b8101602085101562000618578190505b620006306200062785620004bc565b830182620005c1565b50505b505050565b600082821c905092915050565b6000620006586000198460080262000638565b1980831691505092915050565b600062000673838362000645565b9150826002028217905092915050565b6200068e8262000438565b67ffffffffffffffff811115620006aa57620006a9620001f4565b5b620006b6825462000472565b620006c3828285620005e8565b600060209050601f831160018114620006fb5760008415620006e6578287015190505b620006f2858262000665565b86555062000762565b601f1984166200070b86620004a7565b60005b8281101562000735578489015182556001820191506020850194506020810190506200070e565b8683101562000755578489015162000751601f89168262000645565b8355505b6001600288020188555050505b505050505050565b61289c806200077a6000396000f3fe608060405234801561001057600080fd5b50600436106101165760003560e01c80638da5cb5b116100a2578063d0d7328111610071578063d0d73281146102cf578063d45eb1b2146102eb578063da4e364f1461031b578063f2fde38b1461034b578063fe5c873a1461036757610116565b80638da5cb5b14610259578063a5acffac14610277578063a7138dc814610295578063c0186d53146102b157610116565b80634d6861a6116100e95780634d6861a6146101a3578063598647f8146101d35780635db6984e14610203578063715018a61461021f57806386b460731461022957610116565b806306fdde031461011b578063150b7a02146101395780631b55e338146101695780632986c0e514610185575b600080fd5b610123610383565b60405161013091906118e4565b60405180910390f35b610153600480360381019061014e9190611ae3565b610411565b6040516101609190611ba1565b60405180910390f35b610183600480360381019061017e9190611bbc565b610425565b005b61018d61067f565b60405161019a9190611bf8565b60405180910390f35b6101bd60048036038101906101b89190611bbc565b610685565b6040516101ca9190611c2e565b60405180910390f35b6101ed60048036038101906101e89190611c49565b6106cc565b6040516101fa9190611c2e565b60405180910390f35b61021d60048036038101906102189190611bbc565b610b17565b005b610227610df4565b005b610243600480360381019061023e9190611bbc565b610e08565b6040516102509190611c98565b60405180910390f35b610261610e9e565b60405161026e9190611c98565b60405180910390f35b61027f610ec7565b60405161028c9190611c98565b60405180910390f35b6102af60048036038101906102aa9190611cb3565b610eed565b005b6102b9610f39565b6040516102c69190611c98565b60405180910390f35b6102e960048036038101906102e49190611cb3565b610f5f565b005b61030560048036038101906103009190611ce0565b610fab565b6040516103129190611bf8565b60405180910390f35b61033560048036038101906103309190611bbc565b6113c7565b6040516103429190611bf8565b60405180910390f35b61036560048036038101906103609190611cb3565b61143d565b005b610381600480360381019061037c9190611bbc565b6114c0565b005b6001805461039090611d76565b80601f01602080910402602001604051908101604052809291908181526020018280546103bc90611d76565b80156104095780601f106103de57610100808354040283529160200191610409565b820191906000526020600020905b8154815290600101906020018083116103ec57829003601f168201915b505050505081565b600063150b7a0260e01b9050949350505050565b600580549050811061046c576040517f08c379a000000000000000000000000000000000000000000000000000000000815260040161046390611df3565b60405180910390fd5b61047581610685565b156104b5576040517f08c379a00000000000000000000000000000000000000000000000000000000081526004016104ac90611e5f565b60405180910390fd5b6000600582815481106104cb576104ca611e7f565b5b906000526020600020906008020190503373ffffffffffffffffffffffffffffffffffffffff168160020160009054906101000a900473ffffffffffffffffffffffffffffffffffffffff1673ffffffffffffffffffffffffffffffffffffffff161461056d576040517f08c379a000000000000000000000000000000000000000000000000000000000815260040161056490611f20565b60405180910390fd5b6000600360009054906101000a900473ffffffffffffffffffffffffffffffffffffffff1690508073ffffffffffffffffffffffffffffffffffffffff1663a9059cbb8360020160009054906101000a900473ffffffffffffffffffffffffffffffffffffffff1684600401546040518363ffffffff1660e01b81526004016105f7929190611f40565b6020604051808303816000875af1158015610616573d6000803e3d6000fd5b505050506040513d601f19601f8201168201806040525081019061063a9190611f95565b507ffbce8b6fd9a761d9abc22627182400126fe4e5e73abb7cdeb9a76bb0d991ca2d8383600101543360405161067293929190611fc2565b60405180910390a1505050565b60045481565b6000806005838154811061069c5761069b611e7f565b5b90600052602060002090600802019050806006015442106106c15760009150506106c7565b60019150505b919050565b60006005805490508310610715576040517f08c379a000000000000000000000000000000000000000000000000000000000815260040161070c90611df3565b60405180910390fd5b60006005848154811061072b5761072a611e7f565b5b9060005260206000209060080201905061074484610685565b610783576040517f08c379a000000000000000000000000000000000000000000000000000000000815260040161077a90612045565b60405180910390fd5b806004015483116107c9576040517f08c379a00000000000000000000000000000000000000000000000000000000081526004016107c0906120d7565b60405180910390fd5b8060020160009054906101000a900473ffffffffffffffffffffffffffffffffffffffff1673ffffffffffffffffffffffffffffffffffffffff163373ffffffffffffffffffffffffffffffffffffffff160361085b576040517f08c379a000000000000000000000000000000000000000000000000000000000815260040161085290612169565b60405180910390fd5b6000600360009054906101000a900473ffffffffffffffffffffffffffffffffffffffff1690508073ffffffffffffffffffffffffffffffffffffffff166323b872dd3330876040518463ffffffff1660e01b81526004016108bf93929190612189565b6020604051808303816000875af11580156108de573d6000803e3d6000fd5b505050506040513d601f19601f820116820180604052508101906109029190611f95565b50600082600701541115610a63578073ffffffffffffffffffffffffffffffffffffffff1663a9059cbb8360030160009054906101000a900473ffffffffffffffffffffffffffffffffffffffff1684600401546040518363ffffffff1660e01b815260040161097392919061221f565b6020604051808303816000875af1158015610992573d6000803e3d6000fd5b505050506040513d601f19601f820116820180604052508101906109b69190611f95565b506000339050808360030160006101000a81548173ffffffffffffffffffffffffffffffffffffffff021916908373ffffffffffffffffffffffffffffffffffffffff160217905550848360040181905550826007016000815480929190610a1d90612277565b91905055507f8de9f297a296fe6e55bb36ac261b0633e997261ec73adcb2718d4f4c8e969ed0863387604051610a55939291906122bf565b60405180910390a150610b0b565b6000339050808360030160006101000a81548173ffffffffffffffffffffffffffffffffffffffff021916908373ffffffffffffffffffffffffffffffffffffffff160217905550848360040181905550826007016000815480929190610ac990612277565b91905055507f8de9f297a296fe6e55bb36ac261b0633e997261ec73adcb2718d4f4c8e969ed0863387604051610b01939291906122bf565b60405180910390a1505b60019250505092915050565b6005805490508110610b5e576040517f08c379a0000000000000000000000000000000000000000000000000000000008152600401610b5590611df3565b60405180910390fd5b610b6781610685565b15610ba7576040517f08c379a0000000000000000000000000000000000000000000000000000000008152600401610b9e90611e5f565b60405180910390fd5b600060058281548110610bbd57610bbc611e7f565b5b906000526020600020906008020190503373ffffffffffffffffffffffffffffffffffffffff168160020160009054906101000a900473ffffffffffffffffffffffffffffffffffffffff1673ffffffffffffffffffffffffffffffffffffffff1614610c5f576040517f08c379a0000000000000000000000000000000000000000000000000000000008152600401610c5690612368565b60405180910390fd5b600073ffffffffffffffffffffffffffffffffffffffff168160030160009054906101000a900473ffffffffffffffffffffffffffffffffffffffff1673ffffffffffffffffffffffffffffffffffffffff1614610cf2576040517f08c379a0000000000000000000000000000000000000000000000000000000008152600401610ce9906123d4565b60405180910390fd5b6000600260009054906101000a900473ffffffffffffffffffffffffffffffffffffffff1690508073ffffffffffffffffffffffffffffffffffffffff166323b872dd308460020160009054906101000a900473ffffffffffffffffffffffffffffffffffffffff1685600101546040518463ffffffff1660e01b8152600401610d7e93929190612189565b600060405180830381600087803b158015610d9857600080fd5b505af1158015610dac573d6000803e3d6000fd5b505050507fbc217c4476eb5450fcff153b12a3dc90c68f443236970ed96f85918c65694bbb83836001015433604051610de793929190611fc2565b60405180910390a1505050565b610dfc61170a565b610e066000611788565b565b60006005805490508210610e51576040517f08c379a0000000000000000000000000000000000000000000000000000000008152600401610e4890611df3565b60405180910390fd5b60058281548110610e6557610e64611e7f565b5b906000526020600020906008020160030160009054906101000a900473ffffffffffffffffffffffffffffffffffffffff169050919050565b60008060009054906101000a900473ffffffffffffffffffffffffffffffffffffffff16905090565b600360009054906101000a900473ffffffffffffffffffffffffffffffffffffffff1681565b610ef561170a565b80600360006101000a81548173ffffffffffffffffffffffffffffffffffffffff021916908373ffffffffffffffffffffffffffffffffffffffff16021790555050565b600260009054906101000a900473ffffffffffffffffffffffffffffffffffffffff1681565b610f6761170a565b80600260006101000a81548173ffffffffffffffffffffffffffffffffffffffff021916908373ffffffffffffffffffffffffffffffffffffffff16021790555050565b6000808411610fef576040517f08c379a0000000000000000000000000000000000000000000000000000000008152600401610fe690612440565b60405180910390fd5b42831115611032576040517f08c379a0000000000000000000000000000000000000000000000000000000008152600401611029906124ac565b60405180910390fd5b428211611074576040517f08c379a000000000000000000000000000000000000000000000000000000000815260040161106b90612518565b60405180910390fd5b6000600260009054906101000a900473ffffffffffffffffffffffffffffffffffffffff1690503373ffffffffffffffffffffffffffffffffffffffff168173ffffffffffffffffffffffffffffffffffffffff16636352211e886040518263ffffffff1660e01b81526004016110eb9190611bf8565b602060405180830381865afa158015611108573d6000803e3d6000fd5b505050506040513d601f19601f8201168201806040525081019061112c919061254d565b73ffffffffffffffffffffffffffffffffffffffff1614611182576040517f08c379a0000000000000000000000000000000000000000000000000000000008152600401611179906125c6565b60405180910390fd5b8073ffffffffffffffffffffffffffffffffffffffff166323b872dd3330896040518463ffffffff1660e01b81526004016111bf93929190612189565b600060405180830381600087803b1580156111d957600080fd5b505af11580156111ed573d6000803e3d6000fd5b5050505060008060405180610100016040528060045481526020018981526020013373ffffffffffffffffffffffffffffffffffffffff1681526020018373ffffffffffffffffffffffffffffffffffffffff168152602001888152602001878152602001868152602001600081525090506005819080600181540180825580915050600190039060005260206000209060080201600090919091909150600082015181600001556020820151816001015560408201518160020160006101000a81548173ffffffffffffffffffffffffffffffffffffffff021916908373ffffffffffffffffffffffffffffffffffffffff16021790555060608201518160030160006101000a81548173ffffffffffffffffffffffffffffffffffffffff021916908373ffffffffffffffffffffffffffffffffffffffff1602179055506080820151816004015560a0820151816005015560c0820151816006015560e0820151816007015550507fc0573e0a0544efd4ed32f573c0a0fb13d17cf45f2535a2e1769768d9885836786004548933858b8b8b6000604051611397989796959493929190612621565b60405180910390a1600460008154809291906113b290612277565b91905055506004549350505050949350505050565b60006005805490508210611410576040517f08c379a000000000000000000000000000000000000000000000000000000000815260040161140790611df3565b60405180910390fd5b6005828154811061142457611423611e7f565b5b9060005260206000209060080201600401549050919050565b61144561170a565b600073ffffffffffffffffffffffffffffffffffffffff168173ffffffffffffffffffffffffffffffffffffffff16036114b4576040517f08c379a00000000000000000000000000000000000000000000000000000000081526004016114ab90612711565b60405180910390fd5b6114bd81611788565b50565b6005805490508110611507576040517f08c379a00000000000000000000000000000000000000000000000000000000081526004016114fe90611df3565b60405180910390fd5b61151081610685565b15611550576040517f08c379a000000000000000000000000000000000000000000000000000000000815260040161154790611e5f565b60405180910390fd5b60006005828154811061156657611565611e7f565b5b906000526020600020906008020190503373ffffffffffffffffffffffffffffffffffffffff168160030160009054906101000a900473ffffffffffffffffffffffffffffffffffffffff1673ffffffffffffffffffffffffffffffffffffffff1614611608576040517f08c379a00000000000000000000000000000000000000000000000000000000081526004016115ff906127a3565b60405180910390fd5b6000600260009054906101000a900473ffffffffffffffffffffffffffffffffffffffff1690508073ffffffffffffffffffffffffffffffffffffffff166323b872dd308460030160009054906101000a900473ffffffffffffffffffffffffffffffffffffffff1685600101546040518463ffffffff1660e01b8152600401611694939291906127c3565b600060405180830381600087803b1580156116ae57600080fd5b505af11580156116c2573d6000803e3d6000fd5b505050507fc50a06ca126163792c7b343bdc65ad6c84b1f48337abd276d6d8dd0f9bbeb1f7838360010154336040516116fd93929190611fc2565b60405180910390a1505050565b61171261184c565b73ffffffffffffffffffffffffffffffffffffffff16611730610e9e565b73ffffffffffffffffffffffffffffffffffffffff1614611786576040517f08c379a000000000000000000000000000000000000000000000000000000000815260040161177d90612846565b60405180910390fd5b565b60008060009054906101000a900473ffffffffffffffffffffffffffffffffffffffff169050816000806101000a81548173ffffffffffffffffffffffffffffffffffffffff021916908373ffffffffffffffffffffffffffffffffffffffff1602179055508173ffffffffffffffffffffffffffffffffffffffff168173ffffffffffffffffffffffffffffffffffffffff167f8be0079c531659141344cd1fd0a4f28419497f9722a3daafe3b4186f6b6457e060405160405180910390a35050565b600033905090565b600081519050919050565b600082825260208201905092915050565b60005b8381101561188e578082015181840152602081019050611873565b60008484015250505050565b6000601f19601f8301169050919050565b60006118b682611854565b6118c0818561185f565b93506118d0818560208601611870565b6118d98161189a565b840191505092915050565b600060208201905081810360008301526118fe81846118ab565b905092915050565b6000604051905090565b600080fd5b600080fd5b600073ffffffffffffffffffffffffffffffffffffffff82169050919050565b60006119458261191a565b9050919050565b6119558161193a565b811461196057600080fd5b50565b6000813590506119728161194c565b92915050565b6000819050919050565b61198b81611978565b811461199657600080fd5b50565b6000813590506119a881611982565b92915050565b600080fd5b600080fd5b7f4e487b7100000000000000000000000000000000000000000000000000000000600052604160045260246000fd5b6119f08261189a565b810181811067ffffffffffffffff82111715611a0f57611a0e6119b8565b5b80604052505050565b6000611a22611906565b9050611a2e82826119e7565b919050565b600067ffffffffffffffff821115611a4e57611a4d6119b8565b5b611a578261189a565b9050602081019050919050565b82818337600083830152505050565b6000611a86611a8184611a33565b611a18565b905082815260208101848484011115611aa257611aa16119b3565b5b611aad848285611a64565b509392505050565b600082601f830112611aca57611ac96119ae565b5b8135611ada848260208601611a73565b91505092915050565b60008060008060808587031215611afd57611afc611910565b5b6000611b0b87828801611963565b9450506020611b1c87828801611963565b9350506040611b2d87828801611999565b925050606085013567ffffffffffffffff811115611b4e57611b4d611915565b5b611b5a87828801611ab5565b91505092959194509250565b60007fffffffff0000000000000000000000000000000000000000000000000000000082169050919050565b611b9b81611b66565b82525050565b6000602082019050611bb66000830184611b92565b92915050565b600060208284031215611bd257611bd1611910565b5b6000611be084828501611999565b91505092915050565b611bf281611978565b82525050565b6000602082019050611c0d6000830184611be9565b92915050565b60008115159050919050565b611c2881611c13565b82525050565b6000602082019050611c436000830184611c1f565b92915050565b60008060408385031215611c6057611c5f611910565b5b6000611c6e85828601611999565b9250506020611c7f85828601611999565b9150509250929050565b611c928161193a565b82525050565b6000602082019050611cad6000830184611c89565b92915050565b600060208284031215611cc957611cc8611910565b5b6000611cd784828501611963565b91505092915050565b60008060008060808587031215611cfa57611cf9611910565b5b6000611d0887828801611999565b9450506020611d1987828801611999565b9350506040611d2a87828801611999565b9250506060611d3b87828801611999565b91505092959194509250565b7f4e487b7100000000000000000000000000000000000000000000000000000000600052602260045260246000fd5b60006002820490506001821680611d8e57607f821691505b602082108103611da157611da0611d47565b5b50919050565b7f496e76616c69642061756374696f6e20696e6465780000000000000000000000600082015250565b6000611ddd60158361185f565b9150611de882611da7565b602082019050919050565b60006020820190508181036000830152611e0c81611dd0565b9050919050565b7f41756374696f6e206973207374696c6c206f70656e0000000000000000000000600082015250565b6000611e4960158361185f565b9150611e5482611e13565b602082019050919050565b60006020820190508181036000830152611e7881611e3c565b9050919050565b7f4e487b7100000000000000000000000000000000000000000000000000000000600052603260045260246000fd5b7f4f6e6c792041756374696f6e2063726561746f722063616e20636c61696d206660008201527f756e647300000000000000000000000000000000000000000000000000000000602082015250565b6000611f0a60248361185f565b9150611f1582611eae565b604082019050919050565b60006020820190508181036000830152611f3981611efd565b9050919050565b6000604082019050611f556000830185611c89565b611f626020830184611be9565b9392505050565b611f7281611c13565b8114611f7d57600080fd5b50565b600081519050611f8f81611f69565b92915050565b600060208284031215611fab57611faa611910565b5b6000611fb984828501611f80565b91505092915050565b6000606082019050611fd76000830186611be9565b611fe46020830185611be9565b611ff16040830184611c89565b949350505050565b7f41756374696f6e206973206e6f74206f70656e00000000000000000000000000600082015250565b600061202f60138361185f565b915061203a82611ff9565b602082019050919050565b6000602082019050818103600083015261205e81612022565b9050919050565b7f4e657720626964207072696365206d757374206265206869676865722074686160008201527f6e207468652063757272656e7420626964000000000000000000000000000000602082015250565b60006120c160318361185f565b91506120cc82612065565b604082019050919050565b600060208201905081810360008301526120f0816120b4565b9050919050565b7f43726561746f72206f66207468652061756374696f6e2063616e6e6f7420706c60008201527f616365206e657720626964000000000000000000000000000000000000000000602082015250565b6000612153602b8361185f565b915061215e826120f7565b604082019050919050565b6000602082019050818103600083015261218281612146565b9050919050565b600060608201905061219e6000830186611c89565b6121ab6020830185611c89565b6121b86040830184611be9565b949350505050565b6000819050919050565b60006121e56121e06121db8461191a565b6121c0565b61191a565b9050919050565b60006121f7826121ca565b9050919050565b6000612209826121ec565b9050919050565b612219816121fe565b82525050565b60006040820190506122346000830185612210565b6122416020830184611be9565b9392505050565b7f4e487b7100000000000000000000000000000000000000000000000000000000600052601160045260246000fd5b600061228282611978565b91507fffffffffffffffffffffffffffffffffffffffffffffffffffffffffffffffff82036122b4576122b3612248565b5b600182019050919050565b60006060820190506122d46000830186611be9565b6122e16020830185611c89565b6122ee6040830184611be9565b949350505050565b7f546f6b656e732063616e20626520636c61696d6564206f6e6c7920627920746860008201527f652063726561746f72206f66207468652061756374696f6e0000000000000000602082015250565b600061235260388361185f565b915061235d826122f6565b604082019050919050565b6000602082019050818103600083015261238181612345565b9050919050565b7f4578697374696e6720626964657220666f7220746869732061756374696f6e00600082015250565b60006123be601f8361185f565b91506123c982612388565b602082019050919050565b600060208201905081810360008301526123ed816123b1565b9050919050565b7f496e76616c6964206d696e696d756d2062696400000000000000000000000000600082015250565b600061242a60138361185f565b9150612435826123f4565b602082019050919050565b600060208201905081810360008301526124598161241d565b9050919050565b7f496e76616c69642073746172742061756374696f6e2074696d657374616d7000600082015250565b6000612496601f8361185f565b91506124a182612460565b602082019050919050565b600060208201905081810360008301526124c581612489565b9050919050565b7f496e7661696420656e642061756374696f6e2074696d657374616d7000000000600082015250565b6000612502601c8361185f565b915061250d826124cc565b602082019050919050565b60006020820190508181036000830152612531816124f5565b9050919050565b6000815190506125478161194c565b92915050565b60006020828403121561256357612562611910565b5b600061257184828501612538565b91505092915050565b7f596f7520617265206e6f7420746865206f776e6572206f6620746865204e4654600082015250565b60006125b060208361185f565b91506125bb8261257a565b602082019050919050565b600060208201905081810360008301526125df816125a3565b9050919050565b6000819050919050565b600061260b612606612601846125e6565b6121c0565b611978565b9050919050565b61261b816125f0565b82525050565b600061010082019050612637600083018b611be9565b612644602083018a611be9565b6126516040830189611c89565b61265e6060830188612210565b61266b6080830187611be9565b61267860a0830186611be9565b61268560c0830185611be9565b61269260e0830184612612565b9998505050505050505050565b7f4f776e61626c653a206e6577206f776e657220697320746865207a65726f206160008201527f6464726573730000000000000000000000000000000000000000000000000000602082015250565b60006126fb60268361185f565b91506127068261269f565b604082019050919050565b6000602082019050818103600083015261272a816126ee565b9050919050565b7f4f6e6c7920686967686573742063757272656e74206269646465722063616e2060008201527f636c61696d204e46540000000000000000000000000000000000000000000000602082015250565b600061278d60298361185f565b915061279882612731565b604082019050919050565b600060208201905081810360008301526127bc81612780565b9050919050565b60006060820190506127d86000830186611c89565b6127e56020830185612210565b6127f26040830184611be9565b949350505050565b7f4f776e61626c653a2063616c6c6572206973206e6f7420746865206f776e6572600082015250565b600061283060208361185f565b915061283b826127fa565b602082019050919050565b6000602082019050818103600083015261285f81612823565b905091905056fea2646970667358221220e8cac584816e129378bbaa42cb92e3d8b186efc72ad49fc71dba594b180822cc64736f6c63430008110033",
  "linkReferences": {},
  "deployedLinkReferences": {}
}