{
  "_format": "hh-sol-artifact-1",
  "contractName": "CreateCubeContract",
  "sourceName": "contracts/CreateCubeContract.sol",
  "abi": [
    {
      "inputs": [
        {
          "internalType": "address",
          "name": "_auction",
          "type": "address"
        }
      ],
      "stateMutability": "nonpayable",
      "type": "constructor"
    },
    {
      "anonymous": false,
      "inputs": [
        {
          "indexed": true,
          "internalType": "address",
          "name": "owner",
          "type": "address"
        },
        {
          "indexed": true,
          "internalType": "address",
          "name": "approved",
          "type": "address"
        },
        {
          "indexed": true,
          "internalType": "uint256",
          "name": "tokenId",
          "type": "uint256"
        }
      ],
      "name": "Approval",
      "type": "event"
    },
    {
      "anonymous": false,
      "inputs": [
        {
          "indexed": true,
          "internalType": "address",
          "name": "owner",
          "type": "address"
        },
        {
          "indexed": true,
          "internalType": "address",
          "name": "operator",
          "type": "address"
        },
        {
          "indexed": false,
          "internalType": "bool",
          "name": "approved",
          "type": "bool"
        }
      ],
      "name": "ApprovalForAll",
      "type": "event"
    },
    {
      "anonymous": false,
      "inputs": [
        {
          "indexed": true,
          "internalType": "address",
          "name": "previousOwner",
          "type": "address"
        },
        {
          "indexed": true,
          "internalType": "address",
          "name": "newOwner",
          "type": "address"
        }
      ],
      "name": "OwnershipTransferred",
      "type": "event"
    },
    {
      "anonymous": false,
      "inputs": [
        {
          "indexed": true,
          "internalType": "address",
          "name": "from",
          "type": "address"
        },
        {
          "indexed": true,
          "internalType": "address",
          "name": "to",
          "type": "address"
        },
        {
          "indexed": true,
          "internalType": "uint256",
          "name": "tokenId",
          "type": "uint256"
        }
      ],
      "name": "Transfer",
      "type": "event"
    },
    {
      "inputs": [
        {
          "internalType": "address",
          "name": "to",
          "type": "address"
        },
        {
          "internalType": "uint256",
          "name": "tokenId",
          "type": "uint256"
        }
      ],
      "name": "approve",
      "outputs": [],
      "stateMutability": "nonpayable",
      "type": "function"
    },
    {
      "inputs": [],
      "name": "auctionContractAddress",
      "outputs": [
        {
          "internalType": "address",
          "name": "",
          "type": "address"
        }
      ],
      "stateMutability": "view",
      "type": "function"
    },
    {
      "inputs": [
        {
          "internalType": "address",
          "name": "owner",
          "type": "address"
        }
      ],
      "name": "balanceOf",
      "outputs": [
        {
          "internalType": "uint256",
          "name": "",
          "type": "uint256"
        }
      ],
      "stateMutability": "view",
      "type": "function"
    },
    {
      "inputs": [
        {
          "internalType": "string",
          "name": "uri",
          "type": "string"
        }
      ],
      "name": "createCube",
      "outputs": [
        {
          "internalType": "uint256",
          "name": "",
          "type": "uint256"
        }
      ],
      "stateMutability": "nonpayable",
      "type": "function"
    },
    {
      "inputs": [
        {
          "internalType": "uint256",
          "name": "tokenId",
          "type": "uint256"
        }
      ],
      "name": "getApproved",
      "outputs": [
        {
          "internalType": "address",
          "name": "",
          "type": "address"
        }
      ],
      "stateMutability": "view",
      "type": "function"
    },
    {
      "inputs": [
        {
          "internalType": "address",
          "name": "owner",
          "type": "address"
        },
        {
          "internalType": "address",
          "name": "operator",
          "type": "address"
        }
      ],
      "name": "isApprovedForAll",
      "outputs": [
        {
          "internalType": "bool",
          "name": "",
          "type": "bool"
        }
      ],
      "stateMutability": "view",
      "type": "function"
    },
    {
      "inputs": [],
      "name": "name",
      "outputs": [
        {
          "internalType": "string",
          "name": "",
          "type": "string"
        }
      ],
      "stateMutability": "view",
      "type": "function"
    },
    {
      "inputs": [],
      "name": "owner",
      "outputs": [
        {
          "internalType": "address",
          "name": "",
          "type": "address"
        }
      ],
      "stateMutability": "view",
      "type": "function"
    },
    {
      "inputs": [
        {
          "internalType": "uint256",
          "name": "tokenId",
          "type": "uint256"
        }
      ],
      "name": "ownerOf",
      "outputs": [
        {
          "internalType": "address",
          "name": "",
          "type": "address"
        }
      ],
      "stateMutability": "view",
      "type": "function"
    },
    {
      "inputs": [],
      "name": "renounceOwnership",
      "outputs": [],
      "stateMutability": "nonpayable",
      "type": "function"
    },
    {
      "inputs": [
        {
          "internalType": "address",
          "name": "from",
          "type": "address"
        },
        {
          "internalType": "address",
          "name": "to",
          "type": "address"
        },
        {
          "internalType": "uint256",
          "name": "tokenId",
          "type": "uint256"
        }
      ],
      "name": "safeTransferFrom",
      "outputs": [],
      "stateMutability": "nonpayable",
      "type": "function"
    },
    {
      "inputs": [
        {
          "internalType": "address",
          "name": "from",
          "type": "address"
        },
        {
          "internalType": "address",
          "name": "to",
          "type": "address"
        },
        {
          "internalType": "uint256",
          "name": "tokenId",
          "type": "uint256"
        },
        {
          "internalType": "bytes",
          "name": "data",
          "type": "bytes"
        }
      ],
      "name": "safeTransferFrom",
      "outputs": [],
      "stateMutability": "nonpayable",
      "type": "function"
    },
    {
      "inputs": [
        {
          "internalType": "address",
          "name": "operator",
          "type": "address"
        },
        {
          "internalType": "bool",
          "name": "approved",
          "type": "bool"
        }
      ],
      "name": "setApprovalForAll",
      "outputs": [],
      "stateMutability": "nonpayable",
      "type": "function"
    },
    {
      "inputs": [
        {
          "internalType": "address",
          "name": "newAuctionAddress",
          "type": "address"
        }
      ],
      "name": "setAuctionAddress",
      "outputs": [],
      "stateMutability": "nonpayable",
      "type": "function"
    },
    {
      "inputs": [
        {
          "internalType": "bytes4",
          "name": "interfaceId",
          "type": "bytes4"
        }
      ],
      "name": "supportsInterface",
      "outputs": [
        {
          "internalType": "bool",
          "name": "",
          "type": "bool"
        }
      ],
      "stateMutability": "view",
      "type": "function"
    },
    {
      "inputs": [],
      "name": "symbol",
      "outputs": [
        {
          "internalType": "string",
          "name": "",
          "type": "string"
        }
      ],
      "stateMutability": "view",
      "type": "function"
    },
    {
      "inputs": [
        {
          "internalType": "uint256",
          "name": "index",
          "type": "uint256"
        }
      ],
      "name": "tokenByIndex",
      "outputs": [
        {
          "internalType": "uint256",
          "name": "",
          "type": "uint256"
        }
      ],
      "stateMutability": "view",
      "type": "function"
    },
    {
      "inputs": [
        {
          "internalType": "address",
          "name": "owner",
          "type": "address"
        },
        {
          "internalType": "uint256",
          "name": "index",
          "type": "uint256"
        }
      ],
      "name": "tokenOfOwnerByIndex",
      "outputs": [
        {
          "internalType": "uint256",
          "name": "",
          "type": "uint256"
        }
      ],
      "stateMutability": "view",
      "type": "function"
    },
    {
      "inputs": [
        {
          "internalType": "uint256",
          "name": "tokenId",
          "type": "uint256"
        }
      ],
      "name": "tokenURI",
      "outputs": [
        {
          "internalType": "string",
          "name": "",
          "type": "string"
        }
      ],
      "stateMutability": "view",
      "type": "function"
    },
    {
      "inputs": [],
      "name": "totalSupply",
      "outputs": [
        {
          "internalType": "uint256",
          "name": "",
          "type": "uint256"
        }
      ],
      "stateMutability": "view",
      "type": "function"
    },
    {
      "inputs": [
        {
          "internalType": "address",
          "name": "from",
          "type": "address"
        },
        {
          "internalType": "address",
          "name": "to",
          "type": "address"
        },
        {
          "internalType": "uint256",
          "name": "tokenId",
          "type": "uint256"
        }
      ],
      "name": "transferCube",
      "outputs": [
        {
          "internalType": "bool",
          "name": "",
          "type": "bool"
        }
      ],
      "stateMutability": "nonpayable",
      "type": "function"
    },
    {
      "inputs": [
        {
          "internalType": "address",
          "name": "from",
          "type": "address"
        },
        {
          "internalType": "address",
          "name": "to",
          "type": "address"
        },
        {
          "internalType": "uint256",
          "name": "tokenId",
          "type": "uint256"
        }
      ],
      "name": "transferFrom",
      "outputs": [],
      "stateMutability": "nonpayable",
      "type": "function"
    },
    {
      "inputs": [
        {
          "internalType": "address",
          "name": "newOwner",
          "type": "address"
        }
      ],
      "name": "transferOwnership",
      "outputs": [],
      "stateMutability": "nonpayable",
      "type": "function"
    }
  ],
  "bytecode": "0x60806040523480156200001157600080fd5b506040516200400238038062004002833981810160405281019062000037919062000269565b6040518060400160405280600981526020017f43554245284e46542900000000000000000000000000000000000000000000008152506040518060400160405280600381526020017f434e5400000000000000000000000000000000000000000000000000000000008152508160009081620000b4919062000515565b508060019081620000c6919062000515565b505050620000e9620000dd6200013160201b60201c565b6200013960201b60201c565b80600d60006101000a81548173ffffffffffffffffffffffffffffffffffffffff021916908373ffffffffffffffffffffffffffffffffffffffff16021790555050620005fc565b600033905090565b6000600b60009054906101000a900473ffffffffffffffffffffffffffffffffffffffff16905081600b60006101000a81548173ffffffffffffffffffffffffffffffffffffffff021916908373ffffffffffffffffffffffffffffffffffffffff1602179055508173ffffffffffffffffffffffffffffffffffffffff168173ffffffffffffffffffffffffffffffffffffffff167f8be0079c531659141344cd1fd0a4f28419497f9722a3daafe3b4186f6b6457e060405160405180910390a35050565b600080fd5b600073ffffffffffffffffffffffffffffffffffffffff82169050919050565b6000620002318262000204565b9050919050565b620002438162000224565b81146200024f57600080fd5b50565b600081519050620002638162000238565b92915050565b600060208284031215620002825762000281620001ff565b5b6000620002928482850162000252565b91505092915050565b600081519050919050565b7f4e487b7100000000000000000000000000000000000000000000000000000000600052604160045260246000fd5b7f4e487b7100000000000000000000000000000000000000000000000000000000600052602260045260246000fd5b600060028204905060018216806200031d57607f821691505b602082108103620003335762000332620002d5565b5b50919050565b60008190508160005260206000209050919050565b60006020601f8301049050919050565b600082821b905092915050565b6000600883026200039d7fffffffffffffffffffffffffffffffffffffffffffffffffffffffffffffffff826200035e565b620003a986836200035e565b95508019841693508086168417925050509392505050565b6000819050919050565b6000819050919050565b6000620003f6620003f0620003ea84620003c1565b620003cb565b620003c1565b9050919050565b6000819050919050565b6200041283620003d5565b6200042a6200042182620003fd565b8484546200036b565b825550505050565b600090565b6200044162000432565b6200044e81848462000407565b505050565b5b8181101562000476576200046a60008262000437565b60018101905062000454565b5050565b601f821115620004c5576200048f8162000339565b6200049a846200034e565b81016020851015620004aa578190505b620004c2620004b9856200034e565b83018262000453565b50505b505050565b600082821c905092915050565b6000620004ea60001984600802620004ca565b1980831691505092915050565b6000620005058383620004d7565b9150826002028217905092915050565b62000520826200029b565b67ffffffffffffffff8111156200053c576200053b620002a6565b5b62000548825462000304565b620005558282856200047a565b600060209050601f8311600181146200058d576000841562000578578287015190505b620005848582620004f7565b865550620005f4565b601f1984166200059d8662000339565b60005b82811015620005c757848901518255600182019150602085019450602081019050620005a0565b86831015620005e75784890151620005e3601f891682620004d7565b8355505b6001600288020188555050505b505050505050565b6139f6806200060c6000396000f3fe608060405234801561001057600080fd5b506004361061014d5760003560e01c806370a08231116100c3578063b88d4fde1161007c578063b88d4fde146103b0578063c87b56dd146103cc578063e92f0041146103fc578063e985e9c51461042c578063ea8919ba1461045c578063f2fde38b1461047a5761014d565b806370a0823114610302578063715018a6146103325780638da5cb5b1461033c57806393ac36381461035a57806395d89b4114610376578063a22cb465146103945761014d565b806318160ddd1161011557806318160ddd1461021c57806323b872dd1461023a5780632f745c591461025657806342842e0e146102865780634f6ccce7146102a25780636352211e146102d25761014d565b806301ffc9a714610152578063040789c51461018257806306fdde03146101b2578063081812fc146101d0578063095ea7b314610200575b600080fd5b61016c6004803603810190610167919061254f565b610496565b6040516101799190612597565b60405180910390f35b61019c60048036038101906101979190612646565b6104a8565b6040516101a99190612597565b60405180910390f35b6101ba6104c0565b6040516101c79190612729565b60405180910390f35b6101ea60048036038101906101e5919061274b565b610552565b6040516101f79190612787565b60405180910390f35b61021a600480360381019061021591906127a2565b610598565b005b6102246106af565b60405161023191906127f1565b60405180910390f35b610254600480360381019061024f9190612646565b6106bc565b005b610270600480360381019061026b91906127a2565b61071c565b60405161027d91906127f1565b60405180910390f35b6102a0600480360381019061029b9190612646565b6107c1565b005b6102bc60048036038101906102b7919061274b565b6107e1565b6040516102c991906127f1565b60405180910390f35b6102ec60048036038101906102e7919061274b565b610852565b6040516102f99190612787565b60405180910390f35b61031c6004803603810190610317919061280c565b6108d8565b60405161032991906127f1565b60405180910390f35b61033a61098f565b005b6103446109a3565b6040516103519190612787565b60405180910390f35b610374600480360381019061036f919061280c565b6109cd565b005b61037e610a19565b60405161038b9190612729565b60405180910390f35b6103ae60048036038101906103a99190612865565b610aab565b005b6103ca60048036038101906103c591906129da565b610ac1565b005b6103e660048036038101906103e1919061274b565b610b23565b6040516103f39190612729565b60405180910390f35b61041660048036038101906104119190612afe565b610b35565b60405161042391906127f1565b60405180910390f35b61044660048036038101906104419190612b47565b610b97565b6040516104539190612597565b60405180910390f35b610464610c2b565b6040516104719190612787565b60405180910390f35b610494600480360381019061048f919061280c565b610c51565b005b60006104a182610cd4565b9050919050565b60006104b58484846107c1565b600190509392505050565b6060600080546104cf90612bb6565b80601f01602080910402602001604051908101604052809291908181526020018280546104fb90612bb6565b80156105485780601f1061051d57610100808354040283529160200191610548565b820191906000526020600020905b81548152906001019060200180831161052b57829003601f168201915b5050505050905090565b600061055d82610d4e565b6004600083815260200190815260200160002060009054906101000a900473ffffffffffffffffffffffffffffffffffffffff169050919050565b60006105a382610852565b90508073ffffffffffffffffffffffffffffffffffffffff168373ffffffffffffffffffffffffffffffffffffffff1603610613576040517f08c379a000000000000000000000000000000000000000000000000000000000815260040161060a90612c59565b60405180910390fd5b8073ffffffffffffffffffffffffffffffffffffffff16610632610d99565b73ffffffffffffffffffffffffffffffffffffffff16148061066157506106608161065b610d99565b610b97565b5b6106a0576040517f08c379a000000000000000000000000000000000000000000000000000000000815260040161069790612ceb565b60405180910390fd5b6106aa8383610da1565b505050565b6000600880549050905090565b6106cd6106c7610d99565b82610e5a565b61070c576040517f08c379a000000000000000000000000000000000000000000000000000000000815260040161070390612d7d565b60405180910390fd5b610717838383610eef565b505050565b6000610727836108d8565b8210610768576040517f08c379a000000000000000000000000000000000000000000000000000000000815260040161075f90612e0f565b60405180910390fd5b600660008473ffffffffffffffffffffffffffffffffffffffff1673ffffffffffffffffffffffffffffffffffffffff168152602001908152602001600020600083815260200190815260200160002054905092915050565b6107dc83838360405180602001604052806000815250610ac1565b505050565b60006107eb6106af565b821061082c576040517f08c379a000000000000000000000000000000000000000000000000000000000815260040161082390612ea1565b60405180910390fd5b600882815481106108405761083f612ec1565b5b90600052602060002001549050919050565b60008061085e836111e8565b9050600073ffffffffffffffffffffffffffffffffffffffff168173ffffffffffffffffffffffffffffffffffffffff16036108cf576040517f08c379a00000000000000000000000000000000000000000000000000000000081526004016108c690612f3c565b60405180910390fd5b80915050919050565b60008073ffffffffffffffffffffffffffffffffffffffff168273ffffffffffffffffffffffffffffffffffffffff1603610948576040517f08c379a000000000000000000000000000000000000000000000000000000000815260040161093f90612fce565b60405180910390fd5b600360008373ffffffffffffffffffffffffffffffffffffffff1673ffffffffffffffffffffffffffffffffffffffff168152602001908152602001600020549050919050565b610997611225565b6109a160006112a3565b565b6000600b60009054906101000a900473ffffffffffffffffffffffffffffffffffffffff16905090565b6109d5611225565b80600d60006101000a81548173ffffffffffffffffffffffffffffffffffffffff021916908373ffffffffffffffffffffffffffffffffffffffff16021790555050565b606060018054610a2890612bb6565b80601f0160208091040260200160405190810160405280929190818152602001828054610a5490612bb6565b8015610aa15780601f10610a7657610100808354040283529160200191610aa1565b820191906000526020600020905b815481529060010190602001808311610a8457829003601f168201915b5050505050905090565b610abd610ab6610d99565b8383611369565b5050565b610ad2610acc610d99565b83610e5a565b610b11576040517f08c379a0000000000000000000000000000000000000000000000000000000008152600401610b0890612d7d565b60405180910390fd5b610b1d848484846114d5565b50505050565b6060610b2e82611531565b9050919050565b600080610b42600c611643565b9050610b4e600c611651565b610b583382611667565b610b628184611685565b610b8e600d60009054906101000a900473ffffffffffffffffffffffffffffffffffffffff1682610598565b80915050919050565b6000600560008473ffffffffffffffffffffffffffffffffffffffff1673ffffffffffffffffffffffffffffffffffffffff16815260200190815260200160002060008373ffffffffffffffffffffffffffffffffffffffff1673ffffffffffffffffffffffffffffffffffffffff16815260200190815260200160002060009054906101000a900460ff16905092915050565b600d60009054906101000a900473ffffffffffffffffffffffffffffffffffffffff1681565b610c59611225565b600073ffffffffffffffffffffffffffffffffffffffff168173ffffffffffffffffffffffffffffffffffffffff1603610cc8576040517f08c379a0000000000000000000000000000000000000000000000000000000008152600401610cbf90613060565b60405180910390fd5b610cd1816112a3565b50565b60007f780e9d63000000000000000000000000000000000000000000000000000000007bffffffffffffffffffffffffffffffffffffffffffffffffffffffff1916827bffffffffffffffffffffffffffffffffffffffffffffffffffffffff19161480610d475750610d46826116f2565b5b9050919050565b610d57816117d4565b610d96576040517f08c379a0000000000000000000000000000000000000000000000000000000008152600401610d8d90612f3c565b60405180910390fd5b50565b600033905090565b816004600083815260200190815260200160002060006101000a81548173ffffffffffffffffffffffffffffffffffffffff021916908373ffffffffffffffffffffffffffffffffffffffff160217905550808273ffffffffffffffffffffffffffffffffffffffff16610e1483610852565b73ffffffffffffffffffffffffffffffffffffffff167f8c5be1e5ebec7d5bd14f71427d1e84f3dd0314c0f7b2291e5b200ac8c7c3b92560405160405180910390a45050565b600080610e6683610852565b90508073ffffffffffffffffffffffffffffffffffffffff168473ffffffffffffffffffffffffffffffffffffffff161480610ea85750610ea78185610b97565b5b80610ee657508373ffffffffffffffffffffffffffffffffffffffff16610ece84610552565b73ffffffffffffffffffffffffffffffffffffffff16145b91505092915050565b8273ffffffffffffffffffffffffffffffffffffffff16610f0f82610852565b73ffffffffffffffffffffffffffffffffffffffff1614610f65576040517f08c379a0000000000000000000000000000000000000000000000000000000008152600401610f5c906130f2565b60405180910390fd5b600073ffffffffffffffffffffffffffffffffffffffff168273ffffffffffffffffffffffffffffffffffffffff1603610fd4576040517f08c379a0000000000000000000000000000000000000000000000000000000008152600401610fcb90613184565b60405180910390fd5b610fe18383836001611815565b8273ffffffffffffffffffffffffffffffffffffffff1661100182610852565b73ffffffffffffffffffffffffffffffffffffffff1614611057576040517f08c379a000000000000000000000000000000000000000000000000000000000815260040161104e906130f2565b60405180910390fd5b6004600082815260200190815260200160002060006101000a81549073ffffffffffffffffffffffffffffffffffffffff02191690556001600360008573ffffffffffffffffffffffffffffffffffffffff1673ffffffffffffffffffffffffffffffffffffffff168152602001908152602001600020600082825403925050819055506001600360008473ffffffffffffffffffffffffffffffffffffffff1673ffffffffffffffffffffffffffffffffffffffff16815260200190815260200160002060008282540192505081905550816002600083815260200190815260200160002060006101000a81548173ffffffffffffffffffffffffffffffffffffffff021916908373ffffffffffffffffffffffffffffffffffffffff160217905550808273ffffffffffffffffffffffffffffffffffffffff168473ffffffffffffffffffffffffffffffffffffffff167fddf252ad1be2c89b69c2b068fc378daa952ba7f163c4a11628f55a4df523b3ef60405160405180910390a46111e38383836001611827565b505050565b60006002600083815260200190815260200160002060009054906101000a900473ffffffffffffffffffffffffffffffffffffffff169050919050565b61122d610d99565b73ffffffffffffffffffffffffffffffffffffffff1661124b6109a3565b73ffffffffffffffffffffffffffffffffffffffff16146112a1576040517f08c379a0000000000000000000000000000000000000000000000000000000008152600401611298906131f0565b60405180910390fd5b565b6000600b60009054906101000a900473ffffffffffffffffffffffffffffffffffffffff16905081600b60006101000a81548173ffffffffffffffffffffffffffffffffffffffff021916908373ffffffffffffffffffffffffffffffffffffffff1602179055508173ffffffffffffffffffffffffffffffffffffffff168173ffffffffffffffffffffffffffffffffffffffff167f8be0079c531659141344cd1fd0a4f28419497f9722a3daafe3b4186f6b6457e060405160405180910390a35050565b8173ffffffffffffffffffffffffffffffffffffffff168373ffffffffffffffffffffffffffffffffffffffff16036113d7576040517f08c379a00000000000000000000000000000000000000000000000000000000081526004016113ce9061325c565b60405180910390fd5b80600560008573ffffffffffffffffffffffffffffffffffffffff1673ffffffffffffffffffffffffffffffffffffffff16815260200190815260200160002060008473ffffffffffffffffffffffffffffffffffffffff1673ffffffffffffffffffffffffffffffffffffffff16815260200190815260200160002060006101000a81548160ff0219169083151502179055508173ffffffffffffffffffffffffffffffffffffffff168373ffffffffffffffffffffffffffffffffffffffff167f17307eab39ab6107e8899845ad3d59bd9653f200f220920489ca2b5937696c31836040516114c89190612597565b60405180910390a3505050565b6114e0848484610eef565b6114ec8484848461182d565b61152b576040517f08c379a0000000000000000000000000000000000000000000000000000000008152600401611522906132ee565b60405180910390fd5b50505050565b606061153c82610d4e565b6000600a6000848152602001908152602001600020805461155c90612bb6565b80601f016020809104026020016040519081016040528092919081815260200182805461158890612bb6565b80156115d55780601f106115aa576101008083540402835291602001916115d5565b820191906000526020600020905b8154815290600101906020018083116115b857829003601f168201915b5050505050905060006115e66119b4565b905060008151036115fb57819250505061163e565b60008251111561163057808260405160200161161892919061334a565b6040516020818303038152906040529250505061163e565b611639846119cb565b925050505b919050565b600081600001549050919050565b6001816000016000828254019250508190555050565b611681828260405180602001604052806000815250611a33565b5050565b61168e826117d4565b6116cd576040517f08c379a00000000000000000000000000000000000000000000000000000000081526004016116c4906133e0565b60405180910390fd5b80600a600084815260200190815260200160002090816116ed91906135ac565b505050565b60007f80ac58cd000000000000000000000000000000000000000000000000000000007bffffffffffffffffffffffffffffffffffffffffffffffffffffffff1916827bffffffffffffffffffffffffffffffffffffffffffffffffffffffff191614806117bd57507f5b5e139f000000000000000000000000000000000000000000000000000000007bffffffffffffffffffffffffffffffffffffffffffffffffffffffff1916827bffffffffffffffffffffffffffffffffffffffffffffffffffffffff1916145b806117cd57506117cc82611a8e565b5b9050919050565b60008073ffffffffffffffffffffffffffffffffffffffff166117f6836111e8565b73ffffffffffffffffffffffffffffffffffffffff1614159050919050565b61182184848484611af8565b50505050565b50505050565b600061184e8473ffffffffffffffffffffffffffffffffffffffff16611c56565b156119a7578373ffffffffffffffffffffffffffffffffffffffff1663150b7a02611877610d99565b8786866040518563ffffffff1660e01b815260040161189994939291906136d3565b6020604051808303816000875af19250505080156118d557506040513d601f19601f820116820180604052508101906118d29190613734565b60015b611957573d8060008114611905576040519150601f19603f3d011682016040523d82523d6000602084013e61190a565b606091505b50600081510361194f576040517f08c379a0000000000000000000000000000000000000000000000000000000008152600401611946906132ee565b60405180910390fd5b805181602001fd5b63150b7a0260e01b7bffffffffffffffffffffffffffffffffffffffffffffffffffffffff1916817bffffffffffffffffffffffffffffffffffffffffffffffffffffffff1916149150506119ac565b600190505b949350505050565b606060405180602001604052806000815250905090565b60606119d682610d4e565b60006119e06119b4565b90506000815111611a005760405180602001604052806000815250611a2b565b80611a0a84611c79565b604051602001611a1b92919061334a565b6040516020818303038152906040525b915050919050565b611a3d8383611d47565b611a4a600084848461182d565b611a89576040517f08c379a0000000000000000000000000000000000000000000000000000000008152600401611a80906132ee565b60405180910390fd5b505050565b60007f01ffc9a7000000000000000000000000000000000000000000000000000000007bffffffffffffffffffffffffffffffffffffffffffffffffffffffff1916827bffffffffffffffffffffffffffffffffffffffffffffffffffffffff1916149050919050565b611b0484848484611f64565b6001811115611b48576040517f08c379a0000000000000000000000000000000000000000000000000000000008152600401611b3f906137d3565b60405180910390fd5b6000829050600073ffffffffffffffffffffffffffffffffffffffff168573ffffffffffffffffffffffffffffffffffffffff1603611b8f57611b8a8161208a565b611bce565b8373ffffffffffffffffffffffffffffffffffffffff168573ffffffffffffffffffffffffffffffffffffffff1614611bcd57611bcc85826120d3565b5b5b600073ffffffffffffffffffffffffffffffffffffffff168473ffffffffffffffffffffffffffffffffffffffff1603611c1057611c0b81612240565b611c4f565b8473ffffffffffffffffffffffffffffffffffffffff168473ffffffffffffffffffffffffffffffffffffffff1614611c4e57611c4d8482612311565b5b5b5050505050565b6000808273ffffffffffffffffffffffffffffffffffffffff163b119050919050565b606060006001611c8884612390565b01905060008167ffffffffffffffff811115611ca757611ca66128af565b5b6040519080825280601f01601f191660200182016040528015611cd95781602001600182028036833780820191505090505b509050600082602001820190505b600115611d3c578080600190039150507f3031323334353637383961626364656600000000000000000000000000000000600a86061a8153600a8581611d3057611d2f6137f3565b5b04945060008503611ce7575b819350505050919050565b600073ffffffffffffffffffffffffffffffffffffffff168273ffffffffffffffffffffffffffffffffffffffff1603611db6576040517f08c379a0000000000000000000000000000000000000000000000000000000008152600401611dad9061386e565b60405180910390fd5b611dbf816117d4565b15611dff576040517f08c379a0000000000000000000000000000000000000000000000000000000008152600401611df6906138da565b60405180910390fd5b611e0d600083836001611815565b611e16816117d4565b15611e56576040517f08c379a0000000000000000000000000000000000000000000000000000000008152600401611e4d906138da565b60405180910390fd5b6001600360008473ffffffffffffffffffffffffffffffffffffffff1673ffffffffffffffffffffffffffffffffffffffff16815260200190815260200160002060008282540192505081905550816002600083815260200190815260200160002060006101000a81548173ffffffffffffffffffffffffffffffffffffffff021916908373ffffffffffffffffffffffffffffffffffffffff160217905550808273ffffffffffffffffffffffffffffffffffffffff16600073ffffffffffffffffffffffffffffffffffffffff167fddf252ad1be2c89b69c2b068fc378daa952ba7f163c4a11628f55a4df523b3ef60405160405180910390a4611f60600083836001611827565b5050565b600181111561208457600073ffffffffffffffffffffffffffffffffffffffff168473ffffffffffffffffffffffffffffffffffffffff1614611ff85780600360008673ffffffffffffffffffffffffffffffffffffffff1673ffffffffffffffffffffffffffffffffffffffff1681526020019081526020016000206000828254611ff09190613929565b925050819055505b600073ffffffffffffffffffffffffffffffffffffffff168373ffffffffffffffffffffffffffffffffffffffff16146120835780600360008573ffffffffffffffffffffffffffffffffffffffff1673ffffffffffffffffffffffffffffffffffffffff168152602001908152602001600020600082825461207b919061395d565b925050819055505b5b50505050565b6008805490506009600083815260200190815260200160002081905550600881908060018154018082558091505060019003906000526020600020016000909190919091505550565b600060016120e0846108d8565b6120ea9190613929565b90506000600760008481526020019081526020016000205490508181146121cf576000600660008673ffffffffffffffffffffffffffffffffffffffff1673ffffffffffffffffffffffffffffffffffffffff168152602001908152602001600020600084815260200190815260200160002054905080600660008773ffffffffffffffffffffffffffffffffffffffff1673ffffffffffffffffffffffffffffffffffffffff168152602001908152602001600020600084815260200190815260200160002081905550816007600083815260200190815260200160002081905550505b6007600084815260200190815260200160002060009055600660008573ffffffffffffffffffffffffffffffffffffffff1673ffffffffffffffffffffffffffffffffffffffff16815260200190815260200160002060008381526020019081526020016000206000905550505050565b600060016008805490506122549190613929565b905060006009600084815260200190815260200160002054905060006008838154811061228457612283612ec1565b5b9060005260206000200154905080600883815481106122a6576122a5612ec1565b5b9060005260206000200181905550816009600083815260200190815260200160002081905550600960008581526020019081526020016000206000905560088054806122f5576122f4613991565b5b6001900381819060005260206000200160009055905550505050565b600061231c836108d8565b905081600660008573ffffffffffffffffffffffffffffffffffffffff1673ffffffffffffffffffffffffffffffffffffffff168152602001908152602001600020600083815260200190815260200160002081905550806007600084815260200190815260200160002081905550505050565b600080600090507a184f03e93ff9f4daa797ed6e38ed64bf6a1f01000000000000000083106123ee577a184f03e93ff9f4daa797ed6e38ed64bf6a1f01000000000000000083816123e4576123e36137f3565b5b0492506040810190505b6d04ee2d6d415b85acef8100000000831061242b576d04ee2d6d415b85acef81000000008381612421576124206137f3565b5b0492506020810190505b662386f26fc10000831061245a57662386f26fc1000083816124505761244f6137f3565b5b0492506010810190505b6305f5e1008310612483576305f5e1008381612479576124786137f3565b5b0492506008810190505b61271083106124a857612710838161249e5761249d6137f3565b5b0492506004810190505b606483106124cb57606483816124c1576124c06137f3565b5b0492506002810190505b600a83106124da576001810190505b80915050919050565b6000604051905090565b600080fd5b600080fd5b60007fffffffff0000000000000000000000000000000000000000000000000000000082169050919050565b61252c816124f7565b811461253757600080fd5b50565b60008135905061254981612523565b92915050565b600060208284031215612565576125646124ed565b5b60006125738482850161253a565b91505092915050565b60008115159050919050565b6125918161257c565b82525050565b60006020820190506125ac6000830184612588565b92915050565b600073ffffffffffffffffffffffffffffffffffffffff82169050919050565b60006125dd826125b2565b9050919050565b6125ed816125d2565b81146125f857600080fd5b50565b60008135905061260a816125e4565b92915050565b6000819050919050565b61262381612610565b811461262e57600080fd5b50565b6000813590506126408161261a565b92915050565b60008060006060848603121561265f5761265e6124ed565b5b600061266d868287016125fb565b935050602061267e868287016125fb565b925050604061268f86828701612631565b9150509250925092565b600081519050919050565b600082825260208201905092915050565b60005b838110156126d35780820151818401526020810190506126b8565b60008484015250505050565b6000601f19601f8301169050919050565b60006126fb82612699565b61270581856126a4565b93506127158185602086016126b5565b61271e816126df565b840191505092915050565b6000602082019050818103600083015261274381846126f0565b905092915050565b600060208284031215612761576127606124ed565b5b600061276f84828501612631565b91505092915050565b612781816125d2565b82525050565b600060208201905061279c6000830184612778565b92915050565b600080604083850312156127b9576127b86124ed565b5b60006127c7858286016125fb565b92505060206127d885828601612631565b9150509250929050565b6127eb81612610565b82525050565b600060208201905061280660008301846127e2565b92915050565b600060208284031215612822576128216124ed565b5b6000612830848285016125fb565b91505092915050565b6128428161257c565b811461284d57600080fd5b50565b60008135905061285f81612839565b92915050565b6000806040838503121561287c5761287b6124ed565b5b600061288a858286016125fb565b925050602061289b85828601612850565b9150509250929050565b600080fd5b600080fd5b7f4e487b7100000000000000000000000000000000000000000000000000000000600052604160045260246000fd5b6128e7826126df565b810181811067ffffffffffffffff82111715612906576129056128af565b5b80604052505050565b60006129196124e3565b905061292582826128de565b919050565b600067ffffffffffffffff821115612945576129446128af565b5b61294e826126df565b9050602081019050919050565b82818337600083830152505050565b600061297d6129788461292a565b61290f565b905082815260208101848484011115612999576129986128aa565b5b6129a484828561295b565b509392505050565b600082601f8301126129c1576129c06128a5565b5b81356129d184826020860161296a565b91505092915050565b600080600080608085870312156129f4576129f36124ed565b5b6000612a02878288016125fb565b9450506020612a13878288016125fb565b9350506040612a2487828801612631565b925050606085013567ffffffffffffffff811115612a4557612a446124f2565b5b612a51878288016129ac565b91505092959194509250565b600067ffffffffffffffff821115612a7857612a776128af565b5b612a81826126df565b9050602081019050919050565b6000612aa1612a9c84612a5d565b61290f565b905082815260208101848484011115612abd57612abc6128aa565b5b612ac884828561295b565b509392505050565b600082601f830112612ae557612ae46128a5565b5b8135612af5848260208601612a8e565b91505092915050565b600060208284031215612b1457612b136124ed565b5b600082013567ffffffffffffffff811115612b3257612b316124f2565b5b612b3e84828501612ad0565b91505092915050565b60008060408385031215612b5e57612b5d6124ed565b5b6000612b6c858286016125fb565b9250506020612b7d858286016125fb565b9150509250929050565b7f4e487b7100000000000000000000000000000000000000000000000000000000600052602260045260246000fd5b60006002820490506001821680612bce57607f821691505b602082108103612be157612be0612b87565b5b50919050565b7f4552433732313a20617070726f76616c20746f2063757272656e74206f776e6560008201527f7200000000000000000000000000000000000000000000000000000000000000602082015250565b6000612c436021836126a4565b9150612c4e82612be7565b604082019050919050565b60006020820190508181036000830152612c7281612c36565b9050919050565b7f4552433732313a20617070726f76652063616c6c6572206973206e6f7420746f60008201527f6b656e206f776e6572206f7220617070726f76656420666f7220616c6c000000602082015250565b6000612cd5603d836126a4565b9150612ce082612c79565b604082019050919050565b60006020820190508181036000830152612d0481612cc8565b9050919050565b7f4552433732313a2063616c6c6572206973206e6f7420746f6b656e206f776e6560008201527f72206f7220617070726f76656400000000000000000000000000000000000000602082015250565b6000612d67602d836126a4565b9150612d7282612d0b565b604082019050919050565b60006020820190508181036000830152612d9681612d5a565b9050919050565b7f455243373231456e756d657261626c653a206f776e657220696e646578206f7560008201527f74206f6620626f756e6473000000000000000000000000000000000000000000602082015250565b6000612df9602b836126a4565b9150612e0482612d9d565b604082019050919050565b60006020820190508181036000830152612e2881612dec565b9050919050565b7f455243373231456e756d657261626c653a20676c6f62616c20696e646578206f60008201527f7574206f6620626f756e64730000000000000000000000000000000000000000602082015250565b6000612e8b602c836126a4565b9150612e9682612e2f565b604082019050919050565b60006020820190508181036000830152612eba81612e7e565b9050919050565b7f4e487b7100000000000000000000000000000000000000000000000000000000600052603260045260246000fd5b7f4552433732313a20696e76616c696420746f6b656e2049440000000000000000600082015250565b6000612f266018836126a4565b9150612f3182612ef0565b602082019050919050565b60006020820190508181036000830152612f5581612f19565b9050919050565b7f4552433732313a2061646472657373207a65726f206973206e6f74206120766160008201527f6c6964206f776e65720000000000000000000000000000000000000000000000602082015250565b6000612fb86029836126a4565b9150612fc382612f5c565b604082019050919050565b60006020820190508181036000830152612fe781612fab565b9050919050565b7f4f776e61626c653a206e6577206f776e657220697320746865207a65726f206160008201527f6464726573730000000000000000000000000000000000000000000000000000602082015250565b600061304a6026836126a4565b915061305582612fee565b604082019050919050565b600060208201905081810360008301526130798161303d565b9050919050565b7f4552433732313a207472616e736665722066726f6d20696e636f72726563742060008201527f6f776e6572000000000000000000000000000000000000000000000000000000602082015250565b60006130dc6025836126a4565b91506130e782613080565b604082019050919050565b6000602082019050818103600083015261310b816130cf565b9050919050565b7f4552433732313a207472616e7366657220746f20746865207a65726f2061646460008201527f7265737300000000000000000000000000000000000000000000000000000000602082015250565b600061316e6024836126a4565b915061317982613112565b604082019050919050565b6000602082019050818103600083015261319d81613161565b9050919050565b7f4f776e61626c653a2063616c6c6572206973206e6f7420746865206f776e6572600082015250565b60006131da6020836126a4565b91506131e5826131a4565b602082019050919050565b60006020820190508181036000830152613209816131cd565b9050919050565b7f4552433732313a20617070726f766520746f2063616c6c657200000000000000600082015250565b60006132466019836126a4565b915061325182613210565b602082019050919050565b6000602082019050818103600083015261327581613239565b9050919050565b7f4552433732313a207472616e7366657220746f206e6f6e20455243373231526560008201527f63656976657220696d706c656d656e7465720000000000000000000000000000602082015250565b60006132d86032836126a4565b91506132e38261327c565b604082019050919050565b60006020820190508181036000830152613307816132cb565b9050919050565b600081905092915050565b600061332482612699565b61332e818561330e565b935061333e8185602086016126b5565b80840191505092915050565b60006133568285613319565b91506133628284613319565b91508190509392505050565b7f45524337323155524953746f726167653a2055524920736574206f66206e6f6e60008201527f6578697374656e7420746f6b656e000000000000000000000000000000000000602082015250565b60006133ca602e836126a4565b91506133d58261336e565b604082019050919050565b600060208201905081810360008301526133f9816133bd565b9050919050565b60008190508160005260206000209050919050565b60006020601f8301049050919050565b600082821b905092915050565b6000600883026134627fffffffffffffffffffffffffffffffffffffffffffffffffffffffffffffffff82613425565b61346c8683613425565b95508019841693508086168417925050509392505050565b6000819050919050565b60006134a96134a461349f84612610565b613484565b612610565b9050919050565b6000819050919050565b6134c38361348e565b6134d76134cf826134b0565b848454613432565b825550505050565b600090565b6134ec6134df565b6134f78184846134ba565b505050565b5b8181101561351b576135106000826134e4565b6001810190506134fd565b5050565b601f8211156135605761353181613400565b61353a84613415565b81016020851015613549578190505b61355d61355585613415565b8301826134fc565b50505b505050565b600082821c905092915050565b600061358360001984600802613565565b1980831691505092915050565b600061359c8383613572565b9150826002028217905092915050565b6135b582612699565b67ffffffffffffffff8111156135ce576135cd6128af565b5b6135d88254612bb6565b6135e382828561351f565b600060209050601f8311600181146136165760008415613604578287015190505b61360e8582613590565b865550613676565b601f19841661362486613400565b60005b8281101561364c57848901518255600182019150602085019450602081019050613627565b868310156136695784890151613665601f891682613572565b8355505b6001600288020188555050505b505050505050565b600081519050919050565b600082825260208201905092915050565b60006136a58261367e565b6136af8185613689565b93506136bf8185602086016126b5565b6136c8816126df565b840191505092915050565b60006080820190506136e86000830187612778565b6136f56020830186612778565b61370260408301856127e2565b8181036060830152613714818461369a565b905095945050505050565b60008151905061372e81612523565b92915050565b60006020828403121561374a576137496124ed565b5b60006137588482850161371f565b91505092915050565b7f455243373231456e756d657261626c653a20636f6e736563757469766520747260008201527f616e7366657273206e6f7420737570706f727465640000000000000000000000602082015250565b60006137bd6035836126a4565b91506137c882613761565b604082019050919050565b600060208201905081810360008301526137ec816137b0565b9050919050565b7f4e487b7100000000000000000000000000000000000000000000000000000000600052601260045260246000fd5b7f4552433732313a206d696e7420746f20746865207a65726f2061646472657373600082015250565b60006138586020836126a4565b915061386382613822565b602082019050919050565b600060208201905081810360008301526138878161384b565b9050919050565b7f4552433732313a20746f6b656e20616c7265616479206d696e74656400000000600082015250565b60006138c4601c836126a4565b91506138cf8261388e565b602082019050919050565b600060208201905081810360008301526138f3816138b7565b9050919050565b7f4e487b7100000000000000000000000000000000000000000000000000000000600052601160045260246000fd5b600061393482612610565b915061393f83612610565b9250828203905081811115613957576139566138fa565b5b92915050565b600061396882612610565b915061397383612610565b925082820190508082111561398b5761398a6138fa565b5b92915050565b7f4e487b7100000000000000000000000000000000000000000000000000000000600052603160045260246000fdfea2646970667358221220e02f09c033c2d48c878b00864e4099d20567feebf31fc1e89c5252942533673164736f6c63430008110033",
  "linkReferences": {},
  "deployedLinkReferences": {}
}