{
  "_format": "hh-sol-artifact-1",
  "contractName": "Marketplace",
  "sourceName": "contracts/MarketPlaceContract.sol",
  "abi": [
    {
      "inputs": [],
      "stateMutability": "nonpayable",
      "type": "constructor"
    },
    {
      "anonymous": false,
      "inputs": [
        {
          "indexed": false,
          "internalType": "uint256",
          "name": "itemId",
          "type": "uint256"
        },
        {
          "indexed": true,
          "internalType": "address",
          "name": "nft",
          "type": "address"
        },
        {
          "indexed": false,
          "internalType": "uint256",
          "name": "tokenId",
          "type": "uint256"
        },
        {
          "indexed": false,
          "internalType": "uint256",
          "name": "price",
          "type": "uint256"
        },
        {
          "indexed": true,
          "internalType": "address",
          "name": "seller",
          "type": "address"
        },
        {
          "indexed": true,
          "internalType": "address",
          "name": "buyer",
          "type": "address"
        }
      ],
      "name": "Bought",
      "type": "event"
    },
    {
      "anonymous": false,
      "inputs": [
        {
          "indexed": false,
          "internalType": "uint256",
          "name": "tokenId",
          "type": "uint256"
        },
        {
          "indexed": false,
          "internalType": "address",
          "name": "owner",
          "type": "address"
        }
      ],
      "name": "NFTRefunded",
      "type": "event"
    },
    {
      "anonymous": false,
      "inputs": [
        {
          "indexed": false,
          "internalType": "uint256",
          "name": "itemId",
          "type": "uint256"
        },
        {
          "indexed": true,
          "internalType": "address",
          "name": "nft",
          "type": "address"
        },
        {
          "indexed": false,
          "internalType": "uint256",
          "name": "tokenId",
          "type": "uint256"
        },
        {
          "indexed": false,
          "internalType": "uint256",
          "name": "price",
          "type": "uint256"
        },
        {
          "indexed": true,
          "internalType": "address",
          "name": "seller",
          "type": "address"
        }
      ],
      "name": "Offered",
      "type": "event"
    },
    {
      "anonymous": false,
      "inputs": [
        {
          "indexed": true,
          "internalType": "address",
          "name": "previousOwner",
          "type": "address"
        },
        {
          "indexed": true,
          "internalType": "address",
          "name": "newOwner",
          "type": "address"
        }
      ],
      "name": "OwnershipTransferred",
      "type": "event"
    },
    {
      "anonymous": false,
      "inputs": [
        {
          "indexed": false,
          "internalType": "address",
          "name": "account",
          "type": "address"
        }
      ],
      "name": "Paused",
      "type": "event"
    },
    {
      "anonymous": false,
      "inputs": [
        {
          "indexed": false,
          "internalType": "address",
          "name": "account",
          "type": "address"
        }
      ],
      "name": "Unpaused",
      "type": "event"
    },
    {
      "inputs": [
        {
          "internalType": "contract IERC20",
          "name": "_wethAddress",
          "type": "address"
        },
        {
          "internalType": "uint256",
          "name": "_tokenId",
          "type": "uint256"
        },
        {
          "internalType": "uint256",
          "name": "_price",
          "type": "uint256"
        }
      ],
      "name": "buyItem",
      "outputs": [],
      "stateMutability": "nonpayable",
      "type": "function"
    },
    {
      "inputs": [
        {
          "internalType": "contract IERC721",
          "name": "_nft",
          "type": "address"
        },
        {
          "internalType": "uint256",
          "name": "_tokenId",
          "type": "uint256"
        }
      ],
      "name": "claimNFT",
      "outputs": [],
      "stateMutability": "nonpayable",
      "type": "function"
    },
    {
      "inputs": [
        {
          "internalType": "contract IERC721",
          "name": "_nft",
          "type": "address"
        },
        {
          "internalType": "uint256",
          "name": "_tokenId",
          "type": "uint256"
        },
        {
          "internalType": "uint256",
          "name": "_price",
          "type": "uint256"
        },
        {
          "internalType": "uint256",
          "name": "endTimeStamp",
          "type": "uint256"
        }
      ],
      "name": "createOrder",
      "outputs": [],
      "stateMutability": "nonpayable",
      "type": "function"
    },
    {
      "inputs": [
        {
          "internalType": "uint256",
          "name": "",
          "type": "uint256"
        }
      ],
      "name": "items",
      "outputs": [
        {
          "internalType": "uint256",
          "name": "itemId",
          "type": "uint256"
        },
        {
          "internalType": "contract IERC721",
          "name": "nft",
          "type": "address"
        },
        {
          "internalType": "uint256",
          "name": "tokenId",
          "type": "uint256"
        },
        {
          "internalType": "uint256",
          "name": "price",
          "type": "uint256"
        },
        {
          "internalType": "address payable",
          "name": "seller",
          "type": "address"
        },
        {
          "internalType": "bool",
          "name": "onSale",
          "type": "bool"
        },
        {
          "internalType": "bool",
          "name": "sold",
          "type": "bool"
        },
        {
          "internalType": "uint256",
          "name": "endTimeStamp",
          "type": "uint256"
        }
      ],
      "stateMutability": "view",
      "type": "function"
    },
    {
      "inputs": [],
      "name": "owner",
      "outputs": [
        {
          "internalType": "address",
          "name": "",
          "type": "address"
        }
      ],
      "stateMutability": "view",
      "type": "function"
    },
    {
      "inputs": [],
      "name": "paused",
      "outputs": [
        {
          "internalType": "bool",
          "name": "",
          "type": "bool"
        }
      ],
      "stateMutability": "view",
      "type": "function"
    },
    {
      "inputs": [],
      "name": "renounceOwnership",
      "outputs": [],
      "stateMutability": "nonpayable",
      "type": "function"
    },
    {
      "inputs": [
        {
          "internalType": "address",
          "name": "newOwner",
          "type": "address"
        }
      ],
      "name": "transferOwnership",
      "outputs": [],
      "stateMutability": "nonpayable",
      "type": "function"
    }
  ],
  "bytecode": "0x608060405234801561001057600080fd5b50600160008190555061003561002a61005560201b60201c565b61005d60201b60201c565b6000600160146101000a81548160ff021916908315150217905550610123565b600033905090565b6000600160009054906101000a900473ffffffffffffffffffffffffffffffffffffffff16905081600160006101000a81548173ffffffffffffffffffffffffffffffffffffffff021916908373ffffffffffffffffffffffffffffffffffffffff1602179055508173ffffffffffffffffffffffffffffffffffffffff168173ffffffffffffffffffffffffffffffffffffffff167f8be0079c531659141344cd1fd0a4f28419497f9722a3daafe3b4186f6b6457e060405160405180910390a35050565b611a49806101326000396000f3fe608060405234801561001057600080fd5b50600436106100885760003560e01c80638da5cb5b1161005b5780638da5cb5b146100ed578063bfb231d21461010b578063f2fde38b14610142578063f6b45c461461015e57610088565b806333a10cc11461008d5780635c975abb146100a95780636f652e1a146100c7578063715018a6146100e3575b600080fd5b6100a760048036038101906100a29190610f1e565b61017a565b005b6100b1610334565b6040516100be9190610f79565b60405180910390f35b6100e160048036038101906100dc9190610f94565b61034b565b005b6100eb610787565b005b6100f561079b565b604051610102919061100a565b60405180910390f35b61012560048036038101906101209190611025565b6107c5565b6040516101399897969594939291906110e1565b60405180910390f35b61015c6004803603810190610157919061118b565b610867565b005b610178600480360381019061017391906111f6565b6108ea565b005b600060026000838152602001908152602001600020905042816005015411156101d8576040517f08c379a00000000000000000000000000000000000000000000000000000000081526004016101cf906112a6565b60405180910390fd5b3373ffffffffffffffffffffffffffffffffffffffff168160040160009054906101000a900473ffffffffffffffffffffffffffffffffffffffff1673ffffffffffffffffffffffffffffffffffffffff161461026a576040517f08c379a000000000000000000000000000000000000000000000000000000000815260040161026190611338565b60405180910390fd5b8273ffffffffffffffffffffffffffffffffffffffff166323b872dd3033856040518463ffffffff1660e01b81526004016102a793929190611358565b600060405180830381600087803b1580156102c157600080fd5b505af11580156102d5573d6000803e3d6000fd5b5050505060008160040160146101000a81548160ff0219169083151502179055507fd41a727f28bab471a9a35649a5614c5ed06f24f1a71c479b3ce6e23effe29eaf823360405161032792919061138f565b60405180910390a1505050565b6000600160149054906101000a900460ff16905090565b610353610cce565b60006002600085815260200190815260200160002090508060040160149054906101000a900460ff16156103bc576040517f08c379a00000000000000000000000000000000000000000000000000000000081526004016103b390611404565b60405180910390fd5b4282116103fe576040517f08c379a00000000000000000000000000000000000000000000000000000000081526004016103f590611470565b60405180910390fd5b60008311610441576040517f08c379a0000000000000000000000000000000000000000000000000000000008152600401610438906114dc565b60405180910390fd5b3373ffffffffffffffffffffffffffffffffffffffff168573ffffffffffffffffffffffffffffffffffffffff16636352211e866040518263ffffffff1660e01b815260040161049191906114fc565b602060405180830381865afa1580156104ae573d6000803e3d6000fd5b505050506040513d601f19601f820116820180604052508101906104d2919061152c565b73ffffffffffffffffffffffffffffffffffffffff1614610528576040517f08c379a000000000000000000000000000000000000000000000000000000000815260040161051f906115cb565b60405180910390fd5b8473ffffffffffffffffffffffffffffffffffffffff166323b872dd3330876040518463ffffffff1660e01b815260040161056593929190611358565b600060405180830381600087803b15801561057f57600080fd5b505af1158015610593573d6000803e3d6000fd5b505050506040518061010001604052808581526020018673ffffffffffffffffffffffffffffffffffffffff1681526020018581526020018481526020013373ffffffffffffffffffffffffffffffffffffffff16815260200160011515815260200160001515815260200183815250600260008681526020019081526020016000206000820151816000015560208201518160010160006101000a81548173ffffffffffffffffffffffffffffffffffffffff021916908373ffffffffffffffffffffffffffffffffffffffff160217905550604082015181600201556060820151816003015560808201518160040160006101000a81548173ffffffffffffffffffffffffffffffffffffffff021916908373ffffffffffffffffffffffffffffffffffffffff16021790555060a08201518160040160146101000a81548160ff02191690831515021790555060c08201518160040160156101000a81548160ff02191690831515021790555060e082015181600501559050503373ffffffffffffffffffffffffffffffffffffffff168573ffffffffffffffffffffffffffffffffffffffff167f655a0cf9c8db81512be9a76dc1c5ae5380b8816ce6ad659cd61b715e2999d59a868787604051610770939291906115eb565b60405180910390a350610781610d1d565b50505050565b61078f610d27565b6107996000610da5565b565b6000600160009054906101000a900473ffffffffffffffffffffffffffffffffffffffff16905090565b60026020528060005260406000206000915090508060000154908060010160009054906101000a900473ffffffffffffffffffffffffffffffffffffffff16908060020154908060030154908060040160009054906101000a900473ffffffffffffffffffffffffffffffffffffffff16908060040160149054906101000a900460ff16908060040160159054906101000a900460ff16908060050154905088565b61086f610d27565b600073ffffffffffffffffffffffffffffffffffffffff168173ffffffffffffffffffffffffffffffffffffffff16036108de576040517f08c379a00000000000000000000000000000000000000000000000000000000081526004016108d590611694565b60405180910390fd5b6108e781610da5565b50565b6108f2610cce565b60006002600084815260200190815260200160002090504281600501541161094f576040517f08c379a000000000000000000000000000000000000000000000000000000000815260040161094690611700565b60405180910390fd5b3373ffffffffffffffffffffffffffffffffffffffff168160040160009054906101000a900473ffffffffffffffffffffffffffffffffffffffff1673ffffffffffffffffffffffffffffffffffffffff16036109e1576040517f08c379a00000000000000000000000000000000000000000000000000000000081526004016109d89061176c565b60405180910390fd5b8060030154821015610a28576040517f08c379a0000000000000000000000000000000000000000000000000000000008152600401610a1f906117fe565b60405180910390fd5b8060040160159054906101000a900460ff1615610a7a576040517f08c379a0000000000000000000000000000000000000000000000000000000008152600401610a719061186a565b60405180910390fd5b8373ffffffffffffffffffffffffffffffffffffffff166323b872dd338360040160009054906101000a900473ffffffffffffffffffffffffffffffffffffffff16856040518463ffffffff1660e01b8152600401610adb939291906118ab565b6020604051808303816000875af1158015610afa573d6000803e3d6000fd5b505050506040513d601f19601f82011682018060405250810190610b1e919061190e565b5060018160040160156101000a81548160ff02191690831515021790555060008160040160146101000a81548160ff0219169083151502179055508060010160009054906101000a900473ffffffffffffffffffffffffffffffffffffffff1673ffffffffffffffffffffffffffffffffffffffff166323b872dd303384600201546040518463ffffffff1660e01b8152600401610bbe93929190611358565b600060405180830381600087803b158015610bd857600080fd5b505af1158015610bec573d6000803e3d6000fd5b505050503373ffffffffffffffffffffffffffffffffffffffff168160040160009054906101000a900473ffffffffffffffffffffffffffffffffffffffff1673ffffffffffffffffffffffffffffffffffffffff168260010160009054906101000a900473ffffffffffffffffffffffffffffffffffffffff1673ffffffffffffffffffffffffffffffffffffffff167f8b4c9c8a607d67b321582dd8461041b1dc2ceeca70c8b7f37f8e02095cf2e76d8685600201548660030154604051610cb8939291906115eb565b60405180910390a450610cc9610d1d565b505050565b600260005403610d13576040517f08c379a0000000000000000000000000000000000000000000000000000000008152600401610d0a90611987565b60405180910390fd5b6002600081905550565b6001600081905550565b610d2f610e6b565b73ffffffffffffffffffffffffffffffffffffffff16610d4d61079b565b73ffffffffffffffffffffffffffffffffffffffff1614610da3576040517f08c379a0000000000000000000000000000000000000000000000000000000008152600401610d9a906119f3565b60405180910390fd5b565b6000600160009054906101000a900473ffffffffffffffffffffffffffffffffffffffff16905081600160006101000a81548173ffffffffffffffffffffffffffffffffffffffff021916908373ffffffffffffffffffffffffffffffffffffffff1602179055508173ffffffffffffffffffffffffffffffffffffffff168173ffffffffffffffffffffffffffffffffffffffff167f8be0079c531659141344cd1fd0a4f28419497f9722a3daafe3b4186f6b6457e060405160405180910390a35050565b600033905090565b600080fd5b600073ffffffffffffffffffffffffffffffffffffffff82169050919050565b6000610ea382610e78565b9050919050565b6000610eb582610e98565b9050919050565b610ec581610eaa565b8114610ed057600080fd5b50565b600081359050610ee281610ebc565b92915050565b6000819050919050565b610efb81610ee8565b8114610f0657600080fd5b50565b600081359050610f1881610ef2565b92915050565b60008060408385031215610f3557610f34610e73565b5b6000610f4385828601610ed3565b9250506020610f5485828601610f09565b9150509250929050565b60008115159050919050565b610f7381610f5e565b82525050565b6000602082019050610f8e6000830184610f6a565b92915050565b60008060008060808587031215610fae57610fad610e73565b5b6000610fbc87828801610ed3565b9450506020610fcd87828801610f09565b9350506040610fde87828801610f09565b9250506060610fef87828801610f09565b91505092959194509250565b61100481610e98565b82525050565b600060208201905061101f6000830184610ffb565b92915050565b60006020828403121561103b5761103a610e73565b5b600061104984828501610f09565b91505092915050565b61105b81610ee8565b82525050565b6000819050919050565b600061108661108161107c84610e78565b611061565b610e78565b9050919050565b60006110988261106b565b9050919050565b60006110aa8261108d565b9050919050565b6110ba8161109f565b82525050565b60006110cb82610e78565b9050919050565b6110db816110c0565b82525050565b6000610100820190506110f7600083018b611052565b611104602083018a6110b1565b6111116040830189611052565b61111e6060830188611052565b61112b60808301876110d2565b61113860a0830186610f6a565b61114560c0830185610f6a565b61115260e0830184611052565b9998505050505050505050565b61116881610e98565b811461117357600080fd5b50565b6000813590506111858161115f565b92915050565b6000602082840312156111a1576111a0610e73565b5b60006111af84828501611176565b91505092915050565b60006111c382610e98565b9050919050565b6111d3816111b8565b81146111de57600080fd5b50565b6000813590506111f0816111ca565b92915050565b60008060006060848603121561120f5761120e610e73565b5b600061121d868287016111e1565b935050602061122e86828701610f09565b925050604061123f86828701610f09565b9150509250925092565b600082825260208201905092915050565b7f54686973206974656d206973207374696c6c206f6e2073616c65000000000000600082015250565b6000611290601a83611249565b915061129b8261125a565b602082019050919050565b600060208201905081810360008301526112bf81611283565b9050919050565b7f596f7520617265206e6f7420746865206f776e6572206f66207468697320697460008201527f656d000000000000000000000000000000000000000000000000000000000000602082015250565b6000611322602283611249565b915061132d826112c6565b604082019050919050565b6000602082019050818103600083015261135181611315565b9050919050565b600060608201905061136d6000830186610ffb565b61137a6020830185610ffb565b6113876040830184611052565b949350505050565b60006040820190506113a46000830185611052565b6113b16020830184610ffb565b9392505050565b7f4974656d20697320616c7265616479206f6e2053616c65000000000000000000600082015250565b60006113ee601783611249565b91506113f9826113b8565b602082019050919050565b6000602082019050818103600083015261141d816113e1565b9050919050565b7f696e76616c696420656e6454696d655374616d70000000000000000000000000600082015250565b600061145a601483611249565b915061146582611424565b602082019050919050565b600060208201905081810360008301526114898161144d565b9050919050565b7f5072696365206d7573742062652067726561746572207468616e207a65726f00600082015250565b60006114c6601f83611249565b91506114d182611490565b602082019050919050565b600060208201905081810360008301526114f5816114b9565b9050919050565b60006020820190506115116000830184611052565b92915050565b6000815190506115268161115f565b92915050565b60006020828403121561154257611541610e73565b5b600061155084828501611517565b91505092915050565b7f596f7520617265206e6f7420746865204f776e6572206f662074686973204e4660008201527f5400000000000000000000000000000000000000000000000000000000000000602082015250565b60006115b5602183611249565b91506115c082611559565b604082019050919050565b600060208201905081810360008301526115e4816115a8565b9050919050565b60006060820190506116006000830186611052565b61160d6020830185611052565b61161a6040830184611052565b949350505050565b7f4f776e61626c653a206e6577206f776e657220697320746865207a65726f206160008201527f6464726573730000000000000000000000000000000000000000000000000000602082015250565b600061167e602683611249565b915061168982611622565b604082019050919050565b600060208201905081810360008301526116ad81611671565b9050919050565b7f4974656d206973206e6f74206f6e2073616c6520616e796d6f72650000000000600082015250565b60006116ea601b83611249565b91506116f5826116b4565b602082019050919050565b60006020820190508181036000830152611719816116dd565b9050919050565b7f53656c6c65722063616e6e6f7420627579207468656972206f776e2063756265600082015250565b6000611756602083611249565b915061176182611720565b602082019050919050565b6000602082019050818103600083015261178581611749565b9050919050565b7f6e6f7420656e6f756768207765746820746f20636f766572206974656d20707260008201527f6963650000000000000000000000000000000000000000000000000000000000602082015250565b60006117e8602383611249565b91506117f38261178c565b604082019050919050565b60006020820190508181036000830152611817816117db565b9050919050565b7f6974656d20616c726561647920736f6c64000000000000000000000000000000600082015250565b6000611854601183611249565b915061185f8261181e565b602082019050919050565b6000602082019050818103600083015261188381611847565b9050919050565b60006118958261108d565b9050919050565b6118a58161188a565b82525050565b60006060820190506118c06000830186610ffb565b6118cd602083018561189c565b6118da6040830184611052565b949350505050565b6118eb81610f5e565b81146118f657600080fd5b50565b600081519050611908816118e2565b92915050565b60006020828403121561192457611923610e73565b5b6000611932848285016118f9565b91505092915050565b7f5265656e7472616e637947756172643a207265656e7472616e742063616c6c00600082015250565b6000611971601f83611249565b915061197c8261193b565b602082019050919050565b600060208201905081810360008301526119a081611964565b9050919050565b7f4f776e61626c653a2063616c6c6572206973206e6f7420746865206f776e6572600082015250565b60006119dd602083611249565b91506119e8826119a7565b602082019050919050565b60006020820190508181036000830152611a0c816119d0565b905091905056fea2646970667358221220b0eb1a3d11b2ba04b5e81c184929b002a9e21a708435606b95a8299b9395860164736f6c63430008110033",
  "linkReferences": {},
  "deployedLinkReferences": {}
}