{
  "_format": "hh-sol-artifact-1",
  "contractName": "Marketplace",
  "sourceName": "contracts/MarketPlaceContract.sol",
  "abi": [
    {
      "inputs": [
        {
          "internalType": "uint256",
          "name": "_feePercent",
          "type": "uint256"
        }
      ],
      "stateMutability": "nonpayable",
      "type": "constructor"
    },
    {
      "anonymous": false,
      "inputs": [
        {
          "indexed": false,
          "internalType": "uint256",
          "name": "itemId",
          "type": "uint256"
        },
        {
          "indexed": true,
          "internalType": "address",
          "name": "nft",
          "type": "address"
        },
        {
          "indexed": false,
          "internalType": "uint256",
          "name": "tokenId",
          "type": "uint256"
        },
        {
          "indexed": false,
          "internalType": "uint256",
          "name": "price",
          "type": "uint256"
        },
        {
          "indexed": true,
          "internalType": "address",
          "name": "seller",
          "type": "address"
        },
        {
          "indexed": true,
          "internalType": "address",
          "name": "buyer",
          "type": "address"
        }
      ],
      "name": "Bought",
      "type": "event"
    },
    {
      "anonymous": false,
      "inputs": [
        {
          "indexed": false,
          "internalType": "uint256",
          "name": "tokenId",
          "type": "uint256"
        },
        {
          "indexed": false,
          "internalType": "address",
          "name": "owner",
          "type": "address"
        }
      ],
      "name": "NFTRefunded",
      "type": "event"
    },
    {
      "anonymous": false,
      "inputs": [
        {
          "indexed": false,
          "internalType": "uint256",
          "name": "itemId",
          "type": "uint256"
        },
        {
          "indexed": true,
          "internalType": "address",
          "name": "nft",
          "type": "address"
        },
        {
          "indexed": false,
          "internalType": "uint256",
          "name": "tokenId",
          "type": "uint256"
        },
        {
          "indexed": false,
          "internalType": "uint256",
          "name": "price",
          "type": "uint256"
        },
        {
          "indexed": true,
          "internalType": "address",
          "name": "seller",
          "type": "address"
        }
      ],
      "name": "Offered",
      "type": "event"
    },
    {
      "anonymous": false,
      "inputs": [
        {
          "indexed": true,
          "internalType": "address",
          "name": "previousOwner",
          "type": "address"
        },
        {
          "indexed": true,
          "internalType": "address",
          "name": "newOwner",
          "type": "address"
        }
      ],
      "name": "OwnershipTransferred",
      "type": "event"
    },
    {
      "anonymous": false,
      "inputs": [
        {
          "indexed": false,
          "internalType": "address",
          "name": "account",
          "type": "address"
        }
      ],
      "name": "Paused",
      "type": "event"
    },
    {
      "anonymous": false,
      "inputs": [
        {
          "indexed": false,
          "internalType": "address",
          "name": "account",
          "type": "address"
        }
      ],
      "name": "Unpaused",
      "type": "event"
    },
    {
      "inputs": [
        {
          "internalType": "contract IERC20",
          "name": "_wethAddress",
          "type": "address"
        },
        {
          "internalType": "uint256",
          "name": "_tokenId",
          "type": "uint256"
        },
        {
          "internalType": "uint256",
          "name": "_price",
          "type": "uint256"
        }
      ],
      "name": "buyItem",
      "outputs": [],
      "stateMutability": "nonpayable",
      "type": "function"
    },
    {
      "inputs": [
        {
          "internalType": "contract IERC721",
          "name": "_nft",
          "type": "address"
        },
        {
          "internalType": "uint256",
          "name": "_tokenId",
          "type": "uint256"
        }
      ],
      "name": "claimNFT",
      "outputs": [],
      "stateMutability": "nonpayable",
      "type": "function"
    },
    {
      "inputs": [
        {
          "internalType": "contract IERC721",
          "name": "_nft",
          "type": "address"
        },
        {
          "internalType": "uint256",
          "name": "_tokenId",
          "type": "uint256"
        },
        {
          "internalType": "uint256",
          "name": "_price",
          "type": "uint256"
        },
        {
          "internalType": "uint256",
          "name": "endTimeStamp",
          "type": "uint256"
        }
      ],
      "name": "createOrder",
      "outputs": [],
      "stateMutability": "nonpayable",
      "type": "function"
    },
    {
      "inputs": [],
      "name": "feeAccount",
      "outputs": [
        {
          "internalType": "address payable",
          "name": "",
          "type": "address"
        }
      ],
      "stateMutability": "view",
      "type": "function"
    },
    {
      "inputs": [],
      "name": "feePercent",
      "outputs": [
        {
          "internalType": "uint256",
          "name": "",
          "type": "uint256"
        }
      ],
      "stateMutability": "view",
      "type": "function"
    },
    {
      "inputs": [
        {
          "internalType": "uint256",
          "name": "_tokenId",
          "type": "uint256"
        }
      ],
      "name": "getTotalPrice",
      "outputs": [
        {
          "internalType": "uint256",
          "name": "",
          "type": "uint256"
        }
      ],
      "stateMutability": "view",
      "type": "function"
    },
    {
      "inputs": [
        {
          "internalType": "uint256",
          "name": "",
          "type": "uint256"
        }
      ],
      "name": "items",
      "outputs": [
        {
          "internalType": "uint256",
          "name": "itemId",
          "type": "uint256"
        },
        {
          "internalType": "contract IERC721",
          "name": "nft",
          "type": "address"
        },
        {
          "internalType": "uint256",
          "name": "tokenId",
          "type": "uint256"
        },
        {
          "internalType": "uint256",
          "name": "price",
          "type": "uint256"
        },
        {
          "internalType": "address payable",
          "name": "seller",
          "type": "address"
        },
        {
          "internalType": "bool",
          "name": "sold",
          "type": "bool"
        },
        {
          "internalType": "uint256",
          "name": "endTimeStamp",
          "type": "uint256"
        }
      ],
      "stateMutability": "view",
      "type": "function"
    },
    {
      "inputs": [],
      "name": "owner",
      "outputs": [
        {
          "internalType": "address",
          "name": "",
          "type": "address"
        }
      ],
      "stateMutability": "view",
      "type": "function"
    },
    {
      "inputs": [],
      "name": "paused",
      "outputs": [
        {
          "internalType": "bool",
          "name": "",
          "type": "bool"
        }
      ],
      "stateMutability": "view",
      "type": "function"
    },
    {
      "inputs": [
        {
          "internalType": "uint256",
          "name": "_tokenId",
          "type": "uint256"
        }
      ],
      "name": "purchaseItem",
      "outputs": [],
      "stateMutability": "payable",
      "type": "function"
    },
    {
      "inputs": [],
      "name": "renounceOwnership",
      "outputs": [],
      "stateMutability": "nonpayable",
      "type": "function"
    },
    {
      "inputs": [
        {
          "internalType": "address",
          "name": "newOwner",
          "type": "address"
        }
      ],
      "name": "transferOwnership",
      "outputs": [],
      "stateMutability": "nonpayable",
      "type": "function"
    }
  ],
  "bytecode": "0x60c06040523480156200001157600080fd5b506040516200211d3803806200211d8339818101604052810190620000379190620001cb565b60016000819055506200005f62000053620000bd60201b60201c565b620000c560201b60201c565b6000600160146101000a81548160ff0219169083151502179055503373ffffffffffffffffffffffffffffffffffffffff1660808173ffffffffffffffffffffffffffffffffffffffff16815250508060a0818152505050620001fd565b600033905090565b6000600160009054906101000a900473ffffffffffffffffffffffffffffffffffffffff16905081600160006101000a81548173ffffffffffffffffffffffffffffffffffffffff021916908373ffffffffffffffffffffffffffffffffffffffff1602179055508173ffffffffffffffffffffffffffffffffffffffff168173ffffffffffffffffffffffffffffffffffffffff167f8be0079c531659141344cd1fd0a4f28419497f9722a3daafe3b4186f6b6457e060405160405180910390a35050565b600080fd5b6000819050919050565b620001a58162000190565b8114620001b157600080fd5b50565b600081519050620001c5816200019a565b92915050565b600060208284031215620001e457620001e36200018b565b5b6000620001f484828501620001b4565b91505092915050565b60805160a051611eec620002316000396000818161084501526109260152600081816104650152610afb0152611eec6000f3fe6080604052600436106100a75760003560e01c80638da5cb5b116100645780638da5cb5b14610196578063bfb231d2146101c1578063ca7dd37514610204578063d38ea5bf14610241578063f2fde38b1461025d578063f6b45c4614610286576100a7565b806333a10cc1146100ac5780635c975abb146100d557806365e17c9d146101005780636f652e1a1461012b578063715018a6146101545780637fd6f15c1461016b575b600080fd5b3480156100b857600080fd5b506100d360048036038101906100ce91906112c2565b6102af565b005b3480156100e157600080fd5b506100ea61044c565b6040516100f7919061131d565b60405180910390f35b34801561010c57600080fd5b50610115610463565b6040516101229190611359565b60405180910390f35b34801561013757600080fd5b50610152600480360381019061014d9190611374565b610487565b005b34801561016057600080fd5b5061016961082f565b005b34801561017757600080fd5b50610180610843565b60405161018d91906113ea565b60405180910390f35b3480156101a257600080fd5b506101ab610867565b6040516101b89190611414565b60405180910390f35b3480156101cd57600080fd5b506101e860048036038101906101e3919061142f565b610891565b6040516101fb97969594939291906114bb565b60405180910390f35b34801561021057600080fd5b5061022b6004803603810190610226919061142f565b610920565b60405161023891906113ea565b60405180910390f35b61025b6004803603810190610256919061142f565b610983565b005b34801561026957600080fd5b50610284600480360381019061027f9190611556565b610d00565b005b34801561029257600080fd5b506102ad60048036038101906102a891906115c1565b610d83565b005b6000600260008381526020019081526020016000209050428160050154111561030d576040517f08c379a000000000000000000000000000000000000000000000000000000000815260040161030490611671565b60405180910390fd5b3373ffffffffffffffffffffffffffffffffffffffff168160040160009054906101000a900473ffffffffffffffffffffffffffffffffffffffff1673ffffffffffffffffffffffffffffffffffffffff161461039f576040517f08c379a000000000000000000000000000000000000000000000000000000000815260040161039690611703565b60405180910390fd5b8273ffffffffffffffffffffffffffffffffffffffff166323b872dd3033856040518463ffffffff1660e01b81526004016103dc93929190611723565b600060405180830381600087803b1580156103f657600080fd5b505af115801561040a573d6000803e3d6000fd5b505050507fd41a727f28bab471a9a35649a5614c5ed06f24f1a71c479b3ce6e23effe29eaf823360405161043f92919061175a565b60405180910390a1505050565b6000600160149054906101000a900460ff16905090565b7f000000000000000000000000000000000000000000000000000000000000000081565b61048f611072565b4281116104d1576040517f08c379a00000000000000000000000000000000000000000000000000000000081526004016104c8906117cf565b60405180910390fd5b60008211610514576040517f08c379a000000000000000000000000000000000000000000000000000000000815260040161050b9061183b565b60405180910390fd5b3373ffffffffffffffffffffffffffffffffffffffff168473ffffffffffffffffffffffffffffffffffffffff16636352211e856040518263ffffffff1660e01b815260040161056491906113ea565b602060405180830381865afa158015610581573d6000803e3d6000fd5b505050506040513d601f19601f820116820180604052508101906105a59190611870565b73ffffffffffffffffffffffffffffffffffffffff16146105fb576040517f08c379a00000000000000000000000000000000000000000000000000000000081526004016105f29061190f565b60405180910390fd5b8373ffffffffffffffffffffffffffffffffffffffff166323b872dd3330866040518463ffffffff1660e01b815260040161063893929190611723565b600060405180830381600087803b15801561065257600080fd5b505af1158015610666573d6000803e3d6000fd5b505050506040518060e001604052808481526020018573ffffffffffffffffffffffffffffffffffffffff1681526020018481526020018381526020013373ffffffffffffffffffffffffffffffffffffffff16815260200160001515815260200182815250600260008581526020019081526020016000206000820151816000015560208201518160010160006101000a81548173ffffffffffffffffffffffffffffffffffffffff021916908373ffffffffffffffffffffffffffffffffffffffff160217905550604082015181600201556060820151816003015560808201518160040160006101000a81548173ffffffffffffffffffffffffffffffffffffffff021916908373ffffffffffffffffffffffffffffffffffffffff16021790555060a08201518160040160146101000a81548160ff02191690831515021790555060c082015181600501559050503373ffffffffffffffffffffffffffffffffffffffff168473ffffffffffffffffffffffffffffffffffffffff167f655a0cf9c8db81512be9a76dc1c5ae5380b8816ce6ad659cd61b715e2999d59a8586866040516108199392919061192f565b60405180910390a36108296110c1565b50505050565b6108376110cb565b6108416000611149565b565b7f000000000000000000000000000000000000000000000000000000000000000081565b6000600160009054906101000a900473ffffffffffffffffffffffffffffffffffffffff16905090565b60026020528060005260406000206000915090508060000154908060010160009054906101000a900473ffffffffffffffffffffffffffffffffffffffff16908060020154908060030154908060040160009054906101000a900473ffffffffffffffffffffffffffffffffffffffff16908060040160149054906101000a900460ff16908060050154905087565b600060647f000000000000000000000000000000000000000000000000000000000000000060646109519190611995565b600260008581526020019081526020016000206003015461097291906119c9565b61097c9190611a3a565b9050919050565b61098b611072565b600061099682610920565b90506000600260008481526020019081526020016000209050428160050154116109f5576040517f08c379a00000000000000000000000000000000000000000000000000000000081526004016109ec90611ab7565b60405180910390fd5b81341015610a38576040517f08c379a0000000000000000000000000000000000000000000000000000000008152600401610a2f90611b49565b60405180910390fd5b8060040160149054906101000a900460ff1615610a8a576040517f08c379a0000000000000000000000000000000000000000000000000000000008152600401610a8190611bb5565b60405180910390fd5b8060040160009054906101000a900473ffffffffffffffffffffffffffffffffffffffff1673ffffffffffffffffffffffffffffffffffffffff166108fc82600301549081150290604051600060405180830381858888f19350505050158015610af8573d6000803e3d6000fd5b507f000000000000000000000000000000000000000000000000000000000000000073ffffffffffffffffffffffffffffffffffffffff166108fc826003015484610b439190611bd5565b9081150290604051600060405180830381858888f19350505050158015610b6e573d6000803e3d6000fd5b5060018160040160146101000a81548160ff0219169083151502179055508060010160009054906101000a900473ffffffffffffffffffffffffffffffffffffffff1673ffffffffffffffffffffffffffffffffffffffff166323b872dd303384600201546040518463ffffffff1660e01b8152600401610bf193929190611723565b600060405180830381600087803b158015610c0b57600080fd5b505af1158015610c1f573d6000803e3d6000fd5b505050503373ffffffffffffffffffffffffffffffffffffffff168160040160009054906101000a900473ffffffffffffffffffffffffffffffffffffffff1673ffffffffffffffffffffffffffffffffffffffff168260010160009054906101000a900473ffffffffffffffffffffffffffffffffffffffff1673ffffffffffffffffffffffffffffffffffffffff167f8b4c9c8a607d67b321582dd8461041b1dc2ceeca70c8b7f37f8e02095cf2e76d8685600201548660030154604051610ceb9392919061192f565b60405180910390a45050610cfd6110c1565b50565b610d086110cb565b600073ffffffffffffffffffffffffffffffffffffffff168173ffffffffffffffffffffffffffffffffffffffff1603610d77576040517f08c379a0000000000000000000000000000000000000000000000000000000008152600401610d6e90611c7b565b60405180910390fd5b610d8081611149565b50565b610d8b611072565b60006002600084815260200190815260200160002090508060030154821015610de9576040517f08c379a0000000000000000000000000000000000000000000000000000000008152600401610de090611d0d565b60405180910390fd5b8060040160149054906101000a900460ff1615610e3b576040517f08c379a0000000000000000000000000000000000000000000000000000000008152600401610e3290611bb5565b60405180910390fd5b8373ffffffffffffffffffffffffffffffffffffffff166323b872dd338360040160009054906101000a900473ffffffffffffffffffffffffffffffffffffffff16856040518463ffffffff1660e01b8152600401610e9c93929190611d4e565b6020604051808303816000875af1158015610ebb573d6000803e3d6000fd5b505050506040513d601f19601f82011682018060405250810190610edf9190611db1565b5060018160040160146101000a81548160ff0219169083151502179055508060010160009054906101000a900473ffffffffffffffffffffffffffffffffffffffff1673ffffffffffffffffffffffffffffffffffffffff166323b872dd303384600201546040518463ffffffff1660e01b8152600401610f6293929190611723565b600060405180830381600087803b158015610f7c57600080fd5b505af1158015610f90573d6000803e3d6000fd5b505050503373ffffffffffffffffffffffffffffffffffffffff168160040160009054906101000a900473ffffffffffffffffffffffffffffffffffffffff1673ffffffffffffffffffffffffffffffffffffffff168260010160009054906101000a900473ffffffffffffffffffffffffffffffffffffffff1673ffffffffffffffffffffffffffffffffffffffff167f8b4c9c8a607d67b321582dd8461041b1dc2ceeca70c8b7f37f8e02095cf2e76d868560020154866003015460405161105c9392919061192f565b60405180910390a45061106d6110c1565b505050565b6002600054036110b7576040517f08c379a00000000000000000000000000000000000000000000000000000000081526004016110ae90611e2a565b60405180910390fd5b6002600081905550565b6001600081905550565b6110d361120f565b73ffffffffffffffffffffffffffffffffffffffff166110f1610867565b73ffffffffffffffffffffffffffffffffffffffff1614611147576040517f08c379a000000000000000000000000000000000000000000000000000000000815260040161113e90611e96565b60405180910390fd5b565b6000600160009054906101000a900473ffffffffffffffffffffffffffffffffffffffff16905081600160006101000a81548173ffffffffffffffffffffffffffffffffffffffff021916908373ffffffffffffffffffffffffffffffffffffffff1602179055508173ffffffffffffffffffffffffffffffffffffffff168173ffffffffffffffffffffffffffffffffffffffff167f8be0079c531659141344cd1fd0a4f28419497f9722a3daafe3b4186f6b6457e060405160405180910390a35050565b600033905090565b600080fd5b600073ffffffffffffffffffffffffffffffffffffffff82169050919050565b60006112478261121c565b9050919050565b60006112598261123c565b9050919050565b6112698161124e565b811461127457600080fd5b50565b60008135905061128681611260565b92915050565b6000819050919050565b61129f8161128c565b81146112aa57600080fd5b50565b6000813590506112bc81611296565b92915050565b600080604083850312156112d9576112d8611217565b5b60006112e785828601611277565b92505060206112f8858286016112ad565b9150509250929050565b60008115159050919050565b61131781611302565b82525050565b6000602082019050611332600083018461130e565b92915050565b60006113438261121c565b9050919050565b61135381611338565b82525050565b600060208201905061136e600083018461134a565b92915050565b6000806000806080858703121561138e5761138d611217565b5b600061139c87828801611277565b94505060206113ad878288016112ad565b93505060406113be878288016112ad565b92505060606113cf878288016112ad565b91505092959194509250565b6113e48161128c565b82525050565b60006020820190506113ff60008301846113db565b92915050565b61140e8161123c565b82525050565b60006020820190506114296000830184611405565b92915050565b60006020828403121561144557611444611217565b5b6000611453848285016112ad565b91505092915050565b6000819050919050565b600061148161147c6114778461121c565b61145c565b61121c565b9050919050565b600061149382611466565b9050919050565b60006114a582611488565b9050919050565b6114b58161149a565b82525050565b600060e0820190506114d0600083018a6113db565b6114dd60208301896114ac565b6114ea60408301886113db565b6114f760608301876113db565b611504608083018661134a565b61151160a083018561130e565b61151e60c08301846113db565b98975050505050505050565b6115338161123c565b811461153e57600080fd5b50565b6000813590506115508161152a565b92915050565b60006020828403121561156c5761156b611217565b5b600061157a84828501611541565b91505092915050565b600061158e8261123c565b9050919050565b61159e81611583565b81146115a957600080fd5b50565b6000813590506115bb81611595565b92915050565b6000806000606084860312156115da576115d9611217565b5b60006115e8868287016115ac565b93505060206115f9868287016112ad565b925050604061160a868287016112ad565b9150509250925092565b600082825260208201905092915050565b7f54686973206974656d206973207374696c6c206f6e2073616c65000000000000600082015250565b600061165b601a83611614565b915061166682611625565b602082019050919050565b6000602082019050818103600083015261168a8161164e565b9050919050565b7f596f7520617265206e6f7420746865206f776e6572206f66207468697320697460008201527f656d000000000000000000000000000000000000000000000000000000000000602082015250565b60006116ed602283611614565b91506116f882611691565b604082019050919050565b6000602082019050818103600083015261171c816116e0565b9050919050565b60006060820190506117386000830186611405565b6117456020830185611405565b61175260408301846113db565b949350505050565b600060408201905061176f60008301856113db565b61177c6020830184611405565b9392505050565b7f696e76616c696420656e6454696d655374616d70000000000000000000000000600082015250565b60006117b9601483611614565b91506117c482611783565b602082019050919050565b600060208201905081810360008301526117e8816117ac565b9050919050565b7f5072696365206d7573742062652067726561746572207468616e207a65726f00600082015250565b6000611825601f83611614565b9150611830826117ef565b602082019050919050565b6000602082019050818103600083015261185481611818565b9050919050565b60008151905061186a8161152a565b92915050565b60006020828403121561188657611885611217565b5b60006118948482850161185b565b91505092915050565b7f596f7520617265206e6f7420746865204f776e6572206f662074686973204e4660008201527f5400000000000000000000000000000000000000000000000000000000000000602082015250565b60006118f9602183611614565b91506119048261189d565b604082019050919050565b60006020820190508181036000830152611928816118ec565b9050919050565b600060608201905061194460008301866113db565b61195160208301856113db565b61195e60408301846113db565b949350505050565b7f4e487b7100000000000000000000000000000000000000000000000000000000600052601160045260246000fd5b60006119a08261128c565b91506119ab8361128c565b92508282019050808211156119c3576119c2611966565b5b92915050565b60006119d48261128c565b91506119df8361128c565b92508282026119ed8161128c565b91508282048414831517611a0457611a03611966565b5b5092915050565b7f4e487b7100000000000000000000000000000000000000000000000000000000600052601260045260246000fd5b6000611a458261128c565b9150611a508361128c565b925082611a6057611a5f611a0b565b5b828204905092915050565b7f4974656d206973206e6f74206f6e2073616c6520616e796d6f72650000000000600082015250565b6000611aa1601b83611614565b9150611aac82611a6b565b602082019050919050565b60006020820190508181036000830152611ad081611a94565b9050919050565b7f6e6f7420656e6f75676820657468657220746f20636f766572206974656d207060008201527f7269636520616e64206d61726b65742066656500000000000000000000000000602082015250565b6000611b33603383611614565b9150611b3e82611ad7565b604082019050919050565b60006020820190508181036000830152611b6281611b26565b9050919050565b7f6974656d20616c726561647920736f6c64000000000000000000000000000000600082015250565b6000611b9f601183611614565b9150611baa82611b69565b602082019050919050565b60006020820190508181036000830152611bce81611b92565b9050919050565b6000611be08261128c565b9150611beb8361128c565b9250828203905081811115611c0357611c02611966565b5b92915050565b7f4f776e61626c653a206e6577206f776e657220697320746865207a65726f206160008201527f6464726573730000000000000000000000000000000000000000000000000000602082015250565b6000611c65602683611614565b9150611c7082611c09565b604082019050919050565b60006020820190508181036000830152611c9481611c58565b9050919050565b7f6e6f7420656e6f756768207765746820746f20636f766572206974656d20707260008201527f6963650000000000000000000000000000000000000000000000000000000000602082015250565b6000611cf7602383611614565b9150611d0282611c9b565b604082019050919050565b60006020820190508181036000830152611d2681611cea565b9050919050565b6000611d3882611488565b9050919050565b611d4881611d2d565b82525050565b6000606082019050611d636000830186611405565b611d706020830185611d3f565b611d7d60408301846113db565b949350505050565b611d8e81611302565b8114611d9957600080fd5b50565b600081519050611dab81611d85565b92915050565b600060208284031215611dc757611dc6611217565b5b6000611dd584828501611d9c565b91505092915050565b7f5265656e7472616e637947756172643a207265656e7472616e742063616c6c00600082015250565b6000611e14601f83611614565b9150611e1f82611dde565b602082019050919050565b60006020820190508181036000830152611e4381611e07565b9050919050565b7f4f776e61626c653a2063616c6c6572206973206e6f7420746865206f776e6572600082015250565b6000611e80602083611614565b9150611e8b82611e4a565b602082019050919050565b60006020820190508181036000830152611eaf81611e73565b905091905056fea26469706673582212200869d15b4038fe68136dc3c69b3a7fa68df7f68704a482b86cd0c9b6aedaef9b64736f6c63430008110033",
  "linkReferences": {},
  "deployedLinkReferences": {}
}