{
  "_format": "hh-sol-artifact-1",
  "contractName": "Marketplace",
  "sourceName": "contracts/MarketPlaceContract.sol",
  "abi": [
    {
      "inputs": [
        {
          "internalType": "uint256",
          "name": "_feePercent",
          "type": "uint256"
        }
      ],
      "stateMutability": "nonpayable",
      "type": "constructor"
    },
    {
      "anonymous": false,
      "inputs": [
        {
          "indexed": false,
          "internalType": "uint256",
          "name": "itemId",
          "type": "uint256"
        },
        {
          "indexed": true,
          "internalType": "address",
          "name": "nft",
          "type": "address"
        },
        {
          "indexed": false,
          "internalType": "uint256",
          "name": "tokenId",
          "type": "uint256"
        },
        {
          "indexed": false,
          "internalType": "uint256",
          "name": "price",
          "type": "uint256"
        },
        {
          "indexed": true,
          "internalType": "address",
          "name": "seller",
          "type": "address"
        },
        {
          "indexed": true,
          "internalType": "address",
          "name": "buyer",
          "type": "address"
        }
      ],
      "name": "Bought",
      "type": "event"
    },
    {
      "anonymous": false,
      "inputs": [
        {
          "indexed": false,
          "internalType": "uint256",
          "name": "tokenId",
          "type": "uint256"
        },
        {
          "indexed": false,
          "internalType": "address",
          "name": "owner",
          "type": "address"
        }
      ],
      "name": "NFTRefunded",
      "type": "event"
    },
    {
      "anonymous": false,
      "inputs": [
        {
          "indexed": false,
          "internalType": "uint256",
          "name": "itemId",
          "type": "uint256"
        },
        {
          "indexed": true,
          "internalType": "address",
          "name": "nft",
          "type": "address"
        },
        {
          "indexed": false,
          "internalType": "uint256",
          "name": "tokenId",
          "type": "uint256"
        },
        {
          "indexed": false,
          "internalType": "uint256",
          "name": "price",
          "type": "uint256"
        },
        {
          "indexed": true,
          "internalType": "address",
          "name": "seller",
          "type": "address"
        }
      ],
      "name": "Offered",
      "type": "event"
    },
    {
      "anonymous": false,
      "inputs": [
        {
          "indexed": true,
          "internalType": "address",
          "name": "previousOwner",
          "type": "address"
        },
        {
          "indexed": true,
          "internalType": "address",
          "name": "newOwner",
          "type": "address"
        }
      ],
      "name": "OwnershipTransferred",
      "type": "event"
    },
    {
      "inputs": [
        {
          "internalType": "contract IERC20",
          "name": "_wethAddress",
          "type": "address"
        },
        {
          "internalType": "uint256",
          "name": "_tokenId",
          "type": "uint256"
        },
        {
          "internalType": "uint256",
          "name": "_price",
          "type": "uint256"
        }
      ],
      "name": "buyItem",
      "outputs": [],
      "stateMutability": "nonpayable",
      "type": "function"
    },
    {
      "inputs": [
        {
          "internalType": "contract IERC721",
          "name": "_nft",
          "type": "address"
        },
        {
          "internalType": "uint256",
          "name": "_tokenId",
          "type": "uint256"
        }
      ],
      "name": "claimNFT",
      "outputs": [],
      "stateMutability": "nonpayable",
      "type": "function"
    },
    {
      "inputs": [
        {
          "internalType": "contract IERC721",
          "name": "_nft",
          "type": "address"
        },
        {
          "internalType": "uint256",
          "name": "_tokenId",
          "type": "uint256"
        },
        {
          "internalType": "uint256",
          "name": "_price",
          "type": "uint256"
        },
        {
          "internalType": "uint256",
          "name": "endTimeStamp",
          "type": "uint256"
        }
      ],
      "name": "createOrder",
      "outputs": [],
      "stateMutability": "nonpayable",
      "type": "function"
    },
    {
      "inputs": [],
      "name": "feeAccount",
      "outputs": [
        {
          "internalType": "address payable",
          "name": "",
          "type": "address"
        }
      ],
      "stateMutability": "view",
      "type": "function"
    },
    {
      "inputs": [],
      "name": "feePercent",
      "outputs": [
        {
          "internalType": "uint256",
          "name": "",
          "type": "uint256"
        }
      ],
      "stateMutability": "view",
      "type": "function"
    },
    {
      "inputs": [
        {
          "internalType": "uint256",
          "name": "_tokenId",
          "type": "uint256"
        }
      ],
      "name": "getTotalPrice",
      "outputs": [
        {
          "internalType": "uint256",
          "name": "",
          "type": "uint256"
        }
      ],
      "stateMutability": "view",
      "type": "function"
    },
    {
      "inputs": [
        {
          "internalType": "uint256",
          "name": "",
          "type": "uint256"
        }
      ],
      "name": "items",
      "outputs": [
        {
          "internalType": "uint256",
          "name": "itemId",
          "type": "uint256"
        },
        {
          "internalType": "contract IERC721",
          "name": "nft",
          "type": "address"
        },
        {
          "internalType": "uint256",
          "name": "tokenId",
          "type": "uint256"
        },
        {
          "internalType": "uint256",
          "name": "price",
          "type": "uint256"
        },
        {
          "internalType": "address payable",
          "name": "seller",
          "type": "address"
        },
        {
          "internalType": "bool",
          "name": "sold",
          "type": "bool"
        },
        {
          "internalType": "uint256",
          "name": "endTimeStamp",
          "type": "uint256"
        }
      ],
      "stateMutability": "view",
      "type": "function"
    },
    {
      "inputs": [],
      "name": "owner",
      "outputs": [
        {
          "internalType": "address",
          "name": "",
          "type": "address"
        }
      ],
      "stateMutability": "view",
      "type": "function"
    },
    {
      "inputs": [
        {
          "internalType": "uint256",
          "name": "_tokenId",
          "type": "uint256"
        }
      ],
      "name": "purchaseItem",
      "outputs": [],
      "stateMutability": "payable",
      "type": "function"
    },
    {
      "inputs": [],
      "name": "renounceOwnership",
      "outputs": [],
      "stateMutability": "nonpayable",
      "type": "function"
    },
    {
      "inputs": [
        {
          "internalType": "address",
          "name": "newOwner",
          "type": "address"
        }
      ],
      "name": "transferOwnership",
      "outputs": [],
      "stateMutability": "nonpayable",
      "type": "function"
    }
  ],
  "bytecode": "0x60c06040523480156200001157600080fd5b50604051620020cf380380620020cf8339818101604052810190620000379190620001b0565b60016000819055506200005f62000053620000a260201b60201c565b620000aa60201b60201c565b3373ffffffffffffffffffffffffffffffffffffffff1660808173ffffffffffffffffffffffffffffffffffffffff16815250508060a0818152505050620001e2565b600033905090565b6000600160009054906101000a900473ffffffffffffffffffffffffffffffffffffffff16905081600160006101000a81548173ffffffffffffffffffffffffffffffffffffffff021916908373ffffffffffffffffffffffffffffffffffffffff1602179055508173ffffffffffffffffffffffffffffffffffffffff168173ffffffffffffffffffffffffffffffffffffffff167f8be0079c531659141344cd1fd0a4f28419497f9722a3daafe3b4186f6b6457e060405160405180910390a35050565b600080fd5b6000819050919050565b6200018a8162000175565b81146200019657600080fd5b50565b600081519050620001aa816200017f565b92915050565b600060208284031215620001c957620001c862000170565b5b6000620001d98482850162000199565b91505092915050565b60805160a051611eb26200021d600039600081816107f801526108d901526000818161041801528181610aae0152610ecf0152611eb26000f3fe60806040526004361061009c5760003560e01c80638da5cb5b116100645780638da5cb5b14610160578063bfb231d21461018b578063ca7dd375146101ce578063d38ea5bf1461020b578063f2fde38b14610227578063f6b45c46146102505761009c565b806333a10cc1146100a157806365e17c9d146100ca5780636f652e1a146100f5578063715018a61461011e5780637fd6f15c14610135575b600080fd5b3480156100ad57600080fd5b506100c860048036038101906100c39190611335565b610279565b005b3480156100d657600080fd5b506100df610416565b6040516100ec9190611396565b60405180910390f35b34801561010157600080fd5b5061011c600480360381019061011791906113b1565b61043a565b005b34801561012a57600080fd5b506101336107e2565b005b34801561014157600080fd5b5061014a6107f6565b6040516101579190611427565b60405180910390f35b34801561016c57600080fd5b5061017561081a565b6040516101829190611451565b60405180910390f35b34801561019757600080fd5b506101b260048036038101906101ad919061146c565b610844565b6040516101c59796959493929190611513565b60405180910390f35b3480156101da57600080fd5b506101f560048036038101906101f0919061146c565b6108d3565b6040516102029190611427565b60405180910390f35b6102256004803603810190610220919061146c565b610936565b005b34801561023357600080fd5b5061024e600480360381019061024991906115ae565b610cb3565b005b34801561025c57600080fd5b5061027760048036038101906102729190611619565b610d36565b005b600060026000838152602001908152602001600020905042816005015411156102d7576040517f08c379a00000000000000000000000000000000000000000000000000000000081526004016102ce906116c9565b60405180910390fd5b3373ffffffffffffffffffffffffffffffffffffffff168160040160009054906101000a900473ffffffffffffffffffffffffffffffffffffffff1673ffffffffffffffffffffffffffffffffffffffff1614610369576040517f08c379a00000000000000000000000000000000000000000000000000000000081526004016103609061175b565b60405180910390fd5b8273ffffffffffffffffffffffffffffffffffffffff166323b872dd3033856040518463ffffffff1660e01b81526004016103a69392919061177b565b600060405180830381600087803b1580156103c057600080fd5b505af11580156103d4573d6000803e3d6000fd5b505050507fd41a727f28bab471a9a35649a5614c5ed06f24f1a71c479b3ce6e23effe29eaf82336040516104099291906117b2565b60405180910390a1505050565b7f000000000000000000000000000000000000000000000000000000000000000081565b6104426110e5565b428111610484576040517f08c379a000000000000000000000000000000000000000000000000000000000815260040161047b90611827565b60405180910390fd5b600082116104c7576040517f08c379a00000000000000000000000000000000000000000000000000000000081526004016104be90611893565b60405180910390fd5b3373ffffffffffffffffffffffffffffffffffffffff168473ffffffffffffffffffffffffffffffffffffffff16636352211e856040518263ffffffff1660e01b81526004016105179190611427565b602060405180830381865afa158015610534573d6000803e3d6000fd5b505050506040513d601f19601f8201168201806040525081019061055891906118c8565b73ffffffffffffffffffffffffffffffffffffffff16146105ae576040517f08c379a00000000000000000000000000000000000000000000000000000000081526004016105a590611967565b60405180910390fd5b8373ffffffffffffffffffffffffffffffffffffffff166323b872dd3330866040518463ffffffff1660e01b81526004016105eb9392919061177b565b600060405180830381600087803b15801561060557600080fd5b505af1158015610619573d6000803e3d6000fd5b505050506040518060e001604052808481526020018573ffffffffffffffffffffffffffffffffffffffff1681526020018481526020018381526020013373ffffffffffffffffffffffffffffffffffffffff16815260200160001515815260200182815250600260008581526020019081526020016000206000820151816000015560208201518160010160006101000a81548173ffffffffffffffffffffffffffffffffffffffff021916908373ffffffffffffffffffffffffffffffffffffffff160217905550604082015181600201556060820151816003015560808201518160040160006101000a81548173ffffffffffffffffffffffffffffffffffffffff021916908373ffffffffffffffffffffffffffffffffffffffff16021790555060a08201518160040160146101000a81548160ff02191690831515021790555060c082015181600501559050503373ffffffffffffffffffffffffffffffffffffffff168473ffffffffffffffffffffffffffffffffffffffff167f655a0cf9c8db81512be9a76dc1c5ae5380b8816ce6ad659cd61b715e2999d59a8586866040516107cc93929190611987565b60405180910390a36107dc611134565b50505050565b6107ea61113e565b6107f460006111bc565b565b7f000000000000000000000000000000000000000000000000000000000000000081565b6000600160009054906101000a900473ffffffffffffffffffffffffffffffffffffffff16905090565b60026020528060005260406000206000915090508060000154908060010160009054906101000a900473ffffffffffffffffffffffffffffffffffffffff16908060020154908060030154908060040160009054906101000a900473ffffffffffffffffffffffffffffffffffffffff16908060040160149054906101000a900460ff16908060050154905087565b600060647f0000000000000000000000000000000000000000000000000000000000000000606461090491906119ed565b60026000858152602001908152602001600020600301546109259190611a21565b61092f9190611a92565b9050919050565b61093e6110e5565b6000610949826108d3565b90506000600260008481526020019081526020016000209050428160050154116109a8576040517f08c379a000000000000000000000000000000000000000000000000000000000815260040161099f90611b0f565b60405180910390fd5b813410156109eb576040517f08c379a00000000000000000000000000000000000000000000000000000000081526004016109e290611ba1565b60405180910390fd5b8060040160149054906101000a900460ff1615610a3d576040517f08c379a0000000000000000000000000000000000000000000000000000000008152600401610a3490611c0d565b60405180910390fd5b8060040160009054906101000a900473ffffffffffffffffffffffffffffffffffffffff1673ffffffffffffffffffffffffffffffffffffffff166108fc82600301549081150290604051600060405180830381858888f19350505050158015610aab573d6000803e3d6000fd5b507f000000000000000000000000000000000000000000000000000000000000000073ffffffffffffffffffffffffffffffffffffffff166108fc826003015484610af69190611c2d565b9081150290604051600060405180830381858888f19350505050158015610b21573d6000803e3d6000fd5b5060018160040160146101000a81548160ff0219169083151502179055508060010160009054906101000a900473ffffffffffffffffffffffffffffffffffffffff1673ffffffffffffffffffffffffffffffffffffffff166323b872dd303384600201546040518463ffffffff1660e01b8152600401610ba49392919061177b565b600060405180830381600087803b158015610bbe57600080fd5b505af1158015610bd2573d6000803e3d6000fd5b505050503373ffffffffffffffffffffffffffffffffffffffff168160040160009054906101000a900473ffffffffffffffffffffffffffffffffffffffff1673ffffffffffffffffffffffffffffffffffffffff168260010160009054906101000a900473ffffffffffffffffffffffffffffffffffffffff1673ffffffffffffffffffffffffffffffffffffffff167f8b4c9c8a607d67b321582dd8461041b1dc2ceeca70c8b7f37f8e02095cf2e76d8685600201548660030154604051610c9e93929190611987565b60405180910390a45050610cb0611134565b50565b610cbb61113e565b600073ffffffffffffffffffffffffffffffffffffffff168173ffffffffffffffffffffffffffffffffffffffff1603610d2a576040517f08c379a0000000000000000000000000000000000000000000000000000000008152600401610d2190611cd3565b60405180910390fd5b610d33816111bc565b50565b610d3e6110e5565b60006002600084815260200190815260200160002090506000610d60846108d3565b90506000826003015482610d749190611c2d565b905081841015610db9576040517f08c379a0000000000000000000000000000000000000000000000000000000008152600401610db090611ba1565b60405180910390fd5b8260040160149054906101000a900460ff1615610e0b576040517f08c379a0000000000000000000000000000000000000000000000000000000008152600401610e0290611c0d565b60405180910390fd5b8573ffffffffffffffffffffffffffffffffffffffff166323b872dd338560040160009054906101000a900473ffffffffffffffffffffffffffffffffffffffff16876040518463ffffffff1660e01b8152600401610e6c93929190611d14565b6020604051808303816000875af1158015610e8b573d6000803e3d6000fd5b505050506040513d601f19601f82011682018060405250810190610eaf9190611d77565b508573ffffffffffffffffffffffffffffffffffffffff166323b872dd337f0000000000000000000000000000000000000000000000000000000000000000846040518463ffffffff1660e01b8152600401610f0d93929190611d14565b6020604051808303816000875af1158015610f2c573d6000803e3d6000fd5b505050506040513d601f19601f82011682018060405250810190610f509190611d77565b5060018360040160146101000a81548160ff0219169083151502179055508260010160009054906101000a900473ffffffffffffffffffffffffffffffffffffffff1673ffffffffffffffffffffffffffffffffffffffff166323b872dd303386600201546040518463ffffffff1660e01b8152600401610fd39392919061177b565b600060405180830381600087803b158015610fed57600080fd5b505af1158015611001573d6000803e3d6000fd5b505050503373ffffffffffffffffffffffffffffffffffffffff168360040160009054906101000a900473ffffffffffffffffffffffffffffffffffffffff1673ffffffffffffffffffffffffffffffffffffffff168460010160009054906101000a900473ffffffffffffffffffffffffffffffffffffffff1673ffffffffffffffffffffffffffffffffffffffff167f8b4c9c8a607d67b321582dd8461041b1dc2ceeca70c8b7f37f8e02095cf2e76d88876002015488600301546040516110cd93929190611987565b60405180910390a45050506110e0611134565b505050565b60026000540361112a576040517f08c379a000000000000000000000000000000000000000000000000000000000815260040161112190611df0565b60405180910390fd5b6002600081905550565b6001600081905550565b611146611282565b73ffffffffffffffffffffffffffffffffffffffff1661116461081a565b73ffffffffffffffffffffffffffffffffffffffff16146111ba576040517f08c379a00000000000000000000000000000000000000000000000000000000081526004016111b190611e5c565b60405180910390fd5b565b6000600160009054906101000a900473ffffffffffffffffffffffffffffffffffffffff16905081600160006101000a81548173ffffffffffffffffffffffffffffffffffffffff021916908373ffffffffffffffffffffffffffffffffffffffff1602179055508173ffffffffffffffffffffffffffffffffffffffff168173ffffffffffffffffffffffffffffffffffffffff167f8be0079c531659141344cd1fd0a4f28419497f9722a3daafe3b4186f6b6457e060405160405180910390a35050565b600033905090565b600080fd5b600073ffffffffffffffffffffffffffffffffffffffff82169050919050565b60006112ba8261128f565b9050919050565b60006112cc826112af565b9050919050565b6112dc816112c1565b81146112e757600080fd5b50565b6000813590506112f9816112d3565b92915050565b6000819050919050565b611312816112ff565b811461131d57600080fd5b50565b60008135905061132f81611309565b92915050565b6000806040838503121561134c5761134b61128a565b5b600061135a858286016112ea565b925050602061136b85828601611320565b9150509250929050565b60006113808261128f565b9050919050565b61139081611375565b82525050565b60006020820190506113ab6000830184611387565b92915050565b600080600080608085870312156113cb576113ca61128a565b5b60006113d9878288016112ea565b94505060206113ea87828801611320565b93505060406113fb87828801611320565b925050606061140c87828801611320565b91505092959194509250565b611421816112ff565b82525050565b600060208201905061143c6000830184611418565b92915050565b61144b816112af565b82525050565b60006020820190506114666000830184611442565b92915050565b6000602082840312156114825761148161128a565b5b600061149084828501611320565b91505092915050565b6000819050919050565b60006114be6114b96114b48461128f565b611499565b61128f565b9050919050565b60006114d0826114a3565b9050919050565b60006114e2826114c5565b9050919050565b6114f2816114d7565b82525050565b60008115159050919050565b61150d816114f8565b82525050565b600060e082019050611528600083018a611418565b61153560208301896114e9565b6115426040830188611418565b61154f6060830187611418565b61155c6080830186611387565b61156960a0830185611504565b61157660c0830184611418565b98975050505050505050565b61158b816112af565b811461159657600080fd5b50565b6000813590506115a881611582565b92915050565b6000602082840312156115c4576115c361128a565b5b60006115d284828501611599565b91505092915050565b60006115e6826112af565b9050919050565b6115f6816115db565b811461160157600080fd5b50565b600081359050611613816115ed565b92915050565b6000806000606084860312156116325761163161128a565b5b600061164086828701611604565b935050602061165186828701611320565b925050604061166286828701611320565b9150509250925092565b600082825260208201905092915050565b7f54686973206974656d206973207374696c6c206f6e2073616c65000000000000600082015250565b60006116b3601a8361166c565b91506116be8261167d565b602082019050919050565b600060208201905081810360008301526116e2816116a6565b9050919050565b7f596f7520617265206e6f7420746865206f776e6572206f66207468697320697460008201527f656d000000000000000000000000000000000000000000000000000000000000602082015250565b600061174560228361166c565b9150611750826116e9565b604082019050919050565b6000602082019050818103600083015261177481611738565b9050919050565b60006060820190506117906000830186611442565b61179d6020830185611442565b6117aa6040830184611418565b949350505050565b60006040820190506117c76000830185611418565b6117d46020830184611442565b9392505050565b7f696e76616c696420656e6454696d655374616d70000000000000000000000000600082015250565b600061181160148361166c565b915061181c826117db565b602082019050919050565b6000602082019050818103600083015261184081611804565b9050919050565b7f5072696365206d7573742062652067726561746572207468616e207a65726f00600082015250565b600061187d601f8361166c565b915061188882611847565b602082019050919050565b600060208201905081810360008301526118ac81611870565b9050919050565b6000815190506118c281611582565b92915050565b6000602082840312156118de576118dd61128a565b5b60006118ec848285016118b3565b91505092915050565b7f596f7520617265206e6f7420746865204f776e6572206f662074686973204e4660008201527f5400000000000000000000000000000000000000000000000000000000000000602082015250565b600061195160218361166c565b915061195c826118f5565b604082019050919050565b6000602082019050818103600083015261198081611944565b9050919050565b600060608201905061199c6000830186611418565b6119a96020830185611418565b6119b66040830184611418565b949350505050565b7f4e487b7100000000000000000000000000000000000000000000000000000000600052601160045260246000fd5b60006119f8826112ff565b9150611a03836112ff565b9250828201905080821115611a1b57611a1a6119be565b5b92915050565b6000611a2c826112ff565b9150611a37836112ff565b9250828202611a45816112ff565b91508282048414831517611a5c57611a5b6119be565b5b5092915050565b7f4e487b7100000000000000000000000000000000000000000000000000000000600052601260045260246000fd5b6000611a9d826112ff565b9150611aa8836112ff565b925082611ab857611ab7611a63565b5b828204905092915050565b7f4974656d206973206e6f74206f6e2073616c6520616e796d6f72650000000000600082015250565b6000611af9601b8361166c565b9150611b0482611ac3565b602082019050919050565b60006020820190508181036000830152611b2881611aec565b9050919050565b7f6e6f7420656e6f75676820657468657220746f20636f766572206974656d207060008201527f7269636520616e64206d61726b65742066656500000000000000000000000000602082015250565b6000611b8b60338361166c565b9150611b9682611b2f565b604082019050919050565b60006020820190508181036000830152611bba81611b7e565b9050919050565b7f6974656d20616c726561647920736f6c64000000000000000000000000000000600082015250565b6000611bf760118361166c565b9150611c0282611bc1565b602082019050919050565b60006020820190508181036000830152611c2681611bea565b9050919050565b6000611c38826112ff565b9150611c43836112ff565b9250828203905081811115611c5b57611c5a6119be565b5b92915050565b7f4f776e61626c653a206e6577206f776e657220697320746865207a65726f206160008201527f6464726573730000000000000000000000000000000000000000000000000000602082015250565b6000611cbd60268361166c565b9150611cc882611c61565b604082019050919050565b60006020820190508181036000830152611cec81611cb0565b9050919050565b6000611cfe826114c5565b9050919050565b611d0e81611cf3565b82525050565b6000606082019050611d296000830186611442565b611d366020830185611d05565b611d436040830184611418565b949350505050565b611d54816114f8565b8114611d5f57600080fd5b50565b600081519050611d7181611d4b565b92915050565b600060208284031215611d8d57611d8c61128a565b5b6000611d9b84828501611d62565b91505092915050565b7f5265656e7472616e637947756172643a207265656e7472616e742063616c6c00600082015250565b6000611dda601f8361166c565b9150611de582611da4565b602082019050919050565b60006020820190508181036000830152611e0981611dcd565b9050919050565b7f4f776e61626c653a2063616c6c6572206973206e6f7420746865206f776e6572600082015250565b6000611e4660208361166c565b9150611e5182611e10565b602082019050919050565b60006020820190508181036000830152611e7581611e39565b905091905056fea2646970667358221220444324c4b6c366890fc514085fbcd84a745f481b89cf672b814d43341fd8ed4d64736f6c63430008110033",
  "linkReferences": {},
  "deployedLinkReferences": {}
}