{
  "_format": "hh-sol-artifact-1",
  "contractName": "CreateNFTContract",
  "sourceName": "contracts/CreateNFTContract.sol",
  "abi": [
    {
      "inputs": [],
      "stateMutability": "nonpayable",
      "type": "constructor"
    },
    {
      "anonymous": false,
      "inputs": [
        {
          "indexed": true,
          "internalType": "address",
          "name": "account",
          "type": "address"
        },
        {
          "indexed": true,
          "internalType": "address",
          "name": "operator",
          "type": "address"
        },
        {
          "indexed": false,
          "internalType": "bool",
          "name": "approved",
          "type": "bool"
        }
      ],
      "name": "ApprovalForAll",
      "type": "event"
    },
    {
      "anonymous": false,
      "inputs": [
        {
          "indexed": true,
          "internalType": "address",
          "name": "previousOwner",
          "type": "address"
        },
        {
          "indexed": true,
          "internalType": "address",
          "name": "newOwner",
          "type": "address"
        }
      ],
      "name": "OwnershipTransferred",
      "type": "event"
    },
    {
      "anonymous": false,
      "inputs": [
        {
          "indexed": true,
          "internalType": "address",
          "name": "operator",
          "type": "address"
        },
        {
          "indexed": true,
          "internalType": "address",
          "name": "from",
          "type": "address"
        },
        {
          "indexed": true,
          "internalType": "address",
          "name": "to",
          "type": "address"
        },
        {
          "indexed": false,
          "internalType": "uint256[]",
          "name": "ids",
          "type": "uint256[]"
        },
        {
          "indexed": false,
          "internalType": "uint256[]",
          "name": "values",
          "type": "uint256[]"
        }
      ],
      "name": "TransferBatch",
      "type": "event"
    },
    {
      "anonymous": false,
      "inputs": [
        {
          "indexed": true,
          "internalType": "address",
          "name": "operator",
          "type": "address"
        },
        {
          "indexed": true,
          "internalType": "address",
          "name": "from",
          "type": "address"
        },
        {
          "indexed": true,
          "internalType": "address",
          "name": "to",
          "type": "address"
        },
        {
          "indexed": false,
          "internalType": "uint256",
          "name": "id",
          "type": "uint256"
        },
        {
          "indexed": false,
          "internalType": "uint256",
          "name": "value",
          "type": "uint256"
        }
      ],
      "name": "TransferSingle",
      "type": "event"
    },
    {
      "anonymous": false,
      "inputs": [
        {
          "indexed": false,
          "internalType": "string",
          "name": "value",
          "type": "string"
        },
        {
          "indexed": true,
          "internalType": "uint256",
          "name": "id",
          "type": "uint256"
        }
      ],
      "name": "URI",
      "type": "event"
    },
    {
      "inputs": [
        {
          "internalType": "address",
          "name": "account",
          "type": "address"
        },
        {
          "internalType": "uint256",
          "name": "id",
          "type": "uint256"
        }
      ],
      "name": "balanceOf",
      "outputs": [
        {
          "internalType": "uint256",
          "name": "",
          "type": "uint256"
        }
      ],
      "stateMutability": "view",
      "type": "function"
    },
    {
      "inputs": [
        {
          "internalType": "address[]",
          "name": "accounts",
          "type": "address[]"
        },
        {
          "internalType": "uint256[]",
          "name": "ids",
          "type": "uint256[]"
        }
      ],
      "name": "balanceOfBatch",
      "outputs": [
        {
          "internalType": "uint256[]",
          "name": "",
          "type": "uint256[]"
        }
      ],
      "stateMutability": "view",
      "type": "function"
    },
    {
      "inputs": [
        {
          "internalType": "uint256",
          "name": "id",
          "type": "uint256"
        }
      ],
      "name": "exists",
      "outputs": [
        {
          "internalType": "bool",
          "name": "",
          "type": "bool"
        }
      ],
      "stateMutability": "view",
      "type": "function"
    },
    {
      "inputs": [
        {
          "internalType": "address",
          "name": "account",
          "type": "address"
        },
        {
          "internalType": "address",
          "name": "operator",
          "type": "address"
        }
      ],
      "name": "isApprovedForAll",
      "outputs": [
        {
          "internalType": "bool",
          "name": "",
          "type": "bool"
        }
      ],
      "stateMutability": "view",
      "type": "function"
    },
    {
      "inputs": [
        {
          "internalType": "uint256[]",
          "name": "ids",
          "type": "uint256[]"
        },
        {
          "internalType": "uint256[]",
          "name": "amounts",
          "type": "uint256[]"
        },
        {
          "internalType": "bytes",
          "name": "data",
          "type": "bytes"
        }
      ],
      "name": "newBatch",
      "outputs": [],
      "stateMutability": "nonpayable",
      "type": "function"
    },
    {
      "inputs": [],
      "name": "owner",
      "outputs": [
        {
          "internalType": "address",
          "name": "",
          "type": "address"
        }
      ],
      "stateMutability": "view",
      "type": "function"
    },
    {
      "inputs": [],
      "name": "renounceOwnership",
      "outputs": [],
      "stateMutability": "nonpayable",
      "type": "function"
    },
    {
      "inputs": [
        {
          "internalType": "address",
          "name": "from",
          "type": "address"
        },
        {
          "internalType": "address",
          "name": "to",
          "type": "address"
        },
        {
          "internalType": "uint256[]",
          "name": "ids",
          "type": "uint256[]"
        },
        {
          "internalType": "uint256[]",
          "name": "amounts",
          "type": "uint256[]"
        },
        {
          "internalType": "bytes",
          "name": "data",
          "type": "bytes"
        }
      ],
      "name": "safeBatchTransferFrom",
      "outputs": [],
      "stateMutability": "nonpayable",
      "type": "function"
    },
    {
      "inputs": [
        {
          "internalType": "address",
          "name": "from",
          "type": "address"
        },
        {
          "internalType": "address",
          "name": "to",
          "type": "address"
        },
        {
          "internalType": "uint256",
          "name": "id",
          "type": "uint256"
        },
        {
          "internalType": "uint256",
          "name": "amount",
          "type": "uint256"
        },
        {
          "internalType": "bytes",
          "name": "data",
          "type": "bytes"
        }
      ],
      "name": "safeTransferFrom",
      "outputs": [],
      "stateMutability": "nonpayable",
      "type": "function"
    },
    {
      "inputs": [
        {
          "internalType": "address",
          "name": "operator",
          "type": "address"
        },
        {
          "internalType": "bool",
          "name": "approved",
          "type": "bool"
        }
      ],
      "name": "setApprovalForAll",
      "outputs": [],
      "stateMutability": "nonpayable",
      "type": "function"
    },
    {
      "inputs": [
        {
          "internalType": "string",
          "name": "newuri",
          "type": "string"
        }
      ],
      "name": "setURI",
      "outputs": [],
      "stateMutability": "nonpayable",
      "type": "function"
    },
    {
      "inputs": [
        {
          "internalType": "bytes4",
          "name": "interfaceId",
          "type": "bytes4"
        }
      ],
      "name": "supportsInterface",
      "outputs": [
        {
          "internalType": "bool",
          "name": "",
          "type": "bool"
        }
      ],
      "stateMutability": "view",
      "type": "function"
    },
    {
      "inputs": [
        {
          "internalType": "uint256",
          "name": "id",
          "type": "uint256"
        }
      ],
      "name": "totalSupply",
      "outputs": [
        {
          "internalType": "uint256",
          "name": "",
          "type": "uint256"
        }
      ],
      "stateMutability": "view",
      "type": "function"
    },
    {
      "inputs": [
        {
          "internalType": "address",
          "name": "newOwner",
          "type": "address"
        }
      ],
      "name": "transferOwnership",
      "outputs": [],
      "stateMutability": "nonpayable",
      "type": "function"
    },
    {
      "inputs": [
        {
          "internalType": "uint256",
          "name": "tokenId",
          "type": "uint256"
        }
      ],
      "name": "uri",
      "outputs": [
        {
          "internalType": "string",
          "name": "",
          "type": "string"
        }
      ],
      "stateMutability": "pure",
      "type": "function"
    }
  ],
  "bytecode": "0x60806040523480156200001157600080fd5b506040518060200160405280600081525062000033816200005a60201b60201c565b5062000054620000486200006f60201b60201c565b6200007760201b60201c565b6200049e565b80600290816200006b9190620003b7565b5050565b600033905090565b6000600360009054906101000a900473ffffffffffffffffffffffffffffffffffffffff16905081600360006101000a81548173ffffffffffffffffffffffffffffffffffffffff021916908373ffffffffffffffffffffffffffffffffffffffff1602179055508173ffffffffffffffffffffffffffffffffffffffff168173ffffffffffffffffffffffffffffffffffffffff167f8be0079c531659141344cd1fd0a4f28419497f9722a3daafe3b4186f6b6457e060405160405180910390a35050565b600081519050919050565b7f4e487b7100000000000000000000000000000000000000000000000000000000600052604160045260246000fd5b7f4e487b7100000000000000000000000000000000000000000000000000000000600052602260045260246000fd5b60006002820490506001821680620001bf57607f821691505b602082108103620001d557620001d462000177565b5b50919050565b60008190508160005260206000209050919050565b60006020601f8301049050919050565b600082821b905092915050565b6000600883026200023f7fffffffffffffffffffffffffffffffffffffffffffffffffffffffffffffffff8262000200565b6200024b868362000200565b95508019841693508086168417925050509392505050565b6000819050919050565b6000819050919050565b600062000298620002926200028c8462000263565b6200026d565b62000263565b9050919050565b6000819050919050565b620002b48362000277565b620002cc620002c3826200029f565b8484546200020d565b825550505050565b600090565b620002e3620002d4565b620002f0818484620002a9565b505050565b5b8181101562000318576200030c600082620002d9565b600181019050620002f6565b5050565b601f82111562000367576200033181620001db565b6200033c84620001f0565b810160208510156200034c578190505b620003646200035b85620001f0565b830182620002f5565b50505b505050565b600082821c905092915050565b60006200038c600019846008026200036c565b1980831691505092915050565b6000620003a7838362000379565b9150826002028217905092915050565b620003c2826200013d565b67ffffffffffffffff811115620003de57620003dd62000148565b5b620003ea8254620001a6565b620003f78282856200031c565b600060209050601f8311600181146200042f57600084156200041a578287015190505b62000426858262000399565b86555062000496565b601f1984166200043f86620001db565b60005b82811015620004695784890151825560018201915060208501945060208101905062000442565b8683101562000489578489015162000485601f89168262000379565b8355505b6001600288020188555050505b505050505050565b61382680620004ae6000396000f3fe608060405234801561001057600080fd5b50600436106100f45760003560e01c8063715018a611610097578063c576491011610066578063c576491014610295578063e985e9c5146102b1578063f242432a146102e1578063f2fde38b146102fd576100f4565b8063715018a6146102215780638da5cb5b1461022b578063a22cb46514610249578063bd85b03914610265576100f4565b80630e89341c116100d35780630e89341c146101755780632eb2c2d6146101a55780634e1273f4146101c15780634f558e79146101f1576100f4565b8062fdd58e146100f957806301ffc9a71461012957806302fe530514610159575b600080fd5b610113600480360381019061010e9190611f5c565b610319565b6040516101209190611fab565b60405180910390f35b610143600480360381019061013e919061201e565b6103e1565b6040516101509190612066565b60405180910390f35b610173600480360381019061016e91906121c7565b6104c3565b005b61018f600480360381019061018a9190612210565b6104d7565b60405161019c91906122bc565b60405180910390f35b6101bf60048036038101906101ba9190612447565b610508565b005b6101db60048036038101906101d691906125d9565b6105a9565b6040516101e8919061270f565b60405180910390f35b61020b60048036038101906102069190612210565b6106c2565b6040516102189190612066565b60405180910390f35b6102296106d6565b005b6102336106ea565b6040516102409190612740565b60405180910390f35b610263600480360381019061025e9190612787565b610714565b005b61027f600480360381019061027a9190612210565b61072a565b60405161028c9190611fab565b60405180910390f35b6102af60048036038101906102aa91906127c7565b610747565b005b6102cb60048036038101906102c6919061286e565b6107a9565b6040516102d89190612066565b60405180910390f35b6102fb60048036038101906102f691906128ae565b61083d565b005b61031760048036038101906103129190612945565b6108de565b005b60008073ffffffffffffffffffffffffffffffffffffffff168373ffffffffffffffffffffffffffffffffffffffff1603610389576040517f08c379a0000000000000000000000000000000000000000000000000000000008152600401610380906129e4565b60405180910390fd5b60008083815260200190815260200160002060008473ffffffffffffffffffffffffffffffffffffffff1673ffffffffffffffffffffffffffffffffffffffff16815260200190815260200160002054905092915050565b60007fd9b67a26000000000000000000000000000000000000000000000000000000007bffffffffffffffffffffffffffffffffffffffffffffffffffffffff1916827bffffffffffffffffffffffffffffffffffffffffffffffffffffffff191614806104ac57507f0e89341c000000000000000000000000000000000000000000000000000000007bffffffffffffffffffffffffffffffffffffffffffffffffffffffff1916827bffffffffffffffffffffffffffffffffffffffffffffffffffffffff1916145b806104bc57506104bb82610961565b5b9050919050565b6104cb6109cb565b6104d481610a49565b50565b60606104e282610a5c565b6040516020016104f29190612ab2565b6040516020818303038152906040529050919050565b610510610b2a565b73ffffffffffffffffffffffffffffffffffffffff168573ffffffffffffffffffffffffffffffffffffffff161480610556575061055585610550610b2a565b6107a9565b5b610595576040517f08c379a000000000000000000000000000000000000000000000000000000000815260040161058c90612b51565b60405180910390fd5b6105a28585858585610b32565b5050505050565b606081518351146105ef576040517f08c379a00000000000000000000000000000000000000000000000000000000081526004016105e690612be3565b60405180910390fd5b6000835167ffffffffffffffff81111561060c5761060b61209c565b5b60405190808252806020026020018201604052801561063a5781602001602082028036833780820191505090505b50905060005b84518110156106b75761068785828151811061065f5761065e612c03565b5b602002602001015185838151811061067a57610679612c03565b5b6020026020010151610319565b82828151811061069a57610699612c03565b5b602002602001018181525050806106b090612c61565b9050610640565b508091505092915050565b6000806106ce8361072a565b119050919050565b6106de6109cb565b6106e86000610e53565b565b6000600360009054906101000a900473ffffffffffffffffffffffffffffffffffffffff16905090565b61072661071f610b2a565b8383610f19565b5050565b600060046000838152602001908152602001600020549050919050565b600183510361079757610792338460008151811061076857610767612c03565b5b60200260200101518460008151811061078457610783612c03565b5b602002602001015184611085565b6107a4565b6107a333848484611097565b5b505050565b6000600160008473ffffffffffffffffffffffffffffffffffffffff1673ffffffffffffffffffffffffffffffffffffffff16815260200190815260200160002060008373ffffffffffffffffffffffffffffffffffffffff1673ffffffffffffffffffffffffffffffffffffffff16815260200190815260200160002060009054906101000a900460ff16905092915050565b610845610b2a565b73ffffffffffffffffffffffffffffffffffffffff168573ffffffffffffffffffffffffffffffffffffffff16148061088b575061088a85610885610b2a565b6107a9565b5b6108ca576040517f08c379a00000000000000000000000000000000000000000000000000000000081526004016108c190612b51565b60405180910390fd5b6108d785858585856110a9565b5050505050565b6108e66109cb565b600073ffffffffffffffffffffffffffffffffffffffff168173ffffffffffffffffffffffffffffffffffffffff1603610955576040517f08c379a000000000000000000000000000000000000000000000000000000000815260040161094c90612d1b565b60405180910390fd5b61095e81610e53565b50565b60007f01ffc9a7000000000000000000000000000000000000000000000000000000007bffffffffffffffffffffffffffffffffffffffffffffffffffffffff1916827bffffffffffffffffffffffffffffffffffffffffffffffffffffffff1916149050919050565b6109d3610b2a565b73ffffffffffffffffffffffffffffffffffffffff166109f16106ea565b73ffffffffffffffffffffffffffffffffffffffff1614610a47576040517f08c379a0000000000000000000000000000000000000000000000000000000008152600401610a3e90612d87565b60405180910390fd5b565b8060029081610a589190612fb3565b5050565b606060006001610a6b84611344565b01905060008167ffffffffffffffff811115610a8a57610a8961209c565b5b6040519080825280601f01601f191660200182016040528015610abc5781602001600182028036833780820191505090505b509050600082602001820190505b600115610b1f578080600190039150507f3031323334353637383961626364656600000000000000000000000000000000600a86061a8153600a8581610b1357610b12613085565b5b04945060008503610aca575b819350505050919050565b600033905090565b8151835114610b76576040517f08c379a0000000000000000000000000000000000000000000000000000000008152600401610b6d90613126565b60405180910390fd5b600073ffffffffffffffffffffffffffffffffffffffff168473ffffffffffffffffffffffffffffffffffffffff1603610be5576040517f08c379a0000000000000000000000000000000000000000000000000000000008152600401610bdc906131b8565b60405180910390fd5b6000610bef610b2a565b9050610bff818787878787611497565b60005b8451811015610db0576000858281518110610c2057610c1f612c03565b5b602002602001015190506000858381518110610c3f57610c3e612c03565b5b60200260200101519050600080600084815260200190815260200160002060008b73ffffffffffffffffffffffffffffffffffffffff1673ffffffffffffffffffffffffffffffffffffffff16815260200190815260200160002054905081811015610ce0576040517f08c379a0000000000000000000000000000000000000000000000000000000008152600401610cd79061324a565b60405180910390fd5b81810360008085815260200190815260200160002060008c73ffffffffffffffffffffffffffffffffffffffff1673ffffffffffffffffffffffffffffffffffffffff168152602001908152602001600020819055508160008085815260200190815260200160002060008b73ffffffffffffffffffffffffffffffffffffffff1673ffffffffffffffffffffffffffffffffffffffff1681526020019081526020016000206000828254610d95919061326a565b9250508190555050505080610da990612c61565b9050610c02565b508473ffffffffffffffffffffffffffffffffffffffff168673ffffffffffffffffffffffffffffffffffffffff168273ffffffffffffffffffffffffffffffffffffffff167f4a39dc06d4c0dbc64b70af90fd698a233a518aa5d07e595d983b8c0526c8f7fb8787604051610e2792919061329e565b60405180910390a4610e3d8187878787876114ad565b610e4b8187878787876114b5565b505050505050565b6000600360009054906101000a900473ffffffffffffffffffffffffffffffffffffffff16905081600360006101000a81548173ffffffffffffffffffffffffffffffffffffffff021916908373ffffffffffffffffffffffffffffffffffffffff1602179055508173ffffffffffffffffffffffffffffffffffffffff168173ffffffffffffffffffffffffffffffffffffffff167f8be0079c531659141344cd1fd0a4f28419497f9722a3daafe3b4186f6b6457e060405160405180910390a35050565b8173ffffffffffffffffffffffffffffffffffffffff168373ffffffffffffffffffffffffffffffffffffffff1603610f87576040517f08c379a0000000000000000000000000000000000000000000000000000000008152600401610f7e90613347565b60405180910390fd5b80600160008573ffffffffffffffffffffffffffffffffffffffff1673ffffffffffffffffffffffffffffffffffffffff16815260200190815260200160002060008473ffffffffffffffffffffffffffffffffffffffff1673ffffffffffffffffffffffffffffffffffffffff16815260200190815260200160002060006101000a81548160ff0219169083151502179055508173ffffffffffffffffffffffffffffffffffffffff168373ffffffffffffffffffffffffffffffffffffffff167f17307eab39ab6107e8899845ad3d59bd9653f200f220920489ca2b5937696c31836040516110789190612066565b60405180910390a3505050565b6110918484848461168c565b50505050565b6110a38484848461183c565b50505050565b600073ffffffffffffffffffffffffffffffffffffffff168473ffffffffffffffffffffffffffffffffffffffff1603611118576040517f08c379a000000000000000000000000000000000000000000000000000000000815260040161110f906131b8565b60405180910390fd5b6000611122610b2a565b9050600061112f85611a68565b9050600061113c85611a68565b905061114c838989858589611497565b600080600088815260200190815260200160002060008a73ffffffffffffffffffffffffffffffffffffffff1673ffffffffffffffffffffffffffffffffffffffff168152602001908152602001600020549050858110156111e3576040517f08c379a00000000000000000000000000000000000000000000000000000000081526004016111da9061324a565b60405180910390fd5b85810360008089815260200190815260200160002060008b73ffffffffffffffffffffffffffffffffffffffff1673ffffffffffffffffffffffffffffffffffffffff168152602001908152602001600020819055508560008089815260200190815260200160002060008a73ffffffffffffffffffffffffffffffffffffffff1673ffffffffffffffffffffffffffffffffffffffff1681526020019081526020016000206000828254611298919061326a565b925050819055508773ffffffffffffffffffffffffffffffffffffffff168973ffffffffffffffffffffffffffffffffffffffff168573ffffffffffffffffffffffffffffffffffffffff167fc3d58168c5ae7397731d063d5bbf3d657854427343f4c083240f7aacaa2d0f628a8a604051611315929190613367565b60405180910390a461132b848a8a86868a6114ad565b611339848a8a8a8a8a611ae2565b505050505050505050565b600080600090507a184f03e93ff9f4daa797ed6e38ed64bf6a1f01000000000000000083106113a2577a184f03e93ff9f4daa797ed6e38ed64bf6a1f010000000000000000838161139857611397613085565b5b0492506040810190505b6d04ee2d6d415b85acef810000000083106113df576d04ee2d6d415b85acef810000000083816113d5576113d4613085565b5b0492506020810190505b662386f26fc10000831061140e57662386f26fc10000838161140457611403613085565b5b0492506010810190505b6305f5e1008310611437576305f5e100838161142d5761142c613085565b5b0492506008810190505b612710831061145c57612710838161145257611451613085565b5b0492506004810190505b6064831061147f576064838161147557611474613085565b5b0492506002810190505b600a831061148e576001810190505b80915050919050565b6114a5868686868686611cb9565b505050505050565b505050505050565b6114d48473ffffffffffffffffffffffffffffffffffffffff16611e89565b15611684578373ffffffffffffffffffffffffffffffffffffffff1663bc197c8187878686866040518663ffffffff1660e01b815260040161151a9594939291906133e5565b6020604051808303816000875af192505050801561155657506040513d601f19601f820116820180604052508101906115539190613462565b60015b6115fb5761156261349c565b806308c379a0036115be57506115766134be565b8061158157506115c0565b806040517f08c379a00000000000000000000000000000000000000000000000000000000081526004016115b591906122bc565b60405180910390fd5b505b6040517f08c379a00000000000000000000000000000000000000000000000000000000081526004016115f2906135c0565b60405180910390fd5b63bc197c8160e01b7bffffffffffffffffffffffffffffffffffffffffffffffffffffffff1916817bffffffffffffffffffffffffffffffffffffffffffffffffffffffff191614611682576040517f08c379a000000000000000000000000000000000000000000000000000000000815260040161167990613652565b60405180910390fd5b505b505050505050565b600073ffffffffffffffffffffffffffffffffffffffff168473ffffffffffffffffffffffffffffffffffffffff16036116fb576040517f08c379a00000000000000000000000000000000000000000000000000000000081526004016116f2906136e4565b60405180910390fd5b6000611705610b2a565b9050600061171285611a68565b9050600061171f85611a68565b905061173083600089858589611497565b8460008088815260200190815260200160002060008973ffffffffffffffffffffffffffffffffffffffff1673ffffffffffffffffffffffffffffffffffffffff168152602001908152602001600020600082825461178f919061326a565b925050819055508673ffffffffffffffffffffffffffffffffffffffff16600073ffffffffffffffffffffffffffffffffffffffff168473ffffffffffffffffffffffffffffffffffffffff167fc3d58168c5ae7397731d063d5bbf3d657854427343f4c083240f7aacaa2d0f62898960405161180d929190613367565b60405180910390a4611824836000898585896114ad565b61183383600089898989611ae2565b50505050505050565b600073ffffffffffffffffffffffffffffffffffffffff168473ffffffffffffffffffffffffffffffffffffffff16036118ab576040517f08c379a00000000000000000000000000000000000000000000000000000000081526004016118a2906136e4565b60405180910390fd5b81518351146118ef576040517f08c379a00000000000000000000000000000000000000000000000000000000081526004016118e690613126565b60405180910390fd5b60006118f9610b2a565b905061190a81600087878787611497565b60005b84518110156119c35783818151811061192957611928612c03565b5b602002602001015160008087848151811061194757611946612c03565b5b6020026020010151815260200190815260200160002060008873ffffffffffffffffffffffffffffffffffffffff1673ffffffffffffffffffffffffffffffffffffffff16815260200190815260200160002060008282546119a9919061326a565b9250508190555080806119bb90612c61565b91505061190d565b508473ffffffffffffffffffffffffffffffffffffffff16600073ffffffffffffffffffffffffffffffffffffffff168273ffffffffffffffffffffffffffffffffffffffff167f4a39dc06d4c0dbc64b70af90fd698a233a518aa5d07e595d983b8c0526c8f7fb8787604051611a3b92919061329e565b60405180910390a4611a52816000878787876114ad565b611a61816000878787876114b5565b5050505050565b60606000600167ffffffffffffffff811115611a8757611a8661209c565b5b604051908082528060200260200182016040528015611ab55781602001602082028036833780820191505090505b5090508281600081518110611acd57611acc612c03565b5b60200260200101818152505080915050919050565b611b018473ffffffffffffffffffffffffffffffffffffffff16611e89565b15611cb1578373ffffffffffffffffffffffffffffffffffffffff1663f23a6e6187878686866040518663ffffffff1660e01b8152600401611b47959493929190613704565b6020604051808303816000875af1925050508015611b8357506040513d601f19601f82011682018060405250810190611b809190613462565b60015b611c2857611b8f61349c565b806308c379a003611beb5750611ba36134be565b80611bae5750611bed565b806040517f08c379a0000000000000000000000000000000000000000000000000000000008152600401611be291906122bc565b60405180910390fd5b505b6040517f08c379a0000000000000000000000000000000000000000000000000000000008152600401611c1f906135c0565b60405180910390fd5b63f23a6e6160e01b7bffffffffffffffffffffffffffffffffffffffffffffffffffffffff1916817bffffffffffffffffffffffffffffffffffffffffffffffffffffffff191614611caf576040517f08c379a0000000000000000000000000000000000000000000000000000000008152600401611ca690613652565b60405180910390fd5b505b505050505050565b611cc7868686868686611eac565b600073ffffffffffffffffffffffffffffffffffffffff168573ffffffffffffffffffffffffffffffffffffffff1603611d785760005b8351811015611d7657828181518110611d1a57611d19612c03565b5b602002602001015160046000868481518110611d3957611d38612c03565b5b602002602001015181526020019081526020016000206000828254611d5e919061326a565b9250508190555080611d6f90612c61565b9050611cfe565b505b600073ffffffffffffffffffffffffffffffffffffffff168473ffffffffffffffffffffffffffffffffffffffff1603611e815760005b8351811015611e7f576000848281518110611dcd57611dcc612c03565b5b602002602001015190506000848381518110611dec57611deb612c03565b5b6020026020010151905060006004600084815260200190815260200160002054905081811015611e51576040517f08c379a0000000000000000000000000000000000000000000000000000000008152600401611e48906137d0565b60405180910390fd5b818103600460008581526020019081526020016000208190555050505080611e7890612c61565b9050611daf565b505b505050505050565b6000808273ffffffffffffffffffffffffffffffffffffffff163b119050919050565b505050505050565b6000604051905090565b600080fd5b600080fd5b600073ffffffffffffffffffffffffffffffffffffffff82169050919050565b6000611ef382611ec8565b9050919050565b611f0381611ee8565b8114611f0e57600080fd5b50565b600081359050611f2081611efa565b92915050565b6000819050919050565b611f3981611f26565b8114611f4457600080fd5b50565b600081359050611f5681611f30565b92915050565b60008060408385031215611f7357611f72611ebe565b5b6000611f8185828601611f11565b9250506020611f9285828601611f47565b9150509250929050565b611fa581611f26565b82525050565b6000602082019050611fc06000830184611f9c565b92915050565b60007fffffffff0000000000000000000000000000000000000000000000000000000082169050919050565b611ffb81611fc6565b811461200657600080fd5b50565b60008135905061201881611ff2565b92915050565b60006020828403121561203457612033611ebe565b5b600061204284828501612009565b91505092915050565b60008115159050919050565b6120608161204b565b82525050565b600060208201905061207b6000830184612057565b92915050565b600080fd5b600080fd5b6000601f19601f8301169050919050565b7f4e487b7100000000000000000000000000000000000000000000000000000000600052604160045260246000fd5b6120d48261208b565b810181811067ffffffffffffffff821117156120f3576120f261209c565b5b80604052505050565b6000612106611eb4565b905061211282826120cb565b919050565b600067ffffffffffffffff8211156121325761213161209c565b5b61213b8261208b565b9050602081019050919050565b82818337600083830152505050565b600061216a61216584612117565b6120fc565b90508281526020810184848401111561218657612185612086565b5b612191848285612148565b509392505050565b600082601f8301126121ae576121ad612081565b5b81356121be848260208601612157565b91505092915050565b6000602082840312156121dd576121dc611ebe565b5b600082013567ffffffffffffffff8111156121fb576121fa611ec3565b5b61220784828501612199565b91505092915050565b60006020828403121561222657612225611ebe565b5b600061223484828501611f47565b91505092915050565b600081519050919050565b600082825260208201905092915050565b60005b8381101561227757808201518184015260208101905061225c565b60008484015250505050565b600061228e8261223d565b6122988185612248565b93506122a8818560208601612259565b6122b18161208b565b840191505092915050565b600060208201905081810360008301526122d68184612283565b905092915050565b600067ffffffffffffffff8211156122f9576122f861209c565b5b602082029050602081019050919050565b600080fd5b600061232261231d846122de565b6120fc565b905080838252602082019050602084028301858111156123455761234461230a565b5b835b8181101561236e578061235a8882611f47565b845260208401935050602081019050612347565b5050509392505050565b600082601f83011261238d5761238c612081565b5b813561239d84826020860161230f565b91505092915050565b600067ffffffffffffffff8211156123c1576123c061209c565b5b6123ca8261208b565b9050602081019050919050565b60006123ea6123e5846123a6565b6120fc565b90508281526020810184848401111561240657612405612086565b5b612411848285612148565b509392505050565b600082601f83011261242e5761242d612081565b5b813561243e8482602086016123d7565b91505092915050565b600080600080600060a0868803121561246357612462611ebe565b5b600061247188828901611f11565b955050602061248288828901611f11565b945050604086013567ffffffffffffffff8111156124a3576124a2611ec3565b5b6124af88828901612378565b935050606086013567ffffffffffffffff8111156124d0576124cf611ec3565b5b6124dc88828901612378565b925050608086013567ffffffffffffffff8111156124fd576124fc611ec3565b5b61250988828901612419565b9150509295509295909350565b600067ffffffffffffffff8211156125315761253061209c565b5b602082029050602081019050919050565b600061255561255084612516565b6120fc565b905080838252602082019050602084028301858111156125785761257761230a565b5b835b818110156125a1578061258d8882611f11565b84526020840193505060208101905061257a565b5050509392505050565b600082601f8301126125c0576125bf612081565b5b81356125d0848260208601612542565b91505092915050565b600080604083850312156125f0576125ef611ebe565b5b600083013567ffffffffffffffff81111561260e5761260d611ec3565b5b61261a858286016125ab565b925050602083013567ffffffffffffffff81111561263b5761263a611ec3565b5b61264785828601612378565b9150509250929050565b600081519050919050565b600082825260208201905092915050565b6000819050602082019050919050565b61268681611f26565b82525050565b6000612698838361267d565b60208301905092915050565b6000602082019050919050565b60006126bc82612651565b6126c6818561265c565b93506126d18361266d565b8060005b838110156127025781516126e9888261268c565b97506126f4836126a4565b9250506001810190506126d5565b5085935050505092915050565b6000602082019050818103600083015261272981846126b1565b905092915050565b61273a81611ee8565b82525050565b60006020820190506127556000830184612731565b92915050565b6127648161204b565b811461276f57600080fd5b50565b6000813590506127818161275b565b92915050565b6000806040838503121561279e5761279d611ebe565b5b60006127ac85828601611f11565b92505060206127bd85828601612772565b9150509250929050565b6000806000606084860312156127e0576127df611ebe565b5b600084013567ffffffffffffffff8111156127fe576127fd611ec3565b5b61280a86828701612378565b935050602084013567ffffffffffffffff81111561282b5761282a611ec3565b5b61283786828701612378565b925050604084013567ffffffffffffffff81111561285857612857611ec3565b5b61286486828701612419565b9150509250925092565b6000806040838503121561288557612884611ebe565b5b600061289385828601611f11565b92505060206128a485828601611f11565b9150509250929050565b600080600080600060a086880312156128ca576128c9611ebe565b5b60006128d888828901611f11565b95505060206128e988828901611f11565b94505060406128fa88828901611f47565b935050606061290b88828901611f47565b925050608086013567ffffffffffffffff81111561292c5761292b611ec3565b5b61293888828901612419565b9150509295509295909350565b60006020828403121561295b5761295a611ebe565b5b600061296984828501611f11565b91505092915050565b7f455243313135353a2061646472657373207a65726f206973206e6f742061207660008201527f616c6964206f776e657200000000000000000000000000000000000000000000602082015250565b60006129ce602a83612248565b91506129d982612972565b604082019050919050565b600060208201905081810360008301526129fd816129c1565b9050919050565b600081905092915050565b50565b6000612a1f600083612a04565b9150612a2a82612a0f565b600082019050919050565b6000612a408261223d565b612a4a8185612a04565b9350612a5a818560208601612259565b80840191505092915050565b7f2e6a736f6e000000000000000000000000000000000000000000000000000000600082015250565b6000612a9c600583612a04565b9150612aa782612a66565b600582019050919050565b6000612abd82612a12565b9150612ac98284612a35565b9150612ad482612a8f565b915081905092915050565b7f455243313135353a2063616c6c6572206973206e6f7420746f6b656e206f776e60008201527f6572206f7220617070726f766564000000000000000000000000000000000000602082015250565b6000612b3b602e83612248565b9150612b4682612adf565b604082019050919050565b60006020820190508181036000830152612b6a81612b2e565b9050919050565b7f455243313135353a206163636f756e747320616e6420696473206c656e67746860008201527f206d69736d617463680000000000000000000000000000000000000000000000602082015250565b6000612bcd602983612248565b9150612bd882612b71565b604082019050919050565b60006020820190508181036000830152612bfc81612bc0565b9050919050565b7f4e487b7100000000000000000000000000000000000000000000000000000000600052603260045260246000fd5b7f4e487b7100000000000000000000000000000000000000000000000000000000600052601160045260246000fd5b6000612c6c82611f26565b91507fffffffffffffffffffffffffffffffffffffffffffffffffffffffffffffffff8203612c9e57612c9d612c32565b5b600182019050919050565b7f4f776e61626c653a206e6577206f776e657220697320746865207a65726f206160008201527f6464726573730000000000000000000000000000000000000000000000000000602082015250565b6000612d05602683612248565b9150612d1082612ca9565b604082019050919050565b60006020820190508181036000830152612d3481612cf8565b9050919050565b7f4f776e61626c653a2063616c6c6572206973206e6f7420746865206f776e6572600082015250565b6000612d71602083612248565b9150612d7c82612d3b565b602082019050919050565b60006020820190508181036000830152612da081612d64565b9050919050565b7f4e487b7100000000000000000000000000000000000000000000000000000000600052602260045260246000fd5b60006002820490506001821680612dee57607f821691505b602082108103612e0157612e00612da7565b5b50919050565b60008190508160005260206000209050919050565b60006020601f8301049050919050565b600082821b905092915050565b600060088302612e697fffffffffffffffffffffffffffffffffffffffffffffffffffffffffffffffff82612e2c565b612e738683612e2c565b95508019841693508086168417925050509392505050565b6000819050919050565b6000612eb0612eab612ea684611f26565b612e8b565b611f26565b9050919050565b6000819050919050565b612eca83612e95565b612ede612ed682612eb7565b848454612e39565b825550505050565b600090565b612ef3612ee6565b612efe818484612ec1565b505050565b5b81811015612f2257612f17600082612eeb565b600181019050612f04565b5050565b601f821115612f6757612f3881612e07565b612f4184612e1c565b81016020851015612f50578190505b612f64612f5c85612e1c565b830182612f03565b50505b505050565b600082821c905092915050565b6000612f8a60001984600802612f6c565b1980831691505092915050565b6000612fa38383612f79565b9150826002028217905092915050565b612fbc8261223d565b67ffffffffffffffff811115612fd557612fd461209c565b5b612fdf8254612dd6565b612fea828285612f26565b600060209050601f83116001811461301d576000841561300b578287015190505b6130158582612f97565b86555061307d565b601f19841661302b86612e07565b60005b828110156130535784890151825560018201915060208501945060208101905061302e565b86831015613070578489015161306c601f891682612f79565b8355505b6001600288020188555050505b505050505050565b7f4e487b7100000000000000000000000000000000000000000000000000000000600052601260045260246000fd5b7f455243313135353a2069647320616e6420616d6f756e7473206c656e6774682060008201527f6d69736d61746368000000000000000000000000000000000000000000000000602082015250565b6000613110602883612248565b915061311b826130b4565b604082019050919050565b6000602082019050818103600083015261313f81613103565b9050919050565b7f455243313135353a207472616e7366657220746f20746865207a65726f20616460008201527f6472657373000000000000000000000000000000000000000000000000000000602082015250565b60006131a2602583612248565b91506131ad82613146565b604082019050919050565b600060208201905081810360008301526131d181613195565b9050919050565b7f455243313135353a20696e73756666696369656e742062616c616e636520666f60008201527f72207472616e7366657200000000000000000000000000000000000000000000602082015250565b6000613234602a83612248565b915061323f826131d8565b604082019050919050565b6000602082019050818103600083015261326381613227565b9050919050565b600061327582611f26565b915061328083611f26565b925082820190508082111561329857613297612c32565b5b92915050565b600060408201905081810360008301526132b881856126b1565b905081810360208301526132cc81846126b1565b90509392505050565b7f455243313135353a2073657474696e6720617070726f76616c2073746174757360008201527f20666f722073656c660000000000000000000000000000000000000000000000602082015250565b6000613331602983612248565b915061333c826132d5565b604082019050919050565b6000602082019050818103600083015261336081613324565b9050919050565b600060408201905061337c6000830185611f9c565b6133896020830184611f9c565b9392505050565b600081519050919050565b600082825260208201905092915050565b60006133b782613390565b6133c1818561339b565b93506133d1818560208601612259565b6133da8161208b565b840191505092915050565b600060a0820190506133fa6000830188612731565b6134076020830187612731565b818103604083015261341981866126b1565b9050818103606083015261342d81856126b1565b9050818103608083015261344181846133ac565b90509695505050505050565b60008151905061345c81611ff2565b92915050565b60006020828403121561347857613477611ebe565b5b60006134868482850161344d565b91505092915050565b60008160e01c9050919050565b600060033d11156134bb5760046000803e6134b860005161348f565b90505b90565b600060443d1061354b576134d0611eb4565b60043d036004823e80513d602482011167ffffffffffffffff821117156134f857505061354b565b808201805167ffffffffffffffff811115613516575050505061354b565b80602083010160043d03850181111561353357505050505061354b565b613542826020018501866120cb565b82955050505050505b90565b7f455243313135353a207472616e7366657220746f206e6f6e2d4552433131353560008201527f526563656976657220696d706c656d656e746572000000000000000000000000602082015250565b60006135aa603483612248565b91506135b58261354e565b604082019050919050565b600060208201905081810360008301526135d98161359d565b9050919050565b7f455243313135353a204552433131353552656365697665722072656a6563746560008201527f6420746f6b656e73000000000000000000000000000000000000000000000000602082015250565b600061363c602883612248565b9150613647826135e0565b604082019050919050565b6000602082019050818103600083015261366b8161362f565b9050919050565b7f455243313135353a206d696e7420746f20746865207a65726f2061646472657360008201527f7300000000000000000000000000000000000000000000000000000000000000602082015250565b60006136ce602183612248565b91506136d982613672565b604082019050919050565b600060208201905081810360008301526136fd816136c1565b9050919050565b600060a0820190506137196000830188612731565b6137266020830187612731565b6137336040830186611f9c565b6137406060830185611f9c565b818103608083015261375281846133ac565b90509695505050505050565b7f455243313135353a206275726e20616d6f756e74206578636565647320746f7460008201527f616c537570706c79000000000000000000000000000000000000000000000000602082015250565b60006137ba602883612248565b91506137c58261375e565b604082019050919050565b600060208201905081810360008301526137e9816137ad565b905091905056fea2646970667358221220b486e3b678a16e24e2049572ae13e8adb56b79e491f4291d0af67ba1977add1164736f6c63430008110033",
  "linkReferences": {},
  "deployedLinkReferences": {}
}