{
  "_format": "hh-sol-artifact-1",
  "contractName": "CreateNFTContract",
  "sourceName": "contracts/CreateNFTContract.sol",
  "abi": [
    {
      "inputs": [],
      "stateMutability": "nonpayable",
      "type": "constructor"
    },
    {
      "anonymous": false,
      "inputs": [
        {
          "indexed": true,
          "internalType": "address",
          "name": "account",
          "type": "address"
        },
        {
          "indexed": true,
          "internalType": "address",
          "name": "operator",
          "type": "address"
        },
        {
          "indexed": false,
          "internalType": "bool",
          "name": "approved",
          "type": "bool"
        }
      ],
      "name": "ApprovalForAll",
      "type": "event"
    },
    {
      "anonymous": false,
      "inputs": [
        {
          "indexed": true,
          "internalType": "address",
          "name": "previousOwner",
          "type": "address"
        },
        {
          "indexed": true,
          "internalType": "address",
          "name": "newOwner",
          "type": "address"
        }
      ],
      "name": "OwnershipTransferred",
      "type": "event"
    },
    {
      "anonymous": false,
      "inputs": [
        {
          "indexed": true,
          "internalType": "address",
          "name": "operator",
          "type": "address"
        },
        {
          "indexed": true,
          "internalType": "address",
          "name": "from",
          "type": "address"
        },
        {
          "indexed": true,
          "internalType": "address",
          "name": "to",
          "type": "address"
        },
        {
          "indexed": false,
          "internalType": "uint256[]",
          "name": "ids",
          "type": "uint256[]"
        },
        {
          "indexed": false,
          "internalType": "uint256[]",
          "name": "values",
          "type": "uint256[]"
        }
      ],
      "name": "TransferBatch",
      "type": "event"
    },
    {
      "anonymous": false,
      "inputs": [
        {
          "indexed": true,
          "internalType": "address",
          "name": "operator",
          "type": "address"
        },
        {
          "indexed": true,
          "internalType": "address",
          "name": "from",
          "type": "address"
        },
        {
          "indexed": true,
          "internalType": "address",
          "name": "to",
          "type": "address"
        },
        {
          "indexed": false,
          "internalType": "uint256",
          "name": "id",
          "type": "uint256"
        },
        {
          "indexed": false,
          "internalType": "uint256",
          "name": "value",
          "type": "uint256"
        }
      ],
      "name": "TransferSingle",
      "type": "event"
    },
    {
      "anonymous": false,
      "inputs": [
        {
          "indexed": false,
          "internalType": "string",
          "name": "value",
          "type": "string"
        },
        {
          "indexed": true,
          "internalType": "uint256",
          "name": "id",
          "type": "uint256"
        }
      ],
      "name": "URI",
      "type": "event"
    },
    {
      "inputs": [],
      "name": "Common",
      "outputs": [
        {
          "internalType": "uint256",
          "name": "",
          "type": "uint256"
        }
      ],
      "stateMutability": "view",
      "type": "function"
    },
    {
      "inputs": [],
      "name": "Epic",
      "outputs": [
        {
          "internalType": "uint256",
          "name": "",
          "type": "uint256"
        }
      ],
      "stateMutability": "view",
      "type": "function"
    },
    {
      "inputs": [],
      "name": "Legendary",
      "outputs": [
        {
          "internalType": "uint256",
          "name": "",
          "type": "uint256"
        }
      ],
      "stateMutability": "view",
      "type": "function"
    },
    {
      "inputs": [],
      "name": "Mastercraft",
      "outputs": [
        {
          "internalType": "uint256",
          "name": "",
          "type": "uint256"
        }
      ],
      "stateMutability": "view",
      "type": "function"
    },
    {
      "inputs": [],
      "name": "Rare",
      "outputs": [
        {
          "internalType": "uint256",
          "name": "",
          "type": "uint256"
        }
      ],
      "stateMutability": "view",
      "type": "function"
    },
    {
      "inputs": [],
      "name": "Uncommon",
      "outputs": [
        {
          "internalType": "uint256",
          "name": "",
          "type": "uint256"
        }
      ],
      "stateMutability": "view",
      "type": "function"
    },
    {
      "inputs": [
        {
          "internalType": "address",
          "name": "account",
          "type": "address"
        },
        {
          "internalType": "uint256",
          "name": "id",
          "type": "uint256"
        }
      ],
      "name": "balanceOf",
      "outputs": [
        {
          "internalType": "uint256",
          "name": "",
          "type": "uint256"
        }
      ],
      "stateMutability": "view",
      "type": "function"
    },
    {
      "inputs": [
        {
          "internalType": "address[]",
          "name": "accounts",
          "type": "address[]"
        },
        {
          "internalType": "uint256[]",
          "name": "ids",
          "type": "uint256[]"
        }
      ],
      "name": "balanceOfBatch",
      "outputs": [
        {
          "internalType": "uint256[]",
          "name": "",
          "type": "uint256[]"
        }
      ],
      "stateMutability": "view",
      "type": "function"
    },
    {
      "inputs": [
        {
          "internalType": "uint256",
          "name": "id",
          "type": "uint256"
        }
      ],
      "name": "exists",
      "outputs": [
        {
          "internalType": "bool",
          "name": "",
          "type": "bool"
        }
      ],
      "stateMutability": "view",
      "type": "function"
    },
    {
      "inputs": [
        {
          "internalType": "address",
          "name": "account",
          "type": "address"
        },
        {
          "internalType": "address",
          "name": "operator",
          "type": "address"
        }
      ],
      "name": "isApprovedForAll",
      "outputs": [
        {
          "internalType": "bool",
          "name": "",
          "type": "bool"
        }
      ],
      "stateMutability": "view",
      "type": "function"
    },
    {
      "inputs": [
        {
          "internalType": "uint256[]",
          "name": "ids",
          "type": "uint256[]"
        },
        {
          "internalType": "uint256[]",
          "name": "amounts",
          "type": "uint256[]"
        },
        {
          "internalType": "bytes",
          "name": "data",
          "type": "bytes"
        }
      ],
      "name": "newBatch",
      "outputs": [],
      "stateMutability": "nonpayable",
      "type": "function"
    },
    {
      "inputs": [],
      "name": "owner",
      "outputs": [
        {
          "internalType": "address",
          "name": "",
          "type": "address"
        }
      ],
      "stateMutability": "view",
      "type": "function"
    },
    {
      "inputs": [],
      "name": "renounceOwnership",
      "outputs": [],
      "stateMutability": "nonpayable",
      "type": "function"
    },
    {
      "inputs": [
        {
          "internalType": "address",
          "name": "from",
          "type": "address"
        },
        {
          "internalType": "address",
          "name": "to",
          "type": "address"
        },
        {
          "internalType": "uint256[]",
          "name": "ids",
          "type": "uint256[]"
        },
        {
          "internalType": "uint256[]",
          "name": "amounts",
          "type": "uint256[]"
        },
        {
          "internalType": "bytes",
          "name": "data",
          "type": "bytes"
        }
      ],
      "name": "safeBatchTransferFrom",
      "outputs": [],
      "stateMutability": "nonpayable",
      "type": "function"
    },
    {
      "inputs": [
        {
          "internalType": "address",
          "name": "from",
          "type": "address"
        },
        {
          "internalType": "address",
          "name": "to",
          "type": "address"
        },
        {
          "internalType": "uint256",
          "name": "id",
          "type": "uint256"
        },
        {
          "internalType": "uint256",
          "name": "amount",
          "type": "uint256"
        },
        {
          "internalType": "bytes",
          "name": "data",
          "type": "bytes"
        }
      ],
      "name": "safeTransferFrom",
      "outputs": [],
      "stateMutability": "nonpayable",
      "type": "function"
    },
    {
      "inputs": [
        {
          "internalType": "address",
          "name": "operator",
          "type": "address"
        },
        {
          "internalType": "bool",
          "name": "approved",
          "type": "bool"
        }
      ],
      "name": "setApprovalForAll",
      "outputs": [],
      "stateMutability": "nonpayable",
      "type": "function"
    },
    {
      "inputs": [
        {
          "internalType": "string",
          "name": "newuri",
          "type": "string"
        }
      ],
      "name": "setURI",
      "outputs": [],
      "stateMutability": "nonpayable",
      "type": "function"
    },
    {
      "inputs": [
        {
          "internalType": "bytes4",
          "name": "interfaceId",
          "type": "bytes4"
        }
      ],
      "name": "supportsInterface",
      "outputs": [
        {
          "internalType": "bool",
          "name": "",
          "type": "bool"
        }
      ],
      "stateMutability": "view",
      "type": "function"
    },
    {
      "inputs": [
        {
          "internalType": "uint256",
          "name": "id",
          "type": "uint256"
        }
      ],
      "name": "totalSupply",
      "outputs": [
        {
          "internalType": "uint256",
          "name": "",
          "type": "uint256"
        }
      ],
      "stateMutability": "view",
      "type": "function"
    },
    {
      "inputs": [
        {
          "internalType": "address",
          "name": "newOwner",
          "type": "address"
        }
      ],
      "name": "transferOwnership",
      "outputs": [],
      "stateMutability": "nonpayable",
      "type": "function"
    },
    {
      "inputs": [
        {
          "internalType": "uint256",
          "name": "tokenId",
          "type": "uint256"
        }
      ],
      "name": "uri",
      "outputs": [
        {
          "internalType": "string",
          "name": "",
          "type": "string"
        }
      ],
      "stateMutability": "pure",
      "type": "function"
    }
  ],
  "bytecode": "0x60806040523480156200001157600080fd5b506040518060200160405280600081525062000033816200005a60201b60201c565b5062000054620000486200006f60201b60201c565b6200007760201b60201c565b6200049e565b80600290816200006b9190620003b7565b5050565b600033905090565b6000600360009054906101000a900473ffffffffffffffffffffffffffffffffffffffff16905081600360006101000a81548173ffffffffffffffffffffffffffffffffffffffff021916908373ffffffffffffffffffffffffffffffffffffffff1602179055508173ffffffffffffffffffffffffffffffffffffffff168173ffffffffffffffffffffffffffffffffffffffff167f8be0079c531659141344cd1fd0a4f28419497f9722a3daafe3b4186f6b6457e060405160405180910390a35050565b600081519050919050565b7f4e487b7100000000000000000000000000000000000000000000000000000000600052604160045260246000fd5b7f4e487b7100000000000000000000000000000000000000000000000000000000600052602260045260246000fd5b60006002820490506001821680620001bf57607f821691505b602082108103620001d557620001d462000177565b5b50919050565b60008190508160005260206000209050919050565b60006020601f8301049050919050565b600082821b905092915050565b6000600883026200023f7fffffffffffffffffffffffffffffffffffffffffffffffffffffffffffffffff8262000200565b6200024b868362000200565b95508019841693508086168417925050509392505050565b6000819050919050565b6000819050919050565b600062000298620002926200028c8462000263565b6200026d565b62000263565b9050919050565b6000819050919050565b620002b48362000277565b620002cc620002c3826200029f565b8484546200020d565b825550505050565b600090565b620002e3620002d4565b620002f0818484620002a9565b505050565b5b8181101562000318576200030c600082620002d9565b600181019050620002f6565b5050565b601f82111562000367576200033181620001db565b6200033c84620001f0565b810160208510156200034c578190505b620003646200035b85620001f0565b830182620002f5565b50505b505050565b600082821c905092915050565b60006200038c600019846008026200036c565b1980831691505092915050565b6000620003a7838362000379565b9150826002028217905092915050565b620003c2826200013d565b67ffffffffffffffff811115620003de57620003dd62000148565b5b620003ea8254620001a6565b620003f78282856200031c565b600060209050601f8311600181146200042f57600084156200041a578287015190505b62000426858262000399565b86555062000496565b601f1984166200043f86620001db565b60005b82811015620004695784890151825560018201915060208501945060208101905062000442565b8683101562000489578489015162000485601f89168262000379565b8355505b6001600288020188555050505b505050505050565b61393a80620004ae6000396000f3fe608060405234801561001057600080fd5b50600436106101365760003560e01c8063715018a6116100b8578063bd85b0391161007c578063bd85b0391461033d578063c57649101461036d578063d0bc806c14610389578063e985e9c5146103a7578063f242432a146103d7578063f2fde38b146103f357610136565b8063715018a6146102bd5780638da5cb5b146102c7578063a22cb465146102e5578063a314986514610301578063ab4fdef71461031f57610136565b80632c05a06a116100ff5780632c05a06a146102055780632eb2c2d614610223578063323c59c41461023f5780634e1273f41461025d5780634f558e791461028d57610136565b8062fdd58e1461013b57806301ffc9a71461016b57806302fe53051461019b5780630e89341c146101b757806315ce6291146101e7575b600080fd5b61015560048036038101906101509190612070565b61040f565b60405161016291906120bf565b60405180910390f35b61018560048036038101906101809190612132565b6104d7565b604051610192919061217a565b60405180910390f35b6101b560048036038101906101b091906122db565b6105b9565b005b6101d160048036038101906101cc9190612324565b6105cd565b6040516101de91906123d0565b60405180910390f35b6101ef6105fe565b6040516101fc91906120bf565b60405180910390f35b61020d610603565b60405161021a91906120bf565b60405180910390f35b61023d6004803603810190610238919061255b565b610608565b005b6102476106a9565b60405161025491906120bf565b60405180910390f35b610277600480360381019061027291906126ed565b6106ae565b6040516102849190612823565b60405180910390f35b6102a760048036038101906102a29190612324565b6107c7565b6040516102b4919061217a565b60405180910390f35b6102c56107db565b005b6102cf6107ef565b6040516102dc9190612854565b60405180910390f35b6102ff60048036038101906102fa919061289b565b610819565b005b61030961082f565b60405161031691906120bf565b60405180910390f35b610327610834565b60405161033491906120bf565b60405180910390f35b61035760048036038101906103529190612324565b610839565b60405161036491906120bf565b60405180910390f35b610387600480360381019061038291906128db565b610856565b005b6103916108b8565b60405161039e91906120bf565b60405180910390f35b6103c160048036038101906103bc9190612982565b6108bd565b6040516103ce919061217a565b60405180910390f35b6103f160048036038101906103ec91906129c2565b610951565b005b61040d60048036038101906104089190612a59565b6109f2565b005b60008073ffffffffffffffffffffffffffffffffffffffff168373ffffffffffffffffffffffffffffffffffffffff160361047f576040517f08c379a000000000000000000000000000000000000000000000000000000000815260040161047690612af8565b60405180910390fd5b60008083815260200190815260200160002060008473ffffffffffffffffffffffffffffffffffffffff1673ffffffffffffffffffffffffffffffffffffffff16815260200190815260200160002054905092915050565b60007fd9b67a26000000000000000000000000000000000000000000000000000000007bffffffffffffffffffffffffffffffffffffffffffffffffffffffff1916827bffffffffffffffffffffffffffffffffffffffffffffffffffffffff191614806105a257507f0e89341c000000000000000000000000000000000000000000000000000000007bffffffffffffffffffffffffffffffffffffffffffffffffffffffff1916827bffffffffffffffffffffffffffffffffffffffffffffffffffffffff1916145b806105b257506105b182610a75565b5b9050919050565b6105c1610adf565b6105ca81610b5d565b50565b60606105d882610b70565b6040516020016105e89190612bc6565b6040516020818303038152906040529050919050565b600181565b600381565b610610610c3e565b73ffffffffffffffffffffffffffffffffffffffff168573ffffffffffffffffffffffffffffffffffffffff161480610656575061065585610650610c3e565b6108bd565b5b610695576040517f08c379a000000000000000000000000000000000000000000000000000000000815260040161068c90612c65565b60405180910390fd5b6106a28585858585610c46565b5050505050565b600581565b606081518351146106f4576040517f08c379a00000000000000000000000000000000000000000000000000000000081526004016106eb90612cf7565b60405180910390fd5b6000835167ffffffffffffffff811115610711576107106121b0565b5b60405190808252806020026020018201604052801561073f5781602001602082028036833780820191505090505b50905060005b84518110156107bc5761078c85828151811061076457610763612d17565b5b602002602001015185838151811061077f5761077e612d17565b5b602002602001015161040f565b82828151811061079f5761079e612d17565b5b602002602001018181525050806107b590612d75565b9050610745565b508091505092915050565b6000806107d383610839565b119050919050565b6107e3610adf565b6107ed6000610f67565b565b6000600360009054906101000a900473ffffffffffffffffffffffffffffffffffffffff16905090565b61082b610824610c3e565b838361102d565b5050565b600281565b600481565b600060046000838152602001908152602001600020549050919050565b60018351036108a6576108a1338460008151811061087757610876612d17565b5b60200260200101518460008151811061089357610892612d17565b5b602002602001015184611199565b6108b3565b6108b2338484846111ab565b5b505050565b600081565b6000600160008473ffffffffffffffffffffffffffffffffffffffff1673ffffffffffffffffffffffffffffffffffffffff16815260200190815260200160002060008373ffffffffffffffffffffffffffffffffffffffff1673ffffffffffffffffffffffffffffffffffffffff16815260200190815260200160002060009054906101000a900460ff16905092915050565b610959610c3e565b73ffffffffffffffffffffffffffffffffffffffff168573ffffffffffffffffffffffffffffffffffffffff16148061099f575061099e85610999610c3e565b6108bd565b5b6109de576040517f08c379a00000000000000000000000000000000000000000000000000000000081526004016109d590612c65565b60405180910390fd5b6109eb85858585856111bd565b5050505050565b6109fa610adf565b600073ffffffffffffffffffffffffffffffffffffffff168173ffffffffffffffffffffffffffffffffffffffff1603610a69576040517f08c379a0000000000000000000000000000000000000000000000000000000008152600401610a6090612e2f565b60405180910390fd5b610a7281610f67565b50565b60007f01ffc9a7000000000000000000000000000000000000000000000000000000007bffffffffffffffffffffffffffffffffffffffffffffffffffffffff1916827bffffffffffffffffffffffffffffffffffffffffffffffffffffffff1916149050919050565b610ae7610c3e565b73ffffffffffffffffffffffffffffffffffffffff16610b056107ef565b73ffffffffffffffffffffffffffffffffffffffff1614610b5b576040517f08c379a0000000000000000000000000000000000000000000000000000000008152600401610b5290612e9b565b60405180910390fd5b565b8060029081610b6c91906130c7565b5050565b606060006001610b7f84611458565b01905060008167ffffffffffffffff811115610b9e57610b9d6121b0565b5b6040519080825280601f01601f191660200182016040528015610bd05781602001600182028036833780820191505090505b509050600082602001820190505b600115610c33578080600190039150507f3031323334353637383961626364656600000000000000000000000000000000600a86061a8153600a8581610c2757610c26613199565b5b04945060008503610bde575b819350505050919050565b600033905090565b8151835114610c8a576040517f08c379a0000000000000000000000000000000000000000000000000000000008152600401610c819061323a565b60405180910390fd5b600073ffffffffffffffffffffffffffffffffffffffff168473ffffffffffffffffffffffffffffffffffffffff1603610cf9576040517f08c379a0000000000000000000000000000000000000000000000000000000008152600401610cf0906132cc565b60405180910390fd5b6000610d03610c3e565b9050610d138187878787876115ab565b60005b8451811015610ec4576000858281518110610d3457610d33612d17565b5b602002602001015190506000858381518110610d5357610d52612d17565b5b60200260200101519050600080600084815260200190815260200160002060008b73ffffffffffffffffffffffffffffffffffffffff1673ffffffffffffffffffffffffffffffffffffffff16815260200190815260200160002054905081811015610df4576040517f08c379a0000000000000000000000000000000000000000000000000000000008152600401610deb9061335e565b60405180910390fd5b81810360008085815260200190815260200160002060008c73ffffffffffffffffffffffffffffffffffffffff1673ffffffffffffffffffffffffffffffffffffffff168152602001908152602001600020819055508160008085815260200190815260200160002060008b73ffffffffffffffffffffffffffffffffffffffff1673ffffffffffffffffffffffffffffffffffffffff1681526020019081526020016000206000828254610ea9919061337e565b9250508190555050505080610ebd90612d75565b9050610d16565b508473ffffffffffffffffffffffffffffffffffffffff168673ffffffffffffffffffffffffffffffffffffffff168273ffffffffffffffffffffffffffffffffffffffff167f4a39dc06d4c0dbc64b70af90fd698a233a518aa5d07e595d983b8c0526c8f7fb8787604051610f3b9291906133b2565b60405180910390a4610f518187878787876115c1565b610f5f8187878787876115c9565b505050505050565b6000600360009054906101000a900473ffffffffffffffffffffffffffffffffffffffff16905081600360006101000a81548173ffffffffffffffffffffffffffffffffffffffff021916908373ffffffffffffffffffffffffffffffffffffffff1602179055508173ffffffffffffffffffffffffffffffffffffffff168173ffffffffffffffffffffffffffffffffffffffff167f8be0079c531659141344cd1fd0a4f28419497f9722a3daafe3b4186f6b6457e060405160405180910390a35050565b8173ffffffffffffffffffffffffffffffffffffffff168373ffffffffffffffffffffffffffffffffffffffff160361109b576040517f08c379a00000000000000000000000000000000000000000000000000000000081526004016110929061345b565b60405180910390fd5b80600160008573ffffffffffffffffffffffffffffffffffffffff1673ffffffffffffffffffffffffffffffffffffffff16815260200190815260200160002060008473ffffffffffffffffffffffffffffffffffffffff1673ffffffffffffffffffffffffffffffffffffffff16815260200190815260200160002060006101000a81548160ff0219169083151502179055508173ffffffffffffffffffffffffffffffffffffffff168373ffffffffffffffffffffffffffffffffffffffff167f17307eab39ab6107e8899845ad3d59bd9653f200f220920489ca2b5937696c318360405161118c919061217a565b60405180910390a3505050565b6111a5848484846117a0565b50505050565b6111b784848484611950565b50505050565b600073ffffffffffffffffffffffffffffffffffffffff168473ffffffffffffffffffffffffffffffffffffffff160361122c576040517f08c379a0000000000000000000000000000000000000000000000000000000008152600401611223906132cc565b60405180910390fd5b6000611236610c3e565b9050600061124385611b7c565b9050600061125085611b7c565b90506112608389898585896115ab565b600080600088815260200190815260200160002060008a73ffffffffffffffffffffffffffffffffffffffff1673ffffffffffffffffffffffffffffffffffffffff168152602001908152602001600020549050858110156112f7576040517f08c379a00000000000000000000000000000000000000000000000000000000081526004016112ee9061335e565b60405180910390fd5b85810360008089815260200190815260200160002060008b73ffffffffffffffffffffffffffffffffffffffff1673ffffffffffffffffffffffffffffffffffffffff168152602001908152602001600020819055508560008089815260200190815260200160002060008a73ffffffffffffffffffffffffffffffffffffffff1673ffffffffffffffffffffffffffffffffffffffff16815260200190815260200160002060008282546113ac919061337e565b925050819055508773ffffffffffffffffffffffffffffffffffffffff168973ffffffffffffffffffffffffffffffffffffffff168573ffffffffffffffffffffffffffffffffffffffff167fc3d58168c5ae7397731d063d5bbf3d657854427343f4c083240f7aacaa2d0f628a8a60405161142992919061347b565b60405180910390a461143f848a8a86868a6115c1565b61144d848a8a8a8a8a611bf6565b505050505050505050565b600080600090507a184f03e93ff9f4daa797ed6e38ed64bf6a1f01000000000000000083106114b6577a184f03e93ff9f4daa797ed6e38ed64bf6a1f01000000000000000083816114ac576114ab613199565b5b0492506040810190505b6d04ee2d6d415b85acef810000000083106114f3576d04ee2d6d415b85acef810000000083816114e9576114e8613199565b5b0492506020810190505b662386f26fc10000831061152257662386f26fc10000838161151857611517613199565b5b0492506010810190505b6305f5e100831061154b576305f5e100838161154157611540613199565b5b0492506008810190505b612710831061157057612710838161156657611565613199565b5b0492506004810190505b60648310611593576064838161158957611588613199565b5b0492506002810190505b600a83106115a2576001810190505b80915050919050565b6115b9868686868686611dcd565b505050505050565b505050505050565b6115e88473ffffffffffffffffffffffffffffffffffffffff16611f9d565b15611798578373ffffffffffffffffffffffffffffffffffffffff1663bc197c8187878686866040518663ffffffff1660e01b815260040161162e9594939291906134f9565b6020604051808303816000875af192505050801561166a57506040513d601f19601f820116820180604052508101906116679190613576565b60015b61170f576116766135b0565b806308c379a0036116d2575061168a6135d2565b8061169557506116d4565b806040517f08c379a00000000000000000000000000000000000000000000000000000000081526004016116c991906123d0565b60405180910390fd5b505b6040517f08c379a0000000000000000000000000000000000000000000000000000000008152600401611706906136d4565b60405180910390fd5b63bc197c8160e01b7bffffffffffffffffffffffffffffffffffffffffffffffffffffffff1916817bffffffffffffffffffffffffffffffffffffffffffffffffffffffff191614611796576040517f08c379a000000000000000000000000000000000000000000000000000000000815260040161178d90613766565b60405180910390fd5b505b505050505050565b600073ffffffffffffffffffffffffffffffffffffffff168473ffffffffffffffffffffffffffffffffffffffff160361180f576040517f08c379a0000000000000000000000000000000000000000000000000000000008152600401611806906137f8565b60405180910390fd5b6000611819610c3e565b9050600061182685611b7c565b9050600061183385611b7c565b9050611844836000898585896115ab565b8460008088815260200190815260200160002060008973ffffffffffffffffffffffffffffffffffffffff1673ffffffffffffffffffffffffffffffffffffffff16815260200190815260200160002060008282546118a3919061337e565b925050819055508673ffffffffffffffffffffffffffffffffffffffff16600073ffffffffffffffffffffffffffffffffffffffff168473ffffffffffffffffffffffffffffffffffffffff167fc3d58168c5ae7397731d063d5bbf3d657854427343f4c083240f7aacaa2d0f62898960405161192192919061347b565b60405180910390a4611938836000898585896115c1565b61194783600089898989611bf6565b50505050505050565b600073ffffffffffffffffffffffffffffffffffffffff168473ffffffffffffffffffffffffffffffffffffffff16036119bf576040517f08c379a00000000000000000000000000000000000000000000000000000000081526004016119b6906137f8565b60405180910390fd5b8151835114611a03576040517f08c379a00000000000000000000000000000000000000000000000000000000081526004016119fa9061323a565b60405180910390fd5b6000611a0d610c3e565b9050611a1e816000878787876115ab565b60005b8451811015611ad757838181518110611a3d57611a3c612d17565b5b6020026020010151600080878481518110611a5b57611a5a612d17565b5b6020026020010151815260200190815260200160002060008873ffffffffffffffffffffffffffffffffffffffff1673ffffffffffffffffffffffffffffffffffffffff1681526020019081526020016000206000828254611abd919061337e565b925050819055508080611acf90612d75565b915050611a21565b508473ffffffffffffffffffffffffffffffffffffffff16600073ffffffffffffffffffffffffffffffffffffffff168273ffffffffffffffffffffffffffffffffffffffff167f4a39dc06d4c0dbc64b70af90fd698a233a518aa5d07e595d983b8c0526c8f7fb8787604051611b4f9291906133b2565b60405180910390a4611b66816000878787876115c1565b611b75816000878787876115c9565b5050505050565b60606000600167ffffffffffffffff811115611b9b57611b9a6121b0565b5b604051908082528060200260200182016040528015611bc95781602001602082028036833780820191505090505b5090508281600081518110611be157611be0612d17565b5b60200260200101818152505080915050919050565b611c158473ffffffffffffffffffffffffffffffffffffffff16611f9d565b15611dc5578373ffffffffffffffffffffffffffffffffffffffff1663f23a6e6187878686866040518663ffffffff1660e01b8152600401611c5b959493929190613818565b6020604051808303816000875af1925050508015611c9757506040513d601f19601f82011682018060405250810190611c949190613576565b60015b611d3c57611ca36135b0565b806308c379a003611cff5750611cb76135d2565b80611cc25750611d01565b806040517f08c379a0000000000000000000000000000000000000000000000000000000008152600401611cf691906123d0565b60405180910390fd5b505b6040517f08c379a0000000000000000000000000000000000000000000000000000000008152600401611d33906136d4565b60405180910390fd5b63f23a6e6160e01b7bffffffffffffffffffffffffffffffffffffffffffffffffffffffff1916817bffffffffffffffffffffffffffffffffffffffffffffffffffffffff191614611dc3576040517f08c379a0000000000000000000000000000000000000000000000000000000008152600401611dba90613766565b60405180910390fd5b505b505050505050565b611ddb868686868686611fc0565b600073ffffffffffffffffffffffffffffffffffffffff168573ffffffffffffffffffffffffffffffffffffffff1603611e8c5760005b8351811015611e8a57828181518110611e2e57611e2d612d17565b5b602002602001015160046000868481518110611e4d57611e4c612d17565b5b602002602001015181526020019081526020016000206000828254611e72919061337e565b9250508190555080611e8390612d75565b9050611e12565b505b600073ffffffffffffffffffffffffffffffffffffffff168473ffffffffffffffffffffffffffffffffffffffff1603611f955760005b8351811015611f93576000848281518110611ee157611ee0612d17565b5b602002602001015190506000848381518110611f0057611eff612d17565b5b6020026020010151905060006004600084815260200190815260200160002054905081811015611f65576040517f08c379a0000000000000000000000000000000000000000000000000000000008152600401611f5c906138e4565b60405180910390fd5b818103600460008581526020019081526020016000208190555050505080611f8c90612d75565b9050611ec3565b505b505050505050565b6000808273ffffffffffffffffffffffffffffffffffffffff163b119050919050565b505050505050565b6000604051905090565b600080fd5b600080fd5b600073ffffffffffffffffffffffffffffffffffffffff82169050919050565b600061200782611fdc565b9050919050565b61201781611ffc565b811461202257600080fd5b50565b6000813590506120348161200e565b92915050565b6000819050919050565b61204d8161203a565b811461205857600080fd5b50565b60008135905061206a81612044565b92915050565b6000806040838503121561208757612086611fd2565b5b600061209585828601612025565b92505060206120a68582860161205b565b9150509250929050565b6120b98161203a565b82525050565b60006020820190506120d460008301846120b0565b92915050565b60007fffffffff0000000000000000000000000000000000000000000000000000000082169050919050565b61210f816120da565b811461211a57600080fd5b50565b60008135905061212c81612106565b92915050565b60006020828403121561214857612147611fd2565b5b60006121568482850161211d565b91505092915050565b60008115159050919050565b6121748161215f565b82525050565b600060208201905061218f600083018461216b565b92915050565b600080fd5b600080fd5b6000601f19601f8301169050919050565b7f4e487b7100000000000000000000000000000000000000000000000000000000600052604160045260246000fd5b6121e88261219f565b810181811067ffffffffffffffff82111715612207576122066121b0565b5b80604052505050565b600061221a611fc8565b905061222682826121df565b919050565b600067ffffffffffffffff821115612246576122456121b0565b5b61224f8261219f565b9050602081019050919050565b82818337600083830152505050565b600061227e6122798461222b565b612210565b90508281526020810184848401111561229a5761229961219a565b5b6122a584828561225c565b509392505050565b600082601f8301126122c2576122c1612195565b5b81356122d284826020860161226b565b91505092915050565b6000602082840312156122f1576122f0611fd2565b5b600082013567ffffffffffffffff81111561230f5761230e611fd7565b5b61231b848285016122ad565b91505092915050565b60006020828403121561233a57612339611fd2565b5b60006123488482850161205b565b91505092915050565b600081519050919050565b600082825260208201905092915050565b60005b8381101561238b578082015181840152602081019050612370565b60008484015250505050565b60006123a282612351565b6123ac818561235c565b93506123bc81856020860161236d565b6123c58161219f565b840191505092915050565b600060208201905081810360008301526123ea8184612397565b905092915050565b600067ffffffffffffffff82111561240d5761240c6121b0565b5b602082029050602081019050919050565b600080fd5b6000612436612431846123f2565b612210565b905080838252602082019050602084028301858111156124595761245861241e565b5b835b81811015612482578061246e888261205b565b84526020840193505060208101905061245b565b5050509392505050565b600082601f8301126124a1576124a0612195565b5b81356124b1848260208601612423565b91505092915050565b600067ffffffffffffffff8211156124d5576124d46121b0565b5b6124de8261219f565b9050602081019050919050565b60006124fe6124f9846124ba565b612210565b90508281526020810184848401111561251a5761251961219a565b5b61252584828561225c565b509392505050565b600082601f83011261254257612541612195565b5b81356125528482602086016124eb565b91505092915050565b600080600080600060a0868803121561257757612576611fd2565b5b600061258588828901612025565b955050602061259688828901612025565b945050604086013567ffffffffffffffff8111156125b7576125b6611fd7565b5b6125c38882890161248c565b935050606086013567ffffffffffffffff8111156125e4576125e3611fd7565b5b6125f08882890161248c565b925050608086013567ffffffffffffffff81111561261157612610611fd7565b5b61261d8882890161252d565b9150509295509295909350565b600067ffffffffffffffff821115612645576126446121b0565b5b602082029050602081019050919050565b60006126696126648461262a565b612210565b9050808382526020820190506020840283018581111561268c5761268b61241e565b5b835b818110156126b557806126a18882612025565b84526020840193505060208101905061268e565b5050509392505050565b600082601f8301126126d4576126d3612195565b5b81356126e4848260208601612656565b91505092915050565b6000806040838503121561270457612703611fd2565b5b600083013567ffffffffffffffff81111561272257612721611fd7565b5b61272e858286016126bf565b925050602083013567ffffffffffffffff81111561274f5761274e611fd7565b5b61275b8582860161248c565b9150509250929050565b600081519050919050565b600082825260208201905092915050565b6000819050602082019050919050565b61279a8161203a565b82525050565b60006127ac8383612791565b60208301905092915050565b6000602082019050919050565b60006127d082612765565b6127da8185612770565b93506127e583612781565b8060005b838110156128165781516127fd88826127a0565b9750612808836127b8565b9250506001810190506127e9565b5085935050505092915050565b6000602082019050818103600083015261283d81846127c5565b905092915050565b61284e81611ffc565b82525050565b60006020820190506128696000830184612845565b92915050565b6128788161215f565b811461288357600080fd5b50565b6000813590506128958161286f565b92915050565b600080604083850312156128b2576128b1611fd2565b5b60006128c085828601612025565b92505060206128d185828601612886565b9150509250929050565b6000806000606084860312156128f4576128f3611fd2565b5b600084013567ffffffffffffffff81111561291257612911611fd7565b5b61291e8682870161248c565b935050602084013567ffffffffffffffff81111561293f5761293e611fd7565b5b61294b8682870161248c565b925050604084013567ffffffffffffffff81111561296c5761296b611fd7565b5b6129788682870161252d565b9150509250925092565b6000806040838503121561299957612998611fd2565b5b60006129a785828601612025565b92505060206129b885828601612025565b9150509250929050565b600080600080600060a086880312156129de576129dd611fd2565b5b60006129ec88828901612025565b95505060206129fd88828901612025565b9450506040612a0e8882890161205b565b9350506060612a1f8882890161205b565b925050608086013567ffffffffffffffff811115612a4057612a3f611fd7565b5b612a4c8882890161252d565b9150509295509295909350565b600060208284031215612a6f57612a6e611fd2565b5b6000612a7d84828501612025565b91505092915050565b7f455243313135353a2061646472657373207a65726f206973206e6f742061207660008201527f616c6964206f776e657200000000000000000000000000000000000000000000602082015250565b6000612ae2602a8361235c565b9150612aed82612a86565b604082019050919050565b60006020820190508181036000830152612b1181612ad5565b9050919050565b600081905092915050565b50565b6000612b33600083612b18565b9150612b3e82612b23565b600082019050919050565b6000612b5482612351565b612b5e8185612b18565b9350612b6e81856020860161236d565b80840191505092915050565b7f2e6a736f6e000000000000000000000000000000000000000000000000000000600082015250565b6000612bb0600583612b18565b9150612bbb82612b7a565b600582019050919050565b6000612bd182612b26565b9150612bdd8284612b49565b9150612be882612ba3565b915081905092915050565b7f455243313135353a2063616c6c6572206973206e6f7420746f6b656e206f776e60008201527f6572206f7220617070726f766564000000000000000000000000000000000000602082015250565b6000612c4f602e8361235c565b9150612c5a82612bf3565b604082019050919050565b60006020820190508181036000830152612c7e81612c42565b9050919050565b7f455243313135353a206163636f756e747320616e6420696473206c656e67746860008201527f206d69736d617463680000000000000000000000000000000000000000000000602082015250565b6000612ce160298361235c565b9150612cec82612c85565b604082019050919050565b60006020820190508181036000830152612d1081612cd4565b9050919050565b7f4e487b7100000000000000000000000000000000000000000000000000000000600052603260045260246000fd5b7f4e487b7100000000000000000000000000000000000000000000000000000000600052601160045260246000fd5b6000612d808261203a565b91507fffffffffffffffffffffffffffffffffffffffffffffffffffffffffffffffff8203612db257612db1612d46565b5b600182019050919050565b7f4f776e61626c653a206e6577206f776e657220697320746865207a65726f206160008201527f6464726573730000000000000000000000000000000000000000000000000000602082015250565b6000612e1960268361235c565b9150612e2482612dbd565b604082019050919050565b60006020820190508181036000830152612e4881612e0c565b9050919050565b7f4f776e61626c653a2063616c6c6572206973206e6f7420746865206f776e6572600082015250565b6000612e8560208361235c565b9150612e9082612e4f565b602082019050919050565b60006020820190508181036000830152612eb481612e78565b9050919050565b7f4e487b7100000000000000000000000000000000000000000000000000000000600052602260045260246000fd5b60006002820490506001821680612f0257607f821691505b602082108103612f1557612f14612ebb565b5b50919050565b60008190508160005260206000209050919050565b60006020601f8301049050919050565b600082821b905092915050565b600060088302612f7d7fffffffffffffffffffffffffffffffffffffffffffffffffffffffffffffffff82612f40565b612f878683612f40565b95508019841693508086168417925050509392505050565b6000819050919050565b6000612fc4612fbf612fba8461203a565b612f9f565b61203a565b9050919050565b6000819050919050565b612fde83612fa9565b612ff2612fea82612fcb565b848454612f4d565b825550505050565b600090565b613007612ffa565b613012818484612fd5565b505050565b5b818110156130365761302b600082612fff565b600181019050613018565b5050565b601f82111561307b5761304c81612f1b565b61305584612f30565b81016020851015613064578190505b61307861307085612f30565b830182613017565b50505b505050565b600082821c905092915050565b600061309e60001984600802613080565b1980831691505092915050565b60006130b7838361308d565b9150826002028217905092915050565b6130d082612351565b67ffffffffffffffff8111156130e9576130e86121b0565b5b6130f38254612eea565b6130fe82828561303a565b600060209050601f831160018114613131576000841561311f578287015190505b61312985826130ab565b865550613191565b601f19841661313f86612f1b565b60005b8281101561316757848901518255600182019150602085019450602081019050613142565b868310156131845784890151613180601f89168261308d565b8355505b6001600288020188555050505b505050505050565b7f4e487b7100000000000000000000000000000000000000000000000000000000600052601260045260246000fd5b7f455243313135353a2069647320616e6420616d6f756e7473206c656e6774682060008201527f6d69736d61746368000000000000000000000000000000000000000000000000602082015250565b600061322460288361235c565b915061322f826131c8565b604082019050919050565b6000602082019050818103600083015261325381613217565b9050919050565b7f455243313135353a207472616e7366657220746f20746865207a65726f20616460008201527f6472657373000000000000000000000000000000000000000000000000000000602082015250565b60006132b660258361235c565b91506132c18261325a565b604082019050919050565b600060208201905081810360008301526132e5816132a9565b9050919050565b7f455243313135353a20696e73756666696369656e742062616c616e636520666f60008201527f72207472616e7366657200000000000000000000000000000000000000000000602082015250565b6000613348602a8361235c565b9150613353826132ec565b604082019050919050565b600060208201905081810360008301526133778161333b565b9050919050565b60006133898261203a565b91506133948361203a565b92508282019050808211156133ac576133ab612d46565b5b92915050565b600060408201905081810360008301526133cc81856127c5565b905081810360208301526133e081846127c5565b90509392505050565b7f455243313135353a2073657474696e6720617070726f76616c2073746174757360008201527f20666f722073656c660000000000000000000000000000000000000000000000602082015250565b600061344560298361235c565b9150613450826133e9565b604082019050919050565b6000602082019050818103600083015261347481613438565b9050919050565b600060408201905061349060008301856120b0565b61349d60208301846120b0565b9392505050565b600081519050919050565b600082825260208201905092915050565b60006134cb826134a4565b6134d581856134af565b93506134e581856020860161236d565b6134ee8161219f565b840191505092915050565b600060a08201905061350e6000830188612845565b61351b6020830187612845565b818103604083015261352d81866127c5565b9050818103606083015261354181856127c5565b9050818103608083015261355581846134c0565b90509695505050505050565b60008151905061357081612106565b92915050565b60006020828403121561358c5761358b611fd2565b5b600061359a84828501613561565b91505092915050565b60008160e01c9050919050565b600060033d11156135cf5760046000803e6135cc6000516135a3565b90505b90565b600060443d1061365f576135e4611fc8565b60043d036004823e80513d602482011167ffffffffffffffff8211171561360c57505061365f565b808201805167ffffffffffffffff81111561362a575050505061365f565b80602083010160043d03850181111561364757505050505061365f565b613656826020018501866121df565b82955050505050505b90565b7f455243313135353a207472616e7366657220746f206e6f6e2d4552433131353560008201527f526563656976657220696d706c656d656e746572000000000000000000000000602082015250565b60006136be60348361235c565b91506136c982613662565b604082019050919050565b600060208201905081810360008301526136ed816136b1565b9050919050565b7f455243313135353a204552433131353552656365697665722072656a6563746560008201527f6420746f6b656e73000000000000000000000000000000000000000000000000602082015250565b600061375060288361235c565b915061375b826136f4565b604082019050919050565b6000602082019050818103600083015261377f81613743565b9050919050565b7f455243313135353a206d696e7420746f20746865207a65726f2061646472657360008201527f7300000000000000000000000000000000000000000000000000000000000000602082015250565b60006137e260218361235c565b91506137ed82613786565b604082019050919050565b60006020820190508181036000830152613811816137d5565b9050919050565b600060a08201905061382d6000830188612845565b61383a6020830187612845565b61384760408301866120b0565b61385460608301856120b0565b818103608083015261386681846134c0565b90509695505050505050565b7f455243313135353a206275726e20616d6f756e74206578636565647320746f7460008201527f616c537570706c79000000000000000000000000000000000000000000000000602082015250565b60006138ce60288361235c565b91506138d982613872565b604082019050919050565b600060208201905081810360008301526138fd816138c1565b905091905056fea264697066735822122087f7eb3d2d71223be7b8fb6779e3e2e59c990e93dc27355b0f177e835cb25e8164736f6c63430008110033",
  "linkReferences": {},
  "deployedLinkReferences": {}
}