{
  "_format": "hh-sol-artifact-1",
  "contractName": "createAuctionContract",
  "sourceName": "contracts/oldAuction.sol",
  "abi": [
    {
      "inputs": [
        {
          "internalType": "string",
          "name": "_name",
          "type": "string"
        }
      ],
      "stateMutability": "nonpayable",
      "type": "constructor"
    },
    {
      "anonymous": false,
      "inputs": [
        {
          "indexed": false,
          "internalType": "uint256",
          "name": "auctionIndex",
          "type": "uint256"
        },
        {
          "indexed": false,
          "internalType": "uint256",
          "name": "nftId",
          "type": "uint256"
        },
        {
          "indexed": false,
          "internalType": "address",
          "name": "auctioneer",
          "type": "address"
        }
      ],
      "name": "claimedFunds",
      "type": "event"
    },
    {
      "anonymous": false,
      "inputs": [
        {
          "indexed": false,
          "internalType": "uint256",
          "name": "auctionIndex",
          "type": "uint256"
        },
        {
          "indexed": false,
          "internalType": "uint256",
          "name": "nftId",
          "type": "uint256"
        },
        {
          "indexed": false,
          "internalType": "address",
          "name": "winner",
          "type": "address"
        }
      ],
      "name": "claimedNFT",
      "type": "event"
    },
    {
      "anonymous": false,
      "inputs": [
        {
          "indexed": false,
          "internalType": "uint256",
          "name": "index",
          "type": "uint256"
        },
        {
          "indexed": false,
          "internalType": "address",
          "name": "createCubeContract",
          "type": "address"
        },
        {
          "indexed": false,
          "internalType": "address",
          "name": "weth9",
          "type": "address"
        },
        {
          "indexed": false,
          "internalType": "uint256",
          "name": "nftId",
          "type": "uint256"
        },
        {
          "indexed": false,
          "internalType": "address",
          "name": "auctioneer",
          "type": "address"
        },
        {
          "indexed": false,
          "internalType": "address",
          "name": "currentBidOwner",
          "type": "address"
        },
        {
          "indexed": false,
          "internalType": "uint256",
          "name": "currentBidPrice",
          "type": "uint256"
        },
        {
          "indexed": false,
          "internalType": "uint256",
          "name": "startAuctionTimestamp",
          "type": "uint256"
        },
        {
          "indexed": false,
          "internalType": "uint256",
          "name": "endAuctionTimestamp",
          "type": "uint256"
        },
        {
          "indexed": false,
          "internalType": "uint256",
          "name": "bidCount",
          "type": "uint256"
        }
      ],
      "name": "newAuctions",
      "type": "event"
    },
    {
      "anonymous": false,
      "inputs": [
        {
          "indexed": false,
          "internalType": "uint256",
          "name": "auctionIndex",
          "type": "uint256"
        },
        {
          "indexed": false,
          "internalType": "address",
          "name": "bidder",
          "type": "address"
        },
        {
          "indexed": false,
          "internalType": "uint256",
          "name": "newBid",
          "type": "uint256"
        }
      ],
      "name": "newBidonAuction",
      "type": "event"
    },
    {
      "anonymous": false,
      "inputs": [
        {
          "indexed": false,
          "internalType": "uint256",
          "name": "auctionIndex",
          "type": "uint256"
        },
        {
          "indexed": false,
          "internalType": "uint256",
          "name": "nftId",
          "type": "uint256"
        },
        {
          "indexed": false,
          "internalType": "address",
          "name": "auctioneer",
          "type": "address"
        }
      ],
      "name": "refundedNFT",
      "type": "event"
    },
    {
      "inputs": [
        {
          "internalType": "uint256",
          "name": "_auctionIndex",
          "type": "uint256"
        },
        {
          "internalType": "uint256",
          "name": "_newBid",
          "type": "uint256"
        }
      ],
      "name": "bid",
      "outputs": [
        {
          "internalType": "bool",
          "name": "",
          "type": "bool"
        }
      ],
      "stateMutability": "nonpayable",
      "type": "function"
    },
    {
      "inputs": [
        {
          "internalType": "uint256",
          "name": "_auctionIndex",
          "type": "uint256"
        }
      ],
      "name": "claimFunds",
      "outputs": [],
      "stateMutability": "nonpayable",
      "type": "function"
    },
    {
      "inputs": [
        {
          "internalType": "uint256",
          "name": "_auctionIndex",
          "type": "uint256"
        }
      ],
      "name": "claimNFT",
      "outputs": [],
      "stateMutability": "nonpayable",
      "type": "function"
    },
    {
      "inputs": [
        {
          "internalType": "uint256",
          "name": "_auctionIndex",
          "type": "uint256"
        }
      ],
      "name": "getCurrentBid",
      "outputs": [
        {
          "internalType": "uint256",
          "name": "",
          "type": "uint256"
        }
      ],
      "stateMutability": "view",
      "type": "function"
    },
    {
      "inputs": [
        {
          "internalType": "uint256",
          "name": "_auctionIndex",
          "type": "uint256"
        }
      ],
      "name": "getCurrentBidOwner",
      "outputs": [
        {
          "internalType": "address",
          "name": "",
          "type": "address"
        }
      ],
      "stateMutability": "view",
      "type": "function"
    },
    {
      "inputs": [],
      "name": "index",
      "outputs": [
        {
          "internalType": "uint256",
          "name": "",
          "type": "uint256"
        }
      ],
      "stateMutability": "view",
      "type": "function"
    },
    {
      "inputs": [
        {
          "internalType": "uint256",
          "name": "_auctionIndex",
          "type": "uint256"
        }
      ],
      "name": "isOpen",
      "outputs": [
        {
          "internalType": "bool",
          "name": "",
          "type": "bool"
        }
      ],
      "stateMutability": "view",
      "type": "function"
    },
    {
      "inputs": [],
      "name": "name",
      "outputs": [
        {
          "internalType": "string",
          "name": "",
          "type": "string"
        }
      ],
      "stateMutability": "view",
      "type": "function"
    },
    {
      "inputs": [
        {
          "internalType": "address",
          "name": "_createCubeContract",
          "type": "address"
        },
        {
          "internalType": "address",
          "name": "_weth9",
          "type": "address"
        },
        {
          "internalType": "uint256",
          "name": "_nftId",
          "type": "uint256"
        },
        {
          "internalType": "uint256",
          "name": "_minBid",
          "type": "uint256"
        },
        {
          "internalType": "uint256",
          "name": "_startAuction",
          "type": "uint256"
        },
        {
          "internalType": "uint256",
          "name": "_endAuction",
          "type": "uint256"
        }
      ],
      "name": "newAuction",
      "outputs": [
        {
          "internalType": "uint256",
          "name": "",
          "type": "uint256"
        }
      ],
      "stateMutability": "nonpayable",
      "type": "function"
    },
    {
      "inputs": [
        {
          "internalType": "address",
          "name": "",
          "type": "address"
        },
        {
          "internalType": "address",
          "name": "",
          "type": "address"
        },
        {
          "internalType": "uint256",
          "name": "",
          "type": "uint256"
        },
        {
          "internalType": "bytes",
          "name": "",
          "type": "bytes"
        }
      ],
      "name": "onERC721Received",
      "outputs": [
        {
          "internalType": "bytes4",
          "name": "",
          "type": "bytes4"
        }
      ],
      "stateMutability": "nonpayable",
      "type": "function"
    },
    {
      "inputs": [
        {
          "internalType": "uint256",
          "name": "_auctionIndex",
          "type": "uint256"
        }
      ],
      "name": "refundNFT",
      "outputs": [],
      "stateMutability": "nonpayable",
      "type": "function"
    }
  ],
  "bytecode": "0x608060405260006001553480156200001657600080fd5b5060405162002aa638038062002aa683398181016040528101906200003c9190620001e8565b80600090816200004d919062000484565b50506200056b565b6000604051905090565b600080fd5b600080fd5b600080fd5b600080fd5b6000601f19601f8301169050919050565b7f4e487b7100000000000000000000000000000000000000000000000000000000600052604160045260246000fd5b620000be8262000073565b810181811067ffffffffffffffff82111715620000e057620000df62000084565b5b80604052505050565b6000620000f562000055565b9050620001038282620000b3565b919050565b600067ffffffffffffffff82111562000126576200012562000084565b5b620001318262000073565b9050602081019050919050565b60005b838110156200015e57808201518184015260208101905062000141565b60008484015250505050565b6000620001816200017b8462000108565b620000e9565b905082815260208101848484011115620001a0576200019f6200006e565b5b620001ad8482856200013e565b509392505050565b600082601f830112620001cd57620001cc62000069565b5b8151620001df8482602086016200016a565b91505092915050565b6000602082840312156200020157620002006200005f565b5b600082015167ffffffffffffffff81111562000222576200022162000064565b5b6200023084828501620001b5565b91505092915050565b600081519050919050565b7f4e487b7100000000000000000000000000000000000000000000000000000000600052602260045260246000fd5b600060028204905060018216806200028c57607f821691505b602082108103620002a257620002a162000244565b5b50919050565b60008190508160005260206000209050919050565b60006020601f8301049050919050565b600082821b905092915050565b6000600883026200030c7fffffffffffffffffffffffffffffffffffffffffffffffffffffffffffffffff82620002cd565b620003188683620002cd565b95508019841693508086168417925050509392505050565b6000819050919050565b6000819050919050565b6000620003656200035f620003598462000330565b6200033a565b62000330565b9050919050565b6000819050919050565b620003818362000344565b6200039962000390826200036c565b848454620002da565b825550505050565b600090565b620003b0620003a1565b620003bd81848462000376565b505050565b5b81811015620003e557620003d9600082620003a6565b600181019050620003c3565b5050565b601f8211156200043457620003fe81620002a8565b6200040984620002bd565b8101602085101562000419578190505b620004316200042885620002bd565b830182620003c2565b50505b505050565b600082821c905092915050565b6000620004596000198460080262000439565b1980831691505092915050565b600062000474838362000446565b9150826002028217905092915050565b6200048f8262000239565b67ffffffffffffffff811115620004ab57620004aa62000084565b5b620004b7825462000273565b620004c4828285620003e9565b600060209050601f831160018114620004fc5760008415620004e7578287015190505b620004f3858262000466565b86555062000563565b601f1984166200050c86620002a8565b60005b8281101562000536578489015182556001820191506020850194506020810190506200050f565b8683101562000556578489015162000552601f89168262000446565b8355505b6001600288020188555050505b505050505050565b61252b806200057b6000396000f3fe608060405234801561001057600080fd5b50600436106100a95760003560e01c8063598647f811610071578063598647f8146101665780635db6984e1461019657806366c97d2c146101b257806386b46073146101e2578063da4e364f14610212578063fe5c873a14610242576100a9565b806306fdde03146100ae578063150b7a02146100cc5780631b55e338146100fc5780632986c0e5146101185780634d6861a614610136575b600080fd5b6100b661025e565b6040516100c39190611582565b60405180910390f35b6100e660048036038101906100e19190611781565b6102ec565b6040516100f3919061183f565b60405180910390f35b6101166004803603810190610111919061185a565b610300565b005b61012061055c565b60405161012d9190611896565b60405180910390f35b610150600480360381019061014b919061185a565b610562565b60405161015d91906118cc565b60405180910390f35b610180600480360381019061017b91906118e7565b6105a9565b60405161018d91906118cc565b60405180910390f35b6101b060048036038101906101ab919061185a565b61094f565b005b6101cc60048036038101906101c79190611927565b610c2e565b6040516101d99190611896565b60405180910390f35b6101fc60048036038101906101f7919061185a565b611187565b60405161020991906119c3565b60405180910390f35b61022c6004803603810190610227919061185a565b61121d565b6040516102399190611896565b60405180910390f35b61025c6004803603810190610257919061185a565b611293565b005b6000805461026b90611a0d565b80601f016020809104026020016040519081016040528092919081815260200182805461029790611a0d565b80156102e45780601f106102b9576101008083540402835291602001916102e4565b820191906000526020600020905b8154815290600101906020018083116102c757829003601f168201915b505050505081565b600063150b7a0260e01b9050949350505050565b6002805490508110610347576040517f08c379a000000000000000000000000000000000000000000000000000000000815260040161033e90611a8a565b60405180910390fd5b61035081610562565b15610390576040517f08c379a000000000000000000000000000000000000000000000000000000000815260040161038790611af6565b60405180910390fd5b6000600282815481106103a6576103a5611b16565b5b90600052602060002090600a020190503373ffffffffffffffffffffffffffffffffffffffff168160040160009054906101000a900473ffffffffffffffffffffffffffffffffffffffff1673ffffffffffffffffffffffffffffffffffffffff1614610448576040517f08c379a000000000000000000000000000000000000000000000000000000000815260040161043f90611bb7565b60405180910390fd5b60008160020160009054906101000a900473ffffffffffffffffffffffffffffffffffffffff1690508073ffffffffffffffffffffffffffffffffffffffff1663a9059cbb8360040160009054906101000a900473ffffffffffffffffffffffffffffffffffffffff1684600601546040518363ffffffff1660e01b81526004016104d4929190611bd7565b6020604051808303816000875af11580156104f3573d6000803e3d6000fd5b505050506040513d601f19601f820116820180604052508101906105179190611c2c565b507ffbce8b6fd9a761d9abc22627182400126fe4e5e73abb7cdeb9a76bb0d991ca2d8383600301543360405161054f93929190611c59565b60405180910390a1505050565b60015481565b6000806002838154811061057957610578611b16565b5b90600052602060002090600a020190508060080154421061059e5760009150506105a4565b60019150505b919050565b600060028054905083106105f2576040517f08c379a00000000000000000000000000000000000000000000000000000000081526004016105e990611a8a565b60405180910390fd5b60006002848154811061060857610607611b16565b5b90600052602060002090600a0201905061062184610562565b610660576040517f08c379a000000000000000000000000000000000000000000000000000000000815260040161065790611cdc565b60405180910390fd5b806006015483116106a6576040517f08c379a000000000000000000000000000000000000000000000000000000000815260040161069d90611d6e565b60405180910390fd5b8060040160009054906101000a900473ffffffffffffffffffffffffffffffffffffffff1673ffffffffffffffffffffffffffffffffffffffff163373ffffffffffffffffffffffffffffffffffffffff1603610738576040517f08c379a000000000000000000000000000000000000000000000000000000000815260040161072f90611e00565b60405180910390fd5b60008160020160009054906101000a900473ffffffffffffffffffffffffffffffffffffffff1690508073ffffffffffffffffffffffffffffffffffffffff166323b872dd3330876040518463ffffffff1660e01b815260040161079e93929190611e20565b6020604051808303816000875af11580156107bd573d6000803e3d6000fd5b505050506040513d601f19601f820116820180604052508101906107e19190611c2c565b5060008260090154111561089b578073ffffffffffffffffffffffffffffffffffffffff1663a9059cbb8360050160009054906101000a900473ffffffffffffffffffffffffffffffffffffffff1684600601546040518363ffffffff1660e01b8152600401610852929190611eb6565b6020604051808303816000875af1158015610871573d6000803e3d6000fd5b505050506040513d601f19601f820116820180604052508101906108959190611c2c565b50610943565b6000339050808360050160006101000a81548173ffffffffffffffffffffffffffffffffffffffff021916908373ffffffffffffffffffffffffffffffffffffffff16021790555084836006018190555082600901600081548092919061090190611f0e565b91905055507f8de9f297a296fe6e55bb36ac261b0633e997261ec73adcb2718d4f4c8e969ed086338760405161093993929190611f56565b60405180910390a1505b60019250505092915050565b6002805490508110610996576040517f08c379a000000000000000000000000000000000000000000000000000000000815260040161098d90611a8a565b60405180910390fd5b61099f81610562565b156109df576040517f08c379a00000000000000000000000000000000000000000000000000000000081526004016109d690611af6565b60405180910390fd5b6000600282815481106109f5576109f4611b16565b5b90600052602060002090600a020190503373ffffffffffffffffffffffffffffffffffffffff168160040160009054906101000a900473ffffffffffffffffffffffffffffffffffffffff1673ffffffffffffffffffffffffffffffffffffffff1614610a97576040517f08c379a0000000000000000000000000000000000000000000000000000000008152600401610a8e90611fff565b60405180910390fd5b600073ffffffffffffffffffffffffffffffffffffffff168160050160009054906101000a900473ffffffffffffffffffffffffffffffffffffffff1673ffffffffffffffffffffffffffffffffffffffff1614610b2a576040517f08c379a0000000000000000000000000000000000000000000000000000000008152600401610b219061206b565b60405180910390fd5b60008160010160009054906101000a900473ffffffffffffffffffffffffffffffffffffffff1690508073ffffffffffffffffffffffffffffffffffffffff166323b872dd308460040160009054906101000a900473ffffffffffffffffffffffffffffffffffffffff1685600301546040518463ffffffff1660e01b8152600401610bb893929190611e20565b600060405180830381600087803b158015610bd257600080fd5b505af1158015610be6573d6000803e3d6000fd5b505050507fbc217c4476eb5450fcff153b12a3dc90c68f443236970ed96f85918c65694bbb83836003015433604051610c2193929190611c59565b60405180910390a1505050565b6000610c39876114df565b610c78576040517f08c379a0000000000000000000000000000000000000000000000000000000008152600401610c6f906120d7565b60405180910390fd5b610c81866114df565b610cc0576040517f08c379a0000000000000000000000000000000000000000000000000000000008152600401610cb790612143565b60405180910390fd5b60008411610d03576040517f08c379a0000000000000000000000000000000000000000000000000000000008152600401610cfa906121af565b60405180910390fd5b42831115610d46576040517f08c379a0000000000000000000000000000000000000000000000000000000008152600401610d3d9061221b565b60405180910390fd5b428211610d88576040517f08c379a0000000000000000000000000000000000000000000000000000000008152600401610d7f90612287565b60405180910390fd5b60008790503373ffffffffffffffffffffffffffffffffffffffff168173ffffffffffffffffffffffffffffffffffffffff16636352211e886040518263ffffffff1660e01b8152600401610ddd9190611896565b602060405180830381865afa158015610dfa573d6000803e3d6000fd5b505050506040513d601f19601f82011682018060405250810190610e1e91906122bc565b73ffffffffffffffffffffffffffffffffffffffff1614610e74576040517f08c379a0000000000000000000000000000000000000000000000000000000008152600401610e6b90612335565b60405180910390fd5b8073ffffffffffffffffffffffffffffffffffffffff166323b872dd3330896040518463ffffffff1660e01b8152600401610eb193929190611e20565b600060405180830381600087803b158015610ecb57600080fd5b505af1158015610edf573d6000803e3d6000fd5b5050505060008060405180610140016040528060015481526020018b73ffffffffffffffffffffffffffffffffffffffff1681526020018a73ffffffffffffffffffffffffffffffffffffffff1681526020018981526020013373ffffffffffffffffffffffffffffffffffffffff1681526020018373ffffffffffffffffffffffffffffffffffffffff1681526020018881526020018781526020018681526020016000815250905060028190806001815401808255809150506001900390600052602060002090600a02016000909190919091506000820151816000015560208201518160010160006101000a81548173ffffffffffffffffffffffffffffffffffffffff021916908373ffffffffffffffffffffffffffffffffffffffff16021790555060408201518160020160006101000a81548173ffffffffffffffffffffffffffffffffffffffff021916908373ffffffffffffffffffffffffffffffffffffffff1602179055506060820151816003015560808201518160040160006101000a81548173ffffffffffffffffffffffffffffffffffffffff021916908373ffffffffffffffffffffffffffffffffffffffff16021790555060a08201518160050160006101000a81548173ffffffffffffffffffffffffffffffffffffffff021916908373ffffffffffffffffffffffffffffffffffffffff16021790555060c0820151816006015560e082015181600701556101008201518160080155610120820151816009015550506001600081548092919061112490611f0e565b91905055507facfedbe6b4bc5efc8b75d58e889aedba1881ccd1e94045e060089cec4d9d8e926001548b8b8b33878d8d8d600060405161116d9a99989796959493929190612390565b60405180910390a160015493505050509695505050505050565b600060028054905082106111d0576040517f08c379a00000000000000000000000000000000000000000000000000000000081526004016111c790611a8a565b60405180910390fd5b600282815481106111e4576111e3611b16565b5b90600052602060002090600a020160050160009054906101000a900473ffffffffffffffffffffffffffffffffffffffff169050919050565b60006002805490508210611266576040517f08c379a000000000000000000000000000000000000000000000000000000000815260040161125d90611a8a565b60405180910390fd5b6002828154811061127a57611279611b16565b5b90600052602060002090600a0201600601549050919050565b60028054905081106112da576040517f08c379a00000000000000000000000000000000000000000000000000000000081526004016112d190611a8a565b60405180910390fd5b6112e381610562565b15611323576040517f08c379a000000000000000000000000000000000000000000000000000000000815260040161131a90611af6565b60405180910390fd5b60006002828154811061133957611338611b16565b5b90600052602060002090600a020190503373ffffffffffffffffffffffffffffffffffffffff168160050160009054906101000a900473ffffffffffffffffffffffffffffffffffffffff1673ffffffffffffffffffffffffffffffffffffffff16146113db576040517f08c379a00000000000000000000000000000000000000000000000000000000081526004016113d29061249e565b60405180910390fd5b60008160010160009054906101000a900473ffffffffffffffffffffffffffffffffffffffff1690508073ffffffffffffffffffffffffffffffffffffffff166323b872dd308460050160009054906101000a900473ffffffffffffffffffffffffffffffffffffffff1685600301546040518463ffffffff1660e01b8152600401611469939291906124be565b600060405180830381600087803b15801561148357600080fd5b505af1158015611497573d6000803e3d6000fd5b505050507fc50a06ca126163792c7b343bdc65ad6c84b1f48337abd276d6d8dd0f9bbeb1f7838360030154336040516114d293929190611c59565b60405180910390a1505050565b600080823b905060008111915050919050565b600081519050919050565b600082825260208201905092915050565b60005b8381101561152c578082015181840152602081019050611511565b60008484015250505050565b6000601f19601f8301169050919050565b6000611554826114f2565b61155e81856114fd565b935061156e81856020860161150e565b61157781611538565b840191505092915050565b6000602082019050818103600083015261159c8184611549565b905092915050565b6000604051905090565b600080fd5b600080fd5b600073ffffffffffffffffffffffffffffffffffffffff82169050919050565b60006115e3826115b8565b9050919050565b6115f3816115d8565b81146115fe57600080fd5b50565b600081359050611610816115ea565b92915050565b6000819050919050565b61162981611616565b811461163457600080fd5b50565b60008135905061164681611620565b92915050565b600080fd5b600080fd5b7f4e487b7100000000000000000000000000000000000000000000000000000000600052604160045260246000fd5b61168e82611538565b810181811067ffffffffffffffff821117156116ad576116ac611656565b5b80604052505050565b60006116c06115a4565b90506116cc8282611685565b919050565b600067ffffffffffffffff8211156116ec576116eb611656565b5b6116f582611538565b9050602081019050919050565b82818337600083830152505050565b600061172461171f846116d1565b6116b6565b9050828152602081018484840111156117405761173f611651565b5b61174b848285611702565b509392505050565b600082601f8301126117685761176761164c565b5b8135611778848260208601611711565b91505092915050565b6000806000806080858703121561179b5761179a6115ae565b5b60006117a987828801611601565b94505060206117ba87828801611601565b93505060406117cb87828801611637565b925050606085013567ffffffffffffffff8111156117ec576117eb6115b3565b5b6117f887828801611753565b91505092959194509250565b60007fffffffff0000000000000000000000000000000000000000000000000000000082169050919050565b61183981611804565b82525050565b60006020820190506118546000830184611830565b92915050565b6000602082840312156118705761186f6115ae565b5b600061187e84828501611637565b91505092915050565b61189081611616565b82525050565b60006020820190506118ab6000830184611887565b92915050565b60008115159050919050565b6118c6816118b1565b82525050565b60006020820190506118e160008301846118bd565b92915050565b600080604083850312156118fe576118fd6115ae565b5b600061190c85828601611637565b925050602061191d85828601611637565b9150509250929050565b60008060008060008060c08789031215611944576119436115ae565b5b600061195289828a01611601565b965050602061196389828a01611601565b955050604061197489828a01611637565b945050606061198589828a01611637565b935050608061199689828a01611637565b92505060a06119a789828a01611637565b9150509295509295509295565b6119bd816115d8565b82525050565b60006020820190506119d860008301846119b4565b92915050565b7f4e487b7100000000000000000000000000000000000000000000000000000000600052602260045260246000fd5b60006002820490506001821680611a2557607f821691505b602082108103611a3857611a376119de565b5b50919050565b7f496e76616c69642061756374696f6e20696e6465780000000000000000000000600082015250565b6000611a746015836114fd565b9150611a7f82611a3e565b602082019050919050565b60006020820190508181036000830152611aa381611a67565b9050919050565b7f41756374696f6e206973207374696c6c206f70656e0000000000000000000000600082015250565b6000611ae06015836114fd565b9150611aeb82611aaa565b602082019050919050565b60006020820190508181036000830152611b0f81611ad3565b9050919050565b7f4e487b7100000000000000000000000000000000000000000000000000000000600052603260045260246000fd5b7f4f6e6c792041756374696f6e2063726561746f722063616e20636c61696d206660008201527f756e647300000000000000000000000000000000000000000000000000000000602082015250565b6000611ba16024836114fd565b9150611bac82611b45565b604082019050919050565b60006020820190508181036000830152611bd081611b94565b9050919050565b6000604082019050611bec60008301856119b4565b611bf96020830184611887565b9392505050565b611c09816118b1565b8114611c1457600080fd5b50565b600081519050611c2681611c00565b92915050565b600060208284031215611c4257611c416115ae565b5b6000611c5084828501611c17565b91505092915050565b6000606082019050611c6e6000830186611887565b611c7b6020830185611887565b611c8860408301846119b4565b949350505050565b7f41756374696f6e206973206e6f74206f70656e00000000000000000000000000600082015250565b6000611cc66013836114fd565b9150611cd182611c90565b602082019050919050565b60006020820190508181036000830152611cf581611cb9565b9050919050565b7f4e657720626964207072696365206d757374206265206869676865722074686160008201527f6e207468652063757272656e7420626964000000000000000000000000000000602082015250565b6000611d586031836114fd565b9150611d6382611cfc565b604082019050919050565b60006020820190508181036000830152611d8781611d4b565b9050919050565b7f43726561746f72206f66207468652061756374696f6e2063616e6e6f7420706c60008201527f616365206e657720626964000000000000000000000000000000000000000000602082015250565b6000611dea602b836114fd565b9150611df582611d8e565b604082019050919050565b60006020820190508181036000830152611e1981611ddd565b9050919050565b6000606082019050611e3560008301866119b4565b611e4260208301856119b4565b611e4f6040830184611887565b949350505050565b6000819050919050565b6000611e7c611e77611e72846115b8565b611e57565b6115b8565b9050919050565b6000611e8e82611e61565b9050919050565b6000611ea082611e83565b9050919050565b611eb081611e95565b82525050565b6000604082019050611ecb6000830185611ea7565b611ed86020830184611887565b9392505050565b7f4e487b7100000000000000000000000000000000000000000000000000000000600052601160045260246000fd5b6000611f1982611616565b91507fffffffffffffffffffffffffffffffffffffffffffffffffffffffffffffffff8203611f4b57611f4a611edf565b5b600182019050919050565b6000606082019050611f6b6000830186611887565b611f7860208301856119b4565b611f856040830184611887565b949350505050565b7f546f6b656e732063616e20626520636c61696d6564206f6e6c7920627920746860008201527f652063726561746f72206f66207468652061756374696f6e0000000000000000602082015250565b6000611fe96038836114fd565b9150611ff482611f8d565b604082019050919050565b6000602082019050818103600083015261201881611fdc565b9050919050565b7f4578697374696e6720626964657220666f7220746869732061756374696f6e00600082015250565b6000612055601f836114fd565b91506120608261201f565b602082019050919050565b6000602082019050818103600083015261208481612048565b9050919050565b7f496e76616c696420636f6e747261637420616464726573730000000000000000600082015250565b60006120c16018836114fd565b91506120cc8261208b565b602082019050919050565b600060208201905081810360008301526120f0816120b4565b9050919050565b7f496e7661696c6420636f6e747261637420616464726573730000000000000000600082015250565b600061212d6018836114fd565b9150612138826120f7565b602082019050919050565b6000602082019050818103600083015261215c81612120565b9050919050565b7f496e76616c6964206d696e696d756d2062696400000000000000000000000000600082015250565b60006121996013836114fd565b91506121a482612163565b602082019050919050565b600060208201905081810360008301526121c88161218c565b9050919050565b7f496e76616c69642073746172742061756374696f6e2074696d657374616d7000600082015250565b6000612205601f836114fd565b9150612210826121cf565b602082019050919050565b60006020820190508181036000830152612234816121f8565b9050919050565b7f496e7661696420656e642061756374696f6e2074696d657374616d7000000000600082015250565b6000612271601c836114fd565b915061227c8261223b565b602082019050919050565b600060208201905081810360008301526122a081612264565b9050919050565b6000815190506122b6816115ea565b92915050565b6000602082840312156122d2576122d16115ae565b5b60006122e0848285016122a7565b91505092915050565b7f596f7520617265206e6f7420746865206f776e6572206f6620746865204e4654600082015250565b600061231f6020836114fd565b915061232a826122e9565b602082019050919050565b6000602082019050818103600083015261234e81612312565b9050919050565b6000819050919050565b600061237a61237561237084612355565b611e57565b611616565b9050919050565b61238a8161235f565b82525050565b6000610140820190506123a6600083018d611887565b6123b3602083018c6119b4565b6123c0604083018b6119b4565b6123cd606083018a611887565b6123da60808301896119b4565b6123e760a0830188611ea7565b6123f460c0830187611887565b61240160e0830186611887565b61240f610100830185611887565b61241d610120830184612381565b9b9a5050505050505050505050565b7f4f6e6c7920686967686573742063757272656e74206269646465722063616e2060008201527f636c61696d204e46540000000000000000000000000000000000000000000000602082015250565b60006124886029836114fd565b91506124938261242c565b604082019050919050565b600060208201905081810360008301526124b78161247b565b9050919050565b60006060820190506124d360008301866119b4565b6124e06020830185611ea7565b6124ed6040830184611887565b94935050505056fea2646970667358221220d030a3c0eaf227613e0d3804b4431e2f076ca098333975905925b59b545b810a64736f6c63430008110033",
  "linkReferences": {},
  "deployedLinkReferences": {}
}